:100000000AC100000C9478110C94A9110C94DA1117
:100010000C940B120C943C120C946D120C949E12C6
:100020000C94CF1225C1000023C1000021C10000A3
:100030001FC100001DC100001BC1000019C100004C
:1000400017C1000015C1000013C1000011C100005C
:1000500040C600000DC100000BC100000C9400134D
:1000600007C100000C9426150C946A1601C100000B
:10007000FFC00000FDC00000FBC00000F9C0000090
:10008000F7C00000F5C00000F3C00000F1C00000A0
:100090000C9466150C94A916EBC00000E9C0000092
:1000A000E7C00000E5C00000E3C00000E1C00000C0
:1000B000DFC00000DDC00000DBC00000D9C00000D0
:1000C000D7C00000D5C00000D3C000000C94A61516
:1000D0000C94E816CDC000000C94E6150C9427177C
:1000E000C7C0000000002100240027002A002D00C6
:1000F0003000330001010000040107010A01000083
:100100002200250028002B002E00310034000201BF
:100110000000050108010B0100002000230026005B
:1001200029002C002F00320000010000030106010D
:10013000090105050505070508080808020202026D
:100140000A0A080804040404010101010101010173
:100150000303030303030303040707070C0C0C0C3E
:100160000C0C0C0C02020202060606060606060627
:100170000B0B0B0B0B0B0B0B0102102020080810B4
:100180002040102040800201020108040201010207
:1001900004081020408080402010080402018004E0
:1001A000020180402010080402010804020101023B
:1001B0000408102040800102040810204080000044
:1001C000090A02080B0C0D070603040100000000D9
:1001D000000000000000000000000000000000001F
:1001E0000000000000000000000011100F000000DF
:1001F00000000000000000000000000000000000FF
:1002000000000000C1014207A4074B0A9E0BA90B86
:10021000FF0B9618D81911241FBECFEFD1E2DEBF15
:10022000CDBF00E00CBF12E0A0E0B2E0E0ECF6E3EE
:1002300000E00BBF02C007900D92A035B107D9F7BF
:100240001BBE17E0A0E5B2E001C01D92AB34B107C0
:10025000E1F712E0C6E1D2E004C02297FE010E945D
:100260005A1BC430D107C9F70E943D1A0C945E1B7B
:10027000C7CE2091A1023091A2022F5F3F4F309351
:10028000A2022093A1028091A4028F5F8093A40216
:100290009091A5029F5F9093A5028B3F18F08AEF83
:1002A0008093A4029B3F18F08AEF8093A502285EFA
:1002B000334060F081E08093A3021092A20210927A
:1002C000A1028091D7038F5F8093D7038091D703DA
:1002D0008C3358F08091D9039091DA030196909372
:1002E000DA038093D9031092D703089580917F0297
:1002F000882381F09091A40280911402891750F410
:1003000010927F02109282021092810210927D025E
:1003100010927B0280918002882381F09091A50247
:1003200080911402891750F4109280021092840276
:100330001092830210927E0210927C028091A4029D
:10034000893C68F0109282021092810210927D0224
:1003500010927B028091D8038E7F8093D803809186
:10036000A502893C68F010928402109283021092D8
:100370007E0210927C028091D8038D7F8093D803F7
:1003800008950F9382E394E060E040E020E000E015
:100390000E94CC1980E592E060EC48EA20E001EB95
:1003A0000E94CC1986E592E060EC48EA20E00FEF6D
:1003B0000E94CC198CE592E00E94E60C0F91089502
:1003C0001092A5028091D80382608093D803809117
:1003D00080028431D0F4809110020E94F614892B9F
:1003E00081F521E030E00090800202C0220F331F2F
:1003F0000A94E2F78091850290918602822B932BDA
:1004000090938602809385021CC0843159F48091B8
:1004100010020E94F61410927E02892B19F481E0DA
:1004200080937E0280918002873159F4809110027E
:100430000E94F61410927C02892B19F481E08093BB
:100440007C02809180028F5F80938002883170F0FF
:10045000809185029091860290938402809383021A
:1004600010928002109286021092850208951092D6
:10047000A4028091D80381608093D80380917F0289
:100480008431D0F480910C020E94F614892B81F5FE
:1004900021E030E000907F0202C0220F331F0A9457
:1004A000E2F78091870290918802822B932B9093A0
:1004B0008802809387021CC0843159F480910C0219
:1004C0000E94F61410927D02892B19F481E080932A
:1004D0007D0280917F02873159F480910C020E9445
:1004E000F61410927B02892B19F481E080937B0231
:1004F00080917F028F5F80937F02883170F08091BE
:1005000087029091880290938202809381021092D8
:100510007F0210928802109287020895DF93CF9392
:1005200000D000D0CDB7DEB78091C702E82FF0E051
:10053000EE0FFF1FEA55FD4F8081813009F001C1A8
:100540008181813069F48093CC021092CD021092A7
:10055000CE028093CF0281E48093D00286E090C0E7
:100560008230C1F481E88093CC021092CD021092C7
:10057000CE0283E08093CF028091D3038093D00298
:100580008091D1038093D1028091D2038093D202D3
:1005900088E076C08330A1F585E88093CC02109284
:1005A000CD021092CE028AE08093CF0280917B022E
:1005B0008093D00280917D028093D102809181024C
:1005C000909182028093D2029093D30280917C0218
:1005D0008093D40280917E028093D5028091830221
:1005E000909184028093D6029093D7021092D80201
:1005F0001092D9028091D8038093DA0280E140C042
:10060000843009F03FC083E88093CC021092CD0281
:100610001092CE0280910304482F50E0440F551FE2
:10062000440F551F4093CF028BED93E09093080445
:10063000809307041092D6031092D50311C0E09165
:100640000704F0910804819116968C93F0930804A6
:10065000E09307042F5F3F4F3093D6032093D503D9
:100660002091D5033091D603D901A653BD4F24174D
:1006700035072CF38091D80316968C93822F8A5FCE
:100680008093C9028DE492E09A8389838091580215
:1006900090915902A0915A02B0915B028B839C8386
:1006A000AD83BE8340910602509107028CE592E033
:1006B000BE016F5F7F4F0E94DF0C1092D603109235
:1006C000D5031092C8021CC0A230B1054CF0FD0148
:1006D000E653FD4F8091C8029081890F8093C80234
:1006E000A653BD4F8CE592E06C910E94D50B809192
:1006F000D5039091D60301969093D6038093D503AA
:10070000A091D503B091D6038091C90290E08A17D9
:100710009B07D4F68CE592E06091C8020E94D50B4D
:100720008CE592E00E94DC0C8091C702E82FF0E09B
:10073000EE0FFF1FEA55FD4F10828F5F8F70809381
:10074000C70226960FB6F894DEBF0FBECDBFCF917D
:10075000DF9108950F931F93DF93CF9300D000D0C4
:10076000CDB7DEB780910C0261E00E94C414809185
:100770000E0261E00E94C41480910C0260E00E94AD
:10078000111480910E0260E00E94111480911002F9
:1007900061E00E94C4148091120261E00E94C414BE
:1007A0008091100260E00E9411148091120260E0BA
:1007B0000E94111485E067E372E042E050E00E947D
:1007C000FC1084E060EE71E042E050E00E94FC101A
:1007D00008E314E0C80148EE53E060E070E018D38D
:1007E000C80169E371E02FEF3FEF4FEF5FEF16D3E2
:1007F0008091080261E00E94111480910A0260E079
:100800000E9411148EE261E00E94111480E361E005
:100810000E94111485E361E00E9411148DE492E0BE
:100820009A8389838091520290915302A09154023D
:10083000B09155028B839C83AD83BE8382E594E0A7
:1008400060E072E0AE014F5F5F4F41D760910602FA
:10085000709107028CE592E00E947B0D8DEB96E093
:1008600040E855E260E070E00E94661764EF71E0D6
:1008700080E090E00E94561383E98093CA028AE6E2
:100880008093CB021092CC021092CD021092CE0235
:1008900026960FB6F894DEBF0FBECDBFCF91DF9185
:1008A0001F910F910895CF93DF938CE592E00E9402
:1008B000700CEC01009709F4D1C18CE592E069E875
:1008C00072E048E150E0C0D71092D6031092D503F1
:1008D0001092CE031092CA031092CD0332E041E091
:1008E0006BED73E054E0A7C1E757FD4F9081909303
:1008F000CC032091CA032230A1F48091CD03813032
:1009000009F0A2C19093CB031092CE03109204047D
:1009100008C09093D10305C09093D20302C0909376
:10092000D4039A3621F4213011F43093CA03809114
:10093000CA03813011F41092CA03933931F48091C3
:10094000CA03882311F44093CA032091CB032130BA
:1009500009F07FC08091CD03882309F4EAC081307B
:1009600009F481C0853019F490930504E2C0863003
:1009700009F0DFC08091CE03891709F0DAC08091B9
:1009800005048234F9F41092CA031092CD03109238
:10099000D0038091C602E82FF0E0EE0FFF1FEA556A
:1009A000FD4F208331838F5F8F70E82FF0E0EE0FD3
:1009B000FF1FEA55FD4F208351838F5F8F70809317
:1009C000C602B7C08334B9F41092CA031092CD03A3
:1009D0001092D0038091C602E82FF0E0EE0FFF1FC7
:1009E000EA55FD4F208331838F5F8F708093C6025D
:1009F000209306049EC0843481F41092CA0310929E
:100A0000CD031092D0038091C602E82FF0E0EE0FE4
:100A1000FF1FEA55FD4F208314C0853409F089C0BB
:100A20001092CA031092CD031092D0031092CF03FC
:100A30008091C602E82FF0E0EE0FFF1FEA55FD4F50
:100A4000408331838F5F8F708093C60210920604BB
:100A500070C0223009F06DC08091CD03882309F465
:100A600068C0813019F48093D00363C0853008F4E6
:100A700060C020910404E22FF0E0E75FFB4F908319
:100A80008091CE03891709F04FC08091D4032817B5
:100A900009F04AC070930804609307041092D603CB
:100AA0001092D5031AC0E0910704F0910804A75FE3
:100AB000BB4F8C918083809107049091080401962C
:100AC00090930804809307048091D5039091D603F6
:100AD00001969093D6038093D503A091D503B0914E
:100AE000D6038091D40390E0A817B907E4F280916F
:100AF000040490E0959587959595879580930304D8
:100B00001092CA031092CD031092D0038091C602B6
:100B1000E82FF0E0EE0FFF1FEA55FD4F40833183D1
:100B20008F5F8F708093C602809104048F5F8093E3
:100B300004048091CB03823809F052C08091CD0328
:100B4000882309F44DC0813019F48093D00348C044
:100B5000853029F48091CC038093770241C08630A0
:100B600029F48091CC03809378023AC0873029F42D
:100B70008091CC038093790233C0883099F49091AE
:100B8000CC0390937A0280917702809358028091EF
:100B90007802809359028091790280935A0290934F
:100BA0005B021EC08930E1F49091CE038091CC03AA
:100BB0009817B1F44093CF031092CA031092CD035B
:100BC0001092D0038091C602E82FF0E0EE0FFF1FD5
:100BD000EA55FD4F408331838F5F8F708093C6024B
:100BE0002091CD03222339F08091CE039091CC0344
:100BF000890F8093CE038091CA03823051F4213053
:100C000041F48091D003882321F41092CA031092FA
:100C1000CD038091CA03823028F08091CD038F5F8D
:100C20008093CD038091D5039091D6030196909344
:100C3000D6038093D503E091D503F091D603EC174A
:100C4000FD070CF451CE0AC0823009F462CE833025
:100C500009F462CE843009F064CE61CEDF91CF9189
:100C6000089544DB20DE8091A302882389F185B1B9
:100C7000805885B980910B0198E0892780930B01FA
:100C800080910B0192E0892780930B011092A302BF
:100C90009091CF03992359F48091C602E82FF0E098
:100CA000EE0FFF1FEA55FD4F91E090830CC091308D
:100CB00079F48091C602E82FF0E0EE0FFF1FEA55AD
:100CC000FD4F908393E091838F5F8F708093C60276
:100CD00025CC1F920F920FB60F920BB60F921124D4
:100CE0002F933F934F935F936F937F938F939F9334
:100CF000AF93BF93EF93FF93E0913C04F0913D04D9
:100D00001995FF91EF91BF91AF919F918F917F9135
:100D10006F915F914F913F912F910F900BBE0F906C
:100D20000FBE0F901F901895FC01A3E0440F551FB4
:100D3000661F771FAA95D1F7403080E0580781E001
:100D4000680780E0780714F481E010C033E07595FF
:100D50006795579547953A95D1F7403080E0580709
:100D600081E0680780E078071CF482E0828339C064
:100D700023E075956795579547952A95D1F74030AB
:100D800080E0580781E0680780E0780714F483E08A
:100D9000EDCF92E075956795579547959A95D1F760
:100DA000403080E0580781E0680780E0780714F45D
:100DB00084E0DCCF82E075956795579547958A95D5
:100DC000D1F7403080E0580781E0680780E078077D
:100DD00014F485E0CBCF85E082834FEF5FEF60E0D6
:100DE00070E08FB78383F8945183408350938700DA
:100DF0004093860083818FBF80918100887F80939C
:100E00008100809181009281892B809381000895D7
:100E10001092800020E12093810086CF0F931F93D2
:100E2000CF93DF93EC018B011216130614061506FF
:100E30001CF4BA01A90178DF1D830C8381E0809343
:100E40006F00809181009A81892B80938100DF91CE
:100E5000CF911F910F91089585E361E00E94C41422
:100E600085E361E00E9411148CB580618CBD8CB566
:100E700080648CBD84E361E00E94111483E361E02F
:100E80000C9411140F938EE394E060E040E020E0B6
:100E900000E00E94CC190F9108959C01FB01828112
:100EA0009381A481B581F90182839383A483B5835F
:100EB000178216820895CF93DF93FB0101C031960C
:100EC00080818823E1F7EB01A0E0B0E020E030E092
:100ED00021C06E3261F42F3F310509F07CF5FA0133
:100EE000EA0FFB1F2283119620E030E012C0C901F7
:100EF000E3E0880F991FEA95E1F7220F331F820F75
:100F0000931F262F332727FD309520533040280F7D
:100F1000391F21966881662319F0A430B105CCF2FF
:100F20002F3F310509F054F4A430B1053CF4A40F6F
:100F3000B51F12962C9321E030E002C020E030E093
:100F4000C901DF91CF9108950F9384E494E060E0AC
:100F500040E020E000E00E94CC190F9108952F920C
:100F60003F924F925F926F927F928F929F92AF9239
:100F7000BF92CF92DF92EF92FF920F931F93DF9376
:100F8000CF93CDB7DEB769970FB6F894DEBF0FBE2B
:100F9000CDBF4C018B011A010E9448132B013C016B
:100FA000F8E0EF2EF12CE80CF91C5801CC24DD24DC
:100FB00014C00E9448136419750986099709A6167A
:100FC000B706C806D90618F42FEF3FEFF8C062E362
:100FD00070E080E090E00E945613C70181D418169B
:100FE00019063CF7F4012281338144815581818DBA
:100FF000928DA38DB48D8A879B87AC87BD87281778
:1010000039074A075B0709F0D8C0858D968DC597CB
:1010100009F0D3C0EEC08E01025F1F4FC701B801B7
:101020004CE050E011D4F801528143815B834A8344
:10103000F401268137818E859F852817390711F4A1
:1010400057FD05C0C701C9D32CEF3FEFB8C04F70A3
:101050005270452B29F0C701C0D32BEF3FEFAFC033
:10106000F801768067806114710441F0AA24BB24E2
:1010700048012E010894411C511C24C0C701ADD366
:101080002AEF3FEF9CC0C701B20141E050E0DCD342
:101090008981882319F407C0C701F8D38981815059
:1010A00089838F5FC9F78981882369F700E010E0A1
:1010B000C701ECD30F5F1F4F04301105C9F7089427
:1010C000A11CB11CF401D480C580AC14BD04D8F2BD
:1010D00044245524C701BE016F5F7F4F41E050E0BB
:1010E000B3D39981892F807C59F4992319F40BC0CB
:1010F000C701CCD38981815089838F5FC9F703C031
:10110000C701C4D319828981882321F7C701BE0191
:101110006C5F7F4F42E050E097D3C701BE016A5F2A
:101120007F4F42E050E090D300E010E0C701AED323
:101130000F5F1F4F04301105C9F7C701BE016E5F75
:101140007F4F42E050E080D3DC80CD80F1E0CF16CD
:10115000D10401F5BE80AF8081E0A816B104D1F4BE
:101160009A818B81049729F0C70137D327EF3FEF8E
:1011700026C0E2E0F0E02E0E3F1EC701B10144E0C0
:1011800050E062D321E030E01AC0C7017FD30F5F87
:101190001F4F02C000E010E09A808B8008151905EF
:1011A000A0F30894411C511C4614570408F492CF34
:1011B000C70113D326EF3FEF02C02EEF3FEFC90167
:1011C00069960FB6F894DEBF0FBECDBFCF91DF9109
:1011D0001F910F91FF90EF90DF90CF90BF90AF9055
:1011E0009F908F907F906F905F904F903F902F9047
:1011F00008958DE492E099878887C701D2D20C9731
:101200000CF009CF2DEF3FEFDACF6F927F928F92E4
:101210009F92AF92BF92CF92DF92EF92FF920F9385
:101220001F93DF93CF9300D0CDB7DEB78C01F62E9E
:10123000E72E0E944813F80177836683B8E0CB2E2F
:10124000D12CC00ED11E0A5F1F4FC601B80142E06B
:1012500050E098D381E090E09B838A83A2E08A2EBD
:10126000912C8C0E9D1EC601B40142E050E08AD341
:1012700080E091E09B838A83C601B40142E050E0A4
:1012800081D31B821A82C601B40142E050E07AD3B6
:10129000C601B40142E050E075D3C601B40142E09A
:1012A00050E070D32F2D3E2DC9018C017C013E01F1
:1012B0000894611C711C1EC00894E11CF11CF7010C
:1012C0008081882311F08E32B9F75701A01AB10A34
:1012D0001A141B0464F48E2D801B8983C601B3018C
:1012E00041E050E04FD3C601B801A5014BD38701BF
:1012F0000F5F1F4FF7018081882311F07801DFCF46
:101300001982C601BE016F5F7F4F41E050E03AD3C2
:1013100000E011E01B830A83C601B40142E050E003
:1013200031D31B830A83C601B40142E050E02AD3C3
:1013300081E090E00F900F900F90CF91DF911F917F
:101340000F91FF90EF90DF90CF90BF90AF909F9064
:101350008F907F906F9008958F929F92AF92BF92DF
:10136000CF92DF92EF92FF920F931F93DF93CF9371
:1013700000D000D0CDB7DEB76C017B014A019BDD08
:10138000892B19F001E010E061C0F6012281338160
:10139000448155818091460490914704A09148046E
:1013A000B0914904281739074A075B0719F40EEF73
:1013B0001FEF4CC018E0A12EB12CAC0CBD1C0E943C
:1013C00048139B01AC012F70307020503C4FC50179
:1013D000B90191D3813019F000E010E037C08DE4FD
:1013E00092E09A838983F60182819381A481B581F9
:1013F0008B839C83AD83BE83C501BE016F5F7F4F2E
:1014000045E350E0DCD28C010097F1F0C601B70152
:10141000FCDE8C010097C1F0C501CED28C01009793
:1014200099F0EE24FF24C60168E873E1A40197DD7A
:101430008C010894E11CF11CF3E0EF16F10421F09B
:101440008FEF0F3F180779F3C50141D3C8012696E6
:101450000FB6F894DEBF0FBECDBFCF91DF911F91C5
:101460000F91FF90EF90DF90CF90BF90AF909F9043
:101470008F900895DB01FC012DE432E0318320835D
:1014800012962D913D914D915C9115972283338356
:101490004483558308950F938AE594E060E040E02B
:1014A00020E000E00E94CC1982E594E00E94331A0B
:1014B0000F9108956F927F928F929F92AF92BF92F9
:1014C000CF92DF92EF92FF920F931F933C015B014B
:1014D0006A01490184E794E061D689E090E0B501B2
:1014E00046E050E095D482E090E0C80ED91E8FE02F
:1014F00090E0B60144E050E08BD40E5F1F4F81E0D6
:1015000090E0B80144E050E083D4E2E0F0E0EE0E79
:10151000FF1E85E090E0B70144E050E079D4F4018B
:1015200082819381A481B581F30182839383A48313
:10153000B5831F910F91FF90EF90DF90CF90BF90F8
:10154000AF909F908F907F906F9008956F927F9251
:101550008F929F92AF92BF92CF92DF92EF92FF92C3
:101560000F931F93DF93CF93CDB7DEB76E970FB670
:10157000F894DEBF0FBECDBF4C013B017A0169017B
:101580005801CE0101966FEF4FEF2FEF00E00E9460
:10159000CC192DE432E038872F83F70182819381C3
:1015A000A481B58189879A87AB87BC873E872D87C1
:1015B000F60182819381A481B5818F87988BA98B55
:1015C000BA8B3C8B2B8BF50182819381A481B581F1
:1015D0008D8B9E8BAF8BB88F3A8F298F8B819C819F
:1015E000AD81BE818B8F9C8FAD8FBE8FC401B30147
:1015F000AE01495F5F4F9E01235F3F4F8E010D5E3D
:101600001F4FE9E1EE2EF12CEC0EFD1E53DF6E961E
:101610000FB6F894DEBF0FBECDBFCF91DF911F9103
:101620000F91FF90EF90DF90CF90BF90AF909F9081
:101630008F907F906F9008950F931F93DF93CF93B8
:10164000CDB7DEB768970FB6F894DEBF0FBECDBF3B
:10165000FA01D90122813381448155812B833C8356
:101660004D835E83EDE4F2E0F887EF8329873A87C4
:101670004B875C87FE87ED8712962D913D914D91AA
:101680005C9115972F87388B498B5A8BFC8BEB8B92
:1016900021E02E832B813C814D815E812D8B3E8B01
:1016A0004F8B588FAE01495F5F4F9E01235F3F4FC5
:1016B0008E010D5E1F4F4ADF68960FB6F894DEBFAD
:1016C0000FBECDBFCF91DF911F910F910895DF9392
:1016D000CF93CDB7DEB762970FB6F894DEBF0FBEDB
:1016E000CDBFFA0122813381448155812B833C8314
:1016F0004D835E83EDE4F2E0F887EF8329873A8734
:101700004B875C87FE87ED8721E02E832B813C8110
:101710004D815E812F87388B498B5A8BAE01495F93
:101720005F4F9E01235F3F4F87DF62960FB6F894AD
:10173000DEBF0FBECDBFCF91DF9108950F9380E63E
:1017400094E060E040E020E000E00E94CC190F91BE
:1017500008950F9386E694E060E040E020E000E02A
:101760000E94CC190F910895DC01ED91FC91008C41
:10177000F18DE02D19950895DB01FC012DE432E097
:101780003183208351962D913D914D915C915497D9
:1017900022833383448355830895FC018589968988
:1017A0000895FC01818D928D0895DF93CF930F9260
:1017B000CDB7DEB7FC016983A081B18112962D916E
:1017C0003C911397BE016F5F7F4F41E050E0F901FC
:1017D00019950F90CF91DF910895CF93DF93EC018E
:1017E00007C0E881F9810680F781E02DCE011995C7
:1017F000898D9A8D892BA9F7DF91CF9108950F9349
:101800008CE694E060E040E020E000E00E94CC192B
:101810000F910895DF93CF930F92CDB7DEB7FC0100
:10182000818D928D892B19F42FEF3FEF08C08485AD
:10183000BE016F5F7F4F87D28981282F30E0C901B9
:101840000F90CF91DF910895CF93DF93EC019A0130
:10185000498D5A8D4115510599F02417350710F01F
:101860008C8502C08C85A9017CD29C0118161906B2
:101870003CF4898D9A8D821B930B9A8F898F02C0BD
:101880002FEF3FEFC901DF91CF9108950F931F9381
:10189000DF93CF930F92CDB7DEB78C01FC01818D22
:1018A000928D892BA1F08485BE016F5F7F4F41E04F
:1018B00050E057D21816190654F4F801818D928D14
:1018C0000197928F818F8981282F30E002C02FEFFE
:1018D0003FEFC9010F90CF91DF911F910F910895B4
:1018E000EF92FF920F931F93DF93CF93CDB7DEB7A5
:1018F00028970FB6F894DEBF0FBECDBF8C01DC0178
:10190000ED91FC910284F385E02D199584E794E034
:10191000F801648544D3892B19F420E030E024C019
:10192000D8011C968C917E010894E11CF11CB70132
:1019300048E050E016D29C0118161906ACF4C80114
:101940000F96B7010E94261A9D8180E02E81820F9A
:10195000911DF801968B858B9F8180E02885820FF1
:10196000911D928F818F9C01C90128960FB6F89422
:10197000DEBF0FBECDBFCF91DF911F910F91FF90C2
:10198000EF9008950F931F938C01FB019A01DC01E6
:1019900057966D917C9158971C968C91AF01A6D16A
:1019A0009C01F8018789908D820F931F908F878B00
:1019B000C9011F910F910895FC018485E1C0FC01CC
:1019C000108E178A6E5F7F4F848567C1FC0113827A
:1019D000128288EE93E0A0E0B0E084839583A68332
:1019E000B78389E192E09183808384E08487CF018B
:1019F0000F960C94331A6F927F928F929F92AF92B0
:101A0000BF92CF92DF92EF92FF920F931F93DF93DB
:101A1000CF93CDB7DEB7E5970FB6F894DEBF0FBE14
:101A2000CDBF4C015B013A0183E1E82EF12CEC0EB5
:101A3000FD1EC7010E94331ACE014B96C7DF6E010F
:101A40000894C11CD11CC6010E94331A8E01095F83
:101A50001F4FC80162E574E00DDDC701B8011DDA52
:101A6000C701B501A60178DC9C0181309105C9F45C
:101A7000D401ED91FC910088F189E02D8DE492E094
:101A80009E878D878B819C81AD81BE818F87988B4E
:101A9000A98BBA8BC401BE01635F7F4FA301199567
:101AA0009C01C901E5960FB6F894DEBF0FBECDBF0D
:101AB000CF91DF911F910F91FF90EF90DF90CF902A
:101AC000BF90AF909F908F907F906F900895CF932D
:101AD000DF93EC018C85843059F071D0EC85F0E017
:101AE000EE0FFF1FE65BFB4F1182108284E08C87B4
:101AF000DF91CF910895CF92DF92EF92FF920F93F3
:101B00001F93CF93DF937C016B01FC0184858430AC
:101B100009F5C0E0D0E003E014E0C801A0D18823BB
:101B200011F0883119F4F701C48706C021960050DE
:101B30001F4FC430D10589F7F7018485843051F0F7
:101B4000D686C586128E118E62E0A60120E070D086
:101B500081E001C080E0DF91CF911F910F91FF9054
:101B6000EF90DF90CF90089590E0982F88278E5FB8
:101B70009B4F75C190E0982F88278E5F9B4F2EC199
:101B80001F93182F84E794E0612F40E250E0F6D2D3
:101B90000AC0812FE9DF83FF06C0812F68E1EADFF9
:101BA00020E030E009C0812FDFDF84FFF2CF812FFA
:101BB00060E1E0DF21E030E0C9011F9108951F934B
:101BC000182F84E794E0612F40E150E0D7D2812FB5
:101BD0006FEFD0DF1F910895FF920F931F93F62EA2
:101BE000672F082F10E00C5F1F4F102F0027C80130
:101BF0004096F4D0C80141966F2DF0D01F910F91FF
:101C0000FF900895FF920F931F93F62E672F082FD2
:101C100010E00C5F1F4F102F0027C8010496DED084
:101C2000C80105966F2DDAD01F910F91FF9008958E
:101C3000FF920F931F93CF93DF93082FF62EEA01A5
:101C4000122F862F8150853010F080E020C0802F29
:101C5000B6DF1F2980E0902F9C5F612FBFD02097B7
:101C600019F0802FBE010BC0609172047091730453
:101C70006F5F7F4F7093730460937204802FC2DF95
:101C800084E794E0602F41E050E078D281E0DF917A
:101C9000CF911F910F91FF9008951F93CF93DF93E2
:101CA000182FFB01EA018081882349F48181882370
:101CB00031F48281882319F48381882381F020976D
:101CC00071F0912F80E0845F9B4FBF0144E050E0B2
:101CD0009FD0812FBE0180DF21E030E002C020E0F4
:101CE00030E0C901DF91CF911F910895AF92BF926B
:101CF000DF92EF92FF920F931F93CF93DF93D82E33
:101D0000EB015A01890184E794E06D2D77D18017AA
:101D1000910710F0780105C084E794E06D2D6ED135
:101D20007C0184E794E06D2DAE0195018701B7D069
:101D3000C701DF91CF911F910F91FF90EF90DF903E
:101D4000BF90AF9008950F93282FAB0184E794E0E4
:101D5000622F21E030E001E0CBD181E090E00F91F3
:101D60000895CF92DF92FF920F931F93CF93DF934B
:101D7000F82E6B018A0184E794E06F2D10D1EC01FD
:101D8000009761F49F2D80E08D5F9B4F68D0843178
:101D9000C9F08823B9F08C31A9F01DC008171907C4
:101DA0000CF4E8011C161D066CF484E794E06F2D1A
:101DB000A6019E0100E09CD184E794E06F2D40E4F1
:101DC00050E0DCD1CE01DF91CF911F910F91FF90B8
:101DD000DF90CF900895CFEFDFEFF4CF282F2C982E
:101DE00080EF8EBD0DB407FEFDCF8EB59EBD0DB448
:101DF00007FEFDCF8EB52EBD0DB407FEFDCF8EB50F
:101E00006EBD0DB407FEFDCF8EB52C9A81E008950E
:101E1000DC0120E030E090EF1DC02C989EBD0DB499
:101E200007FEFDCF8EB5BEBD0DB407FEFDCF8EB54E
:101E3000AEBD0DB407FEFDCF8EB5FB01E20FF31F63
:101E400080818EBD0DB407FEFDCF11968EB52C9A04
:101E50002F5F3F4F2417350700F3CA010895282F3D
:101E60002C988FE08EBD0DB407FEFDCF8EB59EBDC4
:101E70000DB407FEFDCF8EB52EBD0DB407FEFDCF10
:101E80008EB51EBC0DB407FEFDCF8EB52C9A0895FD
:101E900090E00496982F8827860F971FE0CF7F92B7
:101EA0008F929F92AF92BF92CF92DF92EF92FF926A
:101EB0000F931F93CF93DF936C01762E7A01490124
:101EC0005801862F64E270E0E3DF182F872D65E26A
:101ED00070E0DEDFC82FD0E0912F80E0C82BD92B37
:101EE000CE0DDF1DAE015770872D90E0880F991F32
:101EF000C80ED91EF60120813181240F351FCA0179
:101F00008A0D9B1D8150984090F000E018E0041B62
:101F1000150BC901B401A8017BDFA501401B510BC2
:101F2000F60180819181080D191DB80103C0C90116
:101F3000B401A5016DDF7E01EA0CFB1C072D10E04A
:101F40000C5F1F4F102F0027C80184966F2D46DFAE
:101F5000C80185966E2D42DFDF91CF911F910F91C1
:101F6000FF90EF90DF90CF90BF90AF909F908F90B9
:101F70007F9008950F931F93182F66E270E088DF1B
:101F8000082F812F67E270E083DF502F40E0282F79
:101F900030E0242B352BC9011F910F910895FF923A
:101FA0000F931F93CF93DF93F62EC0E0D0E08F2DD9
:101FB000E1DF8C01009719F08F2DDCDFEC01C017F9
:101FC000D107A9F7CE01DF91CF911F910F91FF901B
:101FD00008950F931F93182F60E270E059DF082FC8
:101FE000812F61E270E054DF502F40E0282F30E075
:101FF000242B352BC9011F910F910895FF920F9348
:102000001F93CF93DF93F62EC0E0D0E08F2DE1DF5A
:102010008C01009719F08F2DDCDFEC01C017D10780
:10202000A9F7CE01DF91CF911F910F91FF900895F5
:10203000DC0120E030E09FE01DC02C989EBD0DB477
:1020400007FEFDCF8EB5BEBD0DB407FEFDCF8EB52C
:10205000AEBD0DB407FEFDCF8EB51EBC0DB407FEA0
:10206000FDCF11968EB5FB01E20FF31F80832C9AF2
:102070002F5F3F4F2417350700F3CA010895CF9211
:10208000DF92EF92FF920F931F93CF93DF9369013B
:1020900078015770C62FD0E02496CC0FDD1FC80FF3
:1020A000D91F28813981240F351FC801840F951F3E
:1020B0008150984080F000E018E0041B150BC90126
:1020C000B601A801B5DFE01AF10A888199810C0DEB
:1020D0001D1DB80102C0C901B601A701A9DFDF912A
:1020E000CF911F910F91FF90EF90DF90CF900895C7
:1020F0008F929F92AF92BF92CF92DF92EF92FF9218
:102100000F931F93CF93DF937C01A62E6A014901A1
:10211000B02E862F68E270E0BBDE182F8A2D69E2B0
:1021200070E0B6DEC82FD0E0912F80E0C82BD92B0D
:10213000C7016A2DAE0196018401A1DFBB2089F49D
:102140007E01E80CF91C0A2D10E00C5F1F4F102FC8
:102150000027C80188966F2D41DEC80189966E2D33
:102160003DDEDF91CF911F910F91FF90EF90DF90B7
:10217000CF90BF90AF909F908F9008951F93162F90
:10218000962F80E08F5F9B4F642F28DE812F61E0C8
:1021900070E07EDE8823D1F71F9108950F931F937F
:1021A000182F092F6CE271E080E090E07FD20E944E
:1021B0002C07249A80E090E060E810DE8BE190E04C
:1021C00065E50CDE8AE190E065E508DE212F302F21
:1021D000C901FC0180E090E4918380838050904E9F
:1021E0009187808780509841329620E68030920710
:1021F00099F71F910F910895883008F078C0E82F63
:10220000F0E0EE0FFF1FEC57FB4F718360838330CC
:10221000D9F0843030F4813009F444C0823060F465
:1022200039C0853051F18530D8F0863009F446C088
:10223000873009F05CC04FC0809169008C7F842B8F
:1022400080936900E89A089580916900440F551FB2
:10225000440F551F837F842B80936900E99A08956A
:102260008091690074E0440F551F7A95E1F78F7CE7
:10227000842B80936900EA9A08958091690066E052
:10228000440F551F6A95E1F78F73842B8093690083
:10229000EB9A089580916A008C7F842B80936A006A
:1022A000EC9A089580916A00440F551F440F551F02
:1022B000837F842B80936A00ED9A089580916A0051
:1022C00024E0440F551F2A95E1F78F7C842B8093DF
:1022D0006A00EE9A089580916A0096E0440F551FB7
:1022E0009A95E1F78F73842B80936A00EF9A089593
:1022F0001F920F920FB60F920BB60F9211242F93CD
:102300003F934F935F936F937F938F939F93AF937D
:10231000BF93EF93FF938091880490918904892B58
:1023200029F0E0918804F09189041995FF91EF91CB
:10233000BF91AF919F918F917F916F915F914F91DD
:102340003F912F910F900BBE0F900FBE0F901F90DB
:1023500018951F920F920FB60F920BB60F92112481
:102360002F933F934F935F936F937F938F939F939D
:10237000AF93BF93EF93FF9380918A0490918B0466
:10238000892B29F0E0918A04F0918B041995FF9133
:10239000EF91BF91AF919F918F917F916F915F91DD
:1023A0004F913F912F910F900BBE0F900FBE0F904A
:1023B0001F9018951F920F920FB60F920BB60F92A7
:1023C00011242F933F934F935F936F937F938F933A
:1023D0009F93AF93BF93EF93FF9380918C04909161
:1023E0008D04892B29F0E0918C04F0918D041995CE
:1023F000FF91EF91BF91AF919F918F917F916F91DD
:102400005F914F913F912F910F900BBE0F900FBE98
:102410000F901F9018951F920F920FB60F920BB648
:102420000F9211242F933F934F935F936F937F935A
:102430008F939F93AF93BF93EF93FF9380918E04FD
:1024400090918F04892B29F0E0918E04F0918F04F4
:102450001995FF91EF91BF91AF919F918F917F91CE
:102460006F915F914F913F912F910F900BBE0F9005
:102470000FBE0F901F9018951F920F920FB60F92DC
:102480000BB60F9211242F933F934F935F936F934B
:102490007F938F939F93AF93BF93EF93FF9380911D
:1024A000840490918504892B29F0E0918404F091B3
:1024B00085041995FF91EF91BF91AF919F918F91F5
:1024C0007F916F915F914F913F912F910F900BBE34
:1024D0000F900FBE0F901F9018951F920F920FB67E
:1024E0000F920BB60F9211242F933F934F935F934C
:1024F0006F937F938F939F93AF93BF93EF93FF93CC
:102500008091860490918704892B29F0E0918604BC
:10251000F09187041995FF91EF91BF91AF919F9131
:102520008F917F916F915F914F913F912F910F907C
:102530000BBE0F900FBE0F901F9018951F920F9219
:102540000FB60F920BB60F9211242F933F934F9318
:102550005F936F937F938F939F93AF93BF93EF930B
:10256000FF938091900490919104892B29F0E09140
:102570009004F09191041995FF91EF91BF91AF9163
:102580009F918F917F916F915F914F913F912F918B
:102590000F900BBE0F900FBE0F901F9018951F92BB
:1025A0000F920FB60F920BB60F9211242F933F93F9
:1025B0004F935F936F937F938F939F93AF93BF934B
:1025C000EF93FF938091920490919304892B29F0CB
:1025D000E0919204F09193041995FF91EF91BF91CE
:1025E000AF919F918F917F916F915F914F913F91AB
:1025F0002F910F900BBE0F900FBE0F901F9018954C
:102600001F920F920FB60F9211242F933F938F9327
:102610009F93AF93BF938091980490919904A09158
:102620009A04B0919B0430919C040196A11DB11DA8
:10263000232F2D5F2D3720F02D570196A11DB11DA1
:1026400020939C048093980490939904A0939A04F7
:10265000B0939B048091940490919504A09196046A
:10266000B09197040196A11DB11D8093940490939D
:102670009504A0939604B0939704BF91AF919F9156
:102680008F913F912F910F900FBE0F901F90189533
:102690008FB7F894209198043091990440919A044E
:1026A00050919B048FBFB901CA0108959B01AC01F1
:1026B0007FB7F8948091940490919504A09196042A
:1026C000B091970466B5A89B05C06F3F19F00196BD
:1026D000A11DB11D7FBFBA2FA92F982F8827860F64
:1026E000911DA11DB11D62E0880F991FAA1FBB1F7C
:1026F0006A95D1F7BC012DC0FFB7F894809194047E
:1027000090919504A0919604B0919704E6B5A89B8A
:1027100005C0EF3F19F00196A11DB11DFFBFBA2FF3
:10272000A92F982F88278E0F911DA11DB11DE2E0C2
:10273000880F991FAA1FBB1FEA95D1F7861B970B1D
:10274000885E9340C8F2215030404040504068516C
:102750007C4F211531054105510571F60895789496
:1027600084B5826084BD84B5816084BD85B5826096
:1027700085BD85B5816085BDEEE6F0E08081816034
:102780008083E1E8F0E01082808182608083808134
:1027900081608083E0E8F0E0808181608083E1EB0C
:1027A000F0E0808184608083E0EBF0E080818160F4
:1027B0008083E1E9F0E080818260808380818160B4
:1027C0008083E0E9F0E0808181608083E1EAF0E0ED
:1027D000808182608083808181608083E0EAF0E094
:1027E000808181608083E1E2F1E08081826080838A
:1027F000808181608083E0E2F1E08081816080837C
:10280000EAE7F0E080818460808380818260808359
:102810008081816080838081806880831092C10084
:102820000895CF93DF93482F50E0CA0188589E4FF8
:10283000FC0134914E5C5E4FFA018491882369F16A
:1028400090E0880F991FFC01EC51FF4FA591B491C6
:10285000FC01E250FF4FC591D491662351F42FB78C
:10286000F8948C91932F909589238C938881892358
:102870000BC0623061F42FB7F8948C91932F909530
:1028800089238C938881832B88832FBF06C09FB7B1
:10289000F8948C91832B8C939FBFDF91CF910895F7
:1028A000893009F449C08A30A0F4843051F1853070
:1028B00040F4823079F1833000F5813009F063C053
:1028C00026C0873079F1883098F5863009F05BC0F2
:1028D00025C08D3009F442C08E3028F48B30B1F120
:1028E0008C30C0F52DC0803109F442C0813109F42B
:1028F00045C08F3009F047C037C0809180008F7786
:1029000003C0809180008F7D80938000089584B5FE
:102910008F7702C084B58F7D84BD08958091B0000B
:102920008F7703C08091B0008F7D8093B0000895B1
:10293000809190008F7707C0809190008F7D03C0B9
:1029400080919000877F8093900008958091A000EF
:102950008F7707C08091A0008F7D03C08091A00079
:10296000877F8093A0000895809120018F7703C016
:10297000809120018F7D8093200108958091200116
:10298000877F809320010895FF920F931F93F62E67
:10299000482F50E0CA0182549E4FFC012491CA0185
:1029A00088589E4FFC0114914E5C5E4FFA010491D1
:1029B0000023C1F0222311F0822F72DFE02FF0E01C
:1029C000EE0FFF1FE250FF4FA591B4919FB7F8940F
:1029D000FF2021F48C911095812302C08C91812BD2
:1029E0008C939FBF1F910F91FF9008950F931F939A
:1029F000482F50E0CA0182549E4FFC012491CA0125
:102A000088589E4FFC0104914E5C5E4FFA01149170
:102A1000112319F420E030E014C0222311F0822F9A
:102A20003FDF812F90E0880F991F885E9E4FFC0149
:102A3000A591B4918C9120E030E0802311F021E049
:102A400030E0C9011F910F91089508951F920F92D0
:102A50000FB60F920BB60F9211242F933F934F9303
:102A60008F939F93EF93FF938091C00082FD1DC0D1
:102A70004091C6002091DD043091DE042F5F3F4F6E
:102A80002F7330708091DF049091E004281739078C
:102A900071F0E091DD04F091DE04E356FB4F4083DA
:102AA0003093DE042093DD0402C08091C600FF91C4
:102AB000EF919F918F914F913F912F910F900BBE6E
:102AC0000F900FBE0F901F90189508951F920F92B0
:102AD0000FB60F920BB60F9211242F933F934F9383
:102AE0008F939F93EF93FF938091C80082FD1DC049
:102AF0004091CE0020916505309166052F5F3F4FD4
:102B00002F733070809167059091680528173907F9
:102B100071F0E0916505F0916605EB5DFA4F408339
:102B2000309366052093650502C08091CE00FF9129
:102B3000EF919F918F914F913F912F910F900BBEED
:102B40000F900FBE0F901F90189508951F920F922F
:102B50000FB60F920BB60F9211242F933F934F9302
:102B60008F939F93EF93FF938091D00082FD1DC0C0
:102B70004091D6002091ED053091EE052F5F3F4F3B
:102B80002F7330708091EF059091F0052817390769
:102B900071F0E091ED05F091EE05E355FA4F4083B9
:102BA0003093EE052093ED0502C08091D600FF9191
:102BB000EF919F918F914F913F912F910F900BBE6D
:102BC0000F900FBE0F901F90189508951F920F92AF
:102BD0000FB60F920BB60F9211242F933F934F9382
:102BE0008F939F93EF93FF938091300182FD1DC0DF
:102BF0004091360120917506309176062F5F3F4F48
:102C00002F733070809177069091780628173907D6
:102C100071F0E0917506F0917606EB5CF94F408318
:102C2000309376062093750602C080913601FF919D
:102C3000EF919F918F914F913F912F910F900BBEEC
:102C40000F900FBE0F901F901895E091C906F0915C
:102C5000CA06E05CFF4F8191919120813181821BF6
:102C6000930B8F739070892B09F0EFDEE091EB06E8
:102C7000F091EC06E05CFF4F8191919120813181D0
:102C8000821B930B8F739070892B09F01EDFE091EC
:102C90000D07F0910E07E05CFF4F8191919120812B
:102CA0003181821B930B8F739070892B09F04DDF5C
:102CB000E0912F07F0913007E05CFF4F81919191F7
:102CC00020813181821B930B8F739070892B09F0C7
:102CD0007CCF08951F920F920FB60F920BB60F92F2
:102CE00011242F933F938F939F93EF93FF93209102
:102CF0002105309122058091230590912405281704
:102D0000390731F48091C1008F7D8093C10014C0D8
:102D1000E0912305F0912405EF51FB4F2081809134
:102D200023059091240501968F739070909324054C
:102D3000809323052093C600FF91EF919F918F917F
:102D40003F912F910F900BBE0F900FBE0F901F90D1
:102D500018951F920F920FB60F920BB60F92112477
:102D60002F933F938F939F93EF93FF932091A90508
:102D70003091AA058091AB059091AC0528173907D1
:102D800031F48091C9008F7D8093C90014C0E09117
:102D9000AB05F091AC05E759FA4F20818091AB0566
:102DA0009091AC0501968F7390709093AC058093D1
:102DB000AB052093CE00FF91EF919F918F913F91B2
:102DC0002F910F900BBE0F900FBE0F901F90189574
:102DD0001F920F920FB60F920BB60F9211242F93E2
:102DE0003F938F939F93EF93FF9320913106309100
:102DF000320680913306909134062817390731F452
:102E00008091D1008F7D8093D10014C0E091330672
:102E1000F0913406EF50FA4F208180913306909163
:102E2000340601968F739070909334068093330626
:102E30002093D600FF91EF919F918F913F912F9119
:102E40000F900BBE0F900FBE0F901F9018951F9202
:102E50000F920FB60F920BB60F9211242F933F9340
:102E60008F939F93EF93FF932091B9063091BA0609
:102E70008091BB069091BC062817390731F48091E8
:102E800031018F7D8093310114C0E091BB06F09138
:102E9000BC06E758F94F20818091BB069091BC0693
:102EA00001968F7390709093BC068093BB0620931D
:102EB0003601FF91EF919F918F913F912F910F904C
:102EC0000BBE0F900FBE0F901F901895AF92BF9240
:102ED000DF92EF92FF920F931F93CF93DF93EC015A
:102EE0007A018B01DD24403081EE580780E06807CD
:102EF00080E0780711F0DD24D39491E0A92EB12C65
:102F0000EC89FD89DD2069F0C50108A002C0880FA9
:102F1000991F0A94E2F7808360E079E08DE390E006
:102F200005C0108260E874E88EE190E0A801970186
:102F30009DD321503040404050405695479537959D
:102F4000279580E12030380720F0DD2011F0DD24C6
:102F5000D7CFE889F9893083EA89FB89208319A2D0
:102F6000EE89FF89408121E030E0C9010C8C02C06C
:102F7000880F991F0A94E2F7482B4083EE89FF8956
:102F80004081C9010D8C02C0880F991F0A94E2F795
:102F9000482B4083EE89FF894081C9010E8C02C015
:102FA000880F991F0A94E2F7482B4083EE89FF8926
:102FB00080810F8C02C0220F331F0A94E2F7209504
:102FC00028232083DF91CF911F910F91FF90EF90E5
:102FD000DF90BF90AF900895DC011C96ED91FC91BD
:102FE0001D97E05CFF4F2191319180819181281BD9
:102FF000390B2F733070C9010895DC011C96ED91D7
:10300000FC911D97E05CFF4F20813181E054F0403E
:10301000DF01AE5BBF4F8D919C9111972817390747
:1030200019F42FEF3FEF07C08D919C91E80FF91F26
:103030008081282F30E0C9010895DC011C96ED91B4
:10304000FC911D97E05CFF4F20813181E054F040FE
:10305000DF01AE5BBF4F8D919C9111972817390707
:1030600019F42FEF3FEF10C08D919C911197E80F4D
:10307000F91F20818D919C91119701968F7390700B
:1030800011969C938E9330E0C9010895DC019196CE
:103090008C919197882339F05496ED91FC91559736
:1030A000808186FFF9CF91961C920895CF93DF938C
:1030B000EC01EE85FF85E05CFF4F20813181E0541B
:1030C000F0402F5F3F4F2F733070DF01AE5BBF4F7B
:1030D0008D919C91119728173907D1F3E05CFF4F30
:1030E00080819181E054F040E80FF91F6083EE8504
:1030F000FF85E05CFF4F31832083EE89FF892081CB
:1031000081E090E00F8C02C0880F991F0A94E2F7CB
:10311000282B208381E089A3EC89FD89808180644C
:10312000808381E090E0DF91CF9108951F9310920A
:10313000C0061092BF0628EE33E040E050E0209336
:10314000C1063093C2064093C3065093C4066DE394
:1031500072E07093BE066093BD068DE994E0909393
:10316000CA068093C90681EE94E09093CC068093C2
:10317000CB0685EC90E09093CE068093CD0684EC50
:1031800090E09093D0068093CF0680EC90E09093EF
:10319000D2068093D10681EC90E09093D406809380
:1031A000D30682EC90E09093D6068093D50686EC09
:1031B00090E09093D8068093D70614E01093D90638
:1031C000B3E0B093DA06A7E0A093DB06F5E0F09356
:1031D000DC06E1E0E093DD061092E2061092E106E3
:1031E0002093E3063093E4064093E5065093E60609
:1031F0007093E0066093DF0685E295E09093EC061D
:103200008093EB0689E695E09093EE068093ED06B9
:103210008DEC90E09093F0068093EF068CEC90E0BC
:103220009093F2068093F10688EC90E09093F40678
:103230008093F30689EC90E09093F6068093F50670
:103240008AEC90E09093F8068093F7068EEC90E07D
:103250009093FA068093F9061093FB06B093FC0650
:10326000A093FD06F093FE06E093FF06109204077C
:103270001092030720930507309306074093070732
:103280005093080770930207609301078DEA95E059
:1032900090930E0780930D0781EF95E090931007B0
:1032A00080930F0785ED90E09093120780931107AC
:1032B00084ED90E0909314078093130780ED90E0E5
:1032C000909316078093150781ED90E0909318076F
:1032D0008093170782ED90E090931A078093190767
:1032E00086ED90E090931C0780931B0710931D07B9
:1032F000B0931E07A0931F07F0932007E0932107C8
:10330000109226071092250720932707309328074D
:103310004093290750932A0770932407609323074B
:1033200085E396E09093300780932F0789E796E036
:10333000909332078093310785E391E090933407AF
:103340008093330784E391E09093360780933507A9
:1033500080E391E0909338078093370781E391E011
:1033600090933A078093390782E391E090933C076A
:1033700080933B0786E391E090933E0780933D075F
:1033800010933F07B0934007A0934107F093420783
:10339000E09343071F9108950F93FC018DE492E0A1
:1033A0009183808362834383248305830F910895EF
:1033B0008DE492E09093460780934507109247076B
:1033C000109248071092490710924A0708958F9269
:1033D0009F92AF92BF92CF92DF92EF92FF920F93A4
:1033E0001F93CF93DF934C016B017C01AA24BB2474
:1033F000C0E0D0E0C601F70162814AE050E006D1AA
:103400008C01C6016EE270D0080F191FA00EB11E0C
:1034100021960894E11CF11CC330D10559F7C6016F
:10342000F40165814AE050E0F1D09501280F391F81
:10343000C901DF91CF911F910F91FF90EF90DF9025
:10344000CF90BF90AF909F908F9008959C01FB010B
:1034500080819181A281B381F90182839383A483C6
:10346000B583C9010895FC018DE492E091838083C6
:1034700012821382148215820895CF93DF936FD93D
:103480000E94AA03C5E2D6E10E9431062097E1F32B
:10349000DCDBFACFCF92DF92EF92FF920F931F9374
:1034A000CF93DF937C016B018A01C0E0D0E00FC0B5
:1034B000D6016D916D01D701ED91FC910190F081E4
:1034C000E02DC7011995C80FD91F015010400115F3
:1034D000110571F7CE01DF91CF911F910F91FF90F0
:1034E000EF90DF90CF900895DC01ED91FC91019079
:1034F000F081E02D19950895CF93DF93EC016115CC
:10350000710519F420E030E00FC0DB010D900020C0
:10351000E9F71197A61BB70BE881F9810280F381C7
:10352000E02DAD0119959C01C901DF91CF9108955E
:103530004F925F927F928F929F92AF92BF92CF9263
:10354000DF92EF92FF920F931F93DF93CF93CDB74C
:10355000DEB7A1970FB6F894DEBF0FBECDBF2C012A
:10356000742ECB01223008F42AE019A231E2C32ED6
:10357000D12CCC0EDD1E822E9924AA24BB24672DCB
:10358000752FA501940172D079018A01C801B70194
:10359000A50194014CD0472D461B0894C108D108C1
:1035A0004A3014F4405D01C0495CF6014083E114E7
:1035B000F1040105110521F07E2C5F2DC801DFCF3C
:1035C000C201B60199DFA1960FB6F894DEBF0FBE17
:1035D000CDBFCF91DF911F910F91FF90EF90DF90C2
:1035E000CF90BF90AF909F908F907F905F904F90C3
:1035F0000895DC012115310541F4ED91FC91019014
:10360000F081E02D642F1995089592CFEF92FF92EB
:103610000F931F939A01E62EFF2400E010E0B801FB
:10362000A701E7DF1F910F91FF90EF900895629F30
:10363000D001739FF001829FE00DF11D649FE00DAA
:10364000F11D929FF00D839FF00D749FF00D659F0B
:10365000F00D9927729FB00DE11DF91F639FB00D0A
:10366000E11DF91FBD01CF0111240895A1E21A2E19
:10367000AA1BBB1BFD010DC0AA1FBB1FEE1FFF1F16
:10368000A217B307E407F50720F0A21BB30BE40B66
:10369000F50B661F771F881F991F1A9469F76095AD
:1036A0007095809590959B01AC01BD01CF01089567
:1036B000EE0FFF1F0590F491E02D1994F894FFCFC1
:1036C000DEADBEEFFEEDA2540D0011001C00120095
:1036D0001A0013000800000000D50BC20CD10B46E5
:1036E0000C0A0CED0B7B0D670DDF0CFB0CDC0C707A
:1036F0000C240CB40BBC0BCD0B0000000056184A78
:103700001AEC171D18FD17461800000000E71900F5
:00000001FF
