:100000000AC100000C94F1150C9422160C9453169E
:100010000C9484160C94B5160C94E6160C941717D1
:100020000C94481725C1000023C1000021C1000025
:100030001FC100001DC100001BC1000019C100004C
:1000400017C1000015C1000013C1000011C100005C
:1000500010C100000DC100000BC100000C94791705
:1000600007C100000C94D3190C94171B01C10000A8
:10007000FFC00000FDC00000FBC00000F9C0000090
:10008000F7C00000F5C00000F3C000006DC1000023
:100090000C94131A0C94561BEBC00000E9C000002E
:1000A000E7C00000E5C00000E3C00000E1C00000C0
:1000B000DFC00000DDC00000DBC00000D9C00000D0
:1000C000D7C00000D5C00000D3C000000C94531A64
:1000D0000C94951BCDC000000C94931A0C94D41B67
:1000E000C7C0000000002100240027002A002D00C6
:1000F0003000330001010000040107010A01000083
:100100002200250028002B002E00310034000201BF
:100110000000050108010B0100002000230026005B
:1001200029002C002F00320000010000030106010D
:10013000090105050505070508080808020202026D
:100140000A0A080804040404010101010101010173
:100150000303030303030303040707070C0C0C0C3E
:100160000C0C0C0C02020202060606060606060627
:100170000B0B0B0B0B0B0B0B0102102020080810B4
:100180002040102040800201020108040201010207
:1001900004081020408080402010080402018004E0
:1001A000020180402010080402010804020101023B
:1001B0000408102040800102040810204080000044
:1001C000090A02080B0C0D070603040100000000D9
:1001D000000000000000000000000000000000001F
:1001E0000000000000000000000011100F000000DF
:1001F00000000000000000000000000000000000FF
:10020000000000007506BB0B1D0CC40E1710221059
:100210007810431D851E11241FBECFEFD1E2DEBF33
:10022000CDBF00E00CBF12E0A0E0B2E0E0E5F3E4F7
:1002300000E00BBF02C007900D92A635B107D9F7B9
:100240001BBE1BE0A6E5B2E001C01D92A53AB107B6
:10025000E1F712E0C6E1D2E004C02297FE010E945D
:10026000A221C430D107C9F70E94EA1E0C94A6212E
:10027000C7CE1F920F920FB60F9211242F933F9368
:100280004F935F938F939F938091DC029091DD0257
:1002900090938500809384002091D8023091D902F8
:1002A0002F5F3F4F3093D9022093D8024091DA025A
:1002B0005091DB024F5F5F4F5093DB024093DA02B5
:1002C0008091E2028F5F8093E2029091E3029F5F50
:1002D0009093E3028B3F18F08AEF8093E2029B3FFA
:1002E00018F08AEF8093E302285E334060F081E0EB
:1002F0008093E0021092D9021092D80280911504E6
:100300008F5F809315044436510538F081E0809367
:10031000E1021092DB021092DA02809115048D3313
:1003200018F08CE380931504809115048C3388F0C9
:1003300020914704213069F48091180490911904A8
:100340000196909319048093180410921504209339
:1003500075049F918F915F914F913F912F910F90D5
:100360000FBE0F901F9018951F920F920FB60F920D
:1003700011248F939F938091DE029091DF029093DE
:1003800095008093940080918B088F5F80938B08F9
:100390008A3008F474C010928B08809186088130EE
:1003A000A9F490918C0880918D08891778F080913C
:1003B0008908813059F49F5F90938C088093850859
:1003C00080910B01886080930B010BC080910B0121
:1003D000877F80930B0110928C08109285081092F1
:1003E000890880918908882389F4909190089F5FFB
:1003F0009093900880910B01877F80930B0190353B
:1004000028F01092900881E08093890880918808F4
:100410008130A9F490918E0880918F08891778F027
:1004200080918A08813059F49F5F90938E08809361
:10043000870880910B01826080930B010BC0809133
:100440000B018D7F80930B0110928E08109287080C
:1004500010928A0880918A08882389F490919108E3
:100460009F5F9093910880910B018D7F80930B018A
:10047000903528F01092910881E080938A089F912E
:100480008F910F900FBE0F901F90189520E834E8C1
:100490004EE150E00E944B2120E432E44FE050E076
:1004A0000E947E21309521953F4F3093DD022093AD
:1004B000DC021092800082E080938100EFE6F0E0A1
:1004C000808181608083309385002093840008952B
:1004D00020E834E84EE150E00E944B2120E432E471
:1004E0004FE050E00E947E21309521953F4F3093A0
:1004F000DF022093DE021092900082E08093910050
:10050000E1E7F0E080818160808330939500209363
:1005100094000895EF92FF920F931F93809197029A
:10052000882381F09091E20280911602891750F49D
:100530001092970210929B0210929A0210929502CA
:100540001092930280919802882381F09091E302A7
:1005500080911602891750F41092980210929D0211
:1005600010929C0210929602109294028091E202E4
:10057000893C38F480919A0290919B02892B71F00A
:100580004FC010929B0210929A0210929502109204
:100590009302809116048E7F8093160480919602B8
:1005A00020919C0230919D02813049F4882799273F
:1005B000821B930B9093A3028093A20204C03093FA
:1005C000A3022093A202809194028130B9F4609139
:1005D000A2027091A302882777FD8095982F0E9430
:1005E0005C2023E333E34BE451E40E94E8200E94C3
:1005F00029207093A3026093A20212C08091A202EC
:100600009091A3029C0143E0220F331F4A95E1F72A
:10061000880F991F280F391F3093A3022093A2023D
:100620008091E302893C38F480919C0290919D0274
:10063000892B71F04FC010929D0210929C02109273
:10064000960210929402809116048D7F8093160476
:100650008091950220919A0230919B02813049F459
:1006600088279927821B930B9093A3028093A20261
:1006700004C03093A3022093A202809193028130A0
:10068000B9F46091A2027091A302882777FD80954A
:10069000982F0E945C2023E333E34BE451E40E9453
:1006A000E8200E9429207093A3026093A20212C046
:1006B0008091A2029091A3029C0113E0220F331FAC
:1006C0001A95E1F7880F991F280F391F3093A3025D
:1006D0002093A202809116048370833009F0D1C068
:1006E00020919A0230919B022115310509F4C9C06D
:1006F00040919C0250919D024115510509F4C1C0E1
:1007000080919502813049F488279927821B930BA9
:100710009093A5028093A40204C03093A502209375
:10072000A40280919602813049F488279927841B7E
:10073000950B9093A7028093A60204C05093A70242
:100740004093A60280919302813009F04FC08091BE
:100750009402813009F08FC06091A4027091A502CB
:10076000882777FD8095982F0E945C2023E333E350
:100770004BE451E40E94E82055C06091A4027091BE
:10078000A502882777FD8095982F0E945C2023E39F
:1007900033E34BE451E40E94E8207B018C0120917B
:1007A000A6023091A702B901A3E0660F771FAA95B0
:1007B000E1F7220F331F620F731F882777FD8095A3
:1007C000982F0E945C209B01AC01C801B7010E94D8
:1007D000C51F20E030E040E05FE30E94E8200E9477
:1007E00029207093A3026093A2024BC0882309F0D2
:1007F00048C080919402813009F041C02091A40248
:100800003091A502B901E3E0660F771FEA95E1F7A1
:10081000220F331F620F731F882777FD8095982F53
:100820000E945C207B018C016091A6027091A7025E
:10083000882777FD8095982F0E945C2023E333E37F
:100840004BE451E40E94E820BECF8091A602909133
:10085000A7022091A4023091A502820F931F9C0150
:10086000220F331F220F331F280F391F3093A3028B
:100870002093A20206C0882309F47FCF02C08823F8
:1008800021F31F910F91FF90EF90089580917B04C9
:1008900090917C046091A2027091A302FC01EE0F82
:1008A000FF1FEB57FB4F7183608340917D04509194
:1008B0007E04DC011196841B950B9170909380044B
:1008C00080937F04209181043091820482179307E2
:1008D000B8F0FA01EE0FFF1FEB57FB4F80819181BB
:1008E000681B790B70931A02609319024F5F5F4F78
:1008F000517050937E0440937D0481E08093760490
:10090000B170B0937C04A0937B0408958F929F9262
:10091000AF92BF92DF92EF92FF920F931F93CF930C
:10092000DF9390914704913009F0C4C1D0907804CE
:10093000AD2CBB24F501EE0FFF1FEE0FFF1FE45E91
:10094000FB4F0190F081E02DD501AA0FBB1F30971E
:1009500009F042C0AA0FBB1FA25EBB4F2D913C9174
:100960002115310509F475C180917704882341F47C
:1009700010921904109218041092150490937704A1
:1009800080911804909119048217930708F492C17A
:100990001092190410921804109215041092770402
:1009A000D394D0927804109273041092740410922D
:1009B000800410927F0410927C0410927B041092A9
:1009C0007E0410927D04109276048FEF90E0909355
:1009D0001A02809319026EC1AA0FBB1FA25EBB4F01
:1009E0002D913C912115310509F433C18091730497
:1009F000882351F4F0937A04E093790430938204CD
:100A00002093810490937304C0918102D09182025B
:100A10000091790410917A0461EF862E6FEF962E83
:100A2000800E911E8C169D0638F181E08093860819
:100A300080918508882339F50C171D0711F460E0B3
:100A400013C0C8018C1B9D0B6AE070E00E946A21F4
:100A500080E090E00E945A2020E030E040E05FE338
:100A60000E94C51F0E94292060938D086A3058F4A7
:100A70008AE080938D0807C080910B01877F809367
:100A80000B011092860859E1E52EF12CE00EF11EC3
:100A9000CE15DF0538F181E08093880880918708C2
:100AA000882339F5C017D10711F460E013C0CE01D7
:100AB000801B910B6AE070E00E946A2180E090E068
:100AC0000E945A2020E030E040E05FE30E94C51F12
:100AD0000E94292060938F086A3058F48AE080933E
:100AE0008F0807C080910B018D7F80930B011092BE
:100AF0008808C815D90508F4A8C0EC16FD0608F446
:100B0000A4C080917404882309F0E5C08091830417
:100B1000909184048C52914018F110921904109213
:100B20001804109215041092760481E080937504E5
:100B300080937404109284041092830410928004B1
:100B400010927F0410927C0410927B0410927E0419
:100B500010927D048FEF90E090931A028093190217
:100B600080918304909184040196909384048093EF
:100B70008304B1C00B970CF068C0D5011196FD013C
:100B8000EE0FFF1FEE0FFF1FE45EFB4F8081918190
:100B9000892B81F5AA0FBB1FAA0FBB1FA25EBB4FFB
:100BA0008D919C91892B31F5109247048091160408
:100BB0008F7B809316041092730410921904109284
:100BC0001804109215041092740410927604109276
:100BD000800410927F0410927C0410927B04109287
:100BE0007E0410927D048FEF90E090931A02809320
:100BF000190221C01092730410927404D394D092FD
:100C000078041092800410927F0410927C04109259
:100C10007B0410927E0410927D04109276048FEF74
:100C200090E090931A028093190210921904109286
:100C300018041092150480910B01877F80930B019B
:100C400080910B018D7F80930B01809178048B3014
:100C500088F110924704809116048F7B80931604CC
:100C60001092730410921904109218041092150433
:100C700010927404109276041092800410927F04F3
:100C800010927C0410927B0410927E0410927D04DA
:100C90008FEF90E090931A028093190210927804DB
:100CA00080910B01877F80930B0180910B018D7FD9
:100CB00080930B01809178048F5F80931704DF91FC
:100CC000CF911F910F91FF90EF90DF90BF90AF9069
:100CD0009F908F9008958091190290911A022FEFA2
:100CE000863F92070CF046CFB0CF0F9382E998E091
:100CF00060E040E020E000E00E94791E86E592E09E
:100D000060EC48EA20E000EB0E94791E8CE592E05E
:100D100060EC48EA20E00FEF0E94791E82E692E044
:100D20000E945F110F910895CF93DF9380919902F4
:100D3000C82FD0E0809114020E948A18CC0FDD1FCA
:100D4000CD57DD4F998388838091850290918602EB
:100D50002091830230918402820F931F2091870299
:100D600030918802820F931F2091890230918A026C
:100D7000820F931F20918B0230918C02820F931F60
:100D800020918D0230918E02820F931F20918F024D
:100D900030919002820F931F209191023091920224
:100DA000820F931F23E0969587952A95E1F720916E
:100DB0001A0430911B04821B930B2091170230916F
:100DC0001802AC01429FC001439F900D529F900DAD
:100DD00011249093820280938102809199028F5F07
:100DE0008770809399021092E102DF91CF9108956C
:100DF0001092E30280911604826080931604809121
:100E000098028431D0F4809110020E94A319892B9A
:100E100081F521E030E00090980202C0220F331FDC
:100E20000A94E2F780919E0290919F02822B932B6D
:100E300090939F0280939E021CC0843159F480914C
:100E400010020E94A31910929602892B19F481E0D6
:100E50008093960280919802873159F48091100214
:100E60000E94A31910929402892B19F481E08093B7
:100E70009402809198028F5F80939802883170F07D
:100E800080919E0290919F0290939D0280939C027C
:100E90001092980210929F0210929E020895109252
:100EA000E20280911604816080931604809197027B
:100EB0008431D0F480910C020E94A319892B81F512
:100EC00021E030E00090970202C0220F331F0A9405
:100ED000E2F78091A0029091A102822B932B909334
:100EE000A1028093A0021CC0843159F480910C02AD
:100EF0000E94A31910929502892B19F481E0809326
:100F0000950280919702873159F480910C020E94DA
:100F1000A31910929302892B19F481E08093930214
:100F2000809197028F5F80939702883170F0809153
:100F3000A0029091A10290939B0280939A0210923A
:100F400097021092A1021092A0020895DF93CF930E
:100F500000D000D0CDB7DEB780910503E82FF0E0D8
:100F6000EE0FFF1FEC51FD4F8081813009F01BC156
:100F70008181813069F480930A0310920B031092EF
:100F80000C0380930D0381E480930E0386E0ACC0D4
:100F90008230C1F481E880930A0310920B0310920F
:100FA0000C0383E080930D038091110480930E0362
:100FB00080910F0480930F0380911004809310039D
:100FC00088E092C0833009F04FC085E880930A031F
:100FD00010920B0310920C0380E180930D0380911B
:100FE000930280930E038091950280930F0380916A
:100FF0009A0290919B028093100390931103809129
:10100000940280931203809196028093130380913F
:101010009C0290919D0280931403909315038091FC
:10102000A2029091A30280931603892F990F990B26
:10103000809317038091810290918202809318031C
:1010400090931903809118049091190480931A03C6
:1010500090931B038091170480931C0380911604C6
:1010600080931D0385E140C0843009F03FC083E8D0
:1010700080930A0310920B0310920C038091440496
:10108000482F50E0440F551F440F551F40930D0348
:101090008CE194E0909349048093480410921404E6
:1010A0001092130411C0E0914804F0914904819119
:1010B00016968C93F0934904E09348042F5F3F4FBA
:1010C00030931404209313042091130430911404DA
:1010D000D901A85FBC4F241735072CF38091160463
:1010E00016968C93822F8A5F8093070384E592E0A3
:1010F0009A83898380915E0290915F02A091600241
:10110000B09161028B839C83AD83BE8340910602C4
:101110005091070282E692E0BE016F5F7F4F0E940E
:1011200058111092140410921304109206031BC05D
:10113000A230B1054CF0FD01E85FFC4F8091060341
:101140009081890F80930603A85FBC4F82E692E0EE
:101150006C91A4D7809113049091140401969093FC
:10116000140480931304A0911304B091140480918B
:10117000070390E08A179B07DCF682E692E0609115
:1011800006038CD782E692E00E94551180910503F8
:10119000E82FF0E0EE0FFF1FEC51FD4F10828F5F44
:1011A0008F708093050326960FB6F894DEBF0FBEAE
:1011B000CDBFCF91DF910895DF93CF9300D000D0C2
:1011C000CDB7DEB780910C0261E00E947119809169
:1011D0000E0261E00E94711980910C0260E00E9491
:1011E000BE1880910E0260E00E94BE18809110022D
:1011F00061E00E9471198091120261E00E947119F0
:101200008091100260E00E94BE188091120260E09E
:101210000E94BE1885E06FE477E042E050E00E9453
:10122000751584E068EF76E042E050E00E947515A5
:1012300068EE73E080E090E029D968EE73E080E02A
:1012400090E046D98091080261E00E94BE1880912A
:101250000A0260E00E94BE188EE261E00E94BE18A1
:1012600080E361E00E94BE1885E361E00E94BE1841
:1012700084E592E09A838983809158029091590283
:10128000A0915A02B0915B028B839C83AD83BE8395
:101290008CEA98E060E072E0AE014F5F5F4F90D65D
:1012A000609106027091070282E692E00E94F411BA
:1012B00087E19BE040E855E260E070E00E94131C8B
:1012C00064EF71E080E090E00E94CF1783E98093A3
:1012D00008038AE68093090310920A0310920B0315
:1012E00010920C0326960FB6F894DEBF0FBECDBF4A
:1012F000CF91DF910895CF93DF9382E692E069D793
:10130000EC01009709F4E4C182E692E068EA72E039
:1013100040E350E012D7109214041092130410927C
:101320000C041092080410920B0432E041E06CE1CE
:1013300074E054E0BAC1E855FD4F908190930A04DF
:10134000209108042230A1F480910B04813009F02F
:10135000B5C19093090410920C041092450408C082
:1013600090930F0405C09093100402C09093120450
:101370009A3621F4213011F4309308048091080446
:10138000813011F410920804933931F480910804EB
:10139000882311F44093080420910904213009F0B6
:1013A00092C080910B04882309F4FDC0813009F4B8
:1013B00094C0853019F490934604F5C0863009F046
:1013C000F2C080910C04891709F0EDC080914604A9
:1013D0008234D9F41092080410920B0410920E0477
:1013E00080910403E82FF0E0EE0FFF1FEC51FD4F5A
:1013F000208331838F5F8F70E82FF0E0EE0FFF1FA7
:10140000EC51FD4F2083518359C08334F1F4109285
:10141000080410920B0410920E0480910403E82F2C
:10142000F0E0EE0FFF1FEC51FD4F208331838F5F03
:101430008F708093040320934704109215048091C9
:101440001604806480931604AEC0843411F51092A3
:10145000080410920B0410920E0480910403E82FEC
:10146000F0E0EE0FFF1FEC51FD4F208331838F5FC3
:101470008F708093040310924704809116048F7B31
:101480008093160410927804109219041092180494
:101490008AC0853409F087C01092080410920B04AA
:1014A00010920E0410920D0480910403E82FF0E0D6
:1014B000EE0FFF1FEC51FD4F408331838F5F8F7024
:1014C0008093040370C0223009F06DC080910B043A
:1014D000882309F468C0813019F480930E0463C036
:1014E000853008F460C020914504E22FF0E0E65B0F
:1014F000FB4F908380910C04891709F04FC08091B5
:101500001204281709F04AC07093490460934804F4
:1015100010921404109213041AC0E0914804F09140
:101520004904A65BBB4F8C918083809148049091C5
:1015300049040196909349048093480480911304D0
:101540009091140401969093140480931304A09135
:101550001304B09114048091120490E0A817B90705
:10156000E4F28091450490E095958795959587954F
:10157000809344041092080410920B0410920E04FD
:1015800080910403E82FF0E0EE0FFF1FEC51FD4FB8
:10159000408331838F5F8F70809304038091450473
:1015A0008F5F8093450480910904823809F052C00E
:1015B00080910B04882309F44DC0813019F4809385
:1015C0000E0448C0853029F480910A0480937D027E
:1015D00041C0863029F480910A0480937E023AC08B
:1015E000873029F480910A0480937F0233C08830C9
:1015F00099F490910A049093800280917D028093E7
:101600005E0280917E0280935F0280917F028093D0
:101610006002909361021EC08930E1F490910C0445
:1016200080910A049817B1F440930D0410920804B5
:1016300010920B0410920E0480910403E82FF0E046
:10164000EE0FFF1FEC51FD4F408331838F5F8F7092
:101650008093040320910B04222339F080910C0421
:1016600090910A04890F80930C04809108048230C1
:1016700051F4213041F480910E04882321F410921A
:10168000080410920B0480910804823028F08091A5
:101690000B048F5F80930B048091130490911404CA
:1016A00001969093140480931304E0911304F09135
:1016B0001404EC17FD070CF43ECE0AC0823009F486
:1016C0004FCE833009F44FCE843009F051CE4ECE48
:1016D000DF91CF9108950E948A0218D90CDE36DC82
:1016E0008091E102813019F41092E1021DDB8091BA
:1016F000E002882311F11092E00290910D049923E9
:1017000059F480910403E82FF0E0EE0FFF1FEC5135
:10171000FD4F91E090830CC0913079F480910403E7
:10172000E82FF0E0EE0FFF1FEC51FD4F908393E0A8
:1017300091838F5F8F708093040380917504882359
:1017400019F010927504A2C8089585E361E00E9423
:10175000711985E361E00E94BE188CB580618CBD73
:101760008CB580648CBD84E361E00E94BE1883E385
:1017700061E00C94BE180F9388E998E060E040E0C7
:1017800020E000E00E94791E0F9108959C01FB016A
:1017900082819381A481B581F90182839383A4839B
:1017A000B583178216820895CF93DF93FB0101C0A2
:1017B000319680818823E1F7EB01A0E0B0E020E0E2
:1017C00030E021C06E3261F42F3F310509F07CF525
:1017D000FA01EA0FFB1F2283119620E030E012C0CD
:1017E000C901E3E0880F991FEA95E1F7220F331F43
:1017F000820F931F262F332727FD3095205330402B
:10180000280F391F21966881662319F0A430B1058D
:10181000CCF22F3F310509F054F4A430B1053CF46B
:10182000A40FB51F12962C9321E030E002C020E0F7
:1018300030E0C901DF91CF9108950F938EE998E0D0
:1018400060E040E020E000E00E94791E0F910895E2
:101850002F923F924F925F926F927F928F929F92C0
:10186000AF92BF92CF92DF92EF92FF920F931F93AE
:10187000DF93CF93CDB7DEB769970FB6F894DEBF8D
:101880000FBECDBF4C018B011A010E94C1172B0165
:101890003C01F8E0EF2EF12CE80CF91C5801CC24A7
:1018A000DD2414C00E94C1176419750986099709BF
:1018B000A616B706C806D90618F42FEF3FEFF8C0F2
:1018C00062E370E080E090E00E94CF17C70181D40E
:1018D000181619063CF7F4012281338144815581A1
:1018E000818D928DA38DB48D8A879B87AC87BD87B0
:1018F000281739074A075B0709F0D8C0858D968DF0
:10190000C59709F0D3C0EEC08E01025F1F4FC7011B
:10191000B8014CE050E011D4F801528143815B835F
:101920004A83F401268137818E859F8528173907E0
:1019300011F457FD05C0C701C9D32CEF3FEFB8C064
:101940004F705270452B29F0C701C0D32BEF3FEFEA
:10195000AFC0F801768067806114710441F0AA2459
:10196000BB2448012E010894411C511C24C0C7010E
:10197000ADD32AEF3FEF9CC0C701B20141E050E078
:10198000DCD38981882319F407C0C701F8D3898182
:10199000815089838F5FC9F78981882369F700E0C7
:1019A00010E0C701ECD30F5F1F4F04301105C9F7DA
:1019B0000894A11CB11CF401D480C580AC14BD04F2
:1019C000D8F244245524C701BE016F5F7F4F41E028
:1019D00050E0B3D39981892F807C59F4992319F46D
:1019E0000BC0C701CCD38981815089838F5FC9F730
:1019F00003C0C701C4D319828981882321F7C70195
:101A0000BE016C5F7F4F42E050E097D3C701BE013B
:101A10006A5F7F4F42E050E090D300E010E0C701E2
:101A2000AED30F5F1F4F04301105C9F7C701BE01C8
:101A30006E5F7F4F42E050E080D3DC80CD80F1E0EC
:101A4000CF16D10401F5BE80AF8081E0A816B104A5
:101A5000D1F49A818B81049729F0C70137D327EFFE
:101A60003FEF26C0E2E0F0E02E0E3F1EC701B101BD
:101A700044E050E062D321E030E01AC0C7017FD3D8
:101A80000F5F1F4F02C000E010E09A808B800815A6
:101A90001905A0F30894411C511C4614570408F47E
:101AA00092CFC70113D326EF3FEF02C02EEF3FEFD7
:101AB000C90169960FB6F894DEBF0FBECDBFCF91B6
:101AC000DF911F910F91FF90EF90DF90CF90BF902B
:101AD000AF909F908F907F906F905F904F903F90CE
:101AE0002F90089584E592E099878887C701D2D224
:101AF0000C970CF009CF2DEF3FEFDACF6F927F926A
:101B00008F929F92AF92BF92CF92DF92EF92FF920D
:101B10000F931F93DF93CF9300D0CDB7DEB78C0127
:101B2000F62EE72E0E94C117F80177836683B8E08E
:101B3000CB2ED12CC00ED11E0A5F1F4FC601B8019B
:101B400042E050E098D381E090E09B838A83A2E05A
:101B50008A2E912C8C0E9D1EC601B40142E050E0ED
:101B60008AD380E091E09B838A83C601B40142E07E
:101B700050E081D31B821A82C601B40142E050E0DA
:101B80007AD3C601B40142E050E075D3C601B40176
:101B900042E050E070D32F2D3E2DC9018C017C0115
:101BA0003E010894611C711C1EC00894E11CF11CCC
:101BB000F7018081882311F08E32B9F75701A01AFE
:101BC000B10A1A141B0464F48E2D801B8983C6018C
:101BD000B30141E050E04FD3C601B801A5014BD39A
:101BE00087010F5F1F4FF7018081882311F0780173
:101BF000DFCF1982C601BE016F5F7F4F41E050E029
:101C00003AD300E011E01B830A83C601B40142E02D
:101C100050E031D31B830A83C601B40142E050E097
:101C20002AD381E090E00F900F900F90CF91DF9139
:101C30001F910F91FF90EF90DF90CF90BF90AF90EA
:101C40009F908F907F906F9008958F929F92AF9208
:101C5000BF92CF92DF92EF92FF920F931F93DF9389
:101C6000CF9300D000D0CDB7DEB76C017B014A0125
:101C70009BDD892B19F001E010E061C0F6012281A3
:101C80003381448155818091A0089091A108A09151
:101C9000A208B091A308281739074A075B0719F46F
:101CA0000EEF1FEF4CC018E0A12EB12CAC0CBD1CE8
:101CB0000E94C1179B01AC012F70307020503C4F27
:101CC000C501B90191D3813019F000E010E037C0AF
:101CD00084E592E09A838983F60182819381A481CD
:101CE000B5818B839C83AD83BE83C501BE016F5FCD
:101CF0007F4F45E350E0DCD28C010097F1F0C60144
:101D0000B701FCDE8C010097C1F0C501CED28C0179
:101D1000009799F0EE24FF24C60168E873E1A4015E
:101D200097DD8C010894E11CF11CF3E0EF16F1043F
:101D300021F08FEF0F3F180779F3C50141D3C80198
:101D400026960FB6F894DEBF0FBECDBFCF91DF91C0
:101D50001F910F91FF90EF90DF90CF90BF90AF90C9
:101D60009F908F900895DB01FC0124E532E03183E0
:101D7000208312962D913D914D915C911597228370
:101D800033834483558308950F9384EB98E060E098
:101D900040E020E000E00E94791E8CEA98E00E947A
:101DA000E01E0F9108956F927F928F929F92AF9253
:101DB000BF92CF92DF92EF92FF920F931F933C015D
:101DC0005B016A0149018EEC98E061D689E090E000
:101DD000B50146E050E095D482E090E0C80ED91EEF
:101DE0008FE090E0B60144E050E08BD40E5F1F4FCF
:101DF00081E090E0B80144E050E083D4E2E0F0E01C
:101E0000EE0EFF1E85E090E0B70144E050E079D48B
:101E1000F40182819381A481B581F301828393834C
:101E2000A483B5831F910F91FF90EF90DF90CF9027
:101E3000BF90AF909F908F907F906F9008956F921A
:101E40007F928F929F92AF92BF92CF92DF92EF924A
:101E5000FF920F931F93DF93CF93CDB7DEB76E97AB
:101E60000FB6F894DEBF0FBECDBF4C013B017A0127
:101E700069015801CE0101966FEF4FEF2FEF00E09F
:101E80000E94791E24E532E038872F83F701828192
:101E90009381A481B58189879A87AB87BC873E8768
:101EA0002D87F60182819381A481B5818F87988BDC
:101EB000A98BBA8B3C8B2B8BF50182819381A481FA
:101EC000B5818D8B9E8BAF8BB88F3A8F298F8B818D
:101ED0009C81AD81BE818B8F9C8FAD8FBE8FC401E5
:101EE000B301AE01495F5F4F9E01235F3F4F8E01FB
:101EF0000D5E1F4FE9E1EE2EF12CEC0EFD1E53DFBF
:101F00006E960FB6F894DEBF0FBECDBFCF91DF91B6
:101F10001F910F91FF90EF90DF90CF90BF90AF9007
:101F20009F908F907F906F9008950F931F93DF93F2
:101F3000CF93CDB7DEB768970FB6F894DEBF0FBE6C
:101F4000CDBFFA01D90122813381448155812B8390
:101F50003C834D835E83E4E5F2E0F887EF832987D5
:101F60003A874B875C87FE87ED8712962D913D91CE
:101F70004D915C9115972F87388B498B5A8BFC8B31
:101F8000EB8B21E02E832B813C814D815E812D8B5B
:101F90003E8B4F8B588FAE01495F5F4F9E01235F91
:101FA0003F4F8E010D5E1F4F4ADF68960FB6F894C3
:101FB000DEBF0FBECDBFCF91DF911F910F9108956E
:101FC000DF93CF93CDB7DEB762970FB6F894DEBF3D
:101FD0000FBECDBFFA0122813381448155812B830D
:101FE0003C834D835E83E4E5F2E0F887EF83298745
:101FF0003A874B875C87FE87ED8721E02E832B8114
:102000003C814D815E812F87388B498B5A8BAE0185
:10201000495F5F4F9E01235F3F4F87DF62960FB698
:10202000F894DEBF0FBECDBFCF91DF9108950F931F
:102030008AEB98E060E040E020E000E00E94791E3A
:102040000F9108950F9380EC98E060E040E020E06D
:1020500000E00E94791E0F910895DC01ED91FC9142
:10206000008CF18DE02D19950895DB01FC0124E52C
:1020700032E03183208351962D913D914D915C91B9
:10208000549722833383448355830895FC018589C3
:1020900096890895FC01818D928D0895DF93CF93E9
:1020A0000F92CDB7DEB7FC016983A081B181129692
:1020B0002D913C911397BE016F5F7F4F41E050E03F
:1020C000F90119950F90CF91DF910895CF93DF9388
:1020D000EC0107C0E881F9810680F781E02DCE018F
:1020E0001995898D9A8D892BA9F7DF91CF91089544
:1020F0000F9386EC98E060E040E020E000E00E9472
:10210000791E0F910895DF93CF930F92CDB7DEB76D
:10211000FC01818D928D892B19F42FEF3FEF08C0C0
:102120008485BE016F5F7F4F87D28981282F30E081
:10213000C9010F90CF91DF910895CF93DF93EC0108
:102140009A01498D5A8D4115510599F0241735078B
:1021500010F08C8502C08C85A9017CD29C011816D8
:1021600019063CF4898D9A8D821B930B9A8F898F67
:1021700002C02FEF3FEFC901DF91CF9108950F9378
:102180001F93DF93CF930F92CDB7DEB78C01FC0185
:10219000818D928D892BA1F08485BE016F5F7F4F69
:1021A00041E050E057D21816190654F4F801818D19
:1021B000928D0197928F818F8981282F30E002C004
:1021C0002FEF3FEFC9010F90CF91DF911F910F913A
:1021D0000895EF92FF920F931F93DF93CF93CDB7A4
:1021E000DEB728970FB6F894DEBF0FBECDBF8C01C7
:1021F000DC01ED91FC910284F385E02D19958EECC4
:1022000098E0F801648544D3892B19F420E030E08C
:1022100024C0D8011C968C917E010894E11CF11C0D
:10222000B70148E050E016D29C0118161906ACF42C
:10223000C8010F96B7010E94D31E9D8180E02E81B8
:10224000820F911DF801968B858B9F8180E02885F8
:10225000820F911D928F818F9C01C90128960FB624
:10226000F894DEBF0FBECDBFCF91DF911F910F91CC
:10227000FF90EF9008950F931F938C01FB019A013B
:10228000DC0157966D917C9158971C968C91AF010B
:10229000A6D19C01F8018789908D820F931F908FA2
:1022A000878BC9011F910F910895FC018485E1C0BE
:1022B000FC01108E178A6E5F7F4F848567C1FC0119
:1022C0001382128288EE93E0A0E0B0E084839583CD
:1022D000A683B78380E292E09183808384E0848741
:1022E000CF010F960C94E01E6F927F928F929F9277
:1022F000AF92BF92CF92DF92EF92FF920F931F9314
:10230000DF93CF93CDB7DEB7E5970FB6F894DEBF76
:102310000FBECDBF4C015B013A0183E1E82EF12CE9
:10232000EC0EFD1EC7010E94E01ECE014B96C7DFDA
:102330006E010894C11CD11CC6010E94E01E8E01D2
:10234000095F1F4FC8016CEA78E00DDDC701B801D5
:102350001DDAC701B501A60178DC9C018130910529
:10236000C9F4D401ED91FC910088F189E02D84E558
:1023700092E09E878D878B819C81AD81BE818F8706
:10238000988BA98BBA8BC401BE01635F7F4FA301F9
:1023900019959C01C901E5960FB6F894DEBF0FBEF2
:1023A000CDBFCF91DF911F910F91FF90EF90DF9004
:1023B000CF90BF90AF909F908F907F906F90089537
:1023C000CF93DF93EC018C85843059F071D0EC858C
:1023D000F0E0EE0FFF1FEC55F74F1182108284E002
:1023E0008C87DF91CF910895CF92DF92EF92FF9289
:1023F0000F931F93CF93DF937C016B01FC018485C6
:10240000843009F5C0E0D0E003E014E0C801A0D1B9
:10241000882311F0883119F4F701C48706C021968A
:1024200000501F4FC430D10589F7F70184858430EF
:1024300051F0D686C586128E118E62E0A60120E08C
:1024400070D081E001C080E0DF91CF911F910F91AA
:10245000FF90EF90DF90CF90089590E0982F88271D
:102460008E5F9B4F75C190E0982F88278E5F9B4FA2
:102470002EC11F93182F8EEC98E0612F40E250E0A0
:10248000F6D20AC0812FE9DF83FF06C0812F68E101
:10249000EADF20E030E009C0812FDFDF84FFF2CFE8
:1024A000812F60E1E0DF21E030E0C9011F91089554
:1024B0001F93182F8EEC98E0612F40E150E0D7D2A7
:1024C000812F6FEFD0DF1F910895FF920F931F931D
:1024D000F62E672F082F10E00C5F1F4F102F0027DC
:1024E000C8014096F4D0C80141966F2DF0D01F91DD
:1024F0000F91FF900895FF920F931F93F62E672F71
:10250000082F10E00C5F1F4F102F0027C801049602
:10251000DED0C80105966F2DDAD01F910F91FF9084
:102520000895FF920F931F93CF93DF93082FF62EFA
:10253000EA01122F862F8150853010F080E020C0F4
:10254000802FB6DF1F2980E0902F9C5F612FBFD0C6
:10255000209719F0802FBE010BC06091CC087091BC
:10256000CD086F5F7F4F7093CD086093CC08802FAC
:10257000C2DF8EEC98E0602F41E050E078D281E03D
:10258000DF91CF911F910F91FF9008951F93CF93EB
:10259000DF93182FFB01EA018081882349F48181B0
:1025A000882331F48281882319F48381882381F080
:1025B000209771F0912F80E0845F9B4FBF0144E032
:1025C00050E09FD0812FBE0180DF21E030E002C0CB
:1025D00020E030E0C901DF91CF911F910895AF92C3
:1025E000BF92DF92EF92FF920F931F93CF93DF93EF
:1025F000D82EEB015A0189018EEC98E06D2D77D130
:102600008017910710F0780105C08EEC98E06D2DD1
:102610006ED17C018EEC98E06D2DAE0195018701A5
:10262000B7D0C701DF91CF911F910F91FF90EF902D
:10263000DF90BF90AF9008950F93282FAB018EECE1
:1026400098E0622F21E030E001E0CBD181E090E022
:102650000F910895CF92DF92FF920F931F93CF9324
:10266000DF93F82E6B018A018EEC98E06F2D10D16C
:10267000EC01009761F49F2D80E08D5F9B4F68D047
:102680008431C9F08823B9F08C31A9F01DC0081736
:1026900019070CF4E8011C161D066CF48EEC98E08A
:1026A0006F2DA6019E0100E09CD18EEC98E06F2D6D
:1026B00040E450E0DCD1CE01DF91CF911F910F912A
:1026C000FF90DF90CF900895CFEFDFEFF4CF282F6A
:1026D0002C9880EF8EBD0DB407FEFDCF8EB59EBD4C
:1026E0000DB407FEFDCF8EB52EBD0DB407FEFDCF98
:1026F0008EB56EBD0DB407FEFDCF8EB52C9A81E070
:102700000895DC0120E030E090EF1DC02C989EBDC4
:102710000DB407FEFDCF8EB5BEBD0DB407FEFDCFD7
:102720008EB5AEBD0DB407FEFDCF8EB5FB01E20F39
:10273000F31F80818EBD0DB407FEFDCF11968EB5BF
:102740002C9A2F5F3F4F2417350700F3CA010895D5
:10275000282F2C988FE08EBD0DB407FEFDCF8EB5CF
:102760009EBD0DB407FEFDCF8EB52EBD0DB407FE88
:10277000FDCF8EB51EBC0DB407FEFDCF8EB52C9AD5
:10278000089590E00496982F8827860F971FE0CF32
:102790007F928F929F92AF92BF92CF92DF92EF92F1
:1027A000FF920F931F93CF93DF936C01762E7A01E4
:1027B00049015801862F64E270E0E3DF182F872D6E
:1027C00065E270E0DEDFC82FD0E0912F80E0C82BFB
:1027D000D92BCE0DDF1DAE015770872D90E0880FED
:1027E000991FC80ED91EF60120813181240F351F93
:1027F000CA018A0D9B1D8150984090F000E018E0BE
:10280000041B150BC901B401A8017BDFA501401B06
:10281000510BF60180819181080D191DB80103C08B
:10282000C901B401A5016DDF7E01EA0CFB1C072D77
:1028300010E00C5F1F4F102F0027C80184966F2DEA
:1028400046DFC80185966E2D42DFDF91CF911F9143
:102850000F91FF90EF90DF90CF90BF90AF909F903F
:102860008F907F9008950F931F93182F66E270E06A
:1028700088DF082F812F67E270E083DF502F40E070
:10288000282F30E0242B352BC9011F910F9108957B
:10289000FF920F931F93CF93DF93F62EC0E0D0E00B
:1028A0008F2DE1DF8C01009719F08F2DDCDFEC011B
:1028B000C017D107A9F7CE01DF91CF911F910F91DA
:1028C000FF9008950F931F93182F60E270E059DF77
:1028D000082F812F61E270E054DF502F40E0282F55
:1028E00030E0242B352BC9011F910F910895FF92E1
:1028F0000F931F93CF93DF93F62EC0E0D0E08F2D80
:10290000E1DF8C01009719F08F2DDCDFEC01C0179F
:10291000D107A9F7CE01DF91CF911F910F91FF90C1
:102920000895DC0120E030E09FE01DC02C989EBDA2
:102930000DB407FEFDCF8EB5BEBD0DB407FEFDCFB5
:102940008EB5AEBD0DB407FEFDCF8EB51EBC0DB469
:1029500007FEFDCF11968EB5FB01E20FF31F8083BA
:102960002C9A2F5F3F4F2417350700F3CA010895B3
:10297000CF92DF92EF92FF920F931F93CF93DF934B
:10298000690178015770C62FD0E02496CC0FDD1F67
:10299000C80FD91F28813981240F351FC801840F22
:1029A000951F8150984080F000E018E0041B150B43
:1029B000C901B601A801B5DFE01AF10A8881998141
:1029C0000C0D1D1DB80102C0C901B601A701A9DF88
:1029D000DF91CF911F910F91FF90EF90DF90CF90FB
:1029E00008958F929F92AF92BF92CF92DF92EF9213
:1029F000FF920F931F93CF93DF937C01A62E6A0162
:102A00004901B02E862F68E270E0BBDE182F8A2DB8
:102A100069E270E0B6DEC82FD0E0912F80E0C82BCD
:102A2000D92BC7016A2DAE0196018401A1DFBB201D
:102A300089F47E01E80CF91C0A2D10E00C5F1F4F91
:102A4000102F0027C80188966F2D41DEC801899696
:102A50006E2D3DDEDF91CF911F910F91FF90EF9092
:102A6000DF90CF90BF90AF909F908F9008951F936D
:102A7000162F962F80E08F5F9B4F642F28DE812FCB
:102A800061E070E07EDE8823D1F71F9108950F93F7
:102A90001F93182F092F6CE271E080E090E07FD245
:102AA0000E94A50B249A80E090E060E810DE8BE1A4
:102AB00090E065E50CDE8AE190E065E508DE212F17
:102AC000302FC901FC0180E090E491838083805025
:102AD000904E9187808780509841329620E68030D2
:102AE000920799F71F910F910895883008F078C0E8
:102AF000E82FF0E0EE0FFF1FE252F74F7183608383
:102B00008330D9F0843030F4813009F444C082300D
:102B100060F439C0853051F18530D8F0863009F441
:102B200046C0873009F05CC04FC0809169008C7F3F
:102B3000842B80936900E89A089580916900440F7E
:102B4000551F440F551F837F842B80936900E99A9A
:102B500008958091690074E0440F551F7A95E1F75C
:102B60008F7C842B80936900EA9A08958091690094
:102B700066E0440F551F6A95E1F78F73842B8093AD
:102B80006900EB9A089580916A008C7F842B809372
:102B90006A00EC9A089580916A00440F551F440F13
:102BA000551F837F842B80936A00ED9A089580914E
:102BB0006A0024E0440F551F2A95E1F78F7C842B8F
:102BC00080936A00EE9A089580916A0096E0440F1F
:102BD000551F9A95E1F78F73842B80936A00EF9AC3
:102BE00008951F920F920FB60F920BB60F921124F9
:102BF0002F933F934F935F936F937F938F939F9305
:102C0000AF93BF93EF93FF938091E2089091E30815
:102C1000892B29F0E091E208F091E3081995FF91E2
:102C2000EF91BF91AF919F918F917F916F915F9144
:102C30004F913F912F910F900BBE0F900FBE0F90B1
:102C40001F9018951F920F920FB60F920BB60F920E
:102C500011242F933F934F935F936F937F938F93A1
:102C60009F93AF93BF93EF93FF938091E40890916C
:102C7000E508892B29F0E091E408F091E508199521
:102C8000FF91EF91BF91AF919F918F917F916F9144
:102C90005F914F913F912F910F900BBE0F900FBE00
:102CA0000F901F9018951F920F920FB60F920BB6B0
:102CB0000F9211242F933F934F935F936F937F93C2
:102CC0008F939F93AF93BF93EF93FF938091E60809
:102CD0009091E708892B29F0E091E608F091E70848
:102CE0001995FF91EF91BF91AF919F918F917F9136
:102CF0006F915F914F913F912F910F900BBE0F906D
:102D00000FBE0F901F9018951F920F920FB60F9243
:102D10000BB60F9211242F933F934F935F936F93B2
:102D20007F938F939F93AF93BF93EF93FF93809184
:102D3000E8089091E908892B29F0E091E808F091E2
:102D4000E9081995FF91EF91BF91AF919F918F91F4
:102D50007F916F915F914F913F912F910F900BBE9B
:102D60000F900FBE0F901F9018951F920F920FB6E5
:102D70000F920BB60F9211242F933F934F935F93B3
:102D80006F937F938F939F93AF93BF93EF93FF9333
:102D90008091DE089091DF08892B29F0E091DE0810
:102DA000F091DF081995FF91EF91BF91AF919F913D
:102DB0008F917F916F915F914F913F912F910F90E4
:102DC0000BBE0F900FBE0F901F9018951F920F9281
:102DD0000FB60F920BB60F9211242F933F934F9380
:102DE0005F936F937F938F939F93AF93BF93EF9373
:102DF000FF938091E0089091E108892B29F0E09100
:102E0000E008F091E1081995FF91EF91BF91AF9122
:102E10009F918F917F916F915F914F913F912F91F2
:102E20000F900BBE0F900FBE0F901F9018951F9222
:102E30000F920FB60F920BB60F9211242F933F9360
:102E40004F935F936F937F938F939F93AF93BF93B2
:102E5000EF93FF938091EA089091EB08892B29F07A
:102E6000E091EA08F091EB081995FF91EF91BF917D
:102E7000AF919F918F917F916F915F914F913F9112
:102E80002F910F900BBE0F900FBE0F901F901895B3
:102E90001F920F920FB60F920BB60F9211242F9321
:102EA0003F934F935F936F937F938F939F93AF93D2
:102EB000BF93EF93FF938091EC089091ED08892BDD
:102EC00029F0E091EC08F091ED081995FF91EF9150
:102ED000BF91AF919F918F917F916F915F914F9132
:102EE0003F912F910F900BBE0F900FBE0F901F9030
:102EF00018951F920F920FB60F9211242F933F93A4
:102F00008F939F93AF93BF938091F2089091F308B2
:102F1000A091F408B091F5083091F6080196A11D32
:102F2000B11D232F2D5F2D3720F02D570196A11DA8
:102F3000B11D2093F6088093F2089093F308A093B4
:102F4000F408B093F5088091EE089091EF08A091F5
:102F5000F008B091F1080196A11DB11D8093EE0813
:102F60009093EF08A093F008B093F108BF91AF9150
:102F70009F918F913F912F910F900FBE0F901F90B7
:102F800018958FB7F8942091F2083091F30840918A
:102F9000F4085091F5088FBFB901CA0108959B014B
:102FA000AC017FB7F8948091EE089091EF08A09162
:102FB000F008B091F10866B5A89B05C06F3F19F005
:102FC0000196A11DB11D7FBFBA2FA92F982F882769
:102FD000860F911DA11DB11D62E0880F991FAA1FC8
:102FE000BB1F6A95D1F7BC012DC0FFB7F894809143
:102FF000EE089091EF08A091F008B091F108E6B5C5
:10300000A89B05C0EF3F19F00196A11DB11DFFBFA0
:10301000BA2FA92F982F88278E0F911DA11DB11DA2
:10302000E2E0880F991FAA1FBB1FEA95D1F7861B04
:10303000970B885E9340C8F221503040404050408A
:1030400068517C4F211531054105510571F60895F0
:10305000789484B5826084BD84B5816084BD85B573
:10306000826085BD85B5816085BDEEE6F0E080813A
:1030700081608083E1E8F0E010828081826080835B
:10308000808181608083E0E8F0E0808181608083DE
:10309000E1EBF0E0808184608083E0EBF0E0808110
:1030A00081608083E1E9F0E08081826080838081BB
:1030B00081608083E0E9F0E0808181608083E1EAE3
:1030C000F0E0808182608083808181608083E0EA9B
:1030D000F0E0808181608083E1E2F1E080818260C4
:1030E0008083808181608083E0E2F1E08081816083
:1030F0008083EAE7F0E08081846080838081826061
:103100008083808181608083808180688083109249
:10311000C1000895382F863308F0365320917B0084
:10312000832F86958695869590E08170907043E018
:10313000880F991F4A95E1F7277F282B20937B0062
:10314000377080911B028295880F880F807C832BBB
:1031500080937C0080917A00806480937A008091D3
:103160007A0086FDFCCF2091780040917900942F61
:1031700080E030E0282B392BC9010895CF93DF93ED
:10318000482F50E0CA0188589E4FFC0134914E5C94
:103190005E4FFA018491882369F190E0880F991FAE
:1031A000FC01EC51FF4FA591B491FC01E250FF4F9F
:1031B000C591D491662351F42FB7F8948C91932F35
:1031C000909589238C93888189230BC0623061F4A8
:1031D0002FB7F8948C91932F909589238C938881A5
:1031E000832B88832FBF06C09FB7F8948C91832BC5
:1031F0008C939FBFDF91CF910895893009F449C026
:103200008A30A0F4843051F1853040F4823079F175
:10321000833000F5813009F063C026C0873079F132
:10322000883098F5863009F05BC025C08D3009F4F0
:1032300042C08E3028F48B30B1F18C30C0F52DC0F7
:10324000803109F442C0813109F445C08F3009F062
:1032500047C037C0809180008F7703C08091800085
:103260008F7D80938000089584B58F7702C084B5E8
:103270008F7D84BD08958091B0008F7703C08091C9
:10328000B0008F7D8093B0000895809190008F777B
:1032900007C0809190008F7D03C080919000877F50
:1032A0008093900008958091A0008F7707C080914F
:1032B000A0008F7D03C08091A000877F8093A00035
:1032C0000895809120018F7703C0809120018F7D28
:1032D00080932001089580912001877F80932001B1
:1032E0000895FF920F931F93F62E482F50E0CA01C6
:1032F00082549E4FFC012491CA0188589E4FFC01C4
:1033000014914E5C5E4FFA0104910023C1F0222318
:1033100011F0822F72DFE02FF0E0EE0FFF1FE2507E
:10332000FF4FA591B4919FB7F894FF2021F48C91A1
:103330001095812302C08C91812B8C939FBF1F918C
:103340000F91FF9008950F931F93482F50E0CA01EB
:1033500082549E4FFC012491CA0188589E4FFC0163
:1033600004914E5C5E4FFA011491112319F420E090
:1033700030E014C0222311F0822F3FDF812F90E034
:10338000880F991F885E9E4FFC01A591B4918C9186
:1033900020E030E0802311F021E030E0C9011F91EE
:1033A0000F91089508951F920F920FB60F920BB6CA
:1033B0000F9211242F933F934F938F939F93EF93EB
:1033C000FF938091C00082FD1DC04091C6002091F6
:1033D0003709309138092F5F3F4F2F73307080913C
:1033E000390990913A092817390771F0E0913709A6
:1033F000F0913809E950F74F408330933809209312
:10340000370902C08091C600FF91EF919F918F9183
:103410004F913F912F910F900BBE0F900FBE0F90C9
:103420001F90189508951F920F920FB60F920BB62A
:103430000F9211242F933F934F938F939F93EF936A
:10344000FF938091C80082FD1DC04091CE00209165
:10345000BF093091C0092F5F3F4F2F7330708091AB
:10346000C1099091C2092817390771F0E091BF098D
:10347000F091C009E158F64F40833093C009209382
:10348000BF0902C08091CE00FF91EF919F918F9173
:103490004F913F912F910F900BBE0F900FBE0F9049
:1034A0001F90189508951F920F920FB60F920BB6AA
:1034B0000F9211242F933F934F938F939F93EF93EA
:1034C000FF938091D00082FD1DC04091D6002091D5
:1034D000470A3091480A2F5F3F4F2F733070809119
:1034E000490A90914A0A2817390771F0E091470A72
:1034F000F091480AE95FF54F40833093480A2093E2
:10350000470A02C08091D600FF91EF919F918F9161
:103510004F913F912F910F900BBE0F900FBE0F90C8
:103520001F90189508951F920F920FB60F920BB629
:103530000F9211242F933F934F938F939F93EF9369
:10354000FF938091300182FD1DC040913601209192
:10355000CF0A3091D00A2F5F3F4F2F733070809188
:10356000D10A9091D20A2817390771F0E091CF0A59
:10357000F091D00AE157F54F40833093D00A209361
:10358000CF0A02C080913601FF91EF919F918F91F8
:103590004F913F912F910F900BBE0F900FBE0F9048
:1035A0001F901895E091230BF091240BE05CFF4FE6
:1035B0008191919120813181821B930B8F73907047
:1035C000892B09F0EFDEE091450BF091460BE05CB2
:1035D000FF4F8191919120813181821B930B8F73D9
:1035E0009070892B09F01EDFE091670BF091680B5A
:1035F000E05CFF4F8191919120813181821B930B7F
:103600008F739070892B09F04DDFE091890BF09159
:103610008A0BE05CFF4F8191919120813181821B67
:10362000930B8F739070892B09F07CCF08951F92B4
:103630000F920FB60F920BB60F9211242F933F9358
:103640008F939F93EF93FF9320917B0930917C0997
:1036500080917D0990917E092817390731F4809176
:10366000C1008F7D8093C10014C0E0917D09F0916D
:103670007E09E55CF64F208180917D0990917E095D
:1036800001968F73907090937E0980937D092093AB
:10369000C600FF91EF919F918F913F912F910F90D5
:1036A0000BBE0F900FBE0F901F9018951F920F9298
:1036B0000FB60F920BB60F9211242F933F938F9357
:1036C0009F93EF93FF932091030A3091040A809116
:1036D000050A9091060A2817390731F48091C9002C
:1036E0008F7D8093C90014C0E091050AF091060A0D
:1036F000ED53F64F20818091050A9091060A0196BC
:103700008F7390709093060A8093050A2093CE00E1
:10371000FF91EF919F918F913F912F910F900BBE51
:103720000F900FBE0F901F9018951F920F920FB61B
:103730000F920BB60F9211242F933F938F939F9369
:10374000EF93FF9320918B0A30918C0A80918D0A20
:1037500090918E0A2817390731F48091D1008F7D1E
:103760008093D10014C0E0918D0AF0918E0AE55B40
:10377000F54F208180918D0A90918E0A01968F736A
:10378000907090938E0A80938D0A2093D600FF91BB
:10379000EF919F918F913F912F910F900BBE0F90C2
:1037A0000FBE0F901F9018951F920F920FB60F9299
:1037B0000BB60F9211242F933F938F939F93EF9308
:1037C000FF932091130B3091140B8091150B909166
:1037D000160B2817390731F4809131018F7D8093C2
:1037E000310114C0E091150BF091160BED52F54F1D
:1037F00020818091150B9091160B01968F7390701C
:103800009093160B8093150B20933601FF91EF9147
:103810009F918F913F912F910F900BBE0F900FBEF4
:103820000F901F901895AF92BF92DF92EF92FF9288
:103830000F931F93CF93DF93EC017A018B01DD246B
:10384000403081EE580780E0680780E0780711F08B
:10385000DD24D39491E0A92EB12CEC89FD89DD20E3
:1038600069F0C50108A002C0880F991F0A94E2F709
:10387000808360E079E08DE390E005C0108260E82D
:1038800074E88EE190E0A801970138D521503040CE
:1038900040405040569547953795279580E1203018
:1038A000380720F0DD2011F0DD24D7CFE889F98931
:1038B0003083EA89FB89208319A2EE89FF89408140
:1038C00021E030E0C9010C8C02C0880F991F0A94D6
:1038D000E2F7482B4083EE89FF894081C9010D8CB6
:1038E00002C0880F991F0A94E2F7482B4083EE89A3
:1038F000FF894081C9010E8C02C0880F991F0A946C
:10390000E2F7482B4083EE89FF8980810F8C02C04B
:10391000220F331F0A94E2F7209528232083DF919A
:10392000CF911F910F91FF90EF90DF90BF90AF90DC
:103930000895DC011C96ED91FC911D97E05CFF4F12
:103940002191319180819181281B390B2F73307027
:10395000C9010895DC011C96ED91FC911D97E05C76
:10396000FF4F20813181E054F040DF01AE5BBF4F5B
:103970008D919C9111972817390719F42FEF3FEF7C
:1039800007C08D919C91E80FF91F8081282F30E0AE
:10399000C9010895DC011C96ED91FC911D97E05C36
:1039A000FF4F20813181E054F040DF01AE5BBF4F1B
:1039B0008D919C9111972817390719F42FEF3FEF3C
:1039C00010C08D919C911197E80FF91F20818D9166
:1039D0009C91119701968F73907011969C938E9382
:1039E00030E0C9010895DC0191968C91919788236C
:1039F00039F05496ED91FC915597808186FFF9CF6F
:103A000091961C920895CF93DF93EC01EE85FF858C
:103A1000E05CFF4F20813181E054F0402F5F3F4F49
:103A20002F733070DF01AE5BBF4F8D919C9111976A
:103A300028173907D1F3E05CFF4F80819181E05472
:103A4000F040E80FF91F6083EE85FF85E05CFF4FD3
:103A500031832083EE89FF89208181E090E00F8C03
:103A600002C0880F991F0A94E2F7282B208381E077
:103A700089A3EC89FD8980818064808381E090E066
:103A8000DF91CF9108951F9310921A0B1092190B8A
:103A900028EE33E040E050E020931B0B30931C0BEA
:103AA00040931D0B50931E0B64E472E07093180B4F
:103AB0006093170B87EF98E09093240B8093230B70
:103AC0008BE399E09093260B8093250B85EC90E097
:103AD0009093280B8093270B84EC90E090932A0B13
:103AE0008093290B80EC90E090932C0B80932B0B10
:103AF00081EC90E090932E0B80932D0B82EC90E064
:103B00009093300B80932F0B86EC90E09093320BC8
:103B10008093310B14E01093330BB3E0B093340B6C
:103B2000A7E0A093350BF5E0F093360BE1E0E093CE
:103B3000370B10923C0B10923B0B20933D0B3093B4
:103B40003E0B40933F0B5093400B70933A0B6093A6
:103B5000390B8FE799E09093460B8093450B83ECEC
:103B600099E09093480B8093470B8DEC90E09093F5
:103B70004A0B8093490B8CEC90E090934C0B809314
:103B80004B0B88EC90E090934E0B80934D0B89EC9F
:103B900090E09093500B80934F0B8AEC90E09093C1
:103BA000520B8093510B8EEC90E09093540B8093CA
:103BB000530B1093550BB093560BA093570BF093E8
:103BC000580BE093590B10925E0B10925D0B2093F3
:103BD0005F0B3093600B4093610B5093620B7093BB
:103BE0005C0B60935B0B87E09AE09093680B80938B
:103BF000670B8BE49AE090936A0B8093690B85EDD9
:103C000090E090936C0B80936B0B84ED90E090931D
:103C10006E0B80936D0B80ED90E09093700B809312
:103C20006F0B81ED90E09093720B8093710B82ED9E
:103C300090E09093740B8093730B86ED90E09093DB
:103C4000760B8093750B1093770BB093780BA09342
:103C5000790BF0937A0BE0937B0B1092800B109210
:103C60007F0B2093810B3093820B4093830B5093F7
:103C7000840B70937E0B60937D0B8FE89AE090939A
:103C80008A0B8093890B83ED9AE090938C0B809341
:103C90008B0B85E391E090938E0B80938D0B84E3E7
:103CA00091E09093900B80938F0B80E391E0909341
:103CB000920B8093910B81E391E09093940B80930E
:103CC000930B82E391E09093960B8093950B86E3A0
:103CD00091E09093980B8093970B1093990BB0936E
:103CE0009A0BA0939B0BF0939C0BE0939D0B1F9161
:103CF00008950F93FC0184E592E0918380836283B1
:103D00004383248305830F91089584E592E0909383
:103D1000A00B80939F0B1092A10B1092A20B1092FC
:103D2000A30B1092A40B08958F929F92AF92BF9213
:103D3000CF92DF92EF92FF920F931F93CF93DF9377
:103D40004C016B017C01AA24BB24C0E0D0E0C60179
:103D5000F70162814AE050E006D18C01C6016EE2B3
:103D600070D0080F191FA00EB11E21960894E11CF7
:103D7000F11CC330D10559F7C601F40165814AE051
:103D800050E0F1D09501280F391FC901DF91CF9183
:103D90001F910F91FF90EF90DF90CF90BF90AF9069
:103DA0009F908F9008959C01FB0180819181A28159
:103DB000B381F90182839383A483B583C9010895F4
:103DC000FC0184E592E09183808312821382148245
:103DD00015820895CF93DF933BD90E94DC08C2ED92
:103DE000DAE10E946B0B2097E1F3DCDBFACFCF9294
:103DF000DF92EF92FF920F931F93CF93DF937C019B
:103E00006B018A01C0E0D0E00FC0D6016D916D0159
:103E1000D701ED91FC910190F081E02DC70119953A
:103E2000C80FD91F015010400115110571F7CE01BF
:103E3000DF91CF911F910F91FF90EF90DF90CF9086
:103E40000895DC01ED91FC910190F081E02D199530
:103E50000895CF93DF93EC016115710519F420E00B
:103E600030E00FC0DB010D900020E9F71197A61B91
:103E7000B70BE881F9810280F381E02DAD0119953E
:103E80009C01C901DF91CF9108954F925F927F927B
:103E90008F929F92AF92BF92CF92DF92EF92FF925A
:103EA0000F931F93DF93CF93CDB7DEB7A1970FB6D4
:103EB000F894DEBF0FBECDBF2C01742ECB01223093
:103EC00008F42AE019A231E2C32ED12CCC0EDD1E5B
:103ED000822E9924AA24BB24672D752FA501940155
:103EE0000DD279018A01C801B701A5019401D3D18E
:103EF000472D461B0894C108D1084A3014F4405D90
:103F000001C0495CF6014083E114F104010511058B
:103F100021F07E2C5F2DC801DFCFC201B60199DFF1
:103F2000A1960FB6F894DEBF0FBECDBFCF91DF9143
:103F30001F910F91FF90EF90DF90CF90BF90AF90C7
:103F40009F908F907F905F904F900895DC01211596
:103F5000310541F4ED91FC910190F081E02D642F49
:103F60001995089592CFEF92FF920F931F939A01A4
:103F7000E62EFF2400E010E0B801A701E7DF1F9163
:103F80000F91FF90EF9008955058BB27AA270ED0AD
:103F9000E5C0D6D030F0DBD020F031F49F3F11F4F3
:103FA0001EF4CBC00EF4E095E7FBC1C0E92FE7D0CB
:103FB00080F3BA17620773078407950718F071F446
:103FC0009EF5FFC00EF4E0950B2EBA2FA02D0B012D
:103FD000B90190010C01CA01A0011124FF27591B4E
:103FE00099F0593F50F4503E68F11A16F040A22F54
:103FF000232F342F4427585FF3CF469537952795C5
:10400000A795F0405395C9F77EF41F16BA0B620BC3
:10401000730B840BBAF09150A1F0FF0FBB1F661F0A
:10402000771F881FC2F70EC0BA0F621F731F841F4D
:1040300048F4879577956795B795F7959E3F08F073
:10404000B3CF9395880F08F09927EE0F9795879532
:10405000089504D06894B111B5C0089598D088F03F
:104060009F5790F0B92F9927B751A0F0D1F0660F64
:10407000771F881F991F1AF0BA95C9F712C0B1307F
:1040800081F09FD0B1E008959CC0672F782F8827DA
:10409000B85F39F0B93FCCF3869577956795B395BE
:1040A000D9F73EF490958095709561957F4F8F4F2D
:1040B0009F4F0895E89409C097FB3EF49095809532
:1040C000709561957F4F8F4F9F4F9923A9F0F92FDE
:1040D00096E9BB279395F695879577956795B7955C
:1040E000F111F8CFFAF4BB0F11F460FF1BC06F5F42
:1040F0007F4F8F4F9F4F16C0882311F096E911C054
:10410000772321F09EE8872F762F05C0662371F074
:1041100096E8862F70E060E02AF09A95660F771F88
:10412000881FDAF7880F9695879597F9089597F97C
:104130009F6780E870E060E008959FEF80EC08954D
:1041400000240A9416161706180609060895002476
:104150000A9412161306140605060895092E0394F0
:10416000000C11F4882352F0BB0F40F4BF2B11F464
:1041700060FF04C06F5F7F4F8F4F9F4F089557FDC3
:104180009058440F551F59F05F3F71F04795880FC5
:1041900097FB991F61F09F3F79F08795089512165C
:1041A00013061406551FF2CF4695F1DF08C0161608
:1041B00017061806991FF1CF8695710561050894B9
:1041C0000895E894BB2766277727CB0197F90895D0
:1041D0000BD0C4CFB5DF28F0BADF18F0952309F073
:1041E000A6CFABCF1124EECFCADFA0F3959FD1F3BA
:1041F000950F50E0551F629FF001729FBB27F00D95
:10420000B11D639FAA27F00DB11DAA1F649F6627E9
:10421000B00DA11D661F829F2227B00DA11D621F38
:10422000739FB00DA11D621F839FA00D611D221FF2
:10423000749F3327A00D611D231F849F600D211DD6
:10424000822F762F6A2F11249F5750408AF0E1F079
:1042500088234AF0EE0FFF1FBB1F661F771F881FC2
:1042600091505040A9F79E3F510570F060CFAACF02
:104270005F3FECF3983EDCF3869577956795B795AD
:10428000F795E7959F5FC1F7FE2B880F911D9695D7
:10429000879597F90895629FD001739FF001829FDF
:1042A000E00DF11D649FE00DF11D929FF00D839FC5
:1042B000F00D749FF00D659FF00D9927729FB00D62
:1042C000E11DF91F639FB00DE11DF91FBD01CF0175
:1042D00011240895AA1BBB1B51E107C0AA1FBB1FD5
:1042E000A617B70710F0A61BB70B881F991F5A9582
:1042F000A9F780959095BC01CD010895A1E21A2EF1
:10430000AA1BBB1BFD010DC0AA1FBB1FEE1FFF1F79
:10431000A217B307E407F50720F0A21BB30BE40BC9
:10432000F50B661F771F881F991F1A9469F7609510
:104330007095809590959B01AC01BD01CF010895CA
:10434000EE0FFF1F0590F491E02D1994F894FFCF24
:10435000DEADBEEFFEEDA2540D0011001C001200F8
:104360001A00130008000A0100FF0001000000000D
:104370004E103B114A10BF1083106610F411E0116B
:10438000581174115511E9109D102D10351046105B
:1043900000000000031DF71E991CCA1CAA1CF31C78
:0643A00000000000941E65
:00000001FF
