:100000000AC100000C9498170C94C9170C94FA17A5
:100010000C942B180C945C180C948D180C94BE182E
:100020000C94EF1825C1000023C1000021C100007D
:100030001FC100001DC100001BC1000019C100004C
:1000400017C1000015C1000013C1000011C100005C
:1000500010C100000DC100000BC100000C9420195C
:1000600007C100000C947A1B0C94BE1C01C1000057
:10007000FFC00000FDC00000FBC00000F9C0000090
:10008000F7C00000F5C00000F3C0000090C1000000
:100090000C94BA1B0C94FD1CEBC00000E9C00000DE
:1000A000E7C00000E5C00000E3C00000E1C00000C0
:1000B000DFC00000DDC00000DBC00000D9C00000D0
:1000C000D7C00000D5C00000D3C000000C94FA1BBC
:1000D0000C943C1DCDC000000C943A1C0C947B1D6C
:1000E000C7C0000000002100240027002A002D00C6
:1000F0003000330001010000040107010A01000083
:100100002200250028002B002E00310034000201BF
:100110000000050108010B0100002000230026005B
:1001200029002C002F00320000010000030106010D
:10013000090105050505070508080808020202026D
:100140000A0A080804040404010101010101010173
:100150000303030303030303040707070C0C0C0C3E
:100160000C0C0C0C02020202060606060606060627
:100170000B0B0B0B0B0B0B0B0102102020080810B4
:100180002040102040800201020108040201010207
:1001900004081020408080402010080402018004E0
:1001A000020180402010080402010804020101023B
:1001B0000408102040800102040810204080000044
:1001C000090A02080B0C0D070603040100000000D9
:1001D000000000000000000000000000000000001F
:1001E0000000000000000000000011100F000000DF
:1001F00000000000000000000000000000000000FF
:1002000000000000B006620DC40D6B10BE11C911D4
:100210001F12EA1E2C2011241FBECFEFD1E2DEBF39
:10022000CDBF00E00CBF12E0A0E0B2E0E4E9F7E4EB
:1002300000E00BBF02C007900D92A236B107D9F7BC
:100240001BBE17E1A2E6B2E001C01D92A036B107C5
:10025000E1F712E0C6E1D2E004C02297FE010E945D
:10026000C423C430D107C9F70E9491200C94C8233D
:10027000C7CE1F920F920FB60F9211242F933F9368
:100280004F935F936F937F938F939F938091FE0221
:100290009091FF0290938500809384002091FA0250
:1002A0003091FB022F5F3F4F3093FB022093FA0205
:1002B0004091FC025091FD024F5F5F4F5093FD0251
:1002C0004093FC026091C9037091CA036F5F7F4F36
:1002D0007093CA036093C903809104038F5F809376
:1002E0000403909105039F5F909305038B3F18F0E3
:1002F0008AEF809304039B3F18F08AEF80930503F5
:10030000285E334080F081E0809302031092FB026C
:100310001092FA028091BC03882329F48091B703DC
:100320008F5F8093B7034436510538F081E08093A6
:1003300003031092FD021092FC028091B7038C33EC
:1003400018F08CE38093B7038091B7038C3388F067
:1003500020910204213069F48091BD039091BE0385
:1003600001969093BE038093BD031092B703209330
:1003700030048091BC03882329F06739710510F49B
:100380002F9A01C02F986C5B724020F01092CA0324
:100390001092C9039F918F917F916F915F914F91BF
:1003A0003F912F910F900FBE0F901F9018951F92A5
:1003B0000F920FB60F9211242F933F938F939F9319
:1003C0008091000390910103909395008093940095
:1003D000809141148130D9F4209145143091461414
:1003E00080910802909109022817390780F48091C2
:1003F0004314813061F42F5F3F4F309346142093B4
:10040000451480910B01886080930B0106C0109207
:10041000461410924514109243148091431488237B
:1004200001F58091491490914A14019690934A14D1
:100430008093491420910B01277F20930B01209179
:100440000C0230910D028217930758F010924A1453
:100450001092491481E08093431410924614109234
:100460004514809142148130D9F420914B1430917D
:100470004C1480910A0290910B022817390780F4DE
:1004800080914414813061F42F5F3F4F30934C14BE
:1004900020934B1480910B01826080930B0106C066
:1004A00010924C1410924B141092441480914414E6
:1004B000882301F5809147149091481401969093F8
:1004C00048148093471420910B012D7F20930B013A
:1004D00020910C0230910D028217930758F0109270
:1004E00048141092471481E08093441410924C14E5
:1004F00010924B149F918F913F912F910F900FBEAF
:100500000F901F90189520E834E84EE150E00E94CB
:100510005A2320E432E44FE050E00E948C233095CF
:1005200021953F4F3093FF022093FE0210928000EE
:1005300082E080938100EFE6F0E08081816080833B
:100540003093850020938400089520E834E84EE13C
:1005500050E00E945A2320E432E44FE050E00E9431
:100560008C23309521953F4F309301032093000356
:100570001092900082E080939100E1E7F0E08081AA
:100580008160808330939500209394000895EF92CA
:10059000FF920F931F938091B502882381F0909171
:1005A000040380912002891750F41092B502109232
:1005B000B9021092B8021092B3021092B102809167
:1005C000B602882381F0909105038091200289175B
:1005D00050F41092B6021092BB021092BA0210921E
:1005E000B4021092B20280910403893C38F48091E5
:1005F000B8029091B902892B71F04AC01092B902E9
:100600001092B8021092B3021092B1028091B90315
:100610008E7F8093B9038091B4022091BA02309109
:10062000BB02813049F488279927821B930B909352
:10063000C1028093C00204C03093C1022093C00263
:100640008091B2022091C0023091C1028130C1F488
:10065000B901882777FD8095982F0E946B222CE5A1
:100660003FE842EA5FE30E94F7220E94382270933B
:10067000C1026093C0027093C9026093C80208C0AF
:100680003093C1022093C0023093C9022093C80264
:1006900080910503893C38F48091BA029091BB02A5
:1006A000892B71F04AC01092BB021092BA021092CC
:1006B000B4021092B2028091B9038D7F8093B90386
:1006C0008091B3022091B8023091B902813049F48F
:1006D00088279927821B930B9093C1028093C002B5
:1006E00004C03093C1022093C0028091B1022091D6
:1006F000C0023091C1028130C1F4B901882777FD71
:100700008095982F0E946B222CE53FE842EA5FE338
:100710000E94F7220E9438227093C1026093C002A7
:100720007093C7026093C60208C03093C102209341
:10073000C0023093C7022093C6028091B903837030
:10074000833009F0F8C08091B3022091B802309153
:10075000B902813069F488279927821B930B909303
:10076000C3028093C2029093C7028093C60208C05E
:100770003093C3022093C2023093C7022093C60273
:100780008091B4022091BA023091BB02813069F4A9
:1007900088279927821B930B9093C5028093C402EC
:1007A0009093C9028093C80208C03093C502209379
:1007B000C4023093C9022093C8020091B1020130F3
:1007C000B1F46091C2027091C302882777FD8095D1
:1007D000982F0E946B222CE53FE842EA5FE30E94DB
:1007E000F7220E9438227093C7026093C6021091CC
:1007F000B2021130B1F46091C4027091C502882731
:1008000077FD8095982F0E946B222CE53FE842EA05
:100810005FE30E94F7220E9438227093C90260931E
:10082000C8028091B8029091B902892B09F483C063
:100830008091BA029091BB02892B09F47CC00130EF
:1008400009F03FC0113009F070C06091C202709190
:10085000C302882777FD8095982F0E946B222CE594
:100860003FE842EA5FE30E94F72239C06091C2028A
:100870007091C302882777FD8095982F0E946B2284
:100880002CE53FE842EA5FE30E94F7227B018C01FE
:100890006091C4027091C502882777FD8095982FDA
:1008A0000E946B229B01AC01C801B7010E946C2120
:1008B00020E030E040E05FE30E94F7220E9438220F
:1008C0002FC00023C1F51130A1F56091C2027091D3
:1008D000C302882777FD8095982F0E946B227B01A9
:1008E0008C016091C4027091C502882777FD8095C4
:1008F000982F0E946B222CE53FE842EA5FE30E94BA
:10090000F722D0CF8091C4029091C5022091C202FB
:100910003091C302820F931F62E070E00E9479233E
:100920007093C1026093C00206C0112309F49ECFE8
:1009300002C0112339F31F910F91FF90EF9008959A
:100940009F92AF92BF92CF92DF92EF92FF920F935E
:100950001F93CF93DF93982EA92EB62E4F5F282F8B
:10096000392FC901EC01EE2460E070E0FF24C42EB1
:10097000DD2422C0A881B981892D9A2D9C01F9011D
:1009800030E020E08D010C191D09A6014A0F5B1F04
:100990000BC0808191810817190720F484179507EF
:1009A00008F43F5F2F5F32962B1598F3E31610F48F
:1009B000E32EBD01F3942296FB14E0F2CB01DF910C
:1009C000CF911F910F91FF90EF90DF90CF90BF904C
:1009D000AF909F9008958091370490913804A09132
:1009E000C002B091C102FC01EE0FFF1FEF5BFB4F95
:1009F000B183A0834091390450913A04BC016F5FE8
:100A00007F4F841B950B977090933C0480933B041D
:100A100020913D0430913E048217930788F1FA013A
:100A2000EE0FFF1FEF5BFB4F808191819D01281B23
:100A3000390B30932402209323024F5F5F4F57708E
:100A400050933A044093390481E0809331048091BB
:100A5000B90380618093B903265F3F4F253131058B
:100A600020F48091BC03882311F01092B803809188
:100A7000B803813029F48091BB038F5F8093BB035F
:100A80007770709338046093370408951F938091B2
:100A90000204813009F02CC110913404A12FB0E080
:100AA000FD01EE0FFF1FEE0FFF1FEF52FC4F2081E5
:100AB00031812115310509F416C180912E04882356
:100AC000E1F4FD01EE0FFF1FEE0FFF1FE153FC4F9E
:100AD000808191819093360480933504892B31F481
:100AE00082E090E0909336048093350430933E0486
:100AF00020933D0481E080932E0420918D0230915B
:100B00008E024091350450913604BA016250704013
:100B10006217730720F081E08093411407C0809131
:100B20000B01877F80930B0110924114415F5F4F4F
:100B30002417350720F081E08093421407C080918C
:100B40000B018D7F80930B011092421426173707FB
:100B500008F4CEC04217530708F4CAC080912F048E
:100B6000882309F0F3C080913F04909140048C5297
:100B7000914048F11092BE031092BD031092B7034A
:100B8000109231048091B9038F7E91E090933004EC
:100B900090932F0480628093B903109240041092C6
:100BA0003F0410923C0410923B04109238041092BF
:100BB000370410923A04109239048FEF9FE090931B
:100BC00024028093230280913F0490914004019677
:100BD0009093400480933F04B9C00B970CF088C0F9
:100BE00020912F04213009F083C02093B803809115
:100BF000BB03853008F47CC01196FD01EE0FFF1F8A
:100C0000EE0FFF1FE153FC4F80819181892BB1F5DD
:100C1000AA0FBB1FAA0FBB1FAF52BC4F8D919C9157
:100C2000892B61F5109202048091B90310922E0471
:100C30001092411410924214209333041092320403
:100C400010922F04109231048F788093B903109280
:100C50003C0410923B041092380410923704109216
:100C60003A04109239041092B8031092BB038FEF2C
:100C70009FE090932402809323022AC010922E04B6
:100C800010922F048091B9031F5F109334041092C7
:100C90003C0410923B0410923804109237041092D6
:100CA0003A0410923904109231048F7C8093B90376
:100CB0008FEF9FE090932402809323021092BE0353
:100CC0001092BD031092B7031092B8031092BB03A9
:100CD00080910B01877F80930B0180910B018D7FA9
:100CE00080930B0105C08091B90388608093B9039C
:100CF000809134048B3040F08AE0809334048091FA
:100D0000B90388608093B903809133048130B9F4CA
:100D100080910B01877F80930B0180910B01826092
:100D200080930B0180918D0290918E02409738F450
:100D30001092330480910B018D7F80930B01809181
:100D400034048F5F8093BA031F910895809123022A
:100D5000909124022FEF863F92070CF03ECFC8CF30
:100D60000F938DE494E160E040E020E000E00E9419
:100D7000202082E692E060EC48EA20E001EA0E944E
:100D8000202088E692E060EC48EA20E00FEF0E9425
:100D900020208EE692E00E9406130F910895AF92F4
:100DA000BF92CF92DF92EF92FF920F931F93CF9358
:100DB000DF938091B702C82FD0E080911A020E9481
:100DC000311ACC0FDD1FCF56DD4F99838883809178
:100DD000B7028F5F8F708093B70281E992E060E184
:100DE00041E0AEDD2091C3033091C4038217930725
:100DF000C0F0821B930BBC0180E090E00E9469224E
:100E00002091CB033091CC034091CD035091CE0380
:100E10000E94F7220E943D227093900260938F02FD
:100E200004C01092900210928F02A0901C02B09009
:100E30001D02C0901E02D0901F0260E070E080E8AA
:100E40009FE3A60195010E946B217B018C016091BB
:100E50008D0270918E0280E090E00E9469229B01D9
:100E6000AC01C801B7010E94F7227B018C0160919F
:100E70008F027091900280E090E00E9469229B01B5
:100E8000AC01C601B5010E94F7229B01AC01C8016B
:100E9000B7010E946C210E943D2270938E026093E4
:100EA0008D0210920303DF91CF911F910F91FF905C
:100EB000EF90DF90CF90BF90AF9008951092050310
:100EC0008091B90382608093B9038091B602843126
:100ED000D0F4809116020E944A1B892B81F521E0F3
:100EE00030E00090B60202C0220F331F0A94E2F7EE
:100EF0008091BC029091BD02822B932B9093BD02F6
:100F00008093BC021CC0843159F4809116020E9467
:100F10004A1B1092B402892B19F481E08093B40229
:100F20008091B602873159F4809116020E944A1BC3
:100F30001092B202892B19F481E08093B202809161
:100F4000B6028F5F8093B6028831C0F08091BC02F8
:100F50009091BD029C01F3E0220F331FFA95E1F757
:100F6000880F991F280F391F3093BB022093BA02B4
:100F70001092B6021092BD021092BC020895109217
:100F800004038091B90381608093B9038091B50215
:100F90008431D0F4809112020E944A1B892B81F582
:100FA00021E030E00090B50202C0220F331F0A9406
:100FB000E2F78091BE029091BF02822B932B909317
:100FC000BF028093BE021CC0843159F4809112028A
:100FD0000E944A1B1092B302892B19F481E080937E
:100FE000B3028091B502873159F4809112020E94B8
:100FF0004A1B1092B102892B19F481E08093B1024F
:101000008091B5028F5F8093B5028831C0F08091E6
:10101000BE029091BF029C01B3E0220F331FBA952C
:10102000E1F7880F991F280F391F3093B9022093D9
:10103000B8021092B5021092BF021092BE0208953B
:10104000DF93CF9300D000D0CDB7DEB780912703D8
:10105000E82FF0E0EE0FFF1FEA5FFC4F8081813048
:1010600009F027C19181913071F482E880932C03BB
:1010700010922D0310922E0390932F0381E48093FE
:10108000300386E0B5C09230C1F481E880932C0330
:1010900010922D0310922E0383E080932F038091F2
:1010A000B303809330038091B10380933103809127
:1010B000B2038093320388E09BC0933009F058C09C
:1010C00085E880932C0310922D0310922E0380E16B
:1010D00080932F038091C6029091C70280933003C2
:1010E000892F990F990B809331038091C8029091B9
:1010F000C90280933203892F990F990B8093330390
:101100008091C0029091C10280933403892F990F7E
:10111000990B80933503809125029091260280934C
:101120003603892F990F990B8093370380918D0295
:1011300090918E0280933803909339038091BD0380
:101140009091BE0380933A0390933B038091B70341
:1011500080933C038091BA0380933D038091B9034F
:1011600080933E038091BC0380933F0385E140C0A0
:10117000943009F03FC083E880932C0310922D0334
:1011800010922E038091FF03482F50E0440F551F0B
:10119000440F551F40932F038FEC93E0909304046A
:1011A000809303041092B6031092B50311C0E0912E
:1011B0000304F0910404819116968C93F093040437
:1011C000E09303042F5F3F4F3093B6032093B503A2
:1011D0002091B5033091B603D901A65DBC4F241709
:1011E00035072CF38091B90316968C93822F8A5F72
:1011F0008093290380E692E09A83898380916A0232
:1012000090916B02A0916C02B0916D028B839C83D4
:10121000AD83BE8340910602509107028EE692E0B4
:10122000BE016F5F7F4F0E94FF121092B6031092B3
:10123000B503109228031CC0A230B1054CF0FD018B
:10124000E65DFC4F809128039081890F80932803ED
:10125000A65DBC4F8EE692E06C910E94F5118091E4
:10126000B5039091B60301969093B6038093B503AE
:10127000A091B503B091B6038091290390E08A173D
:101280009B07D4F68EE692E0609128030E94F51148
:101290008EE692E00E94FC1280912703E82FF0E096
:1012A000EE0FFF1FEA5FFC4F10828F5F8F708093FD
:1012B000270326960FB6F894DEBF0FBECDBFCF91A1
:1012C000DF910895DF93CF9300D000D0CDB7DEB784
:1012D0008091120261E00E94181B8091140261E06B
:1012E0000E94181B8091120260E00E94651A809192
:1012F000140260E00E94651A8091160261E00E946B
:10130000181B8091180261E00E94181B8091160240
:1013100060E00E94651A8091180260E00E94651AE0
:1013200085E06FEB77E042E050E00E941C1784E01C
:101330006EE577E042E050E00E941C1768EE73E033
:1013400080E090E0E0D868EE73E080E090E0FDD8C7
:1013500080910E0261E00E94651A8091100260E0A7
:101360000E94651A8EE261E00E94651A80E361E0E6
:101370000E94651A85E361E00E94651A80E692E0AA
:101380009A8389838091640290916502A09166029C
:10139000B09167028B839C83AD83BE8387E694E123
:1013A00060E072E0AE014F5F5F4FB1D7609106021F
:1013B000709107028EE692E00E949B1382ED96E107
:1013C00040E855E260E070E00E94BA1D64EF71E011
:1013D00080E090E00E94761983E980932A038AE6F0
:1013E00080932B0310922C0310922D0310922E0346
:1013F000E1EDF3E011821082349684E0E130F807E9
:10140000C9F726960FB6F894DEBF0FBECDBFCF91B9
:10141000DF9108954F925F926F927F928F929F9289
:10142000AF92BF92CF92DF92EF92FF920F931F93F2
:10143000CF93DF938EE692E00E9490126C010097AA
:1014400009F4B1C28EE692E06AEC72E040E350E04B
:101450000E9444121092B6031092B5031092AE038C
:101460001092AA031092AD0312E0F12EEE24E39441
:10147000BFECAB2EB3E0BB2EAFEF8A2EAFE09A2EBF
:10148000F4E04F2EE0EC7E2E78EA672E55245A9435
:1014900077C2E653FD4F90819093AC032091AA034D
:1014A0002230A1F48091AD03813009F072C2909393
:1014B000AB031092AE031092000408C09093B103E6
:1014C00005C09093B20302C09093B4039A3621F4FE
:1014D000213011F4F092AA038091AA03813011F413
:1014E0001092AA03933931F48091AA03882311F44E
:1014F000E092AA032091AB03213009F0C4C080918F
:10150000AD03882309F49BC1813009F414C18530EF
:1015100019F49093010493C1863009F090C1809131
:10152000AE03891709F08BC1809101048134F9F46D
:101530001092AA031092AD031092B0031092AF0361
:1015400080912603E82FF0E0EE0FFF1FEA5FFC4FCB
:101550002083F1828F5F8F708093260370926A02DE
:1015600060926B0210926C0250926D0268C18234DC
:10157000D9F41092AA031092AD031092B003809197
:101580002603E82FF0E0EE0FFF1FEA5FFC4F2083F9
:10159000F1828F5F8F70E82FF0E0EE0FFF1FEA5FA0
:1015A000FC4F20834182B8C0833401F51092AA0316
:1015B0001092AD031092B00380912603E82FF0E063
:1015C000EE0FFF1FEA5FFC4F2083F1828F5F8F7069
:1015D00080932603209302041092B7038091B903ED
:1015E00080648093B9031092340429C1843409F0D3
:1015F00026C11092AA031092AD031092B0038091FD
:101600002603E82FF0E0EE0FFF1FEA5FFC4FE082B9
:10161000F1828F5F8F7080932603109202041092E4
:101620002E041092BE031092BD031092B7031092C5
:10163000411410924214E09233041092320410923A
:101640002F041092310410923C0410923B0410922B
:1016500038041092370410923A04109239048091A1
:10166000B90387788093B903909224028092230271
:1016700080910B01877F80930B0180910B018D7FFF
:1016800080930B01DCC0223009F04BC08091AD0388
:10169000882309F4D4C0813009F44DC0853019F491
:1016A00090938902CCC0863019F490938A02C7C007
:1016B000873019F490938B02C2C0883019F490934C
:1016C0008C02BDC0893009F0BAC08091AE03891781
:1016D00009F0B5C0E092AF031092AA031092AD03D7
:1016E0001092B0038091890280936A0280918A02ED
:1016F00080936B0280918B0280936C0280918C02AC
:1017000080936D0280912603E82FF0E0EE0FFF1F1B
:10171000EA5FFC4FE082F1828F5F8F708093260337
:101720008EC0233009F08BC08091AD03882309F46B
:1017300086C0813019F48093B00381C0853008F4ED
:101740007EC020910004E22FF0E0EB5FFB4F90831E
:101750008091AE03891709F06DC08091B4032817FA
:1017600009F068C0B0920404A09203041092B6037A
:101770001092B5031AC0E0910304F0910404AB5F2A
:10178000BB4F8C9180838091030490910404019657
:1017900090930404809303048091B5039091B60361
:1017A00001969093B6038093B503A091B503B091D1
:1017B000B6038091B40390E0A817B907E4F217C00C
:1017C000E0910304F091040410828091030490914D
:1017D0000404019690930404809303048091B5035C
:1017E0009091B60301969093B6038093B5038091D0
:1017F000B5039091B60388971CF38091000490E0A4
:1018000095958795959587958093FF031092AA03E8
:101810001092AD031092B00380912603E82FF0E000
:10182000EE0FFF1FEA5FFC4FE082F1828F5F8F7047
:1018300080932603809100048F5F80930004809141
:10184000AB03843009F071C08091AD03882309F4A3
:101850006CC0813019F48093B00367C0853039F4CF
:101860008091AC038093BF031092C0035EC08630AA
:1018700039F48091AC038093C1031092C20355C028
:10188000873039F48091AC038093C5031092C6036E
:101890004CC0883039F48091AC038093C703109218
:1018A000C80343C0893009F040C09091AE038091D5
:1018B000AC039817D1F51091C10300E06091BF030C
:1018C0007091C003602B712B7093220260932102F0
:1018D000D091C703C0E02091C5033091C6032C2BE3
:1018E0003D2B3093C4032093C30380E090E00E941B
:1018F000692220E030E44CE156E40E94D02160935C
:10190000CB037093CC038093CD039093CE0380914F
:101910002603E82FF0E0EE0FFF1FEA5FFC4FE082A6
:10192000F1828F5F8F70809326032091AD03222375
:1019300039F08091AE039091AC03890F8093AE0390
:101940008091AA03823051F4213041F48091B00398
:10195000882321F41092AA031092AD038091AA0368
:10196000823028F08091AD038F5F8093AD0380912A
:10197000B5039091B60301969093B6038093B50397
:10198000E091B503F091B603EC15FD050CF481CDA3
:101990000AC0823009F492CD833009F492CD8430AC
:1019A00009F094CD91CDDF91CF911F910F91FF90D0
:1019B000EF90DF90CF90BF90AF909F908F907F90EF
:1019C0006F905F904F9008950E94C70223DD5ED80C
:1019D00037DB8091B9039091BC0380FD02C0916018
:1019E00001C09E7F9093BC039091BC0381FD02C017
:1019F000926001C09D7F9093BC0380913004882346
:101A000021F0109230040E94EB048091020388239D
:101A1000E9F1109202039091AF03992359F4809158
:101A20002603E82FF0E0EE0FFF1FEA5FFC4F91E086
:101A300090830CC0913079F480912603E82FF0E078
:101A4000EE0FFF1FEA5FFC4F908393E091838F5F5F
:101A50008F708093260380913104813089F4E09166
:101A60003904F0913A04EE0FFF1FEF5BFB4F8091BA
:101A7000C0029091C10220813181821B930B02C070
:101A80008FEF9FE0909326028093250280910303BD
:101A9000813009F484C9089585E361E00E94181B30
:101AA00085E361E00E94651A8CB580618CBD8CB5C0
:101AB00080648CBD84E361E00E94651A83E361E089
:101AC0000C94651A0F9383E594E160E040E020E018
:101AD00000E00E9420200F9108959C01FB0182816B
:101AE0009381A481B581F90182839383A483B58313
:101AF000178216820895CF93DF93FB0101C03196C0
:101B000080818823E1F7EB01A0E0B0E020E030E045
:101B100021C06E3261F42F3F310509F07CF5FA01E6
:101B2000EA0FFB1F2283119620E030E012C0C901AA
:101B3000E3E0880F991FEA95E1F7220F331F820F28
:101B4000931F262F332727FD309520533040280F31
:101B5000391F21966881662319F0A430B105CCF2B3
:101B60002F3F310509F054F4A430B1053CF4A40F23
:101B7000B51F12962C9321E030E002C020E030E047
:101B8000C901DF91CF9108950F9389E594E160E059
:101B900040E020E000E00E9420200F9108952F9265
:101BA0003F924F925F926F927F928F929F92AF92ED
:101BB000BF92CF92DF92EF92FF920F931F93DF932A
:101BC000CF93CDB7DEB769970FB6F894DEBF0FBEDF
:101BD000CDBF4C018B011A010E9468192B013C01F9
:101BE000F8E0EF2EF12CE80CF91C5801CC24DD2490
:101BF00014C00E9468196419750986099709A61608
:101C0000B706C806D90618F42FEF3FEFF8C062E315
:101C100070E080E090E00E947619C70181D4181628
:101C200019063CF7F4012281338144815581818D6D
:101C3000928DA38DB48D8A879B87AC87BD8728172B
:101C400039074A075B0709F0D8C0858D968DC5977F
:101C500009F0D3C0EEC08E01025F1F4FC701B8016B
:101C60004CE050E011D4F801528143815B834A83F8
:101C7000F401268137818E859F852817390711F455
:101C800057FD05C0C701C9D32CEF3FEFB8C04F7057
:101C90005270452B29F0C701C0D32BEF3FEFAFC0E7
:101CA000F801768067806114710441F0AA24BB2496
:101CB00048012E010894411C511C24C0C701ADD31A
:101CC0002AEF3FEF9CC0C701B20141E050E0DCD3F6
:101CD0008981882319F407C0C701F8D3898181500D
:101CE00089838F5FC9F78981882369F700E010E055
:101CF000C701ECD30F5F1F4F04301105C9F70894DB
:101D0000A11CB11CF401D480C580AC14BD04D8F270
:101D100044245524C701BE016F5F7F4F41E050E06E
:101D2000B3D39981892F807C59F4992319F40BC07E
:101D3000C701CCD38981815089838F5FC9F703C0E4
:101D4000C701C4D319828981882321F7C701BE0145
:101D50006C5F7F4F42E050E097D3C701BE016A5FDE
:101D60007F4F42E050E090D300E010E0C701AED3D7
:101D70000F5F1F4F04301105C9F7C701BE016E5F29
:101D80007F4F42E050E080D3DC80CD80F1E0CF1681
:101D9000D10401F5BE80AF8081E0A816B104D1F472
:101DA0009A818B81049729F0C70137D327EF3FEF42
:101DB00026C0E2E0F0E02E0E3F1EC701B10144E074
:101DC00050E062D321E030E01AC0C7017FD30F5F3B
:101DD0001F4F02C000E010E09A808B8008151905A3
:101DE000A0F30894411C511C4614570408F492CFE8
:101DF000C70113D326EF3FEF02C02EEF3FEFC9011B
:101E000069960FB6F894DEBF0FBECDBFCF91DF91BC
:101E10001F910F91FF90EF90DF90CF90BF90AF9008
:101E20009F908F907F906F905F904F903F902F90FA
:101E3000089580E692E099878887C701D2D20C97EF
:101E40000CF009CF2DEF3FEFDACF6F927F928F9298
:101E50009F92AF92BF92CF92DF92EF92FF920F9339
:101E60001F93DF93CF9300D0CDB7DEB78C01F62E52
:101E7000E72E0E946819F80177836683B8E0CB2EBD
:101E8000D12CC00ED11E0A5F1F4FC601B80142E01F
:101E900050E098D381E090E09B838A83A2E08A2E71
:101EA000912C8C0E9D1EC601B40142E050E08AD3F5
:101EB00080E091E09B838A83C601B40142E050E058
:101EC00081D31B821A82C601B40142E050E07AD36A
:101ED000C601B40142E050E075D3C601B40142E04E
:101EE00050E070D32F2D3E2DC9018C017C013E01A5
:101EF0000894611C711C1EC00894E11CF11CF701C0
:101F00008081882311F08E32B9F75701A01AB10AE7
:101F10001A141B0464F48E2D801B8983C601B3013F
:101F200041E050E04FD3C601B801A5014BD3870172
:101F30000F5F1F4FF7018081882311F07801DFCFF9
:101F40001982C601BE016F5F7F4F41E050E03AD376
:101F500000E011E01B830A83C601B40142E050E0B7
:101F600031D31B830A83C601B40142E050E02AD377
:101F700081E090E00F900F900F90CF91DF911F9133
:101F80000F91FF90EF90DF90CF90BF90AF909F9018
:101F90008F907F906F9008958F929F92AF92BF9293
:101FA000CF92DF92EF92FF920F931F93DF93CF9325
:101FB00000D000D0CDB7DEB76C017B014A019BDDBC
:101FC000892B19F001E010E061C0F6012281338114
:101FD0004481558180915B1490915C14A0915D14B3
:101FE000B0915E14281739074A075B0719F40EEF02
:101FF0001FEF4CC018E0A12EB12CAC0CBD1C0E94F0
:1020000068199B01AC012F70307020503C4FC50106
:10201000B90191D3813019F000E010E037C080E6BB
:1020200092E09A838983F60182819381A481B581AC
:102030008B839C83AD83BE83C501BE016F5F7F4FE1
:1020400045E350E0DCD28C010097F1F0C601B70106
:10205000FCDE8C010097C1F0C501CED28C01009747
:1020600099F0EE24FF24C60168E873E1A40197DD2E
:102070008C010894E11CF11CF3E0EF16F10421F04F
:102080008FEF0F3F180779F3C50141D3C80126969A
:102090000FB6F894DEBF0FBECDBFCF91DF911F9179
:1020A0000F91FF90EF90DF90CF90BF90AF909F90F7
:1020B0008F900895DB01FC0120E632E0318320831C
:1020C00012962D913D914D915C911597228333830A
:1020D0004483558308950F938FE694E160E040E0D8
:1020E00020E000E00E94202087E694E10E94872003
:1020F0000F9108956F927F928F929F92AF92BF92AD
:10210000CF92DF92EF92FF920F931F933C015B01FE
:102110006A01490189E894E161D689E090E0B5015E
:1021200046E050E095D482E090E0C80ED91E8FE0E2
:1021300090E0B60144E050E08BD40E5F1F4F81E089
:1021400090E0B80144E050E083D4E2E0F0E0EE0E2D
:10215000FF1E85E090E0B70144E050E079D4F4013F
:1021600082819381A481B581F30182839383A483C7
:10217000B5831F910F91FF90EF90DF90CF90BF90AC
:10218000AF909F908F907F906F9008956F927F9205
:102190008F929F92AF92BF92CF92DF92EF92FF9277
:1021A0000F931F93DF93CF93CDB7DEB76E970FB624
:1021B000F894DEBF0FBECDBF4C013B017A0169012F
:1021C0005801CE0101966FEF4FEF2FEF00E00E9414
:1021D000202020E632E038872F83F7018281938127
:1021E000A481B58189879A87AB87BC873E872D8775
:1021F000F60182819381A481B5818F87988BA98B09
:10220000BA8B3C8B2B8BF50182819381A481B581A4
:102210008D8B9E8BAF8BB88F3A8F298F8B819C8152
:10222000AD81BE818B8F9C8FAD8FBE8FC401B301FA
:10223000AE01495F5F4F9E01235F3F4F8E010D5EF0
:102240001F4FE9E1EE2EF12CEC0EFD1E53DF6E96D2
:102250000FB6F894DEBF0FBECDBFCF91DF911F91B7
:102260000F91FF90EF90DF90CF90BF90AF909F9035
:102270008F907F906F9008950F931F93DF93CF936C
:10228000CDB7DEB768970FB6F894DEBF0FBECDBFEF
:10229000FA01D90122813381448155812B833C830A
:1022A0004D835E83E0E6F2E0F887EF8329873A8783
:1022B0004B875C87FE87ED8712962D913D914D915E
:1022C0005C9115972F87388B498B5A8BFC8BEB8B46
:1022D00021E02E832B813C814D815E812D8B3E8BB5
:1022E0004F8B588FAE01495F5F4F9E01235F3F4F79
:1022F0008E010D5E1F4F4ADF68960FB6F894DEBF61
:102300000FBECDBFCF91DF911F910F910895DF9345
:10231000CF93CDB7DEB762970FB6F894DEBF0FBE8E
:10232000CDBFFA0122813381448155812B833C83C7
:102330004D835E83E0E6F2E0F887EF8329873A87F2
:102340004B875C87FE87ED8721E02E832B813C81C4
:102350004D815E812F87388B498B5A8BAE01495F47
:102360005F4F9E01235F3F4F87DF62960FB6F89461
:10237000DEBF0FBECDBFCF91DF9108950F9385E7EC
:1023800094E160E040E020E000E00E9420200F9116
:1023900008950F938BE794E160E040E020E000E0D7
:1023A0000E9420200F910895DC01ED91FC91008C9A
:1023B000F18DE02D19950895DB01FC0120E632E056
:1023C0003183208351962D913D914D915C9154978D
:1023D00022833383448355830895FC01858996893C
:1023E0000895FC01818D928D0895DF93CF930F9214
:1023F000CDB7DEB7FC016983A081B18112962D9122
:102400003C911397BE016F5F7F4F41E050E0F901AF
:1024100019950F90CF91DF910895CF93DF93EC0141
:1024200007C0E881F9810680F781E02DCE0119957A
:10243000898D9A8D892BA9F7DF91CF9108950F93FC
:1024400081E894E160E040E020E000E00E9420208C
:102450000F910895DF93CF930F92CDB7DEB7FC01B4
:10246000818D928D892B19F42FEF3FEF08C0848561
:10247000BE016F5F7F4F87D28981282F30E0C9016D
:102480000F90CF91DF910895CF93DF93EC019A01E4
:10249000498D5A8D4115510599F02417350710F0D3
:1024A0008C8502C08C85A9017CD29C011816190666
:1024B0003CF4898D9A8D821B930B9A8F898F02C071
:1024C0002FEF3FEFC901DF91CF9108950F931F9335
:1024D000DF93CF930F92CDB7DEB78C01FC01818DD6
:1024E000928D892BA1F08485BE016F5F7F4F41E003
:1024F00050E057D21816190654F4F801818D928DC8
:102500000197928F818F8981282F30E002C02FEFB1
:102510003FEFC9010F90CF91DF911F910F91089567
:10252000EF92FF920F931F93DF93CF93CDB7DEB758
:1025300028970FB6F894DEBF0FBECDBF8C01DC012B
:10254000ED91FC910284F385E02D199589E894E1E1
:10255000F801648544D3892B19F420E030E024C0CD
:10256000D8011C968C917E010894E11CF11CB701E6
:1025700048E050E016D29C0118161906ACF4C801C8
:102580000F96B7010E947A209D8180E02E81820FF4
:10259000911DF801968B858B9F8180E02885820FA5
:1025A000911D928F818F9C01C90128960FB6F894D6
:1025B000DEBF0FBECDBFCF91DF911F910F91FF9076
:1025C000EF9008950F931F938C01FB019A01DC019A
:1025D00057966D917C9158971C968C91AF01A6D11E
:1025E0009C01F8018789908D820F931F908F878BB4
:1025F000C9011F910F910895FC018485E1C0FC0180
:10260000108E178A6E5F7F4F848567C1FC0113822D
:10261000128288EE93E0A0E0B0E084839583A683E5
:10262000B7838CE292E09183808384E08487CF013A
:102630000F960C9487206F927F928F929F92AF9209
:10264000BF92CF92DF92EF92FF920F931F93DF938F
:10265000CF93CDB7DEB7E5970FB6F894DEBF0FBEC8
:10266000CDBF4C015B013A0183E1E82EF12CEC0E69
:10267000FD1EC7010E948720CE014B96C7DF6E0169
:102680000894C11CD11CC6010E9487208E01095FDD
:102690001F4FC80167E674E10DDDC701B8011DDAFF
:1026A000C701B501A60178DC9C0181309105C9F410
:1026B000D401ED91FC910088F189E02D80E692E053
:1026C0009E878D878B819C81AD81BE818F87988B02
:1026D000A98BBA8BC401BE01635F7F4FA30119951B
:1026E0009C01C901E5960FB6F894DEBF0FBECDBFC1
:1026F000CF91DF911F910F91FF90EF90DF90CF90DE
:10270000BF90AF909F908F907F906F900895CF93E0
:10271000DF93EC018C85843059F071D0EC85F0E0CA
:10272000EE0FFF1FE15AFB4E1182108284E08C876E
:10273000DF91CF910895CF92DF92EF92FF920F93A6
:102740001F93CF93DF937C016B01FC018485843060
:1027500009F5C0E0D0E003E014E0C801A0D188236F
:1027600011F0883119F4F701C48706C02196005092
:102770001F4FC430D10589F7F7018485843051F0AB
:10278000D686C586128E118E62E0A60120E070D03A
:1027900081E001C080E0DF91CF911F910F91FF9008
:1027A000EF90DF90CF90089590E0982F88278E5F6C
:1027B0009B4F75C190E0982F88278E5F9B4F2EC14D
:1027C0001F93182F89E894E1612F40E250E0F6D280
:1027D0000AC0812FE9DF83FF06C0812F68E1EADFAD
:1027E00020E030E009C0812FDFDF84FFF2CF812FAE
:1027F00060E1E0DF21E030E0C9011F9108951F93FF
:10280000182F89E894E1612F40E150E0D7D2812F61
:102810006FEFD0DF1F910895FF920F931F93F62E55
:10282000672F082F10E00C5F1F4F102F0027C801E3
:102830004096F4D0C80141966F2DF0D01F910F91B2
:10284000FF900895FF920F931F93F62E672F082F86
:1028500010E00C5F1F4F102F0027C8010496DED038
:10286000C80105966F2DDAD01F910F91FF90089542
:10287000FF920F931F93CF93DF93082FF62EEA0159
:10288000122F862F8150853010F080E020C0802FDD
:10289000B6DF1F2980E0902F9C5F612FBFD020976B
:1028A00019F0802FBE010BC06091871470918814BD
:1028B0006F5F7F4F7093881460938714802FC2DFFF
:1028C00089E894E1602F41E050E078D281E0DF9127
:1028D000CF911F910F91FF9008951F93CF93DF9396
:1028E000182FFB01EA018081882349F48181882324
:1028F00031F48281882319F48381882381F0209721
:1029000071F0912F80E0845F9B4FBF0144E050E065
:102910009FD0812FBE0180DF21E030E002C020E0A7
:1029200030E0C901DF91CF911F910895AF92BF921E
:10293000DF92EF92FF920F931F93CF93DF93D82EE6
:10294000EB015A01890189E894E16D2D77D1801757
:10295000910710F0780105C089E894E16D2D6ED1E2
:102960007C0189E894E16D2DAE0195018701B7D016
:10297000C701DF91CF911F910F91FF90EF90DF90F2
:10298000BF90AF9008950F93282FAB0189E894E191
:10299000622F21E030E001E0CBD181E090E00F91A7
:1029A0000895CF92DF92FF920F931F93CF93DF93FF
:1029B000F82E6B018A0189E894E16F2D10D1EC01AA
:1029C000009761F49F2D80E08D5F9B4F68D084312C
:1029D000C9F08823B9F08C31A9F01DC00817190778
:1029E0000CF4E8011C161D066CF489E894E16F2DC7
:1029F000A6019E0100E09CD189E894E16F2D40E49E
:102A000050E0DCD1CE01DF91CF911F910F91FF906B
:102A1000DF90CF900895CFEFDFEFF4CF282F2C98E1
:102A200080EF8EBD0DB407FEFDCF8EB59EBD0DB4FB
:102A300007FEFDCF8EB52EBD0DB407FEFDCF8EB5C2
:102A40006EBD0DB407FEFDCF8EB52C9A81E00895C2
:102A5000DC0120E030E090EF1DC02C989EBD0DB44D
:102A600007FEFDCF8EB5BEBD0DB407FEFDCF8EB502
:102A7000AEBD0DB407FEFDCF8EB5FB01E20FF31F17
:102A800080818EBD0DB407FEFDCF11968EB52C9AB8
:102A90002F5F3F4F2417350700F3CA010895282FF1
:102AA0002C988FE08EBD0DB407FEFDCF8EB59EBD78
:102AB0000DB407FEFDCF8EB52EBD0DB407FEFDCFC4
:102AC0008EB51EBC0DB407FEFDCF8EB52C9A0895B1
:102AD00090E00496982F8827860F971FE0CF7F926B
:102AE0008F929F92AF92BF92CF92DF92EF92FF921E
:102AF0000F931F93CF93DF936C01762E7A014901D8
:102B00005801862F64E270E0E3DF182F872D65E21D
:102B100070E0DEDFC82FD0E0912F80E0C82BD92BEA
:102B2000CE0DDF1DAE015770872D90E0880F991FE5
:102B3000C80ED91EF60120813181240F351FCA012C
:102B40008A0D9B1D8150984090F000E018E0041B16
:102B5000150BC901B401A8017BDFA501401B510B76
:102B6000F60180819181080D191DB80103C0C901CA
:102B7000B401A5016DDF7E01EA0CFB1C072D10E0FE
:102B80000C5F1F4F102F0027C80184966F2D46DF62
:102B9000C80185966E2D42DFDF91CF911F910F9175
:102BA000FF90EF90DF90CF90BF90AF909F908F906D
:102BB0007F9008950F931F93182F66E270E088DFCF
:102BC000082F812F67E270E083DF502F40E0282F2D
:102BD00030E0242B352BC9011F910F910895FF92EE
:102BE0000F931F93CF93DF93F62EC0E0D0E08F2D8D
:102BF000E1DF8C01009719F08F2DDCDFEC01C017AD
:102C0000D107A9F7CE01DF91CF911F910F91FF90CE
:102C100008950F931F93182F60E270E059DF082F7B
:102C2000812F61E270E054DF502F40E0282F30E028
:102C3000242B352BC9011F910F910895FF920F93FB
:102C40001F93CF93DF93F62EC0E0D0E08F2DE1DF0E
:102C50008C01009719F08F2DDCDFEC01C017D10734
:102C6000A9F7CE01DF91CF911F910F91FF900895A9
:102C7000DC0120E030E09FE01DC02C989EBD0DB42B
:102C800007FEFDCF8EB5BEBD0DB407FEFDCF8EB5E0
:102C9000AEBD0DB407FEFDCF8EB51EBC0DB407FE54
:102CA000FDCF11968EB5FB01E20FF31F80832C9AA6
:102CB0002F5F3F4F2417350700F3CA010895CF92C5
:102CC000DF92EF92FF920F931F93CF93DF936901EF
:102CD00078015770C62FD0E02496CC0FDD1FC80FA7
:102CE000D91F28813981240F351FC801840F951FF2
:102CF0008150984080F000E018E0041B150BC901DA
:102D0000B601A801B5DFE01AF10A888199810C0D9E
:102D10001D1DB80102C0C901B601A701A9DFDF91DD
:102D2000CF911F910F91FF90EF90DF90CF9008957A
:102D30008F929F92AF92BF92CF92DF92EF92FF92CB
:102D40000F931F93CF93DF937C01A62E6A01490155
:102D5000B02E862F68E270E0BBDE182F8A2D69E264
:102D600070E0B6DEC82FD0E0912F80E0C82BD92BC1
:102D7000C7016A2DAE0196018401A1DFBB2089F451
:102D80007E01E80CF91C0A2D10E00C5F1F4F102F7C
:102D90000027C80188966F2D41DEC80189966E2DE7
:102DA0003DDEDF91CF911F910F91FF90EF90DF906B
:102DB000CF90BF90AF909F908F9008951F93162F44
:102DC000962F80E08F5F9B4F642F28DE812F61E07C
:102DD00070E07EDE8823D1F71F9108950F931F9333
:102DE000182F092F6CE271E080E090E07FD20E9402
:102DF0004C0D249A80E090E060E810DE8BE190E0DA
:102E000065E50CDE8AE190E065E508DE212F302FD4
:102E1000C901FC0180E090E4918380838050904E52
:102E20009187808780509841329620E680309207C3
:102E300099F71F910F910895883008F078C0E82F16
:102E4000F0E0EE0FFF1FE756FB4E71836083833087
:102E5000D9F0843030F4813009F444C0823060F419
:102E600039C0853051F18530D8F0863009F446C03C
:102E7000873009F05CC04FC0809169008C7F842B43
:102E800080936900E89A089580916900440F551F66
:102E9000440F551F837F842B80936900E99A08951E
:102EA0008091690074E0440F551F7A95E1F78F7C9B
:102EB000842B80936900EA9A08958091690066E006
:102EC000440F551F6A95E1F78F73842B8093690037
:102ED000EB9A089580916A008C7F842B80936A001E
:102EE000EC9A089580916A00440F551F440F551FB6
:102EF000837F842B80936A00ED9A089580916A0005
:102F000024E0440F551F2A95E1F78F7C842B809392
:102F10006A00EE9A089580916A0096E0440F551F6A
:102F20009A95E1F78F73842B80936A00EF9A089546
:102F30001F920F920FB60F920BB60F9211242F9380
:102F40003F934F935F936F937F938F939F93AF9331
:102F5000BF93EF93FF9380919D1490919E14892BC2
:102F600029F0E0919D14F0919E141995FF91EF9135
:102F7000BF91AF919F918F917F916F915F914F9191
:102F80003F912F910F900BBE0F900FBE0F901F908F
:102F900018951F920F920FB60F920BB60F92112435
:102FA0002F933F934F935F936F937F938F939F9351
:102FB000AF93BF93EF93FF9380919F149091A014D0
:102FC000892B29F0E0919F14F091A0141995FF919D
:102FD000EF91BF91AF919F918F917F916F915F9191
:102FE0004F913F912F910F900BBE0F900FBE0F90FE
:102FF0001F9018951F920F920FB60F920BB60F925B
:1030000011242F933F934F935F936F937F938F93ED
:103010009F93AF93BF93EF93FF938091A1149091EF
:10302000A214892B29F0E091A114F091A214199512
:10303000FF91EF91BF91AF919F918F917F916F9190
:103040005F914F913F912F910F900BBE0F900FBE4C
:103050000F901F9018951F920F920FB60F920BB6FC
:103060000F9211242F933F934F935F936F937F930E
:103070008F939F93AF93BF93EF93FF938091A3148C
:103080009091A414892B29F0E091A314F091A41439
:103090001995FF91EF91BF91AF919F918F917F9182
:1030A0006F915F914F913F912F910F900BBE0F90B9
:1030B0000FBE0F901F9018951F920F920FB60F9290
:1030C0000BB60F9211242F933F934F935F936F93FF
:1030D0007F938F939F93AF93BF93EF93FF938091D1
:1030E000991490919A14892B29F0E0919914F091F8
:1030F0009A141995FF91EF91BF91AF919F918F9184
:103100007F916F915F914F913F912F910F900BBEE7
:103110000F900FBE0F901F9018951F920F920FB631
:103120000F920BB60F9211242F933F934F935F93FF
:103130006F937F938F939F93AF93BF93EF93FF937F
:1031400080919B1490919C14892B29F0E0919B1401
:10315000F0919C141995FF91EF91BF91AF919F91C0
:103160008F917F916F915F914F913F912F910F9030
:103170000BBE0F900FBE0F901F9018951F920F92CD
:103180000FB60F920BB60F9211242F933F934F93CC
:103190005F936F937F938F939F93AF93BF93EF93BF
:1031A000FF938091A5149091A614892B29F0E091AA
:1031B000A514F091A6141995FF91EF91BF91AF91CD
:1031C0009F918F917F916F915F914F913F912F913F
:1031D0000F900BBE0F900FBE0F901F9018951F926F
:1031E0000F920FB60F920BB60F9211242F933F93AD
:1031F0004F935F936F937F938F939F93AF93BF93FF
:10320000EF93FF938091A7149091A814892B29F034
:10321000E091A714F091A8141995FF91EF91BF9137
:10322000AF919F918F917F916F915F914F913F915E
:103230002F910F900BBE0F900FBE0F901F901895FF
:103240001F920F920FB60F9211242F933F938F93DB
:103250009F93AF93BF938091AD149091AE14A091C2
:10326000AF14B091B0143091B1140196A11DB11DED
:10327000232F2D5F2D3720F02D570196A11DB11D55
:103280002093B1148093AD149093AE14A093AF1417
:10329000B093B0148091A9149091AA14A091AB148A
:1032A000B091AC140196A11DB11D8093A914909307
:1032B000AA14A093AB14B093AC14BF91AF919F919B
:1032C0008F913F912F910F900FBE0F901F901895E7
:1032D0008FB7F8942091AD143091AE144091AF1493
:1032E0005091B0148FBFB901CA0108959B01AC0180
:1032F0007FB7F8948091A9149091AA14A091AB146F
:10330000B091AC1466B5A89B05C06F3F19F001964B
:10331000A11DB11D7FBFBA2FA92F982F8827860F17
:10332000911DA11DB11D62E0880F991FAA1FBB1F2F
:103330006A95D1F7BC012DC0FFB7F8948091A9140C
:103340009091AA14A091AB14B091AC14E6B5A89BCF
:1033500005C0EF3F19F00196A11DB11DFFBFBA2FA7
:10336000A92F982F88278E0F911DA11DB11DE2E076
:10337000880F991FAA1FBB1FEA95D1F7861B970BD1
:10338000885E9340C8F22150304040405040685120
:103390007C4F211531054105510571F6089578944A
:1033A00084B5826084BD84B5816084BD85B582604A
:1033B00085BD85B5816085BDEEE6F0E080818160E8
:1033C0008083E1E8F0E010828081826080838081E8
:1033D00081608083E0E8F0E0808181608083E1EBC0
:1033E000F0E0808184608083E0EBF0E080818160A8
:1033F0008083E1E9F0E08081826080838081816068
:103400008083E0E9F0E0808181608083E1EAF0E0A0
:10341000808182608083808181608083E0EAF0E047
:10342000808181608083E1E2F1E08081826080833D
:10343000808181608083E0E2F1E08081816080832F
:10344000EAE7F0E08081846080838081826080830D
:103450008081816080838081806880831092C10038
:103460000895382F863308F0365320917B00832F40
:1034700086958695869590E08170907043E0880FE0
:10348000991F4A95E1F7277F282B20937B003770FF
:10349000809127028295880F880F807C832B8093F0
:1034A0007C0080917A00806480937A0080917A0019
:1034B00086FDFCCF2091780040917900942F80E028
:1034C00030E0282B392BC9010895CF93DF93482F83
:1034D00050E0CA0188589E4FFC0134914E5C5E4F0B
:1034E000FA018491882369F190E0880F991FFC010B
:1034F000EC51FF4FA591B491FC01E250FF4FC591F3
:10350000D491662351F42FB7F8948C91932F909512
:1035100089238C93888189230BC0623061F42FB793
:10352000F8948C91932F909589238C938881832B89
:1035300088832FBF06C09FB7F8948C91832B8C9300
:103540009FBFDF91CF910895893009F449C08A3037
:10355000A0F4843051F1853040F4823079F1833029
:1035600000F5813009F063C026C0873079F18830DA
:1035700098F5863009F05BC025C08D3009F442C053
:103580008E3028F48B30B1F18C30C0F52DC08031F5
:1035900009F442C0813109F445C08F3009F047C0B9
:1035A00037C0809180008F7703C0809180008F7D2D
:1035B00080938000089584B58F7702C084B58F7D95
:1035C00084BD08958091B0008F7703C08091B000D2
:1035D0008F7D8093B0000895809190008F7707C011
:1035E000809190008F7D03C080919000877F8093B1
:1035F000900008958091A0008F7707C08091A0006F
:103600008F7D03C08091A000877F8093A0000895E4
:10361000809120018F7703C0809120018F7D80935E
:103620002001089580912001877F809320010895D3
:10363000FF920F931F93F62E482F50E0CA01825439
:103640009E4FFC012491CA0188589E4FFC011491A1
:103650004E5C5E4FFA0104910023C1F0222311F069
:10366000822F72DFE02FF0E0EE0FFF1FE250FF4FDE
:10367000A591B4919FB7F894FF2021F48C911095F7
:10368000812302C08C91812B8C939FBF1F910F913E
:10369000FF9008950F931F93482F50E0CA01825462
:1036A0009E4FFC012491CA0188589E4FFC01049151
:1036B0004E5C5E4FFA011491112319F420E030E0C2
:1036C00014C0222311F0822F3FDF812F90E0880F5A
:1036D000991F885E9E4FFC01A591B4918C9120E0CA
:1036E00030E0802311F021E030E0C9011F910F91FB
:1036F000089508951F920F920FB60F920BB60F9276
:1037000011242F933F934F938F939F93EF93FF93A6
:103710008091C00082FD1DC04091C6002091F2142E
:103720003091F3142F5F3F4F2F7330708091F4145A
:103730009091F5142817390771F0E091F214F09187
:10374000F314EE54FB4E40833093F3142093F214A1
:1037500002C08091C600FF91EF919F918F914F9190
:103760003F912F910F900BBE0F900FBE0F901F90A7
:10377000189508951F920F920FB60F920BB60F92E5
:1037800011242F933F934F938F939F93EF93FF9326
:103790008091C80082FD1DC04091CE0020917A1515
:1037A00030917B152F5F3F4F2F73307080917C15C8
:1037B00090917D152817390771F0E0917A15F091F5
:1037C0007B15E65CFA4E408330937B1520937A1587
:1037D00002C08091CE00FF91EF919F918F914F9108
:1037E0003F912F910F900BBE0F900FBE0F901F9027
:1037F000189508951F920F920FB60F920BB60F9265
:1038000011242F933F934F938F939F93EF93FF93A5
:103810008091D00082FD1DC04091D60020910216FB
:10382000309103162F5F3F4F2F7330708091041635
:10383000909105162817390771F0E0910216F09162
:103840000316EE53FA4E408330930316209302166C
:1038500002C08091D600FF91EF919F918F914F917F
:103860003F912F910F900BBE0F900FBE0F901F90A6
:10387000189508951F920F920FB60F920BB60F92E4
:1038800011242F933F934F938F939F93EF93FF9325
:103890008091300182FD1DC04091360120918A1631
:1038A00030918B162F5F3F4F2F73307080918C16A5
:1038B00090918D162817390771F0E0918A16F091D2
:1038C0008B16E65BF94E408330938B1620938A1655
:1038D00002C080913601FF91EF919F918F914F919E
:1038E0003F912F910F900BBE0F900FBE0F901F9026
:1038F0001895E091DE16F091DF16E05CFF4F8191A4
:10390000919120813181821B930B8F739070892B51
:1039100009F0EFDEE0910017F0910117E05CFF4F36
:103920008191919120813181821B930B8F739070D3
:10393000892B09F01EDFE0912217F0912317E05C3C
:10394000FF4F8191919120813181821B930B8F7365
:103950009070892B09F04DDFE0914417F0914517E5
:10396000E05CFF4F8191919120813181821B930B0B
:103970008F739070892B09F07CCF08951F920F925E
:103980000FB60F920BB60F9211242F933F938F9384
:103990009F93EF93FF9320913615309137158091C7
:1039A0003815909139152817390731F48091C100E5
:1039B0008F7D8093C10014C0E0913815F0913915C6
:1039C000EA50FB4E2081809138159091391501966F
:1039D0008F73907090933915809338152093C6009B
:1039E000FF91EF919F918F913F912F910F900BBE7F
:1039F0000F900FBE0F901F9018951F920F920FB649
:103A00000F920BB60F9211242F933F938F939F9396
:103A1000EF93FF932091BE153091BF158091C01593
:103A20009091C1152817390731F48091C9008F7D15
:103A30008093C90014C0E091C015F091C115E258FF
:103A4000FA4E20818091C0159091C11501968F7317
:103A500090709093C1158093C0152093CE00FF9174
:103A6000EF919F918F913F912F910F900BBE0F90EF
:103A70000FBE0F901F9018951F920F920FB60F92C6
:103A80000BB60F9211242F933F938F939F93EF9335
:103A9000FF932091461630914716809148169091D9
:103AA00049162817390731F48091D1008F7D809312
:103AB000D10014C0E0914816F0914916EA5FF94E22
:103AC0002081809148169091491601968F739070CD
:103AD00090934916809348162093D600FF91EF915A
:103AE0009F918F913F912F910F900BBE0F900FBE22
:103AF0000F901F9018951F920F920FB60F920BB652
:103B00000F9211242F933F938F939F93EF93FF93E3
:103B10002091CE163091CF168091D0169091D1166B
:103B20002817390731F4809131018F7D809331015D
:103B300014C0E091D016F091D116E257F94E2081D1
:103B40008091D0169091D11601968F7390709093BA
:103B5000D1168093D01620933601FF91EF919F915B
:103B60008F913F912F910F900BBE0F900FBE0F9032
:103B70001F901895AF92BF92DF92EF92FF920F9332
:103B80001F93CF93DF93EC017A018B01DD2440304A
:103B900081EE580780E0680780E0780711F0DD24A7
:103BA000D39491E0A92EB12CEC89FD89DD2069F038
:103BB000C50108A002C0880F991F0A94E2F780830C
:103BC00060E079E08DE390E005C0108260E874E881
:103BD0008EE190E0A80197019FD5215030404040F0
:103BE0005040569547953795279580E12030380706
:103BF00020F0DD2011F0DD24D7CFE889F98930836A
:103C0000EA89FB89208319A2EE89FF89408121E09E
:103C100030E0C9010C8C02C0880F991F0A94E2F7AA
:103C2000482B4083EE89FF894081C9010D8C02C079
:103C3000880F991F0A94E2F7482B4083EE89FF8989
:103C40004081C9010E8C02C0880F991F0A94E2F7C7
:103C5000482B4083EE89FF8980810F8C02C0220FA0
:103C6000331F0A94E2F7209528232083DF91CF9118
:103C70001F910F91FF90EF90DF90BF90AF9008954C
:103C8000DC011C96ED91FC911D97E05CFF4F2191AA
:103C9000319180819181281B390B2F733070C901BC
:103CA0000895DC011C96ED91FC911D97E05CFF4F9F
:103CB00020813181E054F040DF01AE5BBF4F8D9138
:103CC0009C9111972817390719F42FEF3FEF07C080
:103CD0008D919C91E80FF91F8081282F30E0C90158
:103CE0000895DC011C96ED91FC911D97E05CFF4F5F
:103CF00020813181E054F040DF01AE5BBF4F8D91F8
:103D00009C9111972817390719F42FEF3FEF10C036
:103D10008D919C911197E80FF91F20818D919C91B5
:103D2000119701968F73907011969C938E9330E04B
:103D3000C9010895DC0191968C919197882339F0FF
:103D40005496ED91FC915597808186FFF9CF91961D
:103D50001C920895CF93DF93EC01EE85FF85E05C24
:103D6000FF4F20813181E054F0402F5F3F4F2F7390
:103D70003070DF01AE5BBF4F8D919C91119728177A
:103D80003907D1F3E05CFF4F80819181E054F0402E
:103D9000E80FF91F6083EE85FF85E05CFF4F3183FC
:103DA0002083EE89FF89208181E090E00F8C02C0A2
:103DB000880F991F0A94E2F7282B208381E089A3BA
:103DC000EC89FD8980818064808381E090E0DF91CF
:103DD000CF9108951F931092D5161092D41628EE05
:103DE00033E040E050E02093D6163093D71640934E
:103DF000D8165093D91660E572E07093D31660938D
:103E0000D21682EB94E19093DF168093DE1686EF54
:103E100094E19093E1168093E01685EC90E0909306
:103E2000E3168093E21684EC90E09093E51680937D
:103E3000E41680EC90E09093E7168093E61681EC10
:103E400090E09093E9168093E81682EC90E09093CE
:103E5000EB168093EA1686EC90E09093ED16809333
:103E6000EC1614E01093EE16B3E0B093EF16A7E053
:103E7000A093F016F5E0F093F116E1E0E093F2166E
:103E80001092F7161092F6162093F8163093F91642
:103E90004093FA165093FB167093F5166093F41640
:103EA0008AE395E190930117809300178EE795E1DF
:103EB00090930317809302178DEC90E09093051771
:103EC000809304178CEC90E090930717809306176B
:103ED00088EC90E0909309178093081789EC90E0A4
:103EE00090930B1780930A178AEC90E090930D172C
:103EF00080930C178EEC90E090930F1780930E1721
:103F000010931017B0931117A0931217F093131773
:103F1000E0931417109219171092181720931A177C
:103F200030931B1740931C1750931D17709317174E
:103F30006093161782EC95E19093231780932217D4
:103F400086E096E1909325178093241785ED90E005
:103F5000909327178093261784ED90E0909329176C
:103F60008093281780ED90E090932B1780932A1769
:103F700081ED90E090932D1780932C1782ED90E0C7
:103F800090932F1780932E1786ED90E09093311722
:103F90008093301710933217B0933317A0933417D0
:103FA000F0933517E093361710923B1710923A179B
:103FB00020933C1730933D1740933E1750933F1783
:103FC00070933917609338178AE496E190934517F8
:103FD000809344178EE896E1909347178093461795
:103FE00085E391E0909349178093481784E391E02B
:103FF00090934B1780934A1780E391E090934D176D
:1040000080934C1781E391E090934F1780934E1764
:1040100082E391E0909351178093501786E391E0EB
:10402000909353178093521710935417B0935517CA
:10403000A0935617F0935717E09358171F910895C0
:104040000F93FC0180E692E0918380836283438337
:10405000248305830F91089580E692E090935B1787
:1040600080935A1710925C1710925D1710925E178A
:1040700010925F1708958F929F92AF92BF92CF9246
:10408000DF92EF92FF920F931F93CF93DF934C0138
:104090006B017C01AA24BB24C0E0D0E0C601F7017B
:1040A00062814AE050E006D18C01C6016EE270D018
:1040B000080F191FA00EB11E21960894E11CF11CD7
:1040C000C330D10559F7C601F40165814AE050E0DB
:1040D000F1D09501280F391FC901DF91CF911F91B0
:1040E0000F91FF90EF90DF90CF90BF90AF909F9097
:1040F0008F9008959C01FB0180819181A281B38101
:10410000F90182839383A483B583C9010895FC01D7
:1041100080E692E09183808312821382148215825A
:104120000895CF93DF933BD90E946209C9E7DCE190
:104130000E94E40C2097E1F3DCDBFACFCF92DF9210
:10414000EF92FF920F931F93CF93DF937C016B014C
:104150008A01C0E0D0E00FC0D6016D916D01D7019A
:10416000ED91FC910190F081E02DC7011995C80FE8
:10417000D91F015010400115110571F7CE01DF91D3
:10418000CF911F910F91FF90EF90DF90CF90089506
:10419000DC01ED91FC910190F081E02D19950895DD
:1041A000CF93DF93EC016115710519F420E030E045
:1041B0000FC0DB010D900020E9F71197A61BB70B8C
:1041C000E881F9810280F381E02DAD0119959C0110
:1041D000C901DF91CF9108954F925F927F928F92A4
:1041E0009F92AF92BF92CF92DF92EF92FF920F9386
:1041F0001F93DF93CF93CDB7DEB7A1970FB6F89497
:10420000DEBF0FBECDBF2C01742ECB01223008F4CF
:104210002AE019A231E2C32ED12CCC0EDD1E822E53
:104220009924AA24BB24672D752FA501940174D26B
:1042300079018A01C801B701A50194013BD2472D3C
:10424000461B0894C108D1084A3014F4405D01C0EF
:10425000495CF6014083E114F1040105110521F0E8
:104260007E2C5F2DC801DFCFC201B60199DFA19678
:104270000FB6F894DEBF0FBECDBFCF91DF911F9177
:104280000F91FF90EF90DF90CF90BF90AF909F90F5
:104290008F907F905F904F900895DC01211531053C
:1042A00041F4ED91FC910190F081E02D642F19957E
:1042B000089592CFEF92FF920F931F939A01E62EEB
:1042C000FF2400E010E0B801A701E7DF1F910F9184
:1042D000FF90EF9008955058BB27AA270ED04DC1EC
:1042E0003ED130F043D120F031F49F3F11F41EF461
:1042F00033C10EF4E095E7FB29C1E92F4FD180F3DC
:10430000BA17620773078407950718F071F49EF5D2
:1043100067C10EF4E0950B2EBA2FA02D0B01B90149
:1043200090010C01CA01A0011124FF27591B99F02B
:10433000593F50F4503E68F11A16F040A22F232F37
:10434000342F4427585FF3CF469537952795A79587
:10435000F0405395C9F77EF41F16BA0B620B730B2E
:10436000840BBAF09150A1F0FF0FBB1F661F771F9F
:10437000881FC2F70EC0BA0F621F731F841F48F454
:10438000879577956795B795F7959E3F08F0B3CFDA
:104390009395880F08F09927EE0F979587950895C4
:1043A0000CD0EBC0E3D040F0DAD030F021F45F3F26
:1043B00019F0CCC0511115C1CFC0F0D098F399239A
:1043C000C9F35523B1F3951B550BBB27AA276217D9
:1043D0007307840738F09F5F5F4F220F331F441F1E
:1043E000AA1FA9F333D00E2E3AF0E0E830D0915056
:1043F0005040E695001CCAF729D0FE2F27D0660F43
:10440000771F881FBB1F261737074807AB07B0E881
:1044100009F0BB0B802DBF01FF2793585F4F2AF097
:104420009E3F510568F092C0DCC05F3FECF3983EC0
:10443000DCF3869577956795B795F7959F5FC9F7F4
:10444000880F911D9695879597F90895E1E0660F7D
:10445000771F881FBB1F621773078407BA0720F0F6
:10446000621B730B840BBA0BEE1F88F7E09508955F
:1044700004D06894B111B5C0089598D088F09F57C2
:1044800090F0B92F9927B751A0F0D1F0660F771FA0
:10449000881F991F1AF0BA95C9F712C0B13081F080
:1044A0009FD0B1E008959CC0672F782F8827B85F10
:1044B00039F0B93FCCF3869577956795B395D9F7E1
:1044C0003EF490958095709561957F4F8F4F9F4FEB
:1044D0000895E89409C097FB3EF4909580957095F7
:1044E00061957F4F8F4F9F4F9923A9F0F92F96E940
:1044F000BB279395F695879577956795B795F111B5
:10450000F8CFFAF4BB0F11F460FF1BC06F5F7F4F51
:104510008F4F9F4F16C0882311F096E911C0772363
:1045200021F09EE8872F762F05C0662371F096E86C
:10453000862F70E060E02AF09A95660F771F881F3B
:10454000DAF7880F9695879597F9089597F99F67F9
:1045500080E870E060E008959FEF80EC089500240B
:104560000A941616170618060906089500240A94D8
:1045700012161306140605060895092E0394000C5E
:1045800011F4882352F0BB0F40F4BF2B11F460FFED
:1045900004C06F5F7F4F8F4F9F4F089557FD905816
:1045A000440F551F59F05F3F71F04795880F97FBF7
:1045B000991F61F09F3F79F08795089512161306B1
:1045C0001406551FF2CF4695F1DF08C016161706E0
:1045D0001806991FF1CF8695710561050894089515
:1045E000E894BB2766277727CB0197F908950BD06E
:1045F000C4CFB5DF28F0BADF18F0952309F0A6CFB5
:10460000ABCF1124EECFCADFA0F3959FD1F3950F66
:1046100050E0551F629FF001729FBB27F00DB11D46
:10462000639FAA27F00DB11DAA1F649F6627B00DD6
:10463000A11D661F829F2227B00DA11D621F739FBF
:10464000B00DA11D621F839FA00D611D221F749FCD
:104650003327A00D611D231F849F600D211D822F14
:10466000762F6A2F11249F5750408AF0E1F088235B
:104670004AF0EE0FFF1FBB1F661F771F881F915068
:104680005040A9F79E3F510570F060CFAACF5F3F21
:10469000ECF3983EDCF3869577956795B795F7959B
:1046A000E7959F5FC1F7FE2B880F911D9695879523
:1046B00097F90895629FD001739FF001829FE00DEA
:1046C000F11D649FE00DF11D929FF00D839FF00D91
:1046D000749FF00D659FF00D9927729FB00DE11D3D
:1046E000F91F639FB00DE11DF91FBD01CF0111241A
:1046F000089597FB092E07260AD077FD04D02ED007
:1047000006D000201AF4709561957F4F0895F6F752
:10471000909581959F4F0895A1E21A2EAA1BBB1B6D
:10472000FD010DC0AA1FBB1FEE1FFF1FA217B3077D
:10473000E407F50720F0A21BB30BE40BF50B661F93
:10474000771F881F991F1A9469F760957095809557
:1047500090959B01AC01BD01CF010895AA1BBB1B25
:1047600051E107C0AA1FBB1FA617B70710F0A61B71
:10477000B70B881F991F5A95A9F780959095BC0192
:10478000CD010895EE0FFF1F0590F491E02D1994CF
:04479000F894FFCFCB
:10479400DEADBEEFFE61A25406000600E8030D0084
:1047A40011001C0012001A00130008000000003F52
:1047B4000A0100FF0FFF0F0100000000F511E212D3
:1047C400F11166122A120D129B138713FF121B1389
:1047D400FC1290124412D411DC11ED1100000000FF
:1047E400AA1E9E20401E711E511E9A1E000000002B
:0247F4003B2068
:00000001FF
