:100000000AC100000C94DB160C940C170C943D17DD
:100010000C946E170C949F170C94D0170C94011825
:100020000C94321825C1000023C1000021C100003A
:100030001FC100001DC100001BC1000019C100004C
:1000400017C1000015C1000013C1000011C100005C
:1000500010C100000DC100000BC100000C9463181A
:1000600007C100000C94BD1A0C94011C01C10000D2
:10007000FFC00000FDC00000FBC00000F9C0000090
:10008000F7C00000F5C00000F3C000006DC1000023
:100090000C94FD1A0C94401CEBC00000E9C0000059
:1000A000E7C00000E5C00000E3C00000E1C00000C0
:1000B000DFC00000DDC00000DBC00000D9C00000D0
:1000C000D7C00000D5C00000D3C000000C943D1B79
:1000D0000C947F1CCDC000000C947D1B0C94BE1CA6
:1000E000C7C0000000002100240027002A002D00C6
:1000F0003000330001010000040107010A01000083
:100100002200250028002B002E00310034000201BF
:100110000000050108010B0100002000230026005B
:1001200029002C002F00320000010000030106010D
:10013000090105050505070508080808020202026D
:100140000A0A080804040404010101010101010173
:100150000303030303030303040707070C0C0C0C3E
:100160000C0C0C0C02020202060606060606060627
:100170000B0B0B0B0B0B0B0B0102102020080810B4
:100180002040102040800201020108040201010207
:1001900004081020408080402010080402018004E0
:1001A000020180402010080402010804020101023B
:1001B0000408102040800102040810204080000044
:1001C000090A02080B0C0D070603040100000000D9
:1001D000000000000000000000000000000000001F
:1001E0000000000000000000000011100F000000DF
:1001F00000000000000000000000000000000000FF
:10020000000000006906A50C070DAE0F01110C11CE
:1002100062112D1E6F1F11241FBECFEFD1E2DEBF72
:10022000CDBF00E00CBF12E0A0E0B2E0E4EFF5E4E7
:1002300000E00BBF02C007900D92A635B107D9F7B9
:100240001BBE1BE0A6E5B2E001C01D92A23BB107B8
:10025000E1F712E0C6E1D2E004C02297FE010E945D
:10026000F422C430D107C9F70E94D41F0C94F8229D
:10027000C7CE1F920F920FB60F9211242F933F9368
:100280004F935F938F939F938091DC029091DD0257
:1002900090938500809384002091D8023091D902F8
:1002A0002F5F3F4F3093D9022093D8024091DA025A
:1002B0005091DB024F5F5F4F5093DB024093DA02B5
:1002C0008091E2028F5F8093E2029091E3029F5F50
:1002D0009093E3028B3F18F08AEF8093E2029B3FFA
:1002E00018F08AEF8093E302285E334060F081E0EB
:1002F0008093E0021092D9021092D80280911504E6
:100300008F5F809315044436510538F081E0809367
:10031000E1021092DB021092DA02809115048C3314
:1003200018F08CE380931504809115048C3388F0C9
:1003300020915304213069F480911804909119049C
:100340000196909319048093180410921504209339
:1003500081049F918F915F914F913F912F910F90C9
:100360000FBE0F901F9018951F920F920FB60F920D
:1003700011248F939F938091DE029091DF029093DE
:10038000950080939400809198088F5F80939808DF
:100390008A3008F474C010929808809193088130D4
:1003A000A9F49091990880919A08891778F0809122
:1003B0009608813059F49F5F909399088093920832
:1003C00080910B01886080930B010BC080910B0121
:1003D000877F80930B0110929908109292081092D7
:1003E000960880919608882389F490919D089F5FD4
:1003F00090939D0880910B01877F80930B0190352E
:1004000028F010929D0881E08093960880919508CD
:100410008130A9F490919B0880919C08891778F00D
:1004200080919708813059F49F5F90939B08809347
:10043000940880910B01826080930B010BC0809126
:100440000B018D7F80930B0110929B0810929408F2
:100450001092970880919708882389F490919E08BC
:100460009F5F90939E0880910B018D7F80930B017D
:10047000903528F010929E0881E0809397089F9114
:100480008F910F900FBE0F901F90189520E834E8C1
:100490004EE150E00E949D2220E432E44FE050E023
:1004A0000E94D022309521953F4F3093DD0220935A
:1004B000DC021092800082E080938100EFE6F0E0A1
:1004C000808181608083309385002093840008952B
:1004D00020E834E84EE150E00E949D2220E432E41E
:1004E0004FE050E00E94D022309521953F4F30934D
:1004F000DF022093DE021092900082E08093910050
:10050000E1E7F0E080818160808330939500209363
:1005100094000895EF92FF920F931F93809197029A
:10052000882381F09091E20280911602891750F49D
:100530001092970210929B0210929A0210929502CA
:100540001092930280919802882381F09091E302A7
:1005500080911602891750F41092980210929D0211
:1005600010929C0210929602109294028091E202E4
:10057000893C38F480919A0290919B02892B71F00A
:100580004FC010929B0210929A0210929502109204
:100590009302809116048E7F8093160480919602B8
:1005A00020919C0230919D02813049F4882799273F
:1005B000821B930B9093A3028093A20204C03093FA
:1005C000A3022093A202809194028130B9F4609139
:1005D000A2027091A302882777FD8095982F0E9430
:1005E000AE2123E333E34BE451E40E943A220E941C
:1005F0007B217093A3026093A20212C08091A20299
:100600009091A3029C0143E0220F331F4A95E1F72A
:10061000880F991F280F391F3093A3022093A2023D
:100620008091E302893C38F480919C0290919D0274
:10063000892B71F04FC010929D0210929C02109273
:10064000960210929402809116048D7F8093160476
:100650008091950220919A0230919B02813049F459
:1006600088279927821B930B9093A3028093A20261
:1006700004C03093A3022093A202809193028130A0
:10068000B9F46091A2027091A302882777FD80954A
:10069000982F0E94AE2123E333E34BE451E40E9400
:1006A0003A220E947B217093A3026093A20212C09F
:1006B0008091A2029091A3029C0113E0220F331FAC
:1006C0001A95E1F7880F991F280F391F3093A3025D
:1006D0002093A202809116048370833009F0D1C068
:1006E00020919A0230919B022115310509F4C9C06D
:1006F00040919C0250919D024115510509F4C1C0E1
:1007000080919502813049F488279927821B930BA9
:100710009093A5028093A40204C03093A502209375
:10072000A40280919602813049F488279927841B7E
:10073000950B9093A7028093A60204C05093A70242
:100740004093A60280919302813009F04FC08091BE
:100750009402813009F08FC06091A4027091A502CB
:10076000882777FD8095982F0E94AE2123E333E3FD
:100770004BE451E40E943A2255C06091A40270916A
:10078000A502882777FD8095982F0E94AE2123E34C
:1007900033E34BE451E40E943A227B018C01209127
:1007A000A6023091A702B901A3E0660F771FAA95B0
:1007B000E1F7220F331F620F731F882777FD8095A3
:1007C000982F0E94AE219B01AC01C801B7010E9485
:1007D000AF2020E030E040E05FE30E943A220E9438
:1007E0007B217093A3026093A2024BC0882309F07F
:1007F00048C080919402813009F041C02091A40248
:100800003091A502B901E3E0660F771FEA95E1F7A1
:10081000220F331F620F731F882777FD8095982F53
:100820000E94AE217B018C016091A6027091A7020B
:10083000882777FD8095982F0E94AE2123E333E32C
:100840004BE451E40E943A22BECF8091A6029091DF
:10085000A7022091A4023091A502820F931F9C0150
:10086000220F331F220F331F280F391F3093A3028B
:100870002093A20206C0882309F47FCF02C08823F8
:1008800021F31F910F91FF90EF9008958F929F9207
:10089000AF92BF92DF92EF92FF920F931F93CF938D
:1008A000DF9390915304913009F0DDC1D09085041D
:1008B000AD2CBB24F501EE0FFF1FEE0FFF1FE85D0F
:1008C000FB4F0190F081E02DD501AA0FBB1F30979F
:1008D00009F047C0AA0FBB1FA65DBB4F2D913C91ED
:1008E0002115310509F48BC180918304882341F4DB
:1008F0001092190410921804109215049093830416
:1009000080911804909119048217930708F4ABC1E1
:100910001092190410921804109215041092830476
:10092000D394D092850410927F0410928004809119
:10093000160410928D0410928C0410928904109267
:10094000880410928B0410928A04109282048F7C87
:10095000809316048FEF90E090931A02809319020F
:1009600082C1AA0FBB1FA65DBB4F2D913C912115E3
:10097000310509F444C180917F04882351F4F09338
:100980008704E093860430938F0420938E04909321
:100990007F04C0918102D09182020091860410915F
:1009A0008704E6EF8E2EEFEF9E2E800E911E8C16A2
:1009B0009D0638F181E08093930880919208882306
:1009C00039F50C171D0711F460E013C0C8018C1B2A
:1009D0009D0B6AE070E00E94BC2280E090E00E94E3
:1009E000AC2120E030E040E05FE30E94AF200E94B5
:1009F0007B2160939A086A3058F48AE080939A08C1
:100A000007C080910B01877F80930B0110929308A0
:100A10007FE0E72EF12CE00EF11ECE15DF0538F158
:100A200081E08093950880919408882339F5C01758
:100A3000D10711F460E013C0CE01801B910B6AE076
:100A400070E00E94BC2280E090E00E94AC2120E097
:100A500030E040E05FE30E94AF200E947B21609382
:100A60009C086A3058F48AE080939C0807C0809103
:100A70000B018D7F80930B0110929508C815D90545
:100A800008F4B9C0EC16FD0608F4B5C080918004E6
:100A9000882309F014C180919004909191048C52A4
:100AA000914048F110921904109218041092150404
:100AB00010928204809116048F7E91E090938104BD
:100AC0009093800480628093160410929104109297
:100AD000900410928D0410928C041092890410924C
:100AE000880410928B0410928A048FEF90E0909308
:100AF0001A028093190280919004909191040196BA
:100B00009093910480939004DAC0853691050CF09F
:100B100072C0D5011196FD01EE0FFF1FEE0FFF1FF2
:100B2000E85DFB4F80819181892BA9F5AA0FBB1F3E
:100B3000AA0FBB1FA65DBB4F8D919C91892B59F5C8
:100B4000109253049091160410927F04109219048D
:100B5000109218041092150481E08093840410927E
:100B60008004109282049F789093160410928D0452
:100B700010928C04109289041092880410928B04B5
:100B800010928A048FEF90E090931A0280931902DA
:100B90001092850426C010927F04109280048091E8
:100BA0001604D394D092850410928D0410928C0474
:100BB000109289041092880410928B0410928A0477
:100BC000109282048F7C809316048FEF90E09093B4
:100BD0001A028093190210921904109218041092AC
:100BE000150480910B01877F80930B0180910B018D
:100BF0008D7F80930B01809185048B30A0F1109242
:100C000053049091160410927F04109219041092CC
:100C100018041092150481E08093840410928004DB
:100C2000109282049F789093160410928D04109273
:100C30008C04109289041092880410928B041092F4
:100C40008A048FEF90E090931A0280931902109219
:100C5000850480910B01877F80930B0180910B01AC
:100C60008D7F80930B01809184048130B9F4809151
:100C70000B01877F80930B0180910B018260809331
:100C80000B018091810290918202409738F410927A
:100C9000840480910B018D7F80930B0180918504EA
:100CA0008F5F80931704DF91CF911F910F91FF9079
:100CB000EF90DF90BF90AF909F908F9008958091BC
:100CC000190290911A022FEF8C3992070CF01DCF68
:100CD00092CF0F938FE998E060E040E020E000E0E1
:100CE0000E94631F86E592E060EC48EA20E000EB9A
:100CF0000E94631F8CE592E060EC48EA20E00FEF71
:100D00000E94631F82E692E00E9449120F910895AB
:100D1000CF93DF9380919902C82FD0E08091140285
:100D20000E947419CC0FDD1FCD57DD4F9983888346
:100D30006091850270918602809183029091840275
:100D4000680F791F8091870290918802680F791F40
:100D50008091890290918A02680F791F80918B029D
:100D600090918C02680F791F80918D0290918E0274
:100D7000680F791F80918F0290919002680F791F00
:100D80008091910290919202680F791F33E07695DD
:100D900067953A95E1F780911E0490911F046817BA
:100DA0007907B8F0681B790B80E090E00E94AC21D5
:100DB0002091240430912504409126045091270469
:100DC0000E943A220E9480217093820260938102E5
:100DD00004C01092820210928102809199028F5F6A
:100DE0008770809399021092E102DF91CF9108956C
:100DF0001092E30280911604826080931604809121
:100E000098028431D0F4809110020E948D1A892BAF
:100E100081F521E030E00090980202C0220F331FDC
:100E20000A94E2F780919E0290919F02822B932B6D
:100E300090939F0280939E021CC0843159F480914C
:100E400010020E948D1A10929602892B19F481E0EB
:100E50008093960280919802873159F48091100214
:100E60000E948D1A10929402892B19F481E08093CC
:100E70009402809198028F5F80939802883170F07D
:100E800080919E0290919F0290939D0280939C027C
:100E90001092980210929F0210929E020895109252
:100EA000E20280911604816080931604809197027B
:100EB0008431D0F480910C020E948D1A892B81F527
:100EC00021E030E00090970202C0220F331F0A9405
:100ED000E2F78091A0029091A102822B932B909334
:100EE000A1028093A0021CC0843159F480910C02AD
:100EF0000E948D1A10929502892B19F481E080933B
:100F0000950280919702873159F480910C020E94DA
:100F10008D1A10929302892B19F481E08093930229
:100F2000809197028F5F80939702883170F0809153
:100F3000A0029091A10290939B0280939A0210923A
:100F400097021092A1021092A0020895DF93CF930E
:100F500000D000D0CDB7DEB780910503E82FF0E0D8
:100F6000EE0FFF1FEC51FD4F8081813009F02AC147
:100F70009181913071F482E880930A0310920B03FF
:100F800010920C0390930D0381E480930E0386E08E
:100F9000B8C09230C1F481E880930A0310920B0329
:100FA00010920C0383E080930D03809111048093D1
:100FB0000E0380910F0480930F038091100480939F
:100FC000100388E09EC0933009F05BC085E88093F1
:100FD0000A0310920B0310920C0383E180930D031C
:100FE0008091930280930E038091950280930F036A
:100FF00080919A0290919B02809310039093110329
:10100000809194028093120380919602809313033F
:1010100080919C0290919D028093140390931503FC
:101020008091A2029091A30280931603892F990FB9
:10103000990B809317038091810290918202809393
:1010400018039093190380918C0490918D048093E0
:101050001A0390931B0380911804909119048093B4
:101060001C0390931D038091150480931E038091AF
:10107000170480931F03809116048093200388E156
:1010800040C0943009F03FC083E880930A03109277
:101090000B0310920C0380915004482F50E0440F32
:1010A000551F440F551F40930D0388E294E0909321
:1010B000550480935404109214041092130411C028
:1010C000E0915404F0915504819116968C93F0931D
:1010D0005504E09354042F5F3F4F30931404209342
:1010E00013042091130430911404D901A85FBC4F5C
:1010F000241735072CF38091160416968C93822FB3
:101100008A5F8093070384E592E09A8389838091C4
:101110005E0290915F02A0916002B09161028B83A8
:101120009C83AD83BE83409106025091070282E604
:1011300092E0BE016F5F7F4F0E9442121092140432
:1011400010921304109206031CC0A230B1054CF09B
:10115000FD01E85FFC4F809106039081890F809329
:101160000603A85FBC4F82E692E06C910E943811A2
:101170008091130490911404019690931404809329
:101180001304A0911304B09114048091070390E01C
:101190008A179B07D4F682E692E0609106030E94CC
:1011A000381182E692E00E943F1280910503E82FF9
:1011B000F0E0EE0FFF1FEC51FD4F10828F5F8F703C
:1011C0008093050326960FB6F894DEBF0FBECDBF01
:1011D000CF91DF910895DF93CF9300D000D0CDB7AA
:1011E000DEB780910C0261E00E945B1A80910E02D2
:1011F00061E00E945B1A80910C0260E00E94A819D5
:1012000080910E0260E00E94A8198091100261E0B6
:101210000E945B1A8091120261E00E945B1A809129
:10122000100260E00E94A8198091120260E00E9402
:10123000A81985E06FE477E042E050E00E945F1675
:1012400084E068EF76E042E050E00E945F1668EECE
:1012500073E080E090E01AD968EE73E080E090E0FF
:1012600037D98091080261E00E94A81980910A0292
:1012700060E00E94A8198EE261E00E94A81980E354
:1012800061E00E94A81985E361E00E94A81984E545
:1012900092E09A8389838091580290915902A0919B
:1012A0005A02B0915B028B839C83AD83BE8389EB32
:1012B00098E060E072E0AE014F5F5F4F6BD76091E6
:1012C00006027091070282E692E00E94DE1284E23A
:1012D0009BE040E855E260E070E00E94FD1C64EF96
:1012E00071E080E090E00E94B91883E980930803E0
:1012F0008AE68093090310920A0310920B0310925E
:101300000C0326960FB6F894DEBF0FBECDBFCF916B
:10131000DF91089580918804909189046091A202E0
:101320007091A302FC01EE0FFF1FEE56FB4F71837D
:101330006083E0918A04F0918B048E1B9F0B917067
:1013400090938D0480938C0420918E0430918F04AF
:101350008217930768F1EE0FFF1FEE56FB4F808157
:101360009181681B790B70931A026093190284E2D1
:101370009BE00E94ED1D6091190270911A02672F87
:10138000770F770B84E29BE00E94ED1D80918A0429
:1013900090918B040196917090938B0480938A04B2
:1013A00081E080938204809116048061809316040A
:1013B000809188049091890401969170909389049A
:1013C0008093880408959F92AF92BF92CF92DF924C
:1013D000EF92FF920F931F93CF93DF9382E692E0F9
:1013E000E2D76C01009709F453C282E692E068EA02
:1013F00072E040E350E08BD7109214041092130473
:1014000010920C041092080410920B0422E0F22EA9
:10141000EE24E39498E2A92E94E0B92E84E0982E6D
:1014200024C2E855FD4F908190930A04209108044E
:101430002230A1F480910B04813009F01FC29093F7
:10144000090410920C041092510408C090930F04E8
:1014500005C09093100402C0909312049A3621F4B0
:10146000213011F4F092080480910804813011F4C5
:1014700010920804933931F480910804882311F400
:10148000E092080420910904213009F08FC0809176
:101490000B04882309F448C1813009F4DFC085308A
:1014A00019F49093520440C1863009F03DC18091F7
:1014B0000C04891709F038C180915204813491F4E9
:1014C0001092080410920B0410920E0410920D0456
:1014D00080910403E82FF0E0EE0FFF1FEC51FD4F69
:1014E0002083ACC08234D9F41092080410920B040B
:1014F00010920E0480910403E82FF0E0EE0FFF1F1E
:10150000EC51FD4F2083F1828F5F8F70E82FF0E068
:10151000EE0FFF1FEC51FD4F2083918290C083346A
:10152000F1F41092080410920B0410920E048091B2
:101530000403E82FF0E0EE0FFF1FEC51FD4F208376
:10154000F1828F5F8F708093040320935304109275
:10155000150480911604806480931604E5C08434D9
:1015600009F0E2C01092080410920B0410920E04CD
:1015700080910403E82FF0E0EE0FFF1FEC51FD4FC8
:10158000E082F1828F5F8F70809304031092530486
:10159000809116048F7B80931604E092840410924D
:1015A00085041092190410921804BEC0223009F06C
:1015B0004BC080910B04882309F4B6C0813009F434
:1015C0004DC0853019F490937D02AEC0863019F479
:1015D00090937E02A9C0873019F490937F02A4C033
:1015E000883019F4909380029FC0893009F09CC024
:1015F00080910C04891709F097C0E0920D041092B5
:10160000080410920B0410920E0480917D028093C6
:101610005E0280917E0280935F0280917F028093C0
:101620006002809180028093610280910403E82F20
:10163000F0E0EE0FFF1FEC51FD4FE082F1828F5F73
:101640008F708093040370C0233009F06DC08091C7
:101650000B04882309F468C0813019F480930E04C8
:1016600063C0853008F460C020915104E22FF0E09F
:10167000EA5AFB4F908380910C04891709F04FC000
:1016800080911204281709F04AC0B0925504A09224
:10169000540410921404109213041AC0E0915404DC
:1016A000F0915504AA5ABB4F8C91808380915404C9
:1016B0009091550401969093550480935404809121
:1016C00013049091140401969093140480931304CE
:1016D000A0911304B09114048091120490E0A81713
:1016E000B907E4F28091510490E09595879595951E
:1016F0008795809350041092080410920B04109266
:101700000E0480910403E82FF0E0EE0FFF1FEC5170
:10171000FD4FE082F1828F5F8F7080930403809190
:1017200051048F5F8093510480910904843009F043
:1017300071C080910B04882309F46CC0813019F4C6
:1017400080930E0467C0853039F480910A04809339
:101750001A0410921B045EC0863039F480910A048A
:1017600080931C0410921D0455C0873039F4809179
:101770000A0480932004109221044CC0883039F46C
:1017800080910A04809322041092230443C089307C
:1017900009F040C090910C0480910A049817D1F58B
:1017A00010911C0400E060911A0470911B04602BDE
:1017B000712B7093180260931702D0912204C0E03D
:1017C00020912004309121042C2B3D2B30931F04B9
:1017D00020931E0480E090E00E94AC2120E030E4E1
:1017E0004CE156E40E941321609324047093250475
:1017F000809326049093270480910403E82FF0E05F
:10180000EE0FFF1FEC51FD4FE082F1828F5F8F7072
:101810008093040320910B04222339F080910C045F
:1018200090910A04890F80930C04809108048230FF
:1018300051F4213041F480910E04882321F4109258
:10184000080410920B0480910804823028F08091E3
:101850000B048F5F80930B04809113049091140408
:1018600001969093140480931304E0911304F09173
:101870001404EC15FD050CF4D4CD0AC0823009F433
:10188000E5CD833009F4E5CD843009F0E7CDE4CD32
:10189000DF91CF911F910F91FF90EF90DF90CF904C
:1018A000BF90AF909F9008950E948A020E944604C4
:1018B0008ADD4CDB8091E102813019F41092E10263
:1018C00027DA8091E002882311F11092E0029091D2
:1018D0000D04992359F480910403E82FF0E0EE0FF2
:1018E000FF1FEC51FD4F91E090830CC0913079F4D3
:1018F00080910403E82FF0E0EE0FFF1FEC51FD4F45
:10190000908393E091838F5F8F7080930403809125
:101910008104882319F010928104FCCC089585E39A
:1019200061E00E945B1A85E361E00E94A8198CB512
:1019300080618CBD8CB580648CBD84E361E00E94C5
:10194000A81983E361E00C94A8190F9385EA98E045
:1019500060E040E020E000E00E94631F0F910895E6
:101960009C01FB0182819381A481B581F90182836D
:101970009383A483B583178216820895CF93DF9350
:10198000FB0101C0319680818823E1F7EB01A0E0E3
:10199000B0E020E030E021C06E3261F42F3F31052D
:1019A00009F07CF5FA01EA0FFB1F2283119620E073
:1019B00030E012C0C901E3E0880F991FEA95E1F712
:1019C000220F331F820F931F262F332727FD3095B9
:1019D00020533040280F391F21966881662319F063
:1019E000A430B105CCF22F3F310509F054F4A430F6
:1019F000B1053CF4A40FB51F12962C9321E030E002
:101A000002C020E030E0C901DF91CF9108950F932B
:101A10008BEA98E060E040E020E000E00E94631F75
:101A20000F9108952F923F924F925F926F927F9203
:101A30008F929F92AF92BF92CF92DF92EF92FF92DE
:101A40000F931F93DF93CF93CDB7DEB769970FB690
:101A5000F894DEBF0FBECDBF4C018B011A010E946E
:101A6000AB182B013C01F8E0EF2EF12CE80CF91C2F
:101A70005801CC24DD2414C00E94AB1864197509E8
:101A800086099709A616B706C806D90618F42FEFD7
:101A90003FEFF8C062E370E080E090E00E94B91888
:101AA000C70181D4181619063CF7F401228133814D
:101AB00044815581818D928DA38DB48D8A879B87BA
:101AC000AC87BD87281739074A075B0709F0D8C0DC
:101AD000858D968DC59709F0D3C0EEC08E01025F4B
:101AE0001F4FC701B8014CE050E011D4F8015281FA
:101AF00043815B834A83F401268137818E859F85EC
:101B00002817390711F457FD05C0C701C9D32CEFB9
:101B10003FEFB8C04F705270452B29F0C701C0D3BA
:101B20002BEF3FEFAFC0F80176806780611471043E
:101B300041F0AA24BB2448012E010894411C511CE9
:101B400024C0C701ADD32AEF3FEF9CC0C701B2014B
:101B500041E050E0DCD38981882319F407C0C70134
:101B6000F8D38981815089838F5FC9F78981882360
:101B700069F700E010E0C701ECD30F5F1F4F04309E
:101B80001105C9F70894A11CB11CF401D480C580CB
:101B9000AC14BD04D8F244245524C701BE016F5FC4
:101BA0007F4F41E050E0B3D39981892F807C59F475
:101BB000992319F40BC0C701CCD389818150898343
:101BC0008F5FC9F703C0C701C4D3198289818823F5
:101BD00021F7C701BE016C5F7F4F42E050E097D311
:101BE000C701BE016A5F7F4F42E050E090D300E042
:101BF00010E0C701AED30F5F1F4F04301105C9F7C6
:101C0000C701BE016E5F7F4F42E050E080D3DC80B1
:101C1000CD80F1E0CF16D10401F5BE80AF8081E028
:101C2000A816B104D1F49A818B81049729F0C701D9
:101C300037D327EF3FEF26C0E2E0F0E02E0E3F1E45
:101C4000C701B10144E050E062D321E030E01AC0A6
:101C5000C7017FD30F5F1F4F02C000E010E09A80E2
:101C60008B8008151905A0F30894411C511C4614DB
:101C7000570408F492CFC70113D326EF3FEF02C0F9
:101C80002EEF3FEFC90169960FB6F894DEBF0FBE85
:101C9000CDBFCF91DF911F910F91FF90EF90DF901B
:101CA000CF90BF90AF909F908F907F906F905F90FC
:101CB0004F903F902F90089584E592E09987888710
:101CC000C701D2D20C970CF009CF2DEF3FEFDACF3E
:101CD0006F927F928F929F92AF92BF92CF92DF923C
:101CE000EF92FF920F931F93DF93CF9300D0CDB766
:101CF000DEB78C01F62EE72E0E94AB18F801778331
:101D00006683B8E0CB2ED12CC00ED11E0A5F1F4FC8
:101D1000C601B80142E050E098D381E090E09B8397
:101D20008A83A2E08A2E912C8C0E9D1EC601B401DE
:101D300042E050E08AD380E091E09B838A83C60131
:101D4000B40142E050E081D31B821A82C601B40183
:101D500042E050E07AD3C601B40142E050E075D3CE
:101D6000C601B40142E050E070D32F2D3E2DC901D1
:101D70008C017C013E010894611C711C1EC00894FA
:101D8000E11CF11CF7018081882311F08E32B9F734
:101D90005701A01AB10A1A141B0464F48E2D801B7B
:101DA0008983C601B30141E050E04FD3C601B801B9
:101DB000A5014BD387010F5F1F4FF7018081882357
:101DC00011F07801DFCF1982C601BE016F5F7F4F2E
:101DD00041E050E03AD300E011E01B830A83C601E2
:101DE000B40142E050E031D31B830A83C601B40141
:101DF00042E050E02AD381E090E00F900F900F90E6
:101E0000CF91DF911F910F91FF90EF90DF90CF90D6
:101E1000BF90AF909F908F907F906F9008958F921A
:101E20009F92AF92BF92CF92DF92EF92FF920F9369
:101E30001F93DF93CF9300D000D0CDB7DEB76C01F6
:101E40007B014A019BDD892B19F001E010E061C0A4
:101E5000F60122813381448155818091AD089091B2
:101E6000AE08A091AF08B091B008281739074A070B
:101E70005B0719F40EEF1FEF4CC018E0A12EB12C38
:101E8000AC0CBD1C0E94AB189B01AC012F703070D4
:101E900020503C4FC501B90191D3813019F000E0C9
:101EA00010E037C084E592E09A838983F60182814D
:101EB0009381A481B5818B839C83AD83BE83C5014F
:101EC000BE016F5F7F4F45E350E0DCD28C0100978D
:101ED000F1F0C601B701FCDE8C010097C1F0C5012D
:101EE000CED28C01009799F0EE24FF24C60168E859
:101EF00073E1A40197DD8C010894E11CF11CF3E06F
:101F0000EF16F10421F08FEF0F3F180779F3C501A9
:101F100041D3C80126960FB6F894DEBF0FBECDBFE1
:101F2000CF91DF911F910F91FF90EF90DF90CF90B5
:101F3000BF90AF909F908F900895DB01FC0124E546
:101F400032E03183208312962D913D914D915C9129
:101F50001597228333834483558308950F9381EC2F
:101F600098E060E040E020E000E00E94631F89EB21
:101F700098E00E94CA1F0F9108956F927F928F92EE
:101F80009F92AF92BF92CF92DF92EF92FF920F9308
:101F90001F933C015B016A0149018BED98E061D61A
:101FA00089E090E0B50146E050E095D482E090E011
:101FB000C80ED91E8FE090E0B60144E050E08BD40B
:101FC0000E5F1F4F81E090E0B80144E050E083D401
:101FD000E2E0F0E0EE0EFF1E85E090E0B70144E0A5
:101FE00050E079D4F40182819381A481B581F30119
:101FF00082839383A483B5831F910F91FF90EF9009
:10200000DF90CF90BF90AF909F908F907F906F9018
:1020100008956F927F928F929F92AF92BF92CF92CC
:10202000DF92EF92FF920F931F93DF93CF93CDB781
:10203000DEB76E970FB6F894DEBF0FBECDBF4C0172
:102040003B017A0169015801CE0101966FEF4FEF14
:102050002FEF00E00E94631F24E532E038872F83D2
:10206000F70182819381A481B58189879A87AB87A3
:10207000BC873E872D87F60182819381A481B5813B
:102080008F87988BA98BBA8B3C8B2B8BF501828128
:102090009381A481B5818D8B9E8BAF8BB88F3A8F46
:1020A000298F8B819C81AD81BE818B8F9C8FAD8F61
:1020B000BE8FC401B301AE01495F5F4F9E01235F34
:1020C0003F4F8E010D5E1F4FE9E1EE2EF12CEC0E1D
:1020D000FD1E53DF6E960FB6F894DEBF0FBECDBF68
:1020E000CF91DF911F910F91FF90EF90DF90CF90F4
:1020F000BF90AF909F908F907F906F9008950F93B7
:102100001F93DF93CF93CDB7DEB768970FB6F894E0
:10211000DEBF0FBECDBFFA01D901228133814481D8
:1021200055812B833C834D835E83E4E5F2E0F887A1
:10213000EF8329873A874B875C87FE87ED87129666
:102140002D913D914D915C9115972F87388B498B3F
:102150005A8BFC8BEB8B21E02E832B813C814D81B4
:102160005E812D8B3E8B4F8B588FAE01495F5F4F49
:102170009E01235F3F4F8E010D5E1F4F4ADF689621
:102180000FB6F894DEBF0FBECDBFCF91DF911F9188
:102190000F910895DF93CF93CDB7DEB762970FB657
:1021A000F894DEBF0FBECDBFFA0122813381448196
:1021B00055812B833C834D835E83E4E5F2E0F88711
:1021C000EF8329873A874B875C87FE87ED8721E07D
:1021D0002E832B813C814D815E812F87388B498BEB
:1021E0005A8BAE01495F5F4F9E01235F3F4F87DFF0
:1021F00062960FB6F894DEBF0FBECDBFCF91DF91D0
:1022000008950F9387EC98E060E040E020E000E064
:102210000E94631F0F9108950F938DEC98E060E08A
:1022200040E020E000E00E94631F0F910895DC0170
:10223000ED91FC91008CF18DE02D19950895DB0155
:10224000FC0124E532E03183208351962D913D91AC
:102250004D915C9154972283338344835583089531
:10226000FC01858996890895FC01818D928D0895E0
:10227000DF93CF930F92CDB7DEB7FC016983A081C6
:10228000B18112962D913C911397BE016F5F7F4FE4
:1022900041E050E0F90119950F90CF91DF91089539
:1022A000CF93DF93EC0107C0E881F9810680F781C5
:1022B000E02DCE011995898D9A8D892BA9F7DF9193
:1022C000CF9108950F9383ED98E060E040E020E027
:1022D00000E00E94631F0F910895DF93CF930F9248
:1022E000CDB7DEB7FC01818D928D892B19F42FEFCC
:1022F0003FEF08C08485BE016F5F7F4F87D2898121
:10230000282F30E0C9010F90CF91DF910895CF932E
:10231000DF93EC019A01498D5A8D4115510599F0D1
:102320002417350710F08C8502C08C85A9017CD25A
:102330009C01181619063CF4898D9A8D821B930B0B
:102340009A8F898F02C02FEF3FEFC901DF91CF91A4
:1023500008950F931F93DF93CF930F92CDB7DEB7FE
:102360008C01FC01818D928D892BA1F08485BE01A9
:102370006F5F7F4F41E050E057D21816190654F4B2
:10238000F801818D928D0197928F818F8981282FFD
:1023900030E002C02FEF3FEFC9010F90CF91DF91E6
:1023A0001F910F910895EF92FF920F931F93DF9368
:1023B000CF93CDB7DEB728970FB6F894DEBF0FBE28
:1023C000CDBF8C01DC01ED91FC910284F385E02D01
:1023D00019958BED98E0F801648544D3892B19F4A5
:1023E00020E030E024C0D8011C968C917E01089436
:1023F000E11CF11CB70148E050E016D29C01181610
:102400001906ACF4C8010F96B7010E94BD1F9D814B
:1024100080E02E81820F911DF801968B858B9F8124
:1024200080E02885820F911D928F818F9C01C901C8
:1024300028960FB6F894DEBF0FBECDBFCF91DF91C7
:102440001F910F91FF90EF9008950F931F938C01B0
:10245000FB019A01DC0157966D917C9158971C966F
:102460008C91AF01A6D19C01F8018789908D820FD4
:10247000931F908F878BC9011F910F910895FC01C5
:102480008485E1C0FC01108E178A6E5F7F4F8485C2
:1024900067C1FC011382128288EE93E0A0E0B0E0F5
:1024A00084839583A683B78380E292E091838083BF
:1024B00084E08487CF010F960C94CA1F6F927F929D
:1024C0008F929F92AF92BF92CF92DF92EF92FF9244
:1024D0000F931F93DF93CF93CDB7DEB7E5970FB67A
:1024E000F894DEBF0FBECDBF4C015B013A0183E122
:1024F000E82EF12CEC0EFD1EC7010E94CA1FCE0172
:102500004B96C7DF6E010894C11CD11CC6010E9406
:10251000CA1F8E01095F1F4FC80169EB78E00DDD0E
:10252000C701B8011DDAC701B501A60178DC9C011D
:1025300081309105C9F4D401ED91FC910088F189B5
:10254000E02D84E592E09E878D878B819C81AD8113
:10255000BE818F87988BA98BBA8BC401BE01635F44
:102560007F4FA30119959C01C901E5960FB6F89418
:10257000DEBF0FBECDBFCF91DF911F910F91FF90B6
:10258000EF90DF90CF90BF90AF909F908F907F9013
:102590006F900895CF93DF93EC018C85843059F0D0
:1025A00071D0EC85F0E0EE0FFF1FEF54F74F118272
:1025B000108284E08C87DF91CF910895CF92DF92D3
:1025C000EF92FF920F931F93CF93DF937C016B01E8
:1025D000FC018485843009F5C0E0D0E003E014E01C
:1025E000C801A0D1882311F0883119F4F701C487FC
:1025F00006C0219600501F4FC430D10589F7F7015E
:102600008485843051F0D686C586128E118E62E0A4
:10261000A60120E070D081E001C080E0DF91CF9181
:102620001F910F91FF90EF90DF90CF90089590E071
:10263000982F88278E5F9B4F75C190E0982F882731
:102640008E5F9B4F2EC11F93182F8BED98E0612F4B
:1026500040E250E0F6D20AC0812FE9DF83FF06C0D6
:10266000812F68E1EADF20E030E009C0812FDFDF61
:1026700084FFF2CF812F60E1E0DF21E030E0C9018B
:102680001F9108951F93182F8BED98E0612F40E163
:1026900050E0D7D2812F6FEFD0DF1F910895FF92C6
:1026A0000F931F93F62E672F082F10E00C5F1F4F1C
:1026B000102F0027C8014096F4D0C80141966F2D15
:1026C000F0D01F910F91FF900895FF920F931F93E9
:1026D000F62E672F082F10E00C5F1F4F102F0027DA
:1026E000C8010496DED0C80105966F2DDAD01F917F
:1026F0000F91FF900895FF920F931F93CF93DF9355
:10270000082FF62EEA01122F862F8150853010F007
:1027100080E020C0802FB6DF1F2980E0902F9C5FD3
:10272000612FBFD0209719F0802FBE010BC06091A0
:10273000D9087091DA086F5F7F4F7093DA08609361
:10274000D908802FC2DF8BED98E0602F41E050E088
:1027500078D281E0DF91CF911F910F91FF90089582
:102760001F93CF93DF93182FFB01EA018081882309
:1027700049F48181882331F48281882319F483818B
:10278000882381F0209771F0912F80E0845F9B4F28
:10279000BF0144E050E09FD0812FBE0180DF21E0E7
:1027A00030E002C020E030E0C901DF91CF911F91FD
:1027B0000895AF92BF92DF92EF92FF920F931F9313
:1027C000CF93DF93D82EEB015A0189018BED98E06E
:1027D0006D2D77D18017910710F0780105C08BED32
:1027E00098E06D2D6ED17C018BED98E06D2DAE01E2
:1027F00095018701B7D0C701DF91CF911F910F914C
:10280000FF90EF90DF90BF90AF9008950F93282F27
:10281000AB018BED98E0622F21E030E001E0CBD1FD
:1028200081E090E00F910895CF92DF92FF920F9395
:102830001F93CF93DF93F82E6B018A018BED98E005
:102840006F2D10D1EC01009761F49F2D80E08D5F1A
:102850009B4F68D08431C9F08823B9F08C31A9F03E
:102860001DC0081719070CF4E8011C161D066CF4AE
:102870008BED98E06F2DA6019E0100E09CD18BEDC1
:1028800098E06F2D40E450E0DCD1CE01DF91CF9194
:102890001F910F91FF90DF90CF900895CFEFDFEF62
:1028A000F4CF282F2C9880EF8EBD0DB407FEFDCFFE
:1028B0008EB59EBD0DB407FEFDCF8EB52EBD0DB4F9
:1028C00007FEFDCF8EB56EBD0DB407FEFDCF8EB5F4
:1028D0002C9A81E00895DC0120E030E090EF1DC0EB
:1028E0002C989EBD0DB407FEFDCF8EB5BEBD0DB4B8
:1028F00007FEFDCF8EB5AEBD0DB407FEFDCF8EB584
:10290000FB01E20FF31F80818EBD0DB407FEFDCFEA
:1029100011968EB52C9A2F5F3F4F2417350700F381
:10292000CA010895282F2C988FE08EBD0DB407FEA4
:10293000FDCF8EB59EBD0DB407FEFDCF8EB52EBD6D
:102940000DB407FEFDCF8EB51EBC0DB407FEFDCF46
:102950008EB52C9A089590E00496982F8827860FBC
:10296000971FE0CF7F928F929F92AF92BF92CF92AC
:10297000DF92EF92FF920F931F93CF93DF936C013F
:10298000762E7A0149015801862F64E270E0E3DF78
:10299000182F872D65E270E0DEDFC82FD0E0912F81
:1029A00080E0C82BD92BCE0DDF1DAE015770872DCF
:1029B00090E0880F991FC80ED91EF6012081318141
:1029C000240F351FCA018A0D9B1D8150984090F03D
:1029D00000E018E0041B150BC901B401A8017BDF5E
:1029E000A501401B510BF60180819181080D191D35
:1029F000B80103C0C901B401A5016DDF7E01EA0C75
:102A0000FB1C072D10E00C5F1F4F102F0027C80183
:102A100084966F2D46DFC80185966E2D42DFDF91CB
:102A2000CF911F910F91FF90EF90DF90CF90BF90CB
:102A3000AF909F908F907F9008950F931F93182FC2
:102A400066E270E088DF082F812F67E270E083DFA5
:102A5000502F40E0282F30E0242B352BC9011F9147
:102A60000F910895FF920F931F93CF93DF93F62E4C
:102A7000C0E0D0E08F2DE1DF8C01009719F08F2DA1
:102A8000DCDFEC01C017D107A9F7CE01DF91CF91B0
:102A90001F910F91FF9008950F931F93182F60E2DD
:102AA00070E059DF082F812F61E270E054DF502F72
:102AB00040E0282F30E0242B352BC9011F910F91C6
:102AC0000895FF920F931F93CF93DF93F62EC0E0EC
:102AD000D0E08F2DE1DF8C01009719F08F2DDCDF26
:102AE000EC01C017D107A9F7CE01DF91CF911F915B
:102AF0000F91FF900895DC0120E030E09FE01DC0C1
:102B00002C989EBD0DB407FEFDCF8EB5BEBD0DB495
:102B100007FEFDCF8EB5AEBD0DB407FEFDCF8EB561
:102B20001EBC0DB407FEFDCF11968EB5FB01E20F62
:102B3000F31F80832C9A2F5F3F4F2417350700F334
:102B4000CA010895CF92DF92EF92FF920F931F93E5
:102B5000CF93DF93690178015770C62FD0E0249698
:102B6000CC0FDD1FC80FD91F28813981240F351FD5
:102B7000C801840F951F8150984080F000E018E054
:102B8000041B150BC901B601A801B5DFE01AF10A53
:102B9000888199810C0D1D1DB80102C0C901B601C3
:102BA000A701A9DFDF91CF911F910F91FF90EF90C7
:102BB000DF90CF9008958F929F92AF92BF92CF9265
:102BC000DF92EF92FF920F931F93CF93DF937C01DD
:102BD000A62E6A014901B02E862F68E270E0BBDEA6
:102BE000182F8A2D69E270E0B6DEC82FD0E0912F51
:102BF00080E0C82BD92BC7016A2DAE019601840154
:102C0000A1DFBB2089F47E01E80CF91C0A2D10E03D
:102C10000C5F1F4F102F0027C80188966F2D41DED3
:102C2000C80189966E2D3DDEDF91CF911F910F91E6
:102C3000FF90EF90DF90CF90BF90AF909F908F90DC
:102C400008951F93162F962F80E08F5F9B4F642F60
:102C500028DE812F61E070E07EDE8823D1F71F91AE
:102C600008950F931F93182F092F6CE271E080E0F5
:102C700090E07FD20E948F0C249A80E090E060E880
:102C800010DE8BE190E065E50CDE8AE190E065E521
:102C900008DE212F302FC901FC0180E090E49183F0
:102CA00080838050904E91878087805098413296E3
:102CB00020E68030920799F71F910F910895883090
:102CC00008F078C0E82FF0E0EE0FFF1FE551F74F56
:102CD000718360838330D9F0843030F4813009F41B
:102CE00044C0823060F439C0853051F18530D8F06D
:102CF000863009F446C0873009F05CC04FC080912F
:102D000069008C7F842B80936900E89A08958091F4
:102D10006900440F551F440F551F837F842B8093F8
:102D20006900E99A08958091690074E0440F551F85
:102D30007A95E1F78F7C842B80936900EA9A089555
:102D40008091690066E0440F551F6A95E1F78F7323
:102D5000842B80936900EB9A089580916A008C7FA0
:102D6000842B80936A00EC9A089580916A00440F46
:102D7000551F440F551F837F842B80936A00ED9A63
:102D8000089580916A0024E0440F551F2A95E1F7C9
:102D90008F7C842B80936A00EE9A089580916A005C
:102DA00096E0440F551F9A95E1F78F73842B80931B
:102DB0006A00EF9A08951F920F920FB60F920BB60A
:102DC0000F9211242F933F934F935F936F937F93B1
:102DD0008F939F93AF93BF93EF93FF938091EF08EF
:102DE0009091F008892B29F0E091EF08F091F0081C
:102DF0001995FF91EF91BF91AF919F918F917F9125
:102E00006F915F914F913F912F910F900BBE0F905B
:102E10000FBE0F901F9018951F920F920FB60F9232
:102E20000BB60F9211242F933F934F935F936F93A1
:102E30007F938F939F93AF93BF93EF93FF93809173
:102E4000F1089091F208892B29F0E091F108F091B6
:102E5000F2081995FF91EF91BF91AF919F918F91DA
:102E60007F916F915F914F913F912F910F900BBE8A
:102E70000F900FBE0F901F9018951F920F920FB6D4
:102E80000F920BB60F9211242F933F934F935F93A2
:102E90006F937F938F939F93AF93BF93EF93FF9322
:102EA0008091F3089091F408892B29F0E091F308C0
:102EB000F091F4081995FF91EF91BF91AF919F9117
:102EC0008F917F916F915F914F913F912F910F90D3
:102ED0000BBE0F900FBE0F901F9018951F920F9270
:102EE0000FB60F920BB60F9211242F933F934F936F
:102EF0005F936F937F938F939F93AF93BF93EF9362
:102F0000FF938091F5089091F608892B29F0E091C4
:102F1000F508F091F6081995FF91EF91BF91AF91E7
:102F20009F918F917F916F915F914F913F912F91E1
:102F30000F900BBE0F900FBE0F901F9018951F9211
:102F40000F920FB60F920BB60F9211242F933F934F
:102F50004F935F936F937F938F939F93AF93BF93A1
:102F6000EF93FF938091EB089091EC08892B29F067
:102F7000E091EB08F091EC081995FF91EF91BF916A
:102F8000AF919F918F917F916F915F914F913F9101
:102F90002F910F900BBE0F900FBE0F901F901895A2
:102FA0001F920F920FB60F920BB60F9211242F9310
:102FB0003F934F935F936F937F938F939F93AF93C1
:102FC000BF93EF93FF938091ED089091EE08892BCA
:102FD00029F0E091ED08F091EE081995FF91EF913D
:102FE000BF91AF919F918F917F916F915F914F9121
:102FF0003F912F910F900BBE0F900FBE0F901F901F
:1030000018951F920F920FB60F920BB60F921124C4
:103010002F933F934F935F936F937F938F939F93E0
:10302000AF93BF93EF93FF938091F7089091F808C7
:10303000892B29F0E091F708F091F8081995FF9194
:10304000EF91BF91AF919F918F917F916F915F9120
:103050004F913F912F910F900BBE0F900FBE0F908D
:103060001F9018951F920F920FB60F920BB60F92EA
:1030700011242F933F934F935F936F937F938F937D
:103080009F93AF93BF93EF93FF938091F908909133
:10309000FA08892B29F0E091F908F091FA081995BE
:1030A000FF91EF91BF91AF919F918F917F916F9120
:1030B0005F914F913F912F910F900BBE0F900FBEDC
:1030C0000F901F9018951F920F920FB60F92112418
:1030D0002F933F938F939F93AF93BF938091FF085C
:1030E00090910009A0910109B09102093091030962
:1030F0000196A11DB11D232F2D5F2D3720F02D57D7
:103100000196A11DB11D209303098093FF089093A0
:103110000009A0930109B09302098091FB089091E6
:10312000FC08A091FD08B091FE080196A11DB11DFB
:103130008093FB089093FC08A093FD08B093FE08D1
:10314000BF91AF919F918F913F912F910F900FBEA3
:103150000F901F9018958FB7F8942091FF08309129
:10316000000940910109509102098FBFB901CA01BC
:1031700008959B01AC017FB7F8948091FB08909172
:10318000FC08A091FD08B091FE0866B5A89B05C09B
:103190006F3F19F00196A11DB11D7FBFBA2FA92F56
:1031A000982F8827860F911DA11DB11D62E0880F01
:1031B000991FAA1FBB1F6A95D1F7BC012DC0FFB78D
:1031C000F8948091FB089091FC08A091FD08B091C3
:1031D000FE08E6B5A89B05C0EF3F19F00196A11DBA
:1031E000B11DFFBFBA2FA92F982F88278E0F911DD1
:1031F000A11DB11DE2E0880F991FAA1FBB1FEA9510
:10320000D1F7861B970B885E9340C8F2215030405F
:103210004040504068517C4F211531054105510512
:1032200071F60895789484B5826084BD84B5816018
:1032300084BD85B5826085BD85B5816085BDEEE6BE
:10324000F0E0808181608083E1E8F0E0108280819D
:1032500082608083808181608083E0E8F0E080810B
:1032600081608083E1EBF0E0808184608083E0EB2B
:10327000F0E0808181608083E1E9F0E0808182601C
:103280008083808181608083E0E9F0E080818160DB
:103290008083E1EAF0E080818260808380818160C8
:1032A0008083E0EAF0E0808181608083E1E2F1E008
:1032B000808182608083808181608083E0E2F1E0B0
:1032C000808181608083EAE7F0E080818460808390
:1032D000808182608083808181608083808180683A
:1032E00080831092C1000895382F863308F036533A
:1032F00020917B00832F86958695869590E081703E
:10330000907043E0880F991F4A95E1F7277F282B9B
:1033100020937B00377080911B028295880F880F65
:10332000807C832B80937C0080917A0080648093E2
:103330007A0080917A0086FDFCCF20917800409140
:103340007900942F80E030E0282B392BC9010895B3
:10335000CF93DF93482F50E0CA0188589E4FFC015D
:1033600034914E5C5E4FFA018491882369F190E0BC
:10337000880F991FFC01EC51FF4FA591B491FC01FE
:10338000E250FF4FC591D491662351F42FB7F894C2
:103390008C91932F909589238C93888189230BC0DE
:1033A000623061F42FB7F8948C91932F9095892314
:1033B0008C938881832B88832FBF06C09FB7F89496
:1033C0008C91832B8C939FBFDF91CF91089589308F
:1033D00009F449C08A30A0F4843051F1853040F4BA
:1033E000823079F1833000F5813009F063C026C066
:1033F000873079F1883098F5863009F05BC025C0B8
:103400008D3009F442C08E3028F48B30B1F18C300D
:10341000C0F52DC0803109F442C0813109F445C0A6
:103420008F3009F047C037C0809180008F7703C08C
:10343000809180008F7D80938000089584B58F7780
:1034400002C084B58F7D84BD08958091B0008F77D0
:1034500003C08091B0008F7D8093B000089580916B
:1034600090008F7707C0809190008F7D03C080917E
:103470009000877F8093900008958091A0008F77BF
:1034800007C08091A0008F7D03C08091A000877F3E
:103490008093A0000895809120018F7703C08091D0
:1034A00020018F7D80932001089580912001877FE6
:1034B000809320010895FF920F931F93F62E482FBB
:1034C00050E0CA0182549E4FFC012491CA018858E1
:1034D0009E4FFC0114914E5C5E4FFA010491002353
:1034E000C1F0222311F0822F72DFE02FF0E0EE0F07
:1034F000FF1FE250FF4FA591B4919FB7F894FF20B2
:1035000021F48C911095812302C08C91812B8C9396
:103510009FBF1F910F91FF9008950F931F93482F06
:1035200050E0CA0182549E4FFC012491CA01885880
:103530009E4FFC0104914E5C5E4FFA0114911123E1
:1035400019F420E030E014C0222311F0822F3FDF75
:10355000812F90E0880F991F885E9E4FFC01A591F6
:10356000B4918C9120E030E0802311F021E030E034
:10357000C9011F910F91089508951F920F920FB6E0
:103580000F920BB60F9211242F933F934F938F936B
:103590009F93EF93FF938091C00082FD1DC04091E7
:1035A000C60020914409309145092F5F3F4F2F738A
:1035B000307080914609909147092817390771F0BA
:1035C000E0914409F0914509EC5FF64F4083309358
:1035D00045092093440902C08091C600FF91EF91F4
:1035E0009F918F914F913F912F910F900BBE0F9014
:1035F0000FBE0F901F90189508951F920F920FB64F
:103600000F920BB60F9211242F933F934F938F93EA
:103610009F93EF93FF938091C80082FD1DC040915E
:10362000CE002091CC093091CD092F5F3F4F2F73F1
:1036300030708091CE099091CF092817390771F029
:10364000E091CC09F091CD09E457F64F40833093D7
:10365000CD092093CC0902C08091CE00FF91EF915B
:103660009F918F914F913F912F910F900BBE0F9093
:103670000FBE0F901F90189508951F920F920FB6CE
:103680000F920BB60F9211242F933F934F938F936A
:103690009F93EF93FF938091D00082FD1DC04091D6
:1036A000D6002091540A3091550A2F5F3F4F2F7357
:1036B00030708091560A9091570A2817390771F097
:1036C000E091540AF091550AEC5EF54F4083309337
:1036D000550A2093540A02C08091D600FF91EF91C1
:1036E0009F918F914F913F912F910F900BBE0F9013
:1036F0000FBE0F901F90189508951F920F920FB64E
:103700000F920BB60F9211242F933F934F938F93E9
:103710009F93EF93FF938091300182FD1DC04091F4
:1037200036012091DC0A3091DD0A2F5F3F4F2F7365
:1037300030708091DE0A9091DF0A2817390771F006
:10374000E091DC0AF091DD0AE456F54F40833093B6
:10375000DD0A2093DC0A02C080913601FF91EF91CF
:103760009F918F914F913F912F910F900BBE0F9092
:103770000FBE0F901F901895E091300BF091310B18
:10378000E05CFF4F8191919120813181821B930BED
:103790008F739070892B09F0EFDEE091520BF0915E
:1037A000530BE05CFF4F8191919120813181821B0D
:1037B000930B8F739070892B09F01EDFE091740BCF
:1037C000F091750BE05CFF4F8191919120813181E7
:1037D000821B930B8F739070892B09F04DDFE09162
:1037E000960BF091970BE05CFF4F819191912081B6
:1037F0003181821B930B8F739070892B09F07CCFE2
:1038000008951F920F920FB60F920BB60F921124CC
:103810002F933F938F939F93EF93FF93209188096A
:103820003091890980918A0990918B09281739076D
:1038300031F48091C1008F7D8093C10014C0E0916C
:103840008A09F0918B09E85BF64F208180918A0903
:1038500090918B0901968F73907090938B09809350
:103860008A092093C600FF91EF919F918F913F911C
:103870002F910F900BBE0F900FBE0F901F901895B9
:103880001F920F920FB60F920BB60F9211242F9327
:103890003F938F939F93EF93FF932091100A309162
:1038A000110A8091120A9091130A2817390731F4EE
:1038B0008091C9008F7D8093C90014C0E091120AE5
:1038C000F091130AE053F64F20818091120A9091F3
:1038D000130A01968F7390709093130A8093120AC3
:1038E0002093CE00FF91EF919F918F913F912F9167
:1038F0000F900BBE0F900FBE0F901F9018951F9248
:103900000F920FB60F920BB60F9211242F933F9385
:103910008F939F93EF93FF932091980A3091990A88
:1039200080919A0A90919B0A2817390731F4809167
:10393000D1008F7D8093D10014C0E0919A0AF0915C
:103940009B0AE85AF54F208180919A0A90919B0A30
:1039500001968F73907090939B0A80939A0A20939C
:10396000D600FF91EF919F918F913F912F910F90F2
:103970000BBE0F900FBE0F901F9018951F920F92C5
:103980000FB60F920BB60F9211242F933F938F9384
:103990009F93EF93FF932091200B3091210B809107
:1039A000220B9091230B2817390731F480913101B4
:1039B0008F7D8093310114C0E091220BF091230B95
:1039C000E052F54F20818091220B9091230B0196BC
:1039D0008F7390709093230B8093220B209336016A
:1039E000FF91EF919F918F913F912F910F900BBE7F
:1039F0000F900FBE0F901F901895AF92BF92DF925D
:103A0000EF92FF920F931F93CF93DF93EC017A0114
:103A10008B01DD24403081EE580780E0680780E0AC
:103A2000780711F0DD24D39491E0A92EB12CEC8914
:103A3000FD89DD2069F0C50108A002C0880F991F2B
:103A40000A94E2F7808360E079E08DE390E005C0BE
:103A5000108260E874E88EE190E0A8019701A0D59B
:103A60002150304040405040569547953795279516
:103A700080E12030380720F0DD2011F0DD24D7CFA1
:103A8000E889F9893083EA89FB89208319A2EE89C4
:103A9000FF89408121E030E0C9010C8C02C0880F11
:103AA000991F0A94E2F7482B4083EE89FF894081F1
:103AB000C9010D8C02C0880F991F0A94E2F7482BA8
:103AC0004083EE89FF894081C9010E8C02C0880FB6
:103AD000991F0A94E2F7482B4083EE89FF89808181
:103AE0000F8C02C0220F331F0A94E2F7209528237F
:103AF0002083DF91CF911F910F91FF90EF90DF9086
:103B0000BF90AF900895DC011C96ED91FC911D973C
:103B1000E05CFF4F2191319180819181281B390B0D
:103B20002F733070C9010895DC011C96ED91FC9152
:103B30001D97E05CFF4F20813181E054F040DF01B0
:103B4000AE5BBF4F8D919C9111972817390719F4DF
:103B50002FEF3FEF07C08D919C91E80FF91F8081F7
:103B6000282F30E0C9010895DC011C96ED91FC91ED
:103B70001D97E05CFF4F20813181E054F040DF0170
:103B8000AE5BBF4F8D919C9111972817390719F49F
:103B90002FEF3FEF10C08D919C911197E80FF91F07
:103BA00020818D919C91119701968F739070119641
:103BB0009C938E9330E0C9010895DC0191968C911D
:103BC0009197882339F05496ED91FC915597808117
:103BD00086FFF9CF91961C920895CF93DF93EC0165
:103BE000EE85FF85E05CFF4F20813181E054F0409D
:103BF0002F5F3F4F2F733070DF01AE5BBF4F8D9152
:103C00009C91119728173907D1F3E05CFF4F808111
:103C10009181E054F040E80FF91F6083EE85FF8545
:103C2000E05CFF4F31832083EE89FF89208181E0B2
:103C300090E00F8C02C0880F991F0A94E2F7282B9E
:103C4000208381E089A3EC89FD8980818064808361
:103C500081E090E0DF91CF9108951F931092270BA0
:103C60001092260B28EE33E040E050E02093280B22
:103C70003093290B40932A0B50932B0B64E472E092
:103C80007093250B6093240B84E099E09093310BA3
:103C90008093300B88E499E09093330B8093320B40
:103CA00085EC90E09093350B8093340B84EC90E09E
:103CB0009093370B8093360B80EC90E09093390B08
:103CC0008093380B81EC90E090933B0B80933A0B00
:103CD00082EC90E090933D0B80933C0B86EC90E05F
:103CE00090933F0B80933E0B14E01093400BB3E096
:103CF000B093410BA7E0A093420BF5E0F093430B88
:103D0000E1E0E093440B1092490B1092480B209392
:103D10004A0B30934B0B40934C0B50934D0B7093CD
:103D2000470B6093460B8CE899E09093530B80937C
:103D3000520B80ED99E09093550B8093540B8DECD2
:103D400090E09093570B8093560B8CEC90E09093FF
:103D5000590B8093580B88EC90E090935B0B809309
:103D60005A0B89EC90E090935D0B80935C0B8AEC8E
:103D700090E090935F0B80935E0B8EEC90E09093BD
:103D8000610B8093600B1093620BB093630BA09355
:103D9000640BF093650BE093660B10926B0B109223
:103DA0006A0B20936C0B30936D0B40936E0B50930A
:103DB0006F0B7093690B6093680B84E19AE09093AA
:103DC000750B8093740B88E59AE09093770B809342
:103DD000760B85ED90E09093790B8093780B84EDD2
:103DE00090E090937B0B80937A0B80ED90E0909322
:103DF0007D0B80937C0B81ED90E090937F0B809303
:103E00007E0B82ED90E09093810B8093800B86ED8A
:103E100090E09093830B8093820B1093840BB0936C
:103E2000850BA093860BF093870BE093880B109281
:103E30008D0B10928C0B20938E0B30938F0B409335
:103E4000900B5093910B70938B0B60938A0B8CE9C2
:103E50009AE09093970B8093960B80EE9AE0909364
:103E6000990B8093980B85E391E090939B0B809343
:103E70009A0B84E391E090939D0B80939C0B80E3DD
:103E800091E090939F0B80939E0B81E391E0909340
:103E9000A10B8093A00B82E391E09093A30B8093FE
:103EA000A20B86E391E09093A50B8093A40B109353
:103EB000A60BB093A70BA093A80BF093A90BE093CC
:103EC000AA0B1F9108950F93FC0184E592E0918362
:103ED000808362834383248305830F91089584E55F
:103EE00092E09093AD0B8093AC0B1092AE0B1092BE
:103EF000AF0B1092B00B1092B10B08958F929F925E
:103F0000AF92BF92CF92DF92EF92FF920F931F93E7
:103F1000CF93DF934C016B017C01AA24BB24C0E04A
:103F2000D0E0C601F70162814AE050E006D18C0181
:103F3000C6016EE270D0080F191FA00EB11E2196A7
:103F40000894E11CF11CC330D10559F7C601F401F6
:103F500065814AE050E0F1D09501280F391FC90171
:103F6000DF91CF911F910F91FF90EF90DF90CF9055
:103F7000BF90AF909F908F9008959C01FB0180812E
:103F80009181A281B381F90182839383A483B58354
:103F9000C9010895FC0184E592E091838083128237
:103FA0001382148215820895CF93DF933BD90E9428
:103FB000EB08CCEBDBE10E94540C2097E1F3DCDB57
:103FC000FACFCF92DF92EF92FF920F931F93CF938E
:103FD000DF937C016B018A01C0E0D0E00FC0D60105
:103FE0006D916D01D701ED91FC910190F081E02D73
:103FF000C7011995C80FD91F0150104001151105AF
:1040000071F7CE01DF91CF911F910F91FF90EF904B
:10401000DF90CF900895DC01ED91FC910190F0814B
:10402000E02D19950895CF93DF93EC01611571058B
:1040300019F420E030E00FC0DB010D900020E9F71B
:104040001197A61BB70BE881F9810280F381E02D5F
:10405000AD0119959C01C901DF91CF9108954F924F
:104060005F927F928F929F92AF92BF92CF92DF9298
:10407000EF92FF920F931F93DF93CF93CDB7DEB7ED
:10408000A1970FB6F894DEBF0FBECDBF2C01742EE2
:10409000CB01223008F42AE019A231E2C32ED12C40
:1040A000CC0EDD1E822E9924AA24BB24672D752FE9
:1040B000A501940175D279018A01C801B701A50152
:1040C00094013BD2472D461B0894C108D1084A30C1
:1040D00014F4405D01C0495CF6014083E114F10431
:1040E0000105110521F07E2C5F2DC801DFCFC20133
:1040F000B60199DFA1960FB6F894DEBF0FBECDBF13
:10410000CF91DF911F910F91FF90EF90DF90CF90B3
:10411000BF90AF909F908F907F905F904F90089549
:10412000DC012115310541F4ED91FC910190F08104
:10413000E02D642F1995089592CFEF92FF920F937F
:104140001F939A01E62EFF2400E010E0B801A701BA
:10415000E7DF1F910F91FF90EF9008955058BB2714
:10416000AA270ED04DC13ED130F043D120F031F41A
:104170009F3F11F41EF433C10EF4E095E7FB29C113
:10418000E92F4FD180F3BA176207730784079507A9
:1041900018F071F49EF567C10EF4E0950B2EBA2F5E
:1041A000A02D0B01B90190010C01CA01A00111243D
:1041B000FF27591B99F0593F50F4503E68F11A16E9
:1041C000F040A22F232F342F4427585FF3CF46957A
:1041D00037952795A795F0405395C9F77EF41F169C
:1041E000BA0B620B730B840BBAF09150A1F0FF0F66
:1041F000BB1F661F771F881FC2F70EC0BA0F621F52
:10420000731F841F48F4879577956795B795F79541
:104210009E3F08F0B3CF9395880F08F09927EE0FD3
:104220009795879508950CD0EBC0E3D040F0DAD095
:1042300030F021F45F3F19F0CCC0511115C1CFC04F
:10424000F0D098F39923C9F35523B1F3951B550B7F
:10425000BB27AA2762177307840738F09F5F5F4F59
:10426000220F331F441FAA1FA9F333D00E2E3AF09A
:10427000E0E830D091505040E695001CCAF729D0B4
:10428000FE2F27D0660F771F881FBB1F2617370703
:104290004807AB07B0E809F0BB0B802DBF01FF2733
:1042A00093585F4F2AF09E3F510568F092C0DCC0E2
:1042B0005F3FECF3983EDCF3869577956795B7956D
:1042C000F7959F5FC9F7880F911D9695879597F988
:1042D0000895E1E0660F771F881FBB1F6217730701
:1042E0008407BA0720F0621B730B840BBA0BEE1F16
:1042F00088F7E095089504D06894B111B5C0089589
:1043000098D088F09F5790F0B92F9927B751A0F017
:10431000D1F0660F771F881F991F1AF0BA95C9F759
:1043200012C0B13081F09FD0B1E008959CC0672FDA
:10433000782F8827B85F39F0B93FCCF38695779509
:104340006795B395D9F73EF49095809570956195F2
:104350007F4F8F4F9F4F0895E89409C097FB3EF41D
:1043600090958095709561957F4F8F4F9F4F9923C2
:10437000A9F0F92F96E9BB279395F6958795779540
:104380006795B795F111F8CFFAF4BB0F11F460FF00
:104390001BC06F5F7F4F8F4F9F4F16C0882311F058
:1043A00096E911C0772321F09EE8872F762F05C06C
:1043B000662371F096E8862F70E060E02AF09A9507
:1043C000660F771F881FDAF7880F9695879597F9FC
:1043D000089597F99F6780E870E060E008959FEF87
:1043E00080EC089500240A9416161706180609068C
:1043F000089500240A94121613061406050608955B
:10440000092E0394000C11F4882352F0BB0F40F4E2
:10441000BF2B11F460FF04C06F5F7F4F8F4F9F4F22
:10442000089557FD9058440F551F59F05F3F71F0A4
:104430004795880F97FB991F61F09F3F79F087950B
:104440000895121613061406551FF2CF4695F1DF94
:1044500008C0161617061806991FF1CF8695710524
:10446000610508940895E894BB2766277727CB0158
:1044700097F908950BD0C4CFB5DF28F0BADF18F054
:10448000952309F0A6CFABCF1124EECFCADFA0F35E
:10449000959FD1F3950F50E0551F629FF001729FD9
:1044A000BB27F00DB11D639FAA27F00DB11DAA1FF8
:1044B000649F6627B00DA11D661F829F2227B00D45
:1044C000A11D621F739FB00DA11D621F839FA00DD0
:1044D000611D221F749F3327A00D611D231F849F20
:1044E000600D211D822F762F6A2F11249F57504077
:1044F0008AF0E1F088234AF0EE0FFF1FBB1F661F12
:10450000771F881F91505040A9F79E3F510570F0CA
:1045100060CFAACF5F3FECF3983EDCF386957795AA
:104520006795B795F795E7959F5FC1F7FE2B880FC5
:10453000911D9695879597F90895629FD001739F75
:10454000F001829FE00DF11D649FE00DF11D929F2F
:10455000F00D839FF00D749FF00D659FF00D99276E
:10456000729FB00DE11DF91F639FB00DE11DF91F92
:10457000BD01CF0111240895AA1BBB1B51E107C047
:10458000AA1FBB1FA617B70710F0A61BB70B881FE3
:10459000991F5A95A9F780959095BC01CD01089572
:1045A000A1E21A2EAA1BBB1BFD010DC0AA1FBB1F37
:1045B000EE1FFF1FA217B307E407F50720F0A21BA9
:1045C000B30BE40BF50B661F771F881F991F1A9416
:1045D00069F760957095809590959B01AC01BD0140
:1045E000CF010895EE0FFF1F0590F491E02D19946F
:0445F000F894FFCF6D
:1045F400DEADBEEFFE76A2540D0011001C001200C9
:104604001A00130008000A0100FF00010000000066
:10461400381125123411A9116D115011DE12CA126C
:1046240042125E123F12D311871117111F1130115C
:1046340000000000ED1DE11F831DB41D941DDD1D50
:06464400000000007E1FD3
:00000001FF
