:100000000AC100000C9479170C94AA170C94DB1702
:100010000C940C180C943D180C946E180C949F18AA
:100020000C94D01825C1000023C1000021C100009C
:100030001FC100001DC100001BC1000019C100004C
:1000400017C1000015C1000013C1000011C100005C
:1000500010C100000DC100000BC100000C9401197B
:1000600007C100000C945B1B0C949F1C01C1000095
:10007000FFC00000FDC00000FBC00000F9C0000090
:10008000F7C00000F5C00000F3C000006DC1000023
:100090000C949B1B0C94DE1CEBC00000E9C000001C
:1000A000E7C00000E5C00000E3C00000E1C00000C0
:1000B000DFC00000DDC00000DBC00000D9C00000D0
:1000C000D7C00000D5C00000D3C000000C94DB1BDB
:1000D0000C941D1DCDC000000C941B1C0C945C1DC9
:1000E000C7C0000000002100240027002A002D00C6
:1000F0003000330001010000040107010A01000083
:100100002200250028002B002E00310034000201BF
:100110000000050108010B0100002000230026005B
:1001200029002C002F00320000010000030106010D
:10013000090105050505070508080808020202026D
:100140000A0A080804040404010101010101010173
:100150000303030303030303040707070C0C0C0C3E
:100160000C0C0C0C02020202060606060606060627
:100170000B0B0B0B0B0B0B0B0102102020080810B4
:100180002040102040800201020108040201010207
:1001900004081020408080402010080402018004E0
:1001A000020180402010080402010804020101023B
:1001B0000408102040800102040810204080000044
:1001C000090A02080B0C0D070603040100000000D9
:1001D000000000000000000000000000000000001F
:1001E0000000000000000000000011100F000000DF
:1001F00000000000000000000000000000000000FF
:1002000000000000BC06430DA50D4C109F11AA1163
:100210000012CB1E0D2011241FBECFEFD1E2DEBF96
:10022000CDBF00E00CBF12E0A0E0B2E0E0E3F7E4F5
:1002300000E00BBF02C007900D92AA35B107D9F7B5
:100240001BBE1BE0AAE5B2E001C01D92A83EB107AB
:10025000E1F712E0C6E1D2E004C02297FE010E945D
:100260009223C430D107C9F70E9472200C949623C0
:10027000C7CE1F920F920FB60F9211242F933F9368
:100280004F935F938F939F938091120390911303E9
:10029000909385008093840020910E0330910F038A
:1002A0002F5F3F4F30930F0320930E0340911003B5
:1002B000509111034F5F5F4F509311034093100310
:1002C000809118038F5F80931803909119039F5FAB
:1002D000909319038B3F18F08AEF809318039B3F8C
:1002E00018F08AEF80931903285E334060F081E0B4
:1002F0008093160310920F0310920E0380914B040B
:100300008F5F80934B044A30510538F081E0809331
:100310001703109211031092100380914B048C3339
:1003200018F08CE380934B0480914B048C3388F05D
:1003300020918904213069F480914E0490914F04FA
:10034000019690934F0480934E0410924B04209397
:10035000B7049F918F915F914F913F912F910F9093
:100360000FBE0F901F9018951F920F920FB60F920D
:1003700011248F939F938091140390911503909370
:100380009500809394008091CE088F5F8093CE0873
:100390008A3008F474C01092CE088091C908813068
:1003A000A9F49091CF088091D008891778F08091B6
:1003B000CC08813059F49F5F9093CF088093C80890
:1003C00080910B01886080930B010BC080910B0121
:1003D000877F80930B011092CF081092C80810926B
:1003E000CC088091CC08882389F49091D3089F5F32
:1003F0009093D30880910B01877F80930B019035F8
:1004000028F01092D30881E08093CC088091CB082B
:100410008130A9F49091D1088091D208891778F0A1
:100420008091CD08813059F49F5F9093D1088093DB
:10043000CA0880910B01826080930B010BC08091F0
:100440000B018D7F80930B011092D1081092CA0886
:100450001092CD088091CD08882389F49091D4081A
:100460009F5F9093D40880910B018D7F80930B0147
:10047000903528F01092D40881E08093CD089F91A8
:100480008F910F900FBE0F901F90189520E834E8C1
:100490004EE150E00E943B2320E432E44FE050E084
:1004A0000E946E23309521953F4F30931303209384
:1004B00012031092800082E080938100EFE6F0E06A
:1004C000808181608083309385002093840008952B
:1004D00020E834E84EE150E00E943B2320E432E47F
:1004E0004FE050E00E946E23309521953F4F3093AE
:1004F0001503209314031092900082E080939100E2
:10050000E1E7F0E080818160808330939500209363
:1005100094000895EF92FF920F931F938091CD0264
:10052000882381F09091180380911A02891750F462
:100530001092CD021092D1021092D0021092CB02F2
:100540001092C9028091CE02882381F09091190304
:1005500080911A02891750F41092CE021092D302A1
:100560001092D2021092CC021092CA02809118030B
:10057000893C38F48091D0029091D102892B71F09E
:100580004FC01092D1021092D0021092CB02109262
:10059000C90280914C048E7F80934C048091CC02E0
:1005A0002091D2023091D302813049F488279927D3
:1005B000821B930B9093D9028093D80204C030938E
:1005C000D9022093D8028091CA028130B9F4609197
:1005D000D8027091D902882777FD8095982F0E94C4
:1005E0004C2223E333E34BE451E40E94D8220E94DF
:1005F00019227093D9026093D80212C08091D80258
:100600009091D9029C0143E0220F331F4A95E1F7F4
:10061000880F991F280F391F3093D9022093D802D1
:1006200080911903893C38F48091D2029091D302D1
:10063000892B71F04FC01092D3021092D202109207
:10064000CC021092CA0280914C048D7F80934C049E
:100650008091CB022091D0023091D102813049F4B7
:1006600088279927821B930B9093D9028093D802F5
:1006700004C03093D9022093D8028091C9028130FE
:10068000B9F46091D8027091D902882777FD8095DE
:10069000982F0E944C2223E333E34BE451E40E9461
:1006A000D8220E9419227093D9026093D80212C0F6
:1006B0008091D8029091D9029C0113E0220F331F40
:1006C0001A95E1F7880F991F280F391F3093D90227
:1006D0002093D80280914C048370833009F0D1C0FC
:1006E0002091D0023091D1022115310509F4C9C001
:1006F0004091D2025091D3024115510509F4C1C075
:100700008091CB02813049F488279927821B930B73
:100710009093DB028093DA0204C03093DB022093D3
:10072000DA028091CC02813049F488279927841B12
:10073000950B9093DD028093DC0204C05093DD02A0
:100740004093DC028091C902813009F04FC0809152
:10075000CA02813009F08FC06091DA027091DB0229
:10076000882777FD8095982F0E944C2223E333E35E
:100770004BE451E40E94D82255C06091DA02709196
:10078000DB02882777FD8095982F0E944C2223E377
:1007900033E34BE451E40E94D8227B018C01209189
:1007A000DC023091DD02B901A3E0660F771FAA9544
:1007B000E1F7220F331F620F731F882777FD8095A3
:1007C000982F0E944C229B01AC01C801B7010E94E6
:1007D0004D2120E030E040E05FE30E94D8220E94FB
:1007E00019227093D9026093D8024BC0882309F074
:1007F00048C08091CA02813009F041C02091DA02DC
:100800003091DB02B901E3E0660F771FEA95E1F76B
:10081000220F331F620F731F882777FD8095982F53
:100820000E944C227B018C016091DC027091DD0200
:10083000882777FD8095982F0E944C2223E333E38D
:100840004BE451E40E94D822BECF8091DC0290910B
:10085000DD022091DA023091DB02820F931F9C01AE
:10086000220F331F220F331F280F391F3093D90255
:100870002093D80206C0882309F47FCF02C08823C2
:1008800021F31F910F91FF90EF9008959F92AF92E7
:10089000BF92CF92DF92EF92FF920F931F93CF936D
:1008A000DF93982EA92EB62E4F5F282F392FC9011E
:1008B000EC01EE2460E070E0FF24C42EDD2422C0B1
:1008C000A881B981892D9A2D9C01F90130E020E0A1
:1008D0008D010C191D09A6014A0F5B1F0BC08081F9
:1008E00091810817190720F48417950708F43F5FD2
:1008F0002F5F32962B1598F3E31610F4E32EBD010B
:10090000F3942296FB14E0F2CB01DF91CF911F917B
:100910000F91FF90EF90DF90CF90BF90AF909F909E
:1009200008958F929F92AF92BF92DF92EF92FF92C3
:100930000F931F93CF93DF9390918904913009F027
:10094000E5C1D090BB04AD2CBB24F501EE0FFF1F19
:10095000EE0FFF1FE25AFB4F0190F081E02DD50111
:10096000AA0FBB1F309709F047C0AA0FBB1FA05AA0
:10097000BB4F2D913C912115310509F48FC1809118
:10098000B904882341F410924F0410924E0410923F
:100990004B049093B90480914E0490914F048217B8
:1009A000930708F4B3C110924F0410924E041092B2
:1009B0004B041092B904D394D092BB041092B504A6
:1009C0001092B60480914C041092C3041092C20499
:1009D0001092BF041092BE041092C1041092C00481
:1009E0001092B8048F7C80934C048FEF90E090932A
:1009F0001E0280931D028AC1AA0FBB1FA05ABB4FC3
:100A00002D913C912115310509F448C18091B5041F
:100A1000882351F4F093BD04E093BC043093C504E3
:100A20002093C4049093B504C0918502D0918602AE
:100A30000091BC041091BD04E6EF8E2EEFEF9E2EC8
:100A4000800E911E8C169D0638F181E08093C908B6
:100A50008091C808882339F50C171D0711F460E050
:100A600013C0C8018C1B9D0B6AE070E00E945A23E2
:100A700080E090E00E944A2220E030E040E05FE326
:100A80000E944D210E9419226093D0086A3058F4C8
:100A90008AE08093D00807C080910B01877F809304
:100AA0000B011092C9087FE0E72EF12CE00EF11E39
:100AB000CE15DF0538F181E08093CB088091CA081C
:100AC000882339F5C017D10711F460E013C0CE01B7
:100AD000801B910B6AE070E00E945A2380E090E056
:100AE0000E944A2220E030E040E05FE30E944D2176
:100AF0000E9419226093D2086A3058F48AE08093E9
:100B0000D20807C080910B018D7F80930B0110925A
:100B1000CB08C815D90508F4BDC0EC16FD0608F4CD
:100B2000B9C08091B604882309F01CC18091C60425
:100B30009091C7048C52914048F110924F0410924A
:100B40004E0410924B041092B80480914C048F7E96
:100B500091E09093B7049093B604806280934C0424
:100B60001092C7041092C6041092C3041092C204DB
:100B70001092BF041092BE041092C1041092C004DF
:100B80008FEF90E090931E0280931D028091C60427
:100B90009091C70401969093C7048093C604E2C065
:100BA000853691050CF076C0D5011196FD01EE0F4A
:100BB000FF1FEE0FFF1FE25AFB4F80819181892BAF
:100BC000C9F5AA0FBB1FAA0FBB1FA05ABB4F8D911F
:100BD0009C91892B79F51092890490914C04109284
:100BE000B50410924F0410924E0410924B041092D0
:100BF000C9081092CB0881E08093BA041092B60421
:100C00001092B8049F7890934C041092C3041092F1
:100C1000C2041092BF041092BE041092C10410923C
:100C2000C0048FEF90E090931E0280931D021092FB
:100C3000BB0426C01092B5041092B60480914C04F7
:100C4000D394D092BB041092C3041092C2041092A9
:100C5000BF041092BE041092C1041092C0041092FE
:100C6000B8048F7C80934C048FEF90E090931E0229
:100C700080931D0210924F0410924E0410924B0468
:100C800080910B01877F80930B0180910B018D7FF9
:100C900080930B018091BB048B30C0F110928904CA
:100CA00090914C041092B50410924F0410924E048F
:100CB00010924B041092C9081092CB0881E08093E7
:100CC000BA041092B6041092B8049F7890934C0422
:100CD0001092C3041092C2041092BF041092BE047A
:100CE0001092C1041092C0048FEF90E090931E0206
:100CF00080931D021092BB0480910B01877F80932B
:100D00000B0180910B018D7F80930B018091BA04C0
:100D10008130B9F480910B01877F80930B01809122
:100D20000B01826080930B01809185029091860275
:100D3000409738F41092BA0480910B018D7F809314
:100D40000B018091BB048F5F80934D04DF91CF91A5
:100D50001F910F91FF90EF90DF90BF90AF909F9009
:100D60008F90089580911D0290911E022FEF8C3973
:100D700092070CF015CF8ECF0F9385ED98E060E0D1
:100D800040E020E000E00E9401208AE592E060EC73
:100D900048EA20E000EB0E94012080E692E060EC4F
:100DA00048EA20E00FEF0E94012086E692E00E94D0
:100DB000E7120F910895AF92BF92CF92DF92EF9218
:100DC000FF920F931F93CF93DF938091CF02C82F91
:100DD000D0E0809114020E94121ACC0FDD1FC75779
:100DE000DD4F998388838091CF028F5F8F708093CE
:100DF000CF0289E892E060E141E048DD20915404AF
:100E00003091550482179307C0F0821B930BBC01ED
:100E100080E090E00E944A2220915A0430915B04C5
:100E200040915C0450915D040E94D8220E941E22D1
:100E3000709388026093870204C010928802109217
:100E40008702A0901602B0901702C0901802D090AE
:100E5000190260E070E080E89FE3A60195010E941E
:100E60004C217B018C01609185027091860280E0AB
:100E700090E00E944A229B01AC01C801B7010E9488
:100E8000D8227B018C01609187027091880280E0FA
:100E900090E00E944A229B01AC01C601B5010E946C
:100EA000D8229B01AC01C801B7010E944D210E94CC
:100EB0001E22709386026093850210921703DF91C1
:100EC000CF911F910F91FF90EF90DF90CF90BF9047
:100ED000AF9008951092190380914C048260809322
:100EE0004C048091CE028431D0F4809110020E9493
:100EF0002B1B892B81F521E030E00090CE0202C04F
:100F0000220F331F0A94E2F78091D4029091D50208
:100F1000822B932B9093D5028093D4021CC08431F2
:100F200059F4809110020E942B1B1092CC02892B45
:100F300019F481E08093CC028091CE02873159F47C
:100F4000809110020E942B1B1092CA02892B19F467
:100F500081E08093CA028091CE028F5F8093CE029F
:100F6000883170F08091D4029091D5029093D30291
:100F70008093D2021092CE021092D5021092D40227
:100F800008951092180380914C04816080934C0462
:100F90008091CD028431D0F480910C020E942B1BF1
:100FA000892B81F521E030E00090CD0202C0220FB4
:100FB000331F0A94E2F78091D6029091D702822BD8
:100FC000932B9093D7028093D6021CC0843159F49E
:100FD00080910C020E942B1B1092CB02892B19F4DA
:100FE00081E08093CB028091CD02873159F48091CA
:100FF0000C020E942B1B1092C902892B19F481E06C
:101000008093C9028091CD028F5F8093CD02883199
:1010100070F08091D6029091D7029093D102809384
:10102000D0021092CD021092D7021092D6020895EB
:10103000DF93CF9300D000D0CDB7DEB780913B03D4
:10104000E82FF0E0EE0FFF1FE65EFC4F808181305D
:1010500009F02AC19181913071F482E880934003B4
:1010600010924103109242039093430381E48093D2
:10107000440386E0B8C09230C1F481E88093400315
:10108000109241031092420383E0809343038091C6
:1010900047048093440380914504809345038091E5
:1010A00046048093460388E09EC0933009F05BC0FD
:1010B00085E880934003109241031092420383E13C
:1010C000809343038091C902809344038091CB02B3
:1010D000809345038091D0029091D1028093460382
:1010E000909347038091CA02809348038091CC0279
:1010F000809349038091D2029091D30280934A0356
:1011000090934B038091D8029091D90280934C0325
:10111000892F990F990B80934D03809185029091AF
:10112000860280934E0390934F038091C204909166
:10113000C304809350039093510380914E04909187
:101140004F04809352039093530380914B048093F8
:10115000540380914D048093550380914C048093F7
:10116000560388E140C0943009F03FC083E8809383
:101170004003109241031092420380918604482F4D
:1011800050E0440F551F440F551F409343038EE515
:1011900094E090938B0480938A0410924A041092F6
:1011A000490411C0E0918A04F0918B048191169654
:1011B0008C93F0938B04E0938A042F5F3F4F30931E
:1011C0004A04209349042091490430914A04D901EA
:1011D000A25CBC4F241735072CF380914C04169663
:1011E0008C93822F8A5F80933D0388E592E09A83F7
:1011F00089838091620290916302A0916402B09110
:1012000065028B839C83AD83BE834091060250911F
:10121000070286E692E0BE016F5F7F4F0E94E012F8
:1012200010924A041092490410923C031CC0A23050
:10123000B1054CF0FD01E25CFC4F80913C039081D4
:10124000890F80933C03A25CBC4F86E692E06C91D0
:101250000E94D6118091490490914A04019690937E
:101260004A0480934904A0914904B0914A048091B2
:101270003D0390E08A179B07D4F686E692E06091E2
:101280003C030E94D61186E692E00E94DD12809116
:101290003B03E82FF0E0EE0FFF1FE65EFC4F1082ED
:1012A0008F5F8F7080933B0326960FB6F894DEBF56
:1012B0000FBECDBFCF91DF910895DF93CF9300D0C4
:1012C00000D0CDB7DEB780910C0261E00E94F91A20
:1012D00080910E0261E00E94F91A80910C0260E098
:1012E0000E94461A80910E0260E00E94461A809188
:1012F000100261E00E94F91A8091120261E00E94DE
:10130000F91A8091100260E00E94461A8091120240
:1013100060E00E94461A85E061EC77E042E050E030
:101320000E94FD1684E06AE677E042E050E00E9409
:10133000FD1668EE73E080E090E0A8D868EE73E0F8
:1013400080E090E0C5D88091080261E00E94461AD2
:1013500080910A0260E00E94461A8EE261E00E94DB
:10136000461A80E361E00E94461A85E361E00E942C
:10137000461A88E592E09A83898380915C02909175
:101380005D02A0915E02B0915F028B839C83AD836E
:10139000BE838FEE98E060E072E0AE014F5F5F4F7A
:1013A00097D7609106027091070286E692E00E944C
:1013B0007C138AE59BE040E855E260E070E00E9423
:1013C0009B1D64EF71E080E090E00E94571983E973
:1013D00080933E038AE680933F031092400310926D
:1013E00041031092420326960FB6F894DEBF0FBE5B
:1013F000CDBFCF91DF9108958091BE049091BF043D
:101400006091D8027091D902FC01EE0FFF1FE853E2
:10141000FB4F71836083E091C004F091C1048E1B87
:101420009F0B91709093C3048093C2042091C404D5
:101430003091C5048217930768F1EE0FFF1FE85340
:10144000FB4F80819181681B790B70931E02609322
:101450001D028AE59BE00E948B1E60911D02709127
:101460001E02672F770F770B8AE59BE00E948B1E89
:101470008091C0049091C104019691709093C10431
:101480008093C00481E08093B80480914C04806113
:1014900080934C048091BE049091BF04019691709A
:1014A0009093BF048093BE0408957F928F929F9281
:1014B000AF92BF92CF92DF92EF92FF920F931F9362
:1014C000CF93DF9386E692E00E9471126C01009741
:1014D00009F47CC286E692E06EED72E040E350E0F3
:1014E000B4D710924A041092490410924204109208
:1014F0003E041092410432E0F32EEE24E3942EE5F4
:10150000A22E24E0B22E9FEF892E912C84E0782E1B
:101510004AC2E252FD4F90819093400420913E04D4
:101520002230A1F480914104813009F045C29093AA
:101530003F04109242041092870408C0909345041F
:1015400005C09093460402C0909348049A3621F453
:10155000213011F4F0923E0480913E04813011F468
:1015600010923E04933931F480913E04882311F4A3
:10157000E0923E0420913F04213009F0B5C08091F3
:101580004104882309F46EC1813009F405C1853016
:1015900019F49093880466C1863009F063C1809184
:1015A0004204891709F05EC180918804813491F466
:1015B00010923E041092410410924404109243048D
:1015C00080913A03E82FF0E0EE0FFF1FE65EFC4F3C
:1015D0002083D2C08234D9F410923E041092410488
:1015E0001092440480913A03E82FF0E0EE0FFF1FC1
:1015F000E65EFC4F2083F1828F5F8F70E82FF0E072
:10160000EE0FFF1FE65EFC4F20837182B6C083346D
:10161000F1F410923E04109241041092440480911F
:101620003A03E82FF0E0EE0FFF1FE65EFC4F208349
:10163000F1828F5F8F7080933A0320938904109218
:101640004B0480914C04806480934C040BC184341F
:1016500009F008C110923E04109241041092440413
:1016600080913A03E82FF0E0EE0FFF1FE65EFC4F9B
:10167000E082F1828F5F8F7080933A031092890429
:1016800080914C041092B50410924F0410924E04B5
:1016900010924B041092C9081092CB08E092BA0441
:1016A0001092B6041092B8048F7880934C04109274
:1016B000C3041092C2041092BF041092BE04109290
:1016C000C1041092C00490921E0280921D021092DA
:1016D000BB0480910B01877F80930B0180910B01EC
:1016E0008D7F80930B01BEC0223009F04BC08091EA
:1016F0004104882309F4B6C0813009F44DC0853017
:1017000019F490938102AEC0863019F4909382024E
:10171000A9C0873019F490938302A4C0883019F4CB
:10172000909384029FC0893009F09CC0809142044C
:10173000891709F097C0E092430410923E0410927A
:10174000410410924404809181028093620280914E
:10175000820280936302809183028093640280916D
:1017600084028093650280913A03E82FF0E0EE0F47
:10177000FF1FE65EFC4FE082F1828F5F8F708093E7
:101780003A0370C0233009F06DC080914104882372
:1017900009F468C0813019F48093440463C0853033
:1017A00008F460C020918704E22FF0E0E457FB4F7B
:1017B000908380914204891709F04FC080914804BA
:1017C000281709F04AC0B0928B04A0928A041092A4
:1017D0004A04109249041AC0E0918A04F0918B04E3
:1017E000A457BB4F8C91808380918A0490918B0485
:1017F000019690938B0480938A0480914904909180
:101800004A04019690934A0480934904A0914904A4
:10181000B0914A048091480490E0A817B907E4F217
:101820008091870490E0959587959595879580930D
:10183000860410923E041092410410924404809158
:101840003A03E82FF0E0EE0FFF1FE65EFC4FE08268
:10185000F1828F5F8F7080933A03809187048F5F4E
:101860008093870480913F04843009F071C0809197
:101870004104882309F46CC0813019F48093440436
:1018800067C0853039F480914004809350041092F1
:1018900051045EC0863039F4809140048093520434
:1018A0001092530455C0873039F4809140048093DE
:1018B0005604109257044CC0883039F4809140048B
:1018C000809358041092590443C0893009F040C0F5
:1018D00090914204809140049817D1F510915204E0
:1018E00000E06091500470915104602B712B709353
:1018F0001C0260931B02D0915804C0E02091560452
:10190000309157042C2B3D2B3093550420935404D5
:1019100080E090E00E944A2220E030E44CE156E46E
:101920000E94B12160935A0470935B0480935C041D
:1019300090935D0480913A03E82FF0E0EE0FFF1FD3
:10194000E65EFC4FE082F1828F5F8F7080933A03F6
:1019500020914104222339F0809142049091400467
:10196000890F8093420480913E04823051F42130EB
:1019700041F480914404882321F410923E04109293
:10198000410480913E04823028F0809141048F5FB1
:10199000809341048091490490914A040196909368
:1019A0004A0480934904E0914904F0914A04EC15FB
:1019B000FD050CF4AECD0AC0823009F4BFCD8330F2
:1019C00009F4BFCD843009F0C1CDBECDDF91CF91F8
:1019D0001F910F91FF90EF90DF90CF90BF90AF904D
:1019E0009F908F907F9008950E948A020E94910498
:1019F0005CDD1EDB80911703813009F4DCD9809116
:101A00001603882311F11092160390914304992331
:101A100059F480913A03E82FF0E0EE0FFF1FE65EE5
:101A2000FC4F91E090830CC0913079F480913A039F
:101A3000E82FF0E0EE0FFF1FE65EFC4F908393E08F
:101A400091838F5F8F7080933A038091B7048823CE
:101A500019F01092B704D0CC089585E361E00E949C
:101A6000F91A85E361E00E94461A8CB580618CBD4D
:101A70008CB580648CBD84E361E00E94461A83E3E8
:101A800061E00C94461A0F938BED98E060E040E023
:101A900020E000E00E9401200F9108959C01FB01CD
:101AA00082819381A481B581F90182839383A48388
:101AB000B583178216820895CF93DF93FB0101C08F
:101AC000319680818823E1F7EB01A0E0B0E020E0CF
:101AD00030E021C06E3261F42F3F310509F07CF512
:101AE000FA01EA0FFB1F2283119620E030E012C0BA
:101AF000C901E3E0880F991FEA95E1F7220F331F30
:101B0000820F931F262F332727FD30952053304017
:101B1000280F391F21966881662319F0A430B1057A
:101B2000CCF22F3F310509F054F4A430B1053CF458
:101B3000A40FB51F12962C9321E030E002C020E0E4
:101B400030E0C901DF91CF9108950F9381EE98E0C5
:101B500060E040E020E000E00E9401200F91089545
:101B60002F923F924F925F926F927F928F929F92AD
:101B7000AF92BF92CF92DF92EF92FF920F931F939B
:101B8000DF93CF93CDB7DEB769970FB6F894DEBF7A
:101B90000FBECDBF4C018B011A010E9449192B01C8
:101BA0003C01F8E0EF2EF12CE80CF91C5801CC2494
:101BB000DD2414C00E944919641975098609970922
:101BC000A616B706C806D90618F42FEF3FEFF8C0DF
:101BD00062E370E080E090E00E945719C70181D471
:101BE000181619063CF7F40122813381448155818E
:101BF000818D928DA38DB48D8A879B87AC87BD879D
:101C0000281739074A075B0709F0D8C0858D968DDC
:101C1000C59709F0D3C0EEC08E01025F1F4FC70108
:101C2000B8014CE050E011D4F801528143815B834C
:101C30004A83F401268137818E859F8528173907CD
:101C400011F457FD05C0C701C9D32CEF3FEFB8C051
:101C50004F705270452B29F0C701C0D32BEF3FEFD7
:101C6000AFC0F801768067806114710441F0AA2446
:101C7000BB2448012E010894411C511C24C0C701FB
:101C8000ADD32AEF3FEF9CC0C701B20141E050E065
:101C9000DCD38981882319F407C0C701F8D389816F
:101CA000815089838F5FC9F78981882369F700E0B4
:101CB00010E0C701ECD30F5F1F4F04301105C9F7C7
:101CC0000894A11CB11CF401D480C580AC14BD04DF
:101CD000D8F244245524C701BE016F5F7F4F41E015
:101CE00050E0B3D39981892F807C59F4992319F45A
:101CF0000BC0C701CCD38981815089838F5FC9F71D
:101D000003C0C701C4D319828981882321F7C70181
:101D1000BE016C5F7F4F42E050E097D3C701BE0128
:101D20006A5F7F4F42E050E090D300E010E0C701CF
:101D3000AED30F5F1F4F04301105C9F7C701BE01B5
:101D40006E5F7F4F42E050E080D3DC80CD80F1E0D9
:101D5000CF16D10401F5BE80AF8081E0A816B10492
:101D6000D1F49A818B81049729F0C70137D327EFEB
:101D70003FEF26C0E2E0F0E02E0E3F1EC701B101AA
:101D800044E050E062D321E030E01AC0C7017FD3C5
:101D90000F5F1F4F02C000E010E09A808B80081593
:101DA0001905A0F30894411C511C4614570408F46B
:101DB00092CFC70113D326EF3FEF02C02EEF3FEFC4
:101DC000C90169960FB6F894DEBF0FBECDBFCF91A3
:101DD000DF911F910F91FF90EF90DF90CF90BF9018
:101DE000AF909F908F907F906F905F904F903F90BB
:101DF0002F90089588E592E099878887C701D2D20D
:101E00000C970CF009CF2DEF3FEFDACF6F927F9256
:101E10008F929F92AF92BF92CF92DF92EF92FF92FA
:101E20000F931F93DF93CF9300D0CDB7DEB78C0114
:101E3000F62EE72E0E944919F80177836683B8E0F1
:101E4000CB2ED12CC00ED11E0A5F1F4FC601B80188
:101E500042E050E098D381E090E09B838A83A2E047
:101E60008A2E912C8C0E9D1EC601B40142E050E0DA
:101E70008AD380E091E09B838A83C601B40142E06B
:101E800050E081D31B821A82C601B40142E050E0C7
:101E90007AD3C601B40142E050E075D3C601B40163
:101EA00042E050E070D32F2D3E2DC9018C017C0102
:101EB0003E010894611C711C1EC00894E11CF11CB9
:101EC000F7018081882311F08E32B9F75701A01AEB
:101ED000B10A1A141B0464F48E2D801B8983C60179
:101EE000B30141E050E04FD3C601B801A5014BD387
:101EF00087010F5F1F4FF7018081882311F0780160
:101F0000DFCF1982C601BE016F5F7F4F41E050E015
:101F10003AD300E011E01B830A83C601B40142E01A
:101F200050E031D31B830A83C601B40142E050E084
:101F30002AD381E090E00F900F900F90CF91DF9126
:101F40001F910F91FF90EF90DF90CF90BF90AF90D7
:101F50009F908F907F906F9008958F929F92AF92F5
:101F6000BF92CF92DF92EF92FF920F931F93DF9376
:101F7000CF9300D000D0CDB7DEB76C017B014A0112
:101F80009BDD892B19F001E010E061C0F601228190
:101F90003381448155818091E3089091E408A091B8
:101FA000E508B091E608281739074A075B0719F4D6
:101FB0000EEF1FEF4CC018E0A12EB12CAC0CBD1CD5
:101FC0000E9449199B01AC012F70307020503C4F8A
:101FD000C501B90191D3813019F000E010E037C09C
:101FE00088E592E09A838983F60182819381A481B6
:101FF000B5818B839C83AD83BE83C501BE016F5FBA
:102000007F4F45E350E0DCD28C010097F1F0C60130
:10201000B701FCDE8C010097C1F0C501CED28C0166
:10202000009799F0EE24FF24C60168E873E1A4014B
:1020300097DD8C010894E11CF11CF3E0EF16F1042C
:1020400021F08FEF0F3F180779F3C50141D3C80185
:1020500026960FB6F894DEBF0FBECDBFCF91DF91AD
:102060001F910F91FF90EF90DF90CF90BF90AF90B6
:102070009F908F900895DB01FC0128E532E03183C9
:10208000208312962D913D914D915C91159722835D
:1020900033834483558308950F9387EF98E060E07E
:1020A00040E020E000E00E9401208FEE98E00E94D6
:1020B00068200F9108956F927F928F929F92AF92B6
:1020C000BF92CF92DF92EF92FF920F931F933C014A
:1020D0005B016A01490181E199E061D689E090E004
:1020E000B50146E050E095D482E090E0C80ED91EDC
:1020F0008FE090E0B60144E050E08BD40E5F1F4FBC
:1021000081E090E0B80144E050E083D4E2E0F0E008
:10211000EE0EFF1E85E090E0B70144E050E079D478
:10212000F40182819381A481B581F3018283938339
:10213000A483B5831F910F91FF90EF90DF90CF9014
:10214000BF90AF909F908F907F906F9008956F9207
:102150007F928F929F92AF92BF92CF92DF92EF9237
:10216000FF920F931F93DF93CF93CDB7DEB76E9798
:102170000FB6F894DEBF0FBECDBF4C013B017A0114
:1021800069015801CE0101966FEF4FEF2FEF00E08C
:102190000E94012028E532E038872F83F7018281F1
:1021A0009381A481B58189879A87AB87BC873E8755
:1021B0002D87F60182819381A481B5818F87988BC9
:1021C000A98BBA8B3C8B2B8BF50182819381A481E7
:1021D000B5818D8B9E8BAF8BB88F3A8F298F8B817A
:1021E0009C81AD81BE818B8F9C8FAD8FBE8FC401D2
:1021F000B301AE01495F5F4F9E01235F3F4F8E01E8
:102200000D5E1F4FE9E1EE2EF12CEC0EFD1E53DFAB
:102210006E960FB6F894DEBF0FBECDBFCF91DF91A3
:102220001F910F91FF90EF90DF90CF90BF90AF90F4
:102230009F908F907F906F9008950F931F93DF93DF
:10224000CF93CDB7DEB768970FB6F894DEBF0FBE59
:10225000CDBFFA01D90122813381448155812B837D
:102260003C834D835E83E8E5F2E0F887EF832987BE
:102270003A874B875C87FE87ED8712962D913D91BB
:102280004D915C9115972F87388B498B5A8BFC8B1E
:10229000EB8B21E02E832B813C814D815E812D8B48
:1022A0003E8B4F8B588FAE01495F5F4F9E01235F7E
:1022B0003F4F8E010D5E1F4F4ADF68960FB6F894B0
:1022C000DEBF0FBECDBFCF91DF911F910F9108955B
:1022D000DF93CF93CDB7DEB762970FB6F894DEBF2A
:1022E0000FBECDBFFA0122813381448155812B83FA
:1022F0003C834D835E83E8E5F2E0F887EF8329872E
:102300003A874B875C87FE87ED8721E02E832B8100
:102310003C814D815E812F87388B498B5A8BAE0172
:10232000495F5F4F9E01235F3F4F87DF62960FB685
:10233000F894DEBF0FBECDBFCF91DF9108950F930C
:102340008DEF98E060E040E020E000E00E94012096
:102350000F9108950F9383E099E060E040E020E062
:1023600000E00E9401200F910895DC01ED91FC91A5
:10237000008CF18DE02D19950895DB01FC0128E515
:1023800032E03183208351962D913D914D915C91A6
:10239000549722833383448355830895FC018589B0
:1023A00096890895FC01818D928D0895DF93CF93D6
:1023B0000F92CDB7DEB7FC016983A081B18112967F
:1023C0002D913C911397BE016F5F7F4F41E050E02C
:1023D000F90119950F90CF91DF910895CF93DF9375
:1023E000EC0107C0E881F9810680F781E02DCE017C
:1023F0001995898D9A8D892BA9F7DF91CF91089531
:102400000F9389E099E060E040E020E000E00E9466
:1024100001200F910895DF93CF930F92CDB7DEB7D0
:10242000FC01818D928D892B19F42FEF3FEF08C0AD
:102430008485BE016F5F7F4F87D28981282F30E06E
:10244000C9010F90CF91DF910895CF93DF93EC01F5
:102450009A01498D5A8D4115510599F02417350778
:1024600010F08C8502C08C85A9017CD29C011816C5
:1024700019063CF4898D9A8D821B930B9A8F898F54
:1024800002C02FEF3FEFC901DF91CF9108950F9365
:102490001F93DF93CF930F92CDB7DEB78C01FC0172
:1024A000818D928D892BA1F08485BE016F5F7F4F56
:1024B00041E050E057D21816190654F4F801818D06
:1024C000928D0197928F818F8981282F30E002C0F1
:1024D0002FEF3FEFC9010F90CF91DF911F910F9127
:1024E0000895EF92FF920F931F93DF93CF93CDB791
:1024F000DEB728970FB6F894DEBF0FBECDBF8C01B4
:10250000DC01ED91FC910284F385E02D199581E1C8
:1025100099E0F801648544D3892B19F420E030E078
:1025200024C0D8011C968C917E010894E11CF11CFA
:10253000B70148E050E016D29C0118161906ACF419
:10254000C8010F96B7010E945B209D8180E02E811B
:10255000820F911DF801968B858B9F8180E02885E5
:10256000820F911D928F818F9C01C90128960FB611
:10257000F894DEBF0FBECDBFCF91DF911F910F91B9
:10258000FF90EF9008950F931F938C01FB019A0128
:10259000DC0157966D917C9158971C968C91AF01F8
:1025A000A6D19C01F8018789908D820F931F908F8F
:1025B000878BC9011F910F910895FC018485E1C0AB
:1025C000FC01108E178A6E5F7F4F848567C1FC0106
:1025D0001382128288EE93E0A0E0B0E084839583BA
:1025E000A683B78384E292E09183808384E084872A
:1025F000CF010F960C9468206F927F928F929F92DA
:10260000AF92BF92CF92DF92EF92FF920F931F9300
:10261000DF93CF93CDB7DEB7E5970FB6F894DEBF63
:102620000FBECDBF4C015B013A0183E1E82EF12CD6
:10263000EC0EFD1EC7010E946820CE014B96C7DF3D
:102640006E010894C11CD11CC6010E9468208E0135
:10265000095F1F4FC8016FEE78E00DDDC701B801BB
:102660001DDAC701B501A60178DC9C018130910516
:10267000C9F4D401ED91FC910088F189E02D88E541
:1026800092E09E878D878B819C81AD81BE818F87F3
:10269000988BA98BBA8BC401BE01635F7F4FA301E6
:1026A00019959C01C901E5960FB6F894DEBF0FBEDF
:1026B000CDBFCF91DF911F910F91FF90EF90DF90F1
:1026C000CF90BF90AF909F908F907F906F90089524
:1026D000CF93DF93EC018C85843059F071D0EC8579
:1026E000F0E0EE0FFF1FE951F74F1182108284E0F6
:1026F0008C87DF91CF910895CF92DF92EF92FF9276
:102700000F931F93CF93DF937C016B01FC018485B2
:10271000843009F5C0E0D0E003E014E0C801A0D1A6
:10272000882311F0883119F4F701C48706C0219677
:1027300000501F4FC430D10589F7F70184858430DC
:1027400051F0D686C586128E118E62E0A60120E079
:1027500070D081E001C080E0DF91CF911F910F9197
:10276000FF90EF90DF90CF90089590E0982F88270A
:102770008E5F9B4F75C190E0982F88278E5F9B4F8F
:102780002EC11F93182F81E199E0612F40E250E0A4
:10279000F6D20AC0812FE9DF83FF06C0812F68E1EE
:1027A000EADF20E030E009C0812FDFDF84FFF2CFD5
:1027B000812F60E1E0DF21E030E0C9011F91089541
:1027C0001F93182F81E199E0612F40E150E0D7D2AB
:1027D000812F6FEFD0DF1F910895FF920F931F930A
:1027E000F62E672F082F10E00C5F1F4F102F0027C9
:1027F000C8014096F4D0C80141966F2DF0D01F91CA
:102800000F91FF900895FF920F931F93F62E672F5D
:10281000082F10E00C5F1F4F102F0027C8010496EF
:10282000DED0C80105966F2DDAD01F910F91FF9071
:102830000895FF920F931F93CF93DF93082FF62EE7
:10284000EA01122F862F8150853010F080E020C0E1
:10285000802FB6DF1F2980E0902F9C5F612FBFD0B3
:10286000209719F0802FBE010BC060910F09709165
:1028700010096F5F7F4F7093100960930F09802FCD
:10288000C2DF81E199E0602F41E050E078D281E041
:10289000DF91CF911F910F91FF9008951F93CF93D8
:1028A000DF93182FFB01EA018081882349F481819D
:1028B000882331F48281882319F48381882381F06D
:1028C000209771F0912F80E0845F9B4FBF0144E01F
:1028D00050E09FD0812FBE0180DF21E030E002C0B8
:1028E00020E030E0C901DF91CF911F910895AF92B0
:1028F000BF92DF92EF92FF920F931F93CF93DF93DC
:10290000D82EEB015A01890181E199E06D2D77D133
:102910008017910710F0780105C081E199E06D2DD5
:102920006ED17C0181E199E06D2DAE0195018701A9
:10293000B7D0C701DF91CF911F910F91FF90EF901A
:10294000DF90BF90AF9008950F93282FAB0181E1E6
:1029500099E0622F21E030E001E0CBD181E090E00E
:102960000F910895CF92DF92FF920F931F93CF9311
:10297000DF93F82E6B018A0181E199E06F2D10D170
:10298000EC01009761F49F2D80E08D5F9B4F68D034
:102990008431C9F08823B9F08C31A9F01DC0081723
:1029A00019070CF4E8011C161D066CF481E199E08E
:1029B0006F2DA6019E0100E09CD181E199E06F2D71
:1029C00040E450E0DCD1CE01DF91CF911F910F9117
:1029D000FF90DF90CF900895CFEFDFEFF4CF282F57
:1029E0002C9880EF8EBD0DB407FEFDCF8EB59EBD39
:1029F0000DB407FEFDCF8EB52EBD0DB407FEFDCF85
:102A00008EB56EBD0DB407FEFDCF8EB52C9A81E05C
:102A10000895DC0120E030E090EF1DC02C989EBDB1
:102A20000DB407FEFDCF8EB5BEBD0DB407FEFDCFC4
:102A30008EB5AEBD0DB407FEFDCF8EB5FB01E20F26
:102A4000F31F80818EBD0DB407FEFDCF11968EB5AC
:102A50002C9A2F5F3F4F2417350700F3CA010895C2
:102A6000282F2C988FE08EBD0DB407FEFDCF8EB5BC
:102A70009EBD0DB407FEFDCF8EB52EBD0DB407FE75
:102A8000FDCF8EB51EBC0DB407FEFDCF8EB52C9AC2
:102A9000089590E00496982F8827860F971FE0CF1F
:102AA0007F928F929F92AF92BF92CF92DF92EF92DE
:102AB000FF920F931F93CF93DF936C01762E7A01D1
:102AC00049015801862F64E270E0E3DF182F872D5B
:102AD00065E270E0DEDFC82FD0E0912F80E0C82BE8
:102AE000D92BCE0DDF1DAE015770872D90E0880FDA
:102AF000991FC80ED91EF60120813181240F351F80
:102B0000CA018A0D9B1D8150984090F000E018E0AA
:102B1000041B150BC901B401A8017BDFA501401BF3
:102B2000510BF60180819181080D191DB80103C078
:102B3000C901B401A5016DDF7E01EA0CFB1C072D64
:102B400010E00C5F1F4F102F0027C80184966F2DD7
:102B500046DFC80185966E2D42DFDF91CF911F9130
:102B60000F91FF90EF90DF90CF90BF90AF909F902C
:102B70008F907F9008950F931F93182F66E270E057
:102B800088DF082F812F67E270E083DF502F40E05D
:102B9000282F30E0242B352BC9011F910F91089568
:102BA000FF920F931F93CF93DF93F62EC0E0D0E0F8
:102BB0008F2DE1DF8C01009719F08F2DDCDFEC0108
:102BC000C017D107A9F7CE01DF91CF911F910F91C7
:102BD000FF9008950F931F93182F60E270E059DF64
:102BE000082F812F61E270E054DF502F40E0282F42
:102BF00030E0242B352BC9011F910F910895FF92CE
:102C00000F931F93CF93DF93F62EC0E0D0E08F2D6C
:102C1000E1DF8C01009719F08F2DDCDFEC01C0178C
:102C2000D107A9F7CE01DF91CF911F910F91FF90AE
:102C30000895DC0120E030E09FE01DC02C989EBD8F
:102C40000DB407FEFDCF8EB5BEBD0DB407FEFDCFA2
:102C50008EB5AEBD0DB407FEFDCF8EB51EBC0DB456
:102C600007FEFDCF11968EB5FB01E20FF31F8083A7
:102C70002C9A2F5F3F4F2417350700F3CA010895A0
:102C8000CF92DF92EF92FF920F931F93CF93DF9338
:102C9000690178015770C62FD0E02496CC0FDD1F54
:102CA000C80FD91F28813981240F351FC801840F0F
:102CB000951F8150984080F000E018E0041B150B30
:102CC000C901B601A801B5DFE01AF10A888199812E
:102CD0000C0D1D1DB80102C0C901B601A701A9DF75
:102CE000DF91CF911F910F91FF90EF90DF90CF90E8
:102CF00008958F929F92AF92BF92CF92DF92EF9200
:102D0000FF920F931F93CF93DF937C01A62E6A014E
:102D10004901B02E862F68E270E0BBDE182F8A2DA5
:102D200069E270E0B6DEC82FD0E0912F80E0C82BBA
:102D3000D92BC7016A2DAE0196018401A1DFBB200A
:102D400089F47E01E80CF91C0A2D10E00C5F1F4F7E
:102D5000102F0027C80188966F2D41DEC801899683
:102D60006E2D3DDEDF91CF911F910F91FF90EF907F
:102D7000DF90CF90BF90AF909F908F9008951F935A
:102D8000162F962F80E08F5F9B4F642F28DE812FB8
:102D900061E070E07EDE8823D1F71F9108950F93E4
:102DA0001F93182F092F6CE271E080E090E07FD232
:102DB0000E942D0D249A80E090E060E810DE8BE107
:102DC00090E065E50CDE8AE190E065E508DE212F04
:102DD000302FC901FC0180E090E491838083805012
:102DE000904E9187808780509841329620E68030BF
:102DF000920799F71F910F910895883008F078C0D5
:102E0000E82FF0E0EE0FFF1FEF5DF64F7183608358
:102E10008330D9F0843030F4813009F444C08230FA
:102E200060F439C0853051F18530D8F0863009F42E
:102E300046C0873009F05CC04FC0809169008C7F2C
:102E4000842B80936900E89A089580916900440F6B
:102E5000551F440F551F837F842B80936900E99A87
:102E600008958091690074E0440F551F7A95E1F749
:102E70008F7C842B80936900EA9A08958091690081
:102E800066E0440F551F6A95E1F78F73842B80939A
:102E90006900EB9A089580916A008C7F842B80935F
:102EA0006A00EC9A089580916A00440F551F440F00
:102EB000551F837F842B80936A00ED9A089580913B
:102EC0006A0024E0440F551F2A95E1F78F7C842B7C
:102ED00080936A00EE9A089580916A0096E0440F0C
:102EE000551F9A95E1F78F73842B80936A00EF9AB0
:102EF00008951F920F920FB60F920BB60F921124E6
:102F00002F933F934F935F936F937F938F939F93F1
:102F1000AF93BF93EF93FF9380912509909126097A
:102F2000892B29F0E0912509F09126091995FF9147
:102F3000EF91BF91AF919F918F917F916F915F9131
:102F40004F913F912F910F900BBE0F900FBE0F909E
:102F50001F9018951F920F920FB60F920BB60F92FB
:102F600011242F933F934F935F936F937F938F938E
:102F70009F93AF93BF93EF93FF9380912709909115
:102F80002809892B29F0E0912709F0912809199542
:102F9000FF91EF91BF91AF919F918F917F916F9131
:102FA0005F914F913F912F910F900BBE0F900FBEED
:102FB0000F901F9018951F920F920FB60F920BB69D
:102FC0000F9211242F933F934F935F936F937F93AF
:102FD0008F939F93AF93BF93EF93FF9380912909B2
:102FE00090912A09892B29F0E0912909F0912A0969
:102FF0001995FF91EF91BF91AF919F918F917F9123
:103000006F915F914F913F912F910F900BBE0F9059
:103010000FBE0F901F9018951F920F920FB60F9230
:103020000BB60F9211242F933F934F935F936F939F
:103030007F938F939F93AF93BF93EF93FF93809171
:103040002B0990912C09892B29F0E0912B09F09103
:103050002C091995FF91EF91BF91AF919F918F919D
:103060007F916F915F914F913F912F910F900BBE88
:103070000F900FBE0F901F9018951F920F920FB6D2
:103080000F920BB60F9211242F933F934F935F93A0
:103090006F937F938F939F93AF93BF93EF93FF9320
:1030A0008091210990912209892B29F0E091210931
:1030B000F09122091995FF91EF91BF91AF919F91E6
:1030C0008F917F916F915F914F913F912F910F90D1
:1030D0000BBE0F900FBE0F901F9018951F920F926E
:1030E0000FB60F920BB60F9211242F933F934F936D
:1030F0005F936F937F938F939F93AF93BF93EF9360
:10310000FF938091230990912409892B29F0E09164
:103110002309F09124091995FF91EF91BF91AF9187
:103120009F918F917F916F915F914F913F912F91DF
:103130000F900BBE0F900FBE0F901F9018951F920F
:103140000F920FB60F920BB60F9211242F933F934D
:103150004F935F936F937F938F939F93AF93BF939F
:10316000EF93FF9380912D0990912E09892B29F0DF
:10317000E0912D09F0912E091995FF91EF91BF91E2
:10318000AF919F918F917F916F915F914F913F91FF
:103190002F910F900BBE0F900FBE0F901F901895A0
:1031A0001F920F920FB60F920BB60F9211242F930E
:1031B0003F934F935F936F937F938F939F93AF93BF
:1031C000BF93EF93FF9380912F0990913009892B42
:1031D00029F0E0912F09F09130091995FF91EF91B5
:1031E000BF91AF919F918F917F916F915F914F911F
:1031F0003F912F910F900BBE0F900FBE0F901F901D
:1032000018951F920F920FB60F9211242F933F9390
:103210008F939F93AF93BF93809135099091360917
:10322000A0913709B0913809309139090196A11D53
:10323000B11D232F2D5F2D3720F02D570196A11D95
:10324000B11D209339098093350990933609A093D5
:103250003709B09338098091310990913209A091D2
:103260003309B09134090196A11DB11D8093310934
:1032700090933209A0933309B0933409BF91AF9171
:103280009F918F913F912F910F900FBE0F901F90A4
:1032900018958FB7F89420913509309136094091EF
:1032A0003709509138098FBFB901CA0108959B01B0
:1032B000AC017FB7F8948091310990913209A091C7
:1032C0003309B091340966B5A89B05C06F3F19F06A
:1032D0000196A11DB11D7FBFBA2FA92F982F882756
:1032E000860F911DA11DB11D62E0880F991FAA1FB5
:1032F000BB1F6A95D1F7BC012DC0FFB7F894809130
:10330000310990913209A0913309B0913409E6B5A1
:10331000A89B05C0EF3F19F00196A11DB11DFFBF8D
:10332000BA2FA92F982F88278E0F911DA11DB11D8F
:10333000E2E0880F991FAA1FBB1FEA95D1F7861BF1
:10334000970B885E9340C8F2215030404040504077
:1033500068517C4F211531054105510571F60895DD
:10336000789484B5826084BD84B5816084BD85B560
:10337000826085BD85B5816085BDEEE6F0E0808127
:1033800081608083E1E8F0E0108280818260808348
:10339000808181608083E0E8F0E0808181608083CB
:1033A000E1EBF0E0808184608083E0EBF0E08081FD
:1033B00081608083E1E9F0E08081826080838081A8
:1033C00081608083E0E9F0E0808181608083E1EAD0
:1033D000F0E0808182608083808181608083E0EA88
:1033E000F0E0808181608083E1E2F1E080818260B1
:1033F0008083808181608083E0E2F1E08081816070
:103400008083EAE7F0E0808184608083808182604D
:103410008083808181608083808180688083109236
:10342000C1000895382F863308F0365320917B0071
:10343000832F86958695869590E08170907043E005
:10344000880F991F4A95E1F7277F282B20937B004F
:10345000377080911F028295880F880F807C832BA4
:1034600080937C0080917A00806480937A008091C0
:103470007A0086FDFCCF2091780040917900942F4E
:1034800080E030E0282B392BC9010895CF93DF93DA
:10349000482F50E0CA0188589E4FFC0134914E5C81
:1034A0005E4FFA018491882369F190E0880F991F9B
:1034B000FC01EC51FF4FA591B491FC01E250FF4F8C
:1034C000C591D491662351F42FB7F8948C91932F22
:1034D000909589238C93888189230BC0623061F495
:1034E0002FB7F8948C91932F909589238C93888192
:1034F000832B88832FBF06C09FB7F8948C91832BB2
:103500008C939FBFDF91CF910895893009F449C012
:103510008A30A0F4843051F1853040F4823079F162
:10352000833000F5813009F063C026C0873079F11F
:10353000883098F5863009F05BC025C08D3009F4DD
:1035400042C08E3028F48B30B1F18C30C0F52DC0E4
:10355000803109F442C0813109F445C08F3009F04F
:1035600047C037C0809180008F7703C08091800072
:103570008F7D80938000089584B58F7702C084B5D5
:103580008F7D84BD08958091B0008F7703C08091B6
:10359000B0008F7D8093B0000895809190008F7768
:1035A00007C0809190008F7D03C080919000877F3D
:1035B0008093900008958091A0008F7707C080913C
:1035C000A0008F7D03C08091A000877F8093A00022
:1035D0000895809120018F7703C0809120018F7D15
:1035E00080932001089580912001877F809320019E
:1035F0000895FF920F931F93F62E482F50E0CA01B3
:1036000082549E4FFC012491CA0188589E4FFC01B0
:1036100014914E5C5E4FFA0104910023C1F0222305
:1036200011F0822F72DFE02FF0E0EE0FFF1FE2506B
:10363000FF4FA591B4919FB7F894FF2021F48C918E
:103640001095812302C08C91812B8C939FBF1F9179
:103650000F91FF9008950F931F93482F50E0CA01D8
:1036600082549E4FFC012491CA0188589E4FFC0150
:1036700004914E5C5E4FFA011491112319F420E07D
:1036800030E014C0222311F0822F3FDF812F90E021
:10369000880F991F885E9E4FFC01A591B4918C9173
:1036A00020E030E0802311F021E030E0C9011F91DB
:1036B0000F91089508951F920F920FB60F920BB6B7
:1036C0000F9211242F933F934F938F939F93EF93D8
:1036D000FF938091C00082FD1DC04091C6002091E3
:1036E0007A0930917B092F5F3F4F2F7330708091A3
:1036F0007C0990917D092817390771F0E0917A09CA
:10370000F0917B09E65CF64F408330937B09209370
:103710007A0902C08091C600FF91EF919F918F912D
:103720004F913F912F910F900BBE0F900FBE0F90B6
:103730001F90189508951F920F920FB60F920BB617
:103740000F9211242F933F934F938F939F93EF9357
:10375000FF938091C80082FD1DC04091CE00209152
:10376000020A3091030A2F5F3F4F2F733070809110
:10377000040A9091050A2817390771F0E091020AAE
:10378000F091030AEE53F64F40833093030A2093DF
:10379000020A02C08091CE00FF91EF919F918F911C
:1037A0004F913F912F910F900BBE0F900FBE0F9036
:1037B0001F90189508951F920F920FB60F920BB697
:1037C0000F9211242F933F934F938F939F93EF93D7
:1037D000FF938091D00082FD1DC04091D6002091C2
:1037E0008A0A30918B0A2F5F3F4F2F733070809180
:1037F0008C0A90918D0A2817390771F0E0918A0A96
:10380000F0918B0AE65BF54F408330938B0A20934F
:103810008A0A02C08091D600FF91EF919F918F910B
:103820004F913F912F910F900BBE0F900FBE0F90B5
:103830001F90189508951F920F920FB60F920BB616
:103840000F9211242F933F934F938F939F93EF9356
:10385000FF938091300182FD1DC04091360120917F
:10386000120B3091130B2F5F3F4F2F7330708091ED
:10387000140B9091150B2817390771F0E091120B7A
:10388000F091130BEE52F54F40833093130B2093BE
:10389000120B02C080913601FF91EF919F918F91A1
:1038A0004F913F912F910F900BBE0F900FBE0F9035
:1038B0001F901895E091660BF091670BE05CFF4F4D
:1038C0008191919120813181821B930B8F73907034
:1038D000892B09F0EFDEE091880BF091890BE05C19
:1038E000FF4F8191919120813181821B930B8F73C6
:1038F0009070892B09F01EDFE091AA0BF091AB0BC1
:10390000E05CFF4F8191919120813181821B930B6B
:103910008F739070892B09F04DDFE091CC0BF09103
:10392000CD0BE05CFF4F8191919120813181821B11
:10393000930B8F739070892B09F07CCF08951F92A1
:103940000F920FB60F920BB60F9211242F933F9345
:103950008F939F93EF93FF932091BE093091BF09FE
:103960008091C0099091C1092817390731F48091DD
:10397000C1008F7D8093C10014C0E091C009F09117
:10398000C109E258F64F20818091C0099091C10988
:1039900001968F7390709093C1098093C009209312
:1039A000C600FF91EF919F918F913F912F910F90C2
:1039B0000BBE0F900FBE0F901F9018951F920F9285
:1039C0000FB60F920BB60F9211242F933F938F9344
:1039D0009F93EF93FF932091460A3091470A80917D
:1039E000480A9091490A2817390731F48091C90093
:1039F0008F7D8093C90014C0E091480AF091490A74
:103A0000EA5FF54F20818091480A9091490A01961A
:103A10008F7390709093490A8093480A2093CE0048
:103A2000FF91EF919F918F913F912F910F900BBE3E
:103A30000F900FBE0F901F9018951F920F920FB608
:103A40000F920BB60F9211242F933F938F939F9356
:103A5000EF93FF932091CE0A3091CF0A8091D00A44
:103A60009091D10A2817390731F48091D1008F7DC8
:103A70008093D10014C0E091D00AF091D10AE257AE
:103A8000F54F20818091D00A9091D10A01968F73D1
:103A900090709093D10A8093D00A2093D600FF9122
:103AA000EF919F918F913F912F910F900BBE0F90AF
:103AB0000FBE0F901F9018951F920F920FB60F9286
:103AC0000BB60F9211242F933F938F939F93EF93F5
:103AD000FF932091560B3091570B8091580B90918A
:103AE000590B2817390731F4809131018F7D80936C
:103AF000310114C0E091580BF091590BEA5EF44F7C
:103B000020818091580B9091590B01968F73907082
:103B10009093590B8093580B20933601FF91EF91AE
:103B20009F918F913F912F910F900BBE0F900FBEE1
:103B30000F901F901895AF92BF92DF92EF92FF9275
:103B40000F931F93CF93DF93EC017A018B01DD2458
:103B5000403081EE580780E0680780E0780711F078
:103B6000DD24D39491E0A92EB12CEC89FD89DD20D0
:103B700069F0C50108A002C0880F991F0A94E2F7F6
:103B8000808360E079E08DE390E005C0108260E81A
:103B900074E88EE190E0A8019701A0D52150304053
:103BA00040405040569547953795279580E1203005
:103BB000380720F0DD2011F0DD24D7CFE889F9891E
:103BC0003083EA89FB89208319A2EE89FF8940812D
:103BD00021E030E0C9010C8C02C0880F991F0A94C3
:103BE000E2F7482B4083EE89FF894081C9010D8CA3
:103BF00002C0880F991F0A94E2F7482B4083EE8990
:103C0000FF894081C9010E8C02C0880F991F0A9458
:103C1000E2F7482B4083EE89FF8980810F8C02C038
:103C2000220F331F0A94E2F7209528232083DF9187
:103C3000CF911F910F91FF90EF90DF90BF90AF90C9
:103C40000895DC011C96ED91FC911D97E05CFF4FFF
:103C50002191319180819181281B390B2F73307014
:103C6000C9010895DC011C96ED91FC911D97E05C63
:103C7000FF4F20813181E054F040DF01AE5BBF4F48
:103C80008D919C9111972817390719F42FEF3FEF69
:103C900007C08D919C91E80FF91F8081282F30E09B
:103CA000C9010895DC011C96ED91FC911D97E05C23
:103CB000FF4F20813181E054F040DF01AE5BBF4F08
:103CC0008D919C9111972817390719F42FEF3FEF29
:103CD00010C08D919C911197E80FF91F20818D9153
:103CE0009C91119701968F73907011969C938E936F
:103CF00030E0C9010895DC0191968C919197882359
:103D000039F05496ED91FC915597808186FFF9CF5B
:103D100091961C920895CF93DF93EC01EE85FF8579
:103D2000E05CFF4F20813181E054F0402F5F3F4F36
:103D30002F733070DF01AE5BBF4F8D919C91119757
:103D400028173907D1F3E05CFF4F80819181E0545F
:103D5000F040E80FF91F6083EE85FF85E05CFF4FC0
:103D600031832083EE89FF89208181E090E00F8CF0
:103D700002C0880F991F0A94E2F7282B208381E064
:103D800089A3EC89FD8980818064808381E090E053
:103D9000DF91CF9108951F9310925D0B10925C0BF1
:103DA00028EE33E040E050E020935E0B30935F0B51
:103DB0004093600B5093610B68E472E070935B0B6F
:103DC00060935A0B8AE399E09093670B8093660B9C
:103DD0008EE799E09093690B8093680B85EC90E0F7
:103DE00090936B0B80936A0B84EC90E090936D0B37
:103DF00080936C0B80EC90E090936F0B80936E0B34
:103E000081EC90E09093710B8093700B82EC90E0CA
:103E10009093730B8093720B86EC90E09093750BEC
:103E20008093740B14E01093760BB3E0B093770B90
:103E3000A7E0A093780BF5E0F093790BE1E0E09335
:103E40007A0B10927F0B10927E0B2093800B309395
:103E5000810B4093820B5093830B70937D0B609387
:103E60007C0B82EC99E09093890B8093880B86E021
:103E70009AE090938B0B80938A0B8DEC90E090935B
:103E80008D0B80938C0B8CEC90E090938F0B809338
:103E90008E0B88EC90E09093910B8093900B89ECC3
:103EA00090E09093930B8093920B8AEC90E0909328
:103EB000950B8093940B8EEC90E09093970B8093EE
:103EC000960B1093980BB093990BA0939A0BF093C9
:103ED0009B0BE0939C0B1092A10B1092A00B2093D4
:103EE000A20B3093A30B4093A40B5093A50B70939C
:103EF0009F0B60939E0B8AE49AE09093AB0B8093A8
:103F0000AA0B8EE89AE09093AD0B8093AC0B85EDF5
:103F100090E09093AF0B8093AE0B84ED90E0909384
:103F2000B10B8093B00B80ED90E09093B30B809336
:103F3000B20B81ED90E09093B50B8093B40B82EDC2
:103F400090E09093B70B8093B60B86ED90E0909342
:103F5000B90B8093B80B1093BA0BB093BB0BA09323
:103F6000BC0BF093BD0BE093BE0B1092C30B1092F1
:103F7000C20B2093C40B3093C50B4093C60B5093D8
:103F8000C70B7093C10B6093C00B82ED9AE09093C6
:103F9000CD0B8093CC0B86E19BE09093CF0B80936D
:103FA000CE0B85E391E09093D10B8093D00B84E30B
:103FB00091E09093D30B8093D20B80E391E09093A8
:103FC000D50B8093D40B81E391E09093D70B809332
:103FD000D60B82E391E09093D90B8093D80B86E3C4
:103FE00091E09093DB0B8093DA0B1093DC0BB09392
:103FF000DD0BA093DE0BF093DF0BE093E00B1F9142
:1040000008950F93FC0188E592E091838083628399
:104010004383248305830F91089588E592E090936C
:10402000E30B8093E20B1092E40B1092E50B1092DD
:10403000E60B1092E70B08958F929F92AF92BF927A
:10404000CF92DF92EF92FF920F931F93CF93DF9364
:104050004C016B017C01AA24BB24C0E0D0E0C60166
:10406000F70162814AE050E006D18C01C6016EE2A0
:1040700070D0080F191FA00EB11E21960894E11CE4
:10408000F11CC330D10559F7C601F40165814AE03E
:1040900050E0F1D09501280F391FC901DF91CF9170
:1040A0001F910F91FF90EF90DF90CF90BF90AF9056
:1040B0009F908F9008959C01FB0180819181A28146
:1040C000B381F90182839383A483B583C9010895E1
:1040D000FC0188E592E0918380831282138214822E
:1040E00015820895CF93DF933BD90E945D09CAE5FD
:1040F000DCE10E94F40C2097E1F3DCDBFACFCF92F5
:10410000DF92EF92FF920F931F93CF93DF937C0187
:104110006B018A01C0E0D0E00FC0D6016D916D0146
:10412000D701ED91FC910190F081E02DC701199527
:10413000C80FD91F015010400115110571F7CE01AC
:10414000DF91CF911F910F91FF90EF90DF90CF9073
:104150000895DC01ED91FC910190F081E02D19951D
:104160000895CF93DF93EC016115710519F420E0F8
:1041700030E00FC0DB010D900020E9F71197A61B7E
:10418000B70BE881F9810280F381E02DAD0119952B
:104190009C01C901DF91CF9108954F925F927F9268
:1041A0008F929F92AF92BF92CF92DF92EF92FF9247
:1041B0000F931F93DF93CF93CDB7DEB7A1970FB6C1
:1041C000F894DEBF0FBECDBF2C01742ECB01223080
:1041D00008F42AE019A231E2C32ED12CCC0EDD1E48
:1041E000822E9924AA24BB24672D752FA501940142
:1041F00075D279018A01C801B701A50194013BD2AA
:10420000472D461B0894C108D1084A3014F4405D7C
:1042100001C0495CF6014083E114F1040105110578
:1042200021F07E2C5F2DC801DFCFC201B60199DFDE
:10423000A1960FB6F894DEBF0FBECDBFCF91DF9130
:104240001F910F91FF90EF90DF90CF90BF90AF90B4
:104250009F908F907F905F904F900895DC01211583
:10426000310541F4ED91FC910190F081E02D642F36
:104270001995089592CFEF92FF920F931F939A0191
:10428000E62EFF2400E010E0B801A701E7DF1F9150
:104290000F91FF90EF9008955058BB27AA270ED09A
:1042A0004DC13ED130F043D120F031F49F3F11F4A5
:1042B0001EF433C10EF4E095E7FB29C1E92F4FD17D
:1042C00080F3BA17620773078407950718F071F433
:1042D0009EF567C10EF4E0950B2EBA2FA02D0B01B1
:1042E000B90190010C01CA01A0011124FF27591B3B
:1042F00099F0593F50F4503E68F11A16F040A22F41
:10430000232F342F4427585FF3CF469537952795B1
:10431000A795F0405395C9F77EF41F16BA0B620BB0
:10432000730B840BBAF09150A1F0FF0FBB1F661FF7
:10433000771F881FC2F70EC0BA0F621F731F841F3A
:1043400048F4879577956795B795F7959E3F08F060
:10435000B3CF9395880F08F09927EE0F979587951F
:1043600008950CD0EBC0E3D040F0DAD030F021F467
:104370005F3F19F0CCC0511115C1CFC0F0D098F3F8
:104380009923C9F35523B1F3951B550BBB27AA27D6
:1043900062177307840738F09F5F5F4F220F331F48
:1043A000441FAA1FA9F333D00E2E3AF0E0E830D014
:1043B00091505040E695001CCAF729D0FE2F27D017
:1043C000660F771F881FBB1F261737074807AB07E5
:1043D000B0E809F0BB0B802DBF01FF2793585F4F5A
:1043E0002AF09E3F510568F092C0DCC05F3FECF3BD
:1043F000983EDCF3869577956795B795F7959F5F1F
:10440000C9F7880F911D9695879597F90895E1E072
:10441000660F771F881FBB1F621773078407BA07D1
:1044200020F0621B730B840BBA0BEE1F88F7E0952C
:10443000089504D06894B111B5C0089598D088F05B
:104440009F5790F0B92F9927B751A0F0D1F0660F80
:10445000771F881F991F1AF0BA95C9F712C0B1309B
:1044600081F09FD0B1E008959CC0672F782F8827F6
:10447000B85F39F0B93FCCF3869577956795B395DA
:10448000D9F73EF490958095709561957F4F8F4F49
:104490009F4F0895E89409C097FB3EF4909580954E
:1044A000709561957F4F8F4F9F4F9923A9F0F92FFA
:1044B00096E9BB279395F695879577956795B79578
:1044C000F111F8CFFAF4BB0F11F460FF1BC06F5F5E
:1044D0007F4F8F4F9F4F16C0882311F096E911C070
:1044E000772321F09EE8872F762F05C0662371F091
:1044F00096E8862F70E060E02AF09A95660F771FA5
:10450000881FDAF7880F9695879597F9089597F998
:104510009F6780E870E060E008959FEF80EC089569
:1045200000240A9416161706180609060895002492
:104530000A9412161306140605060895092E03940C
:10454000000C11F4882352F0BB0F40F4BF2B11F480
:1045500060FF04C06F5F7F4F8F4F9F4F089557FDDF
:104560009058440F551F59F05F3F71F04795880FE1
:1045700097FB991F61F09F3F79F087950895121678
:1045800013061406551FF2CF4695F1DF08C0161624
:1045900017061806991FF1CF8695710561050894D5
:1045A0000895E894BB2766277727CB0197F90895EC
:1045B0000BD0C4CFB5DF28F0BADF18F0952309F08F
:1045C000A6CFABCF1124EECFCADFA0F3959FD1F3D6
:1045D000950F50E0551F629FF001729FBB27F00DB1
:1045E000B11D639FAA27F00DB11DAA1F649F662706
:1045F000B00DA11D661F829F2227B00DA11D621F55
:10460000739FB00DA11D621F839FA00D611D221F0E
:10461000749F3327A00D611D231F849F600D211DF2
:10462000822F762F6A2F11249F5750408AF0E1F095
:1046300088234AF0EE0FFF1FBB1F661F771F881FDE
:1046400091505040A9F79E3F510570F060CFAACF1E
:104650005F3FECF3983EDCF3869577956795B795C9
:10466000F795E7959F5FC1F7FE2B880F911D9695F3
:10467000879597F90895629FD001739FF001829FFB
:10468000E00DF11D649FE00DF11D929FF00D839FE1
:10469000F00D749FF00D659FF00D9927729FB00D7E
:1046A000E11DF91F639FB00DE11DF91FBD01CF0191
:1046B00011240895AA1BBB1B51E107C0AA1FBB1FF1
:1046C000A617B70710F0A61BB70B881F991F5A959E
:1046D000A9F780959095BC01CD010895A1E21A2E0D
:1046E000AA1BBB1BFD010DC0AA1FBB1FEE1FFF1F96
:1046F000A217B307E407F50720F0A21BB30BE40BE6
:10470000F50B661F771F881F991F1A9469F760952C
:104710007095809590959B01AC01BD01CF010895E6
:10472000EE0FFF1F0590F491E02D1994F894FFCF40
:10473000DEADBEEFFE76A2540D0011001C0012008B
:104740001A00130008000000003F0A0100FF0001EA
:1047500000000000D611C312D21147120B12EE1145
:104760007C136813E012FC12DD1271122512B511D0
:10477000BD11CE11000000008B1E7F20211E521E95
:0A478000321E7B1E000000001C200A
:00000001FF
