:100000000AC100000C94DC140C940D150C943E15E0
:100010000C946F150C94A0150C94D1150C94021629
:100020000C94331625C1000023C1000021C100003B
:100030001FC100001DC100001BC1000019C100004C
:1000400017C1000015C1000013C1000011C100005C
:1000500010C100000DC100000BC100000C9464161B
:1000600007C100000C94BE180C94021A01C10000D4
:10007000FFC00000FDC00000FBC00000F9C0000090
:10008000F7C00000F5C00000F3C00000F1C00000A0
:100090000C94FE180C94411AEBC00000E9C000005B
:1000A000E7C00000E5C00000E3C00000E1C00000C0
:1000B000DFC00000DDC00000DBC00000D9C00000D0
:1000C000D7C00000D5C00000D3C000000C943E197A
:1000D0000C94801ACDC000000C947E190C94BF1AA9
:1000E000C7C0000000002100240027002A002D00C6
:1000F0003000330001010000040107010A01000083
:100100002200250028002B002E00310034000201BF
:100110000000050108010B0100002000230026005B
:1001200029002C002F00320000010000030106010D
:10013000090105050505070508080808020202026D
:100140000A0A080804040404010101010101010173
:100150000303030303030303040707070C0C0C0C3E
:100160000C0C0C0C02020202060606060606060627
:100170000B0B0B0B0B0B0B0B0102102020080810B4
:100180002040102040800201020108040201010207
:1001900004081020408080402010080402018004E0
:1001A000020180402010080402010804020101023B
:1001B0000408102040800102040810204080000044
:1001C000090A02080B0C0D070603040100000000D9
:1001D000000000000000000000000000000000001F
:1001E0000000000000000000000011100F000000DF
:1001F00000000000000000000000000000000000FF
:10020000000000006205A60A080BAF0D020F0D0FDB
:10021000630F2E1C701D11241FBECFEFD1E2DEBF75
:10022000CDBF00E00CBF12E0A0E0B2E0EEEFF0E4E2
:1002300000E00BBF02C007900D92A635B107D9F7B9
:100240001BBE1BE0A6E5B2E001C01D92A639B107B6
:10025000E1F712E0C6E1D2E004C02297FE010E945D
:100260007920C430D107C9F70E94D51D0C947D2098
:10027000C7CE1F920F920FB60F9211242F933F9368
:100280004F935F938F939F938091DC029091DD0257
:1002900090938500809384002091D8023091D902F8
:1002A0002F5F3F4F3093D9022093D8024091DA025A
:1002B0005091DB024F5F5F4F5093DB024093DA02B5
:1002C0008091E0028F5F8093E0029091E1029F5F56
:1002D0009093E1028B3F18F08AEF8093E0029B3FFE
:1002E00018F08AEF8093E102285E334060F081E0ED
:1002F0008093DE021092D9021092D80280911304EA
:100300008F5F809313044436510538F081E0809369
:10031000DF021092DB021092DA02809113048D3317
:1003200018F08CE380931304809113048C3388F0CD
:1003300020914504213069F48091160490911704AE
:10034000019690931704809316041092130420933F
:1003500073049F918F915F914F913F912F910F90D7
:100360000FBE0F901F90189520E834E84EE150E042
:100370000E94362020E432E44FE050E00E945520F5
:10038000209530953093DD022093DC02F894109292
:10039000800082E080938100EFE6F0E08081816060
:1003A0008083309385002093840078940895EF92A1
:1003B000FF920F931F9380919702882381F0909171
:1003C000E00280911602891750F410929702109261
:1003D0009B0210929A0210929502109293028091C1
:1003E0009802882381F09091E1028091160289178A
:1003F00050F41092980210929D0210929C0210925A
:100400009602109294028091E002893C38F4809127
:100410009A0290919B02892B71F04FC010929B021F
:1004200010929A02109295021092930280911404F5
:100430008E7F809314048091960220919C023091CB
:100440009D02813049F488279927821B930B909352
:10045000A3028093A20204C03093A3022093A202BD
:10046000809194028130B9F46091A2027091A3024C
:10047000882777FD8095982F0E94471F23E333E359
:100480004BE451E40E94D31F0E94141F7093A302F7
:100490006093A20212C08091A2029091A3029C01DB
:1004A00043E0220F331F4A95E1F7880F991F280F69
:1004B000391F3093A3022093A2028091E102893C6C
:1004C00038F480919C0290919D02892B71F04FC06D
:1004D00010929D0210929C02109296021092940229
:1004E000809114048D7F8093140480919502209153
:1004F0009A0230919B02813049F488279927821B08
:10050000930B9093A3028093A20204C03093A302A2
:100510002093A202809193028130B9F46091A202EB
:100520007091A302882777FD8095982F0E94471F1E
:1005300023E333E34BE451E40E94D31F0E94141FD2
:100540007093A3026093A20212C08091A2029091C4
:10055000A3029C0113E0220F331F1A95E1F7880FC5
:10056000991F280F391F3093A3022093A202809174
:1005700014048370833009F0D1C020919A02309125
:100580009B022115310509F4C9C040919C0250918C
:100590009D024115510509F4C1C080919502813039
:1005A00049F488279927821B930B9093A502809387
:1005B000A40204C03093A5022093A4028091960265
:1005C000813049F488279927841B950B9093A702C3
:1005D0008093A60204C05093A7024093A602809184
:1005E0009302813009F04FC080919402813009F06C
:1005F0008FC06091A4027091A502882777FD809535
:10060000982F0E94471F23E333E34BE451E40E94F9
:10061000D31F55C06091A4027091A502882777FD71
:100620008095982F0E94471F23E333E34BE451E466
:100630000E94D31F7B018C012091A6023091A7025A
:10064000B901A3E0660F771FAA95E1F7220F331FC8
:10065000620F731F882777FD8095982F0E94471F90
:100660009B01AC01C801B7010E94B01E20E030E040
:1006700040E05FE30E94D31F0E94141F7093A30207
:100680006093A2024BC0882309F048C08091940275
:10069000813009F041C02091A4023091A502B90136
:1006A000E3E0660F771FEA95E1F7220F331F620F31
:1006B000731F882777FD8095982F0E94471F7B0125
:1006C0008C016091A6027091A702882777FD809522
:1006D000982F0E94471F23E333E34BE451E40E9429
:1006E000D31FBECF8091A6029091A7022091A402B1
:1006F0003091A502820F931F9C01220F331F220FFE
:10070000331F280F391F3093A3022093A20206C083
:10071000882309F47FCF02C0882321F31F910F9112
:10072000FF90EF9008958091790490917A04609100
:10073000A2027091A302FC01EE0FFF1FED57FB4FC9
:100740007183608340917B0450917C04DC0111969D
:10075000841B950B917090937E0480937D0420916F
:100760007F043091800482179307B8F0FA01EE0FEE
:10077000FF1FED57FB4F80819181681B790B7093B0
:100780001A02609319024F5F5F4F517050937C04BF
:1007900040937B0481E080937404B170B0937A0439
:1007A000A093790408951F93CF93DF93909145040C
:1007B000913009F074C110917604C12FD0E0FE0190
:1007C000EE0FFF1FEE0FFF1FE65EFB4F0190F08163
:1007D000E02DDE01AA0FBB1F309709F042C0AA0F1F
:1007E000BB1FA45EBB4F2D913C912115310509F42F
:1007F00025C180917504882341F41092170410924A
:10080000160410921304909375048091160490912D
:1008100017048217930708F442C11092170410922C
:10082000160410921304109275041F5F109376043F
:10083000109271041092720410927E0410927D0442
:1008400010927A041092790410927C0410927B0426
:10085000109274048FEF90E090931A028093190223
:100860001EC1AA0FBB1FA45EBB4F2D913C91211549
:10087000310509F4E3C080917104882351F4F093A9
:100880007804E09377043093800420937F0490935E
:10089000710420918102309182024091770450913D
:1008A0007804BA016F5070406217730720F080918E
:1008B0000B01886003C080910B01877F80930B013F
:1008C000475E5F4F2417350720F080910B0182604F
:1008D00003C080910B018D7F80930B012617370792
:1008E00008F4A8C04217530708F4A4C0809172040A
:1008F000882309F0DDC080918104909182048C529C
:10090000914018F1109217041092160410921304DB
:100910001092740481E080937304809372041092A7
:1009200082041092810410927E0410927D04109231
:100930007A041092790410927C0410927B048FEF59
:1009400090E090931A028093190280918104909113
:10095000820401969093820480938104A9C00B972E
:100960000CF068C0DE011196FD01EE0FFF1FEE0FC7
:10097000FF1FE65EFB4F80819181892B81F5AA0FD5
:10098000BB1FAA0FBB1FA45EBB4F8D919C91892BEF
:1009900031F510924504809114048F7B80931404E8
:1009A00010927104109217041092160410921304FE
:1009B000109272041092740410927E0410927D04BE
:1009C00010927A041092790410927C0410927B04A5
:1009D0008FEF90E090931A028093190221C0109239
:1009E0007104109272041F5F1093760410927E04BB
:1009F00010927D0410927A041092790410927C0473
:100A000010927B04109274048FEF90E090931A027E
:100A10008093190210921704109216041092130476
:100A200080910B01877F80930B0180910B018D7F5B
:100A300080930B01809176048B3088F110924504ED
:100A4000809114048F7B809314041092710410928F
:100A5000170410921604109213041092720410924C
:100A6000740410927E0410927D0410927A04109205
:100A7000790410927C0410927B048FEF90E09093A5
:100A80001A02809319021092760480910B01877FDD
:100A900080930B0180910B018D7F80930B018091DE
:100AA00076048F5F80931504DF91CF911F91089595
:100AB0008091190290911A022FEF863F92070CF055
:100AC0004ECFB8CF0F9383E898E060E040E020E09D
:100AD00000E00E94641D86E592E060EC48EA20E0B8
:100AE00000EB0E94641D8CE592E060EC48EA20E097
:100AF0000FEF0E94641D82E692E00E944A100F915F
:100B00000895CF93DF9380919902C82FD0E0809110
:100B100014020E947517CC0FDD1FCD57DD4F99834E
:100B20008883809185029091860220918302309182
:100B30008402820F931F2091870230918802820FD6
:100B4000931F2091890230918A02820F931F209176
:100B50008B0230918C02820F931F20918D02309175
:100B60008E02820F931F20918F0230919002820F8C
:100B7000931F2091910230919202820F931FB3E054
:100B800096958795BA95E1F720911804309119044C
:100B9000821B930B2091170230911802AC01429FE7
:100BA000C001439F900D529F900D1124909382029B
:100BB00080938102809199028F5F87708093990260
:100BC0001092DF02DF91CF9108951092E10280919F
:100BD0001404826080931404809198028431D0F4CC
:100BE000809110020E948E18892B81F521E030E05F
:100BF0000090980202C0220F331F0A94E2F78091FE
:100C00009E0290919F02822B932B90939F02809340
:100C10009E021CC0843159F4809110020E948E18EB
:100C200010929602892B19F481E0809396028091AC
:100C30009802873159F4809110020E948E18109208
:100C40009402892B19F481E0809394028091980298
:100C50008F5F80939802883170F080919E0290910E
:100C60009F0290939D0280939C0210929802109292
:100C70009F0210929E0208951092E0028091140447
:100C8000816080931404809197028431D0F4809124
:100C90000C020E948E18892B81F521E030E0009033
:100CA000970202C0220F331F0A94E2F78091A0023C
:100CB0009091A102822B932B9093A1028093A0028A
:100CC0001CC0843159F480910C020E948E1810923D
:100CD0009502892B19F481E0809395028091970207
:100CE000873159F480910C020E948E181092930261
:100CF000892B19F481E080939302809197028F5F92
:100D000080939702883170F08091A0029091A102A7
:100D100090939B0280939A02109297021092A102E4
:100D20001092A0020895DF93CF9300D000D0CDB7EA
:100D3000DEB780910303E82FF0E0EE0FFF1FEE51C6
:100D4000FD4F8081813009F01BC18181813069F4C0
:100D5000809308031092090310920A0380930B03F7
:100D600081E480930C0386E0ACC08230C1F481E85A
:100D7000809308031092090310920A0383E0809382
:100D80000B0380910F0480930C0380910D048093DA
:100D90000D0380910E0480930E0388E092C083308F
:100DA00009F04FC085E88093080310920903109260
:100DB0000A0380E180930B038091930280930C03DC
:100DC0008091950280930D0380919A0290919B02ED
:100DD00080930E0390930F038091940280931003ED
:100DE000809196028093110380919C0290919D02C4
:100DF00080931203909313038091A2029091A30217
:100E000080931403892F990F990B80931503809178
:100E10008102909182028093160390931703809130
:100E200016049091170480931803909319038091EE
:100E3000150480931A038091140480931B0385E1A9
:100E400040C0843009F03FC083E8809308031092CB
:100E5000090310920A0380914204482F50E0440F86
:100E6000551F440F551F40930B038AE194E0909364
:100E7000470480934604109212041092110411C08A
:100E8000E0914604F0914704819116968C93F0937B
:100E90004704E09346042F5F3F4F309312042093A2
:100EA00011042091110430911204D901AA5FBC4FA2
:100EB000241735072CF38091140416968C93822FF7
:100EC0008A5F8093050384E592E09A838983809109
:100ED0005E0290915F02A0916002B09161028B83EB
:100EE0009C83AD83BE83409106025091070282E647
:100EF00092E0BE016F5F7F4F0E9443101092120478
:100F000010921104109204031BC0A230B1054CF0E2
:100F1000FD01EA5FFC4F809104039081890F80936B
:100F20000403AA5FBC4F82E692E06C91A2D7809145
:100F3000110490911204019690931204809311046D
:100F4000A0911104B09112048091050390E08A17DA
:100F50009B07DCF682E692E0609104038AD782E682
:100F600092E00E94401080910303E82FF0E0EE0F22
:100F7000FF1FEE51FD4F10828F5F8F708093030330
:100F800026960FB6F894DEBF0FBECDBFCF91DF918E
:100F90000895DF93CF9300D000D0CDB7DEB7809116
:100FA0000C0261E00E945C1880910E0261E00E94D8
:100FB0005C1880910C0260E00E94A91780910E02DB
:100FC00060E00E94A9178091100261E00E945C1805
:100FD0008091120261E00E945C188091100260E032
:100FE0000E94A9178091120260E00E94A91785E073
:100FF0006CE376E042E050E00E94601484E065EE2D
:1010000075E042E050E00E94601468EE73E080E01A
:1010100090E0AAD98091080261E00E94A91780910E
:101020000A0260E00E94A9178EE261E00E94A917FF
:1010300080E361E00E94A91785E361E00E94A9179F
:1010400084E592E09A8389838091580290915902B5
:10105000A0915A02B0915B028B839C83AD83BE83C7
:101060008DE998E060E072E0AE014F5F5F4F93D68C
:10107000609106027091070282E692E00E94DF1002
:1010800088E09BE040E855E260E070E00E94FE1AD4
:1010900064EF71E080E090E00E94BA1683E98093EB
:1010A00006038AE68093070310920803109209034F
:1010B00010920A0326960FB6F894DEBF0FBECDBF7E
:1010C000CF91DF910895CF93DF9382E692E06CD7C2
:1010D000EC01009709F4E4C182E692E068EA72E06C
:1010E00040E350E015D710921204109211041092B0
:1010F0000A04109206041092090432E041E06AE109
:1011000074E054E0BAC1E855FD4F90819093080413
:10111000209106042230A1F480910904813009F065
:10112000B5C19093070410920A041092430408C0BA
:1011300090930D0405C090930E0402C09093100488
:101140009A3621F4213011F430930604809106047C
:10115000813011F410920604933931F48091060421
:10116000882311F44093060420910704213009F0EC
:1011700092C080910904882309F4FDC0813009F4EC
:1011800094C0853019F490934404F5C0863009F07A
:10119000F2C080910A04891709F0EDC080914404DF
:1011A0008234D9F4109206041092090410920C04AF
:1011B00080910203E82FF0E0EE0FFF1FEE51FD4F8C
:1011C000208331838F5F8F70E82FF0E0EE0FFF1FD9
:1011D000EE51FD4F2083518359C08334F1F41092B6
:1011E00006041092090410920C0480910203E82F67
:1011F000F0E0EE0FFF1FEE51FD4F208331838F5F34
:101200008F70809302032093450410921304809101
:101210001404806480931404AEC0843411F51092D9
:1012200006041092090410920C0480910203E82F26
:10123000F0E0EE0FFF1FEE51FD4F208331838F5FF3
:101240008F708093020310924504809114048F7B69
:1012500080931404109276041092170410921604CE
:101260008AC0853409F087C01092060410920904E0
:1012700010920C0410920B0480910203E82FF0E00E
:10128000EE0FFF1FEE51FD4F408331838F5F8F7054
:101290008093020370C0223009F06DC08091090470
:1012A000882309F468C0813019F480930C0463C06A
:1012B000853008F460C020914304E22FF0E0E85B41
:1012C000FB4F908380910A04891709F04FC08091E9
:1012D0001004281709F04AC070934704609346042D
:1012E00010921204109211041AC0E0914604F09179
:1012F0004704A85BBB4F8C918083809146049091FA
:10130000470401969093470480934604809111040A
:101310009091120401969093120480931104A0916D
:101320001104B09112048091100490E0A817B9073D
:10133000E4F28091430490E0959587959595879583
:1013400080934204109206041092090410920C0437
:1013500080910203E82FF0E0EE0FFF1FEE51FD4FEA
:10136000408331838F5F8F708093020380914304A9
:101370008F5F8093430480910704823809F052C044
:1013800080910904882309F44DC0813019F48093B9
:101390000C0448C0853029F48091080480937D02B4
:1013A00041C0863029F48091080480937E023AC0BF
:1013B000873029F48091080480937F0233C08830FD
:1013C00099F4909108049093800280917D0280931B
:1013D0005E0280917E0280935F0280917F02809303
:1013E0006002909361021EC08930E1F490910A047A
:1013F000809108049817B1F440930B0410920604EE
:101400001092090410920C0480910203E82FF0E07E
:10141000EE0FFF1FEE51FD4F408331838F5F8F70C2
:101420008093020320910904222339F080910A0459
:1014300090910804890F80930A04809106048230F9
:1014400051F4213041F480910C04882321F410924E
:1014500006041092090480910604823028F08091DD
:1014600009048F5F80930904809111049091120404
:1014700001969093120480931104E0911104F0916D
:101480001204EC17FD070CF43ECE0AC0823009F4BA
:101490004FCE833009F44FCE843009F051CE4ECE7A
:1014A000DF91CF9108950E94D7017DD90CDE3BDCFE
:1014B0008091DF02813019F41092DF0222DB8091EB
:1014C000DE02882329F185B1805885B91092DE02A9
:1014D00090910B04992359F480910203E82FF0E0D6
:1014E000EE0FFF1FEE51FD4F91E090830CC0913045
:1014F00079F480910203E82FF0E0EE0FFF1FEE5128
:10150000FD4F908393E091838F5F8F7080930203F0
:1015100080917304882319F01092730404C908950C
:1015200085E361E00E945C1885E361E00E94A917F1
:101530008CB580618CBD8CB580648CBD84E361E02A
:101540000E94A91783E361E00C94A9170F9389E81F
:1015500098E060E040E020E000E00E94641D0F9110
:1015600008959C01FB0182819381A481B581F901D9
:1015700082839383A483B583178216820895CF93C1
:10158000DF93FB0101C0319680818823E1F7EB01F5
:10159000A0E0B0E020E030E021C06E3261F42F3FE7
:1015A000310509F07CF5FA01EA0FFB1F2283119641
:1015B00020E030E012C0C901E3E0880F991FEA95EE
:1015C000E1F7220F331F820F931F262F332727FDAA
:1015D000309520533040280F391F219668816623AB
:1015E00019F0A430B105CCF22F3F310509F054F4C5
:1015F000A430B1053CF4A40FB51F12962C9321E042
:1016000030E002C020E030E0C901DF91CF910895C1
:101610000F938FE898E060E040E020E000E00E9457
:10162000641D0F9108952F923F924F925F926F9297
:101630007F928F929F92AF92BF92CF92DF92EF9262
:10164000FF920F931F93DF93CF93CDB7DEB76997C8
:101650000FB6F894DEBF0FBECDBF4C018B011A014F
:101660000E94AC162B013C01F8E0EF2EF12CE80CA7
:10167000F91C5801CC24DD2414C00E94AC16641956
:10168000750986099709A616B706C806D90618F47B
:101690002FEF3FEFF8C062E370E080E090E00E943F
:1016A000BA16C70181D4181619063CF7F401228135
:1016B000338144815581818D928DA38DB48D8A872C
:1016C0009B87AC87BD87281739074A075B0709F056
:1016D000D8C0858D968DC59709F0D3C0EEC08E0118
:1016E000025F1F4FC701B8014CE050E011D4F80170
:1016F000528143815B834A83F401268137818E8541
:101700009F852817390711F457FD05C0C701C9D3B4
:101710002CEF3FEFB8C04F705270452B29F0C70136
:10172000C0D32BEF3FEFAFC0F80176806780611424
:10173000710441F0AA24BB2448012E010894411CE5
:10174000511C24C0C701ADD32AEF3FEF9CC0C70195
:10175000B20141E050E0DCD38981882319F407C04D
:10176000C701F8D38981815089838F5FC9F7898147
:10177000882369F700E010E0C701ECD30F5F1F4F2B
:1017800004301105C9F70894A11CB11CF401D480E0
:10179000C580AC14BD04D8F244245524C701BE0151
:1017A0006F5F7F4F41E050E0B3D39981892F807CF8
:1017B00059F4992319F40BC0C701CCD38981815006
:1017C00089838F5FC9F703C0C701C4D31982898198
:1017D000882321F7C701BE016C5F7F4F42E050E0D4
:1017E00097D3C701BE016A5F7F4F42E050E090D3BC
:1017F00000E010E0C701AED30F5F1F4F04301105AA
:10180000C9F7C701BE016E5F7F4F42E050E080D351
:10181000DC80CD80F1E0CF16D10401F5BE80AF8031
:1018200081E0A816B104D1F49A818B81049729F044
:10183000C70137D327EF3FEF26C0E2E0F0E02E0EDE
:101840003F1EC701B10144E050E062D321E030E027
:101850001AC0C7017FD30F5F1F4F02C000E010E026
:101860009A808B8008151905A0F30894411C511C1F
:101870004614570408F492CFC70113D326EF3FEF65
:1018800002C02EEF3FEFC90169960FB6F894DEBF94
:101890000FBECDBFCF91DF911F910F91FF90EF90C1
:1018A000DF90CF90BF90AF909F908F907F906F9080
:1018B0005F904F903F902F90089584E592E0998734
:1018C0008887C701D2D20C970CF009CF2DEF3FEFDC
:1018D000DACF6F927F928F929F92AF92BF92CF9208
:1018E000DF92EF92FF920F931F93DF93CF9300D07D
:1018F000CDB7DEB78C01F62EE72E0E94AC16F801AC
:1019000077836683B8E0CB2ED12CC00ED11E0A5F40
:101910001F4FC601B80142E050E098D381E090E04B
:101920009B838A83A2E08A2E912C8C0E9D1EC60179
:10193000B40142E050E08AD380E091E09B838A8347
:10194000C601B40142E050E081D31B821A82C60175
:10195000B40142E050E07AD3C601B40142E050E065
:1019600075D3C601B40142E050E070D32F2D3E2D57
:10197000C9018C017C013E010894611C711C1EC0D0
:101980000894E11CF11CF7018081882311F08E324C
:10199000B9F75701A01AB10A1A141B0464F48E2D6A
:1019A000801B8983C601B30141E050E04FD3C601DB
:1019B000B801A5014BD387010F5F1F4FF70180814D
:1019C000882311F07801DFCF1982C601BE016F5F55
:1019D0007F4F41E050E03AD300E011E01B830A83DF
:1019E000C601B40142E050E031D31B830A83C60133
:1019F000B40142E050E02AD381E090E00F900F90D4
:101A00000F90CF91DF911F910F91FF90EF90DF909A
:101A1000CF90BF90AF909F908F907F906F900895E0
:101A20008F929F92AF92BF92CF92DF92EF92FF92EE
:101A30000F931F93DF93CF9300D000D0CDB7DEB7C5
:101A40006C017B014A019BDD892B19F001E010E05C
:101A500061C0F601228133814481558180919108D2
:101A600090919208A0919308B09194082817390793
:101A70004A075B0719F40EEF1FEF4CC018E0A12EC8
:101A8000B12CAC0CBD1C0E94AC169B01AC012F709C
:101A9000307020503C4FC501B90191D3813019F00D
:101AA00000E010E037C084E592E09A838983F60174
:101AB00082819381A481B5818B839C83AD83BE8316
:101AC000C501BE016F5F7F4F45E350E0DCD28C0162
:101AD0000097F1F0C601B701FCDE8C010097C1F060
:101AE000C501CED28C01009799F0EE24FF24C601E7
:101AF00068E873E1A40197DD8C010894E11CF11CF6
:101B0000F3E0EF16F10421F08FEF0F3F180779F3A0
:101B1000C50141D3C80126960FB6F894DEBF0FBEAB
:101B2000CDBFCF91DF911F910F91FF90EF90DF908C
:101B3000CF90BF90AF909F908F900895DB01FC01F4
:101B400024E532E03183208312962D913D914D9111
:101B50005C911597228333834483558308950F93B3
:101B600085EA98E060E040E020E000E00E94641D2B
:101B70008DE998E00E94CB1D0F9108956F927F929E
:101B80008F929F92AF92BF92CF92DF92EF92FF928D
:101B90000F931F933C015B016A0149018FEB98E0B1
:101BA00061D689E090E0B50146E050E095D482E04E
:101BB00090E0C80ED91E8FE090E0B60144E050E0FE
:101BC0008BD40E5F1F4F81E090E0B80144E050E0FD
:101BD00083D4E2E0F0E0EE0EFF1E85E090E0B70176
:101BE00044E050E079D4F40182819381A481B581ED
:101BF000F30182839383A483B5831F910F91FF9098
:101C0000EF90DF90CF90BF90AF909F908F907F909C
:101C10006F9008956F927F928F929F92AF92BF9232
:101C2000CF92DF92EF92FF920F931F93DF93CF93A8
:101C3000CDB7DEB76E970FB6F894DEBF0FBECDBF3F
:101C40004C013B017A0169015801CE0101966FEF09
:101C50004FEF2FEF00E00E94641D24E532E038874B
:101C60002F83F70182819381A481B58189879A8727
:101C7000AB87BC873E872D87F60182819381A48143
:101C8000B5818F87988BA98BBA8B3C8B2B8BF501F9
:101C900082819381A481B5818D8B9E8BAF8BB88F10
:101CA0003A8F298F8B819C81AD81BE818B8F9C8FD8
:101CB000AD8FBE8FC401B301AE01495F5F4F9E017E
:101CC000235F3F4F8E010D5E1F4FE9E1EE2EF12C99
:101CD000EC0EFD1E53DF6E960FB6F894DEBF0FBEFE
:101CE000CDBFCF91DF911F910F91FF90EF90DF90CB
:101CF000CF90BF90AF909F908F907F906F900895FE
:101D00000F931F93DF93CF93CDB7DEB768970FB6CE
:101D1000F894DEBF0FBECDBFFA01D9012281338115
:101D2000448155812B833C834D835E83E4E5F2E05F
:101D3000F887EF8329873A874B875C87FE87ED8793
:101D400012962D913D914D915C9115972F87388B6F
:101D5000498B5A8BFC8BEB8B21E02E832B813C81B2
:101D60004D815E812D8B3E8B4F8B588FAE01495F2D
:101D70005F4F9E01235F3F4F8E010D5E1F4F4ADF75
:101D800068960FB6F894DEBF0FBECDBFCF91DF913E
:101D90001F910F910895DF93CF93CDB7DEB7629770
:101DA0000FB6F894DEBF0FBECDBFFA01228133819A
:101DB000448155812B833C834D835E83E4E5F2E0CF
:101DC000F887EF8329873A874B875C87FE87ED8703
:101DD00021E02E832B813C814D815E812F87388BC2
:101DE000498B5A8BAE01495F5F4F9E01235F3F4F86
:101DF00087DF62960FB6F894DEBF0FBECDBFCF91DE
:101E0000DF9108950F938BEA98E060E040E020E0D6
:101E100000E00E94641D0F9108950F9381EB98E0FC
:101E200060E040E020E000E00E94641D0F91089512
:101E3000DC01ED91FC91008CF18DE02D1995089558
:101E4000DB01FC0124E532E03183208351962D91A2
:101E50003D914D915C915497228333834483558304
:101E60000895FC01858996890895FC01818D928DE4
:101E70000895DF93CF930F92CDB7DEB7FC0169834E
:101E8000A081B18112962D913C911397BE016F5F95
:101E90007F4F41E050E0F90119950F90CF91DF910C
:101EA0000895CF93DF93EC0107C0E881F9810680A4
:101EB000F781E02DCE011995898D9A8D892BA9F78F
:101EC000DF91CF9108950F9387EB98E060E040E0B9
:101ED00020E000E00E94641D0F910895DF93CF93EE
:101EE0000F92CDB7DEB7FC01818D928D892B19F44D
:101EF0002FEF3FEF08C08485BE016F5F7F4F87D211
:101F00008981282F30E0C9010F90CF91DF9108958A
:101F1000CF93DF93EC019A01498D5A8D41155105FC
:101F200099F02417350710F08C8502C08C85A90123
:101F30007CD29C01181619063CF4898D9A8D821B5F
:101F4000930B9A8F898F02C02FEF3FEFC901DF916A
:101F5000CF9108950F931F93DF93CF930F92CDB737
:101F6000DEB78C01FC01818D928D892BA1F08485D7
:101F7000BE016F5F7F4F41E050E057D2181619063F
:101F800054F4F801818D928D0197928F818F898110
:101F9000282F30E002C02FEF3FEFC9010F90CF9103
:101FA000DF911F910F910895EF92FF920F931F936E
:101FB000DF93CF93CDB7DEB728970FB6F894DEBF87
:101FC0000FBECDBF8C01DC01ED91FC910284F38545
:101FD000E02D19958FEB98E0F801648544D3892BA7
:101FE00019F420E030E024C0D8011C968C917E01C9
:101FF0000894E11CF11CB70148E050E016D29C01A6
:1020000018161906ACF4C8010F96B7010E94BE1D40
:102010009D8180E02E81820F911DF801968B858B2A
:102020009F8180E02885820F911D928F818F9C0176
:10203000C90128960FB6F894DEBF0FBECDBFCF9171
:10204000DF911F910F91FF90EF9008950F931F93D1
:102050008C01FB019A01DC0157966D917C91589798
:102060001C968C91AF01A6D19C01F8018789908DB7
:10207000820F931F908F878BC9011F910F91089535
:10208000FC018485E1C0FC01108E178A6E5F7F4FD2
:10209000848567C1FC011382128288EE93E0A0E080
:1020A000B0E084839583A683B78380E292E0918336
:1020B000808384E08487CF010F960C94CB1D6F92B0
:1020C0007F928F929F92AF92BF92CF92DF92EF92C8
:1020D000FF920F931F93DF93CF93CDB7DEB7E597B2
:1020E0000FB6F894DEBF0FBECDBF4C015B013A01C5
:1020F00083E1E82EF12CEC0EFD1EC7010E94CB1DE2
:10210000CE014B96C7DF6E010894C11CD11CC601DD
:102110000E94CB1D8E01095F1F4FC8016DE978E059
:102120000DDDC701B8011DDAC701B501A60178DCD4
:102130009C0181309105C9F4D401ED91FC91008896
:10214000F189E02D84E592E09E878D878B819C81CB
:10215000AD81BE818F87988BA98BBA8BC401BE01DC
:10216000635F7F4FA30119959C01C901E5960FB6E6
:10217000F894DEBF0FBECDBFCF91DF911F910F91BD
:10218000FF90EF90DF90CF90BF90AF909F908F9097
:102190007F906F900895CF93DF93EC018C8584300E
:1021A00059F071D0EC85F0E0EE0FFF1FEB56F74FC2
:1021B0001182108284E08C87DF91CF910895CF92B5
:1021C000DF92EF92FF920F931F93CF93DF937C01E7
:1021D0006B01FC018485843009F5C0E0D0E003E0A8
:1021E00014E0C801A0D1882311F0883119F4F70157
:1021F000C48706C0219600501F4FC430D10589F70F
:10220000F7018485843051F0D686C586128E118EF2
:1022100062E0A60120E070D081E001C080E0DF91A3
:10222000CF911F910F91FF90EF90DF90CF90089585
:1022300090E0982F88278E5F9B4F75C190E0982F74
:1022400088278E5F9B4F2EC11F93182F8FEB98E02E
:10225000612F40E250E0F6D20AC0812FE9DF83FF10
:1022600006C0812F68E1EADF20E030E009C0812F5D
:10227000DFDF84FFF2CF812F60E1E0DF21E030E09B
:10228000C9011F9108951F93182F8FEB98E0612FBC
:1022900040E150E0D7D2812F6FEFD0DF1F9108953A
:1022A000FF920F931F93F62E672F082F10E00C5FFD
:1022B0001F4F102F0027C8014096F4D0C801419647
:1022C0006F2DF0D01F910F91FF900895FF920F9303
:1022D0001F93F62E672F082F10E00C5F1F4F102F53
:1022E0000027C8010496DED0C80105966F2DDAD00C
:1022F0001F910F91FF900895FF920F931F93CF931B
:10230000DF93082FF62EEA01122F862F8150853099
:1023100010F080E020C0802FB6DF1F2980E0902FD2
:102320009C5F612FBFD0209719F0802FBE010BC09A
:102330006091BD087091BE086F5F7F4F7093BE08BB
:102340006093BD08802FC2DF8FEB98E0602F41E0E3
:1023500050E078D281E0DF91CF911F910F91FF90F3
:1023600008951F93CF93DF93182FFB01EA0180811B
:10237000882349F48181882331F48281882319F4E8
:102380008381882381F0209771F0912F80E0845F12
:102390009B4FBF0144E050E09FD0812FBE0180DF02
:1023A00021E030E002C020E030E0C901DF91CF91B0
:1023B0001F910895AF92BF92DF92EF92FF920F9319
:1023C0001F93CF93DF93D82EEB015A0189018FEB36
:1023D00098E06D2D77D18017910710F0780105C036
:1023E0008FEB98E06D2D6ED17C018FEB98E06D2D19
:1023F000AE0195018701B7D0C701DF91CF911F9141
:102400000F91FF90EF90DF90BF90AF9008950F93E2
:10241000282FAB018FEB98E0622F21E030E001E044
:10242000CBD181E090E00F910895CF92DF92FF929F
:102430000F931F93CF93DF93F82E6B018A018FEBDD
:1024400098E06F2D10D1EC01009761F49F2D80E092
:102450008D5F9B4F68D08431C9F08823B9F08C31EF
:10246000A9F01DC0081719070CF4E8011C161D0679
:102470006CF48FEB98E06F2DA6019E0100E09CD1DB
:102480008FEB98E06F2D40E450E0DCD1CE01DF917E
:10249000CF911F910F91FF90DF90CF900895CFEFD4
:1024A000DFEFF4CF282F2C9880EF8EBD0DB407FE00
:1024B000FDCF8EB59EBD0DB407FEFDCF8EB52EBDF2
:1024C0000DB407FEFDCF8EB56EBD0DB407FEFDCF7A
:1024D0008EB52C9A81E00895DC0120E030E090EF89
:1024E0001DC02C989EBD0DB407FEFDCF8EB5BEBDA0
:1024F0000DB407FEFDCF8EB5AEBD0DB407FEFDCF0A
:102500008EB5FB01E20FF31F80818EBD0DB407FE77
:10251000FDCF11968EB52C9A2F5F3F4F24173507AC
:1025200000F3CA010895282F2C988FE08EBD0DB4BA
:1025300007FEFDCF8EB59EBD0DB407FEFDCF8EB557
:102540002EBD0DB407FEFDCF8EB51EBC0DB407FE2B
:10255000FDCF8EB52C9A089590E00496982F882789
:10256000860F971FE0CF7F928F929F92AF92BF927C
:10257000CF92DF92EF92FF920F931F93CF93DF934F
:102580006C01762E7A0149015801862F64E270E0D1
:10259000E3DF182F872D65E270E0DEDFC82FD0E083
:1025A000912F80E0C82BD92BCE0DDF1DAE015770C7
:1025B000872D90E0880F991FC80ED91EF601208143
:1025C0003181240F351FCA018A0D9B1D815098400F
:1025D00090F000E018E0041B150BC901B401A8013C
:1025E0007BDFA501401B510BF60180819181080D15
:1025F000191DB80103C0C901B401A5016DDF7E0139
:10260000EA0CFB1C072D10E00C5F1F4F102F00275A
:10261000C80184966F2D46DFC80185966E2D42DF76
:10262000DF91CF911F910F91FF90EF90DF90CF90AE
:10263000BF90AF909F908F907F9008950F931F93BE
:10264000182F66E270E088DF082F812F67E270E0C4
:1026500083DF502F40E0282F30E0242B352BC90199
:102660001F910F910895FF920F931F93CF93DF93C4
:10267000F62EC0E0D0E08F2DE1DF8C01009719F03D
:102680008F2DDCDFEC01C017D107A9F7CE01DF9158
:10269000CF911F910F91FF9008950F931F93182FC3
:1026A00060E270E059DF082F812F61E270E054DFB3
:1026B000502F40E0282F30E0242B352BC9011F91EB
:1026C0000F910895FF920F931F93CF93DF93F62EF0
:1026D000C0E0D0E08F2DE1DF8C01009719F08F2D45
:1026E000DCDFEC01C017D107A9F7CE01DF91CF9154
:1026F0001F910F91FF900895DC0120E030E09FE0F2
:102700001DC02C989EBD0DB407FEFDCF8EB5BEBD7D
:102710000DB407FEFDCF8EB5AEBD0DB407FEFDCFE7
:102720008EB51EBC0DB407FEFDCF11968EB5FB0114
:10273000E20FF31F80832C9A2F5F3F4F241735073A
:1027400000F3CA010895CF92DF92EF92FF920F93A8
:102750001F93CF93DF93690178015770C62FD0E0A4
:102760002496CC0FDD1FC80FD91F28813981240F73
:10277000351FC801840F951F8150984080F000E0FC
:1027800018E0041B150BC901B601A801B5DFE01A5A
:10279000F10A888199810C0D1D1DB80102C0C90183
:1027A000B601A701A9DFDF91CF911F910F91FF9093
:1027B000EF90DF90CF9008958F929F92AF92BF924B
:1027C000CF92DF92EF92FF920F931F93CF93DF93FD
:1027D0007C01A62E6A014901B02E862F68E270E0C6
:1027E000BBDE182F8A2D69E270E0B6DEC82FD0E07C
:1027F000912F80E0C82BD92BC7016A2DAE0196011D
:102800008401A1DFBB2089F47E01E80CF91C0A2DAC
:1028100010E00C5F1F4F102F0027C80188966F2D06
:1028200041DEC80189966E2D3DDEDF91CF911F916B
:102830000F91FF90EF90DF90CF90BF90AF909F905F
:102840008F9008951F93162F962F80E08F5F9B4FD8
:10285000642F28DE812F61E070E07EDE8823D1F7CF
:102860001F9108950F931F93182F092F6CE271E0A9
:1028700080E090E07FD20E94900A249A80E090E06D
:1028800060E810DE8BE190E065E50CDE8AE190E027
:1028900065E508DE212F302FC901FC0180E090E4BE
:1028A000918380838050904E91878087805098419B
:1028B000329620E68030920799F71F910F91089584
:1028C000883008F078C0E82FF0E0EE0FFF1FE153EA
:1028D000F74F718360838330D9F0843030F48130D6
:1028E00009F444C0823060F439C0853051F185303C
:1028F000D8F0863009F446C0873009F05CC04FC07C
:10290000809169008C7F842B80936900E89A0895F8
:1029100080916900440F551F440F551F837F842BFE
:1029200080936900E99A08958091690074E0440FEA
:10293000551F7A95E1F78F7C842B80936900EA9A82
:1029400008958091690066E0440F551F6A95E1F78C
:102950008F73842B80936900EB9A089580916A00AD
:102960008C7F842B80936A00EC9A089580916A0092
:10297000440F551F440F551F837F842B80936A009B
:10298000ED9A089580916A0024E0440F551F2A951E
:10299000E1F78F7C842B80936A00EE9A08958091F2
:1029A0006A0096E0440F551F9A95E1F78F73842BC8
:1029B00080936A00EF9A08951F920F920FB60F92BC
:1029C0000BB60F9211242F933F934F935F936F9306
:1029D0007F938F939F93AF93BF93EF93FF938091D8
:1029E000D3089091D408892B29F0E091D308F09175
:1029F000D4081995FF91EF91BF91AF919F918F915D
:102A00007F916F915F914F913F912F910F900BBEEE
:102A10000F900FBE0F901F9018951F920F920FB638
:102A20000F920BB60F9211242F933F934F935F9306
:102A30006F937F938F939F93AF93BF93EF93FF9386
:102A40008091D5089091D608892B29F0E091D5087E
:102A5000F091D6081995FF91EF91BF91AF919F9199
:102A60008F917F916F915F914F913F912F910F9037
:102A70000BBE0F900FBE0F901F9018951F920F92D4
:102A80000FB60F920BB60F9211242F933F934F93D3
:102A90005F936F937F938F939F93AF93BF93EF93C6
:102AA000FF938091D7089091D808892B29F0E09165
:102AB000D708F091D8081995FF91EF91BF91AF9188
:102AC0009F918F917F916F915F914F913F912F9146
:102AD0000F900BBE0F900FBE0F901F9018951F9276
:102AE0000F920FB60F920BB60F9211242F933F93B4
:102AF0004F935F936F937F938F939F93AF93BF9306
:102B0000EF93FF938091D9089091DA08892B29F0EF
:102B1000E091D908F091DA081995FF91EF91BF91F2
:102B2000AF919F918F917F916F915F914F913F9165
:102B30002F910F900BBE0F900FBE0F901F90189506
:102B40001F920F920FB60F920BB60F9211242F9374
:102B50003F934F935F936F937F938F939F93AF9325
:102B6000BF93EF93FF938091CF089091D008892B6A
:102B700029F0E091CF08F091D0081995FF91EF91DD
:102B8000BF91AF919F918F917F916F915F914F9185
:102B90003F912F910F900BBE0F900FBE0F901F9083
:102BA00018951F920F920FB60F920BB60F92112429
:102BB0002F933F934F935F936F937F938F939F9345
:102BC000AF93BF93EF93FF938091D1089091D20878
:102BD000892B29F0E091D108F091D2081995FF9145
:102BE000EF91BF91AF919F918F917F916F915F9185
:102BF0004F913F912F910F900BBE0F900FBE0F90F2
:102C00001F9018951F920F920FB60F920BB60F924E
:102C100011242F933F934F935F936F937F938F93E1
:102C20009F93AF93BF93EF93FF938091DB089091B5
:102C3000DC08892B29F0E091DB08F091DC0819957C
:102C4000FF91EF91BF91AF919F918F917F916F9184
:102C50005F914F913F912F910F900BBE0F900FBE40
:102C60000F901F9018951F920F920FB60F920BB6F0
:102C70000F9211242F933F934F935F936F937F9302
:102C80008F939F93AF93BF93EF93FF938091DD0852
:102C90009091DE08892B29F0E091DD08F091DE08A3
:102CA0001995FF91EF91BF91AF919F918F917F9176
:102CB0006F915F914F913F912F910F900BBE0F90AD
:102CC0000FBE0F901F9018951F920F920FB60F9284
:102CD00011242F933F938F939F93AF93BF93809132
:102CE000E3089091E408A091E508B091E6083091DE
:102CF000E7080196A11DB11D232F2D5F2D3720F070
:102D00002D570196A11DB11D2093E7088093E3087C
:102D10009093E408A093E508B093E6088091DF085B
:102D20009091E008A091E108B091E2080196A11D00
:102D3000B11D8093DF089093E008A093E108B09361
:102D4000E208BF91AF919F918F913F912F910F908A
:102D50000FBE0F901F9018958FB7F8942091E3083D
:102D60003091E4084091E5085091E6088FBFB90121
:102D7000CA0108959B01AC017FB7F8948091DF08E8
:102D80009091E008A091E108B091E20866B5A89B97
:102D900005C06F3F19F00196A11DB11D7FBFBA2F6D
:102DA000A92F982F8827860F911DA11DB11D62E0C4
:102DB000880F991FAA1FBB1F6A95D1F7BC012DC0B0
:102DC000FFB7F8948091DF089091E008A091E108A6
:102DD000B091E208E6B5A89B05C0EF3F19F0019657
:102DE000A11DB11DFFBFBA2FA92F982F88278E0FC5
:102DF000911DA11DB11DE2E0880F991FAA1FBB1FE5
:102E0000EA95D1F7861B970B885E9340C8F2215054
:102E100030404040504068517C4F211531054105FC
:102E2000510571F60895789484B5826084BD84B5A7
:102E3000816084BD85B5826085BD85B5816085BDB5
:102E4000EEE6F0E0808181608083E1E8F0E01082CE
:102E5000808182608083808181608083E0E8F0E00F
:102E6000808181608083E1EBF0E0808184608083F9
:102E7000E0EBF0E0808181608083E1E9F0E0808137
:102E800082608083808181608083E0E9F0E08081DE
:102E900081608083E1EAF0E08081826080838081CC
:102EA00081608083E0EAF0E0808181608083E1E2FC
:102EB000F1E0808182608083808181608083E0E2B4
:102EC000F1E0808181608083EAE7F0E080818460C6
:102ED0008083808182608083808181608083808123
:102EE000806880831092C1000895382F863308F0DF
:102EF000365320917B00832F86958695869590E0AA
:102F00008170907043E0880F991F4A95E1F7277F01
:102F1000282B20937B00377080911B028295880FAD
:102F2000880F807C832B80937C0080917A00806462
:102F300080937A0080917A0086FDFCCF2091780002
:102F400040917900942F80E030E0282B392BC90183
:102F50000895CF93DF93482F50E0CA0188589E4FC1
:102F6000FC0134914E5C5E4FFA018491882369F133
:102F700090E0880F991FFC01EC51FF4FA591B4918F
:102F8000FC01E250FF4FC591D491662351F42FB755
:102F9000F8948C91932F909589238C938881892321
:102FA0000BC0623061F42FB7F8948C91932F9095F9
:102FB00089238C938881832B88832FBF06C09FB77A
:102FC000F8948C91832B8C939FBFDF91CF910895C0
:102FD000893009F449C08A30A0F4843051F1853039
:102FE00040F4823079F1833000F5813009F063C01C
:102FF00026C0873079F1883098F5863009F05BC0BB
:1030000025C08D3009F442C08E3028F48B30B1F1E8
:103010008C30C0F52DC0803109F442C0813109F4F3
:1030200045C08F3009F047C037C0809180008F774E
:1030300003C0809180008F7D80938000089584B5C7
:103040008F7702C084B58F7D84BD08958091B000D4
:103050008F7703C08091B0008F7D8093B00008957A
:10306000809190008F7707C0809190008F7D03C082
:1030700080919000877F8093900008958091A000B8
:103080008F7707C08091A0008F7D03C08091A00042
:10309000877F8093A0000895809120018F7703C0DF
:1030A000809120018F7D80932001089580912001DF
:1030B000877F809320010895FF920F931F93F62E30
:1030C000482F50E0CA0182549E4FFC012491CA014E
:1030D00088589E4FFC0114914E5C5E4FFA0104919A
:1030E0000023C1F0222311F0822F72DFE02FF0E0E5
:1030F000EE0FFF1FE250FF4FA591B4919FB7F894D8
:10310000FF2021F48C911095812302C08C91812B9A
:103110008C939FBF1F910F91FF9008950F931F9362
:10312000482F50E0CA0182549E4FFC012491CA01ED
:1031300088589E4FFC0104914E5C5E4FFA01149139
:10314000112319F420E030E014C0222311F0822F63
:103150003FDF812F90E0880F991F885E9E4FFC0112
:10316000A591B4918C9120E030E0802311F021E012
:1031700030E0C9011F910F91089508951F920F9299
:103180000FB60F920BB60F9211242F933F934F93CC
:103190008F939F93EF93FF938091C00082FD1DC09A
:1031A0004091C60020912809309129092F5F3F4F97
:1031B0002F73307080912A0990912B0928173907B5
:1031C00071F0E0912809F0912909E851F74F408307
:1031D000309329092093280902C08091C600FF91ED
:1031E000EF919F918F914F913F912F910F900BBE37
:1031F0000F900FBE0F901F90189508951F920F9279
:103200000FB60F920BB60F9211242F933F934F934B
:103210008F939F93EF93FF938091C80082FD1DC011
:103220004091CE002091B0093091B1092F5F3F4FFE
:103230002F7330708091B2099091B3092817390724
:1032400071F0E091B009F091B109E059F64F408377
:103250003093B1092093B00902C08091CE00FF9154
:10326000EF919F918F914F913F912F910F900BBEB6
:103270000F900FBE0F901F90189508951F920F92F8
:103280000FB60F920BB60F9211242F933F934F93CB
:103290008F939F93EF93FF938091D00082FD1DC089
:1032A0004091D6002091380A3091390A2F5F3F4F64
:1032B0002F73307080913A0A90913B0A2817390792
:1032C00071F0E091380AF091390AE850F64F4083E6
:1032D0003093390A2093380A02C08091D600FF91BA
:1032E000EF919F918F914F913F912F910F900BBE36
:1032F0000F900FBE0F901F90189508951F920F9278
:103300000FB60F920BB60F9211242F933F934F934A
:103310008F939F93EF93FF938091300182FD1DC0A7
:10332000409136012091C00A3091C10A2F5F3F4F72
:103330002F7330708091C20A9091C30A2817390701
:1033400071F0E091C00AF091C10AE058F54F408356
:103350003093C10A2093C00A02C080913601FF91C8
:10336000EF919F918F914F913F912F910F900BBEB5
:103370000F900FBE0F901F901895E091140BF091D5
:10338000150BE05CFF4F8191919120813181821B6F
:10339000930B8F739070892B09F0EFDEE091360B61
:1033A000F091370BE05CFF4F819191912081318149
:1033B000821B930B8F739070892B09F01EDFE091B5
:1033C000580BF091590BE05CFF4F81919191208156
:1033D0003181821B930B8F739070892B09F04DDF25
:1033E000E0917A0BF0917B0BE05CFF4F8191919122
:1033F00020813181821B930B8F739070892B09F090
:103400007CCF08951F920F920FB60F920BB60F92BA
:1034100011242F933F938F939F93EF93FF932091CA
:103420006C0930916D0980916E0990916F09281790
:10343000390731F48091C1008F7D8093C10014C0A1
:10344000E0916E09F0916F09E45DF64F2081809163
:103450006E0990916F0901968F73907090936F0928
:1034600080936E092093C600FF91EF919F918F91F9
:103470003F912F910F900BBE0F900FBE0F901F909A
:1034800018951F920F920FB60F920BB60F92112440
:103490002F933F938F939F93EF93FF932091F40982
:1034A0003091F5098091F6099091F70928173907AD
:1034B00031F48091C9008F7D8093C90014C0E091E0
:1034C000F609F091F709EC54F64F20818091F60946
:1034D0009091F70901968F7390709093F7098093FC
:1034E000F6092093CE00FF91EF919F918F913F912C
:1034F0002F910F900BBE0F900FBE0F901F9018953D
:103500001F920F920FB60F920BB60F9211242F93AA
:103510003F938F939F93EF93FF9320917C0A309179
:103520007D0A80917E0A90917F0A2817390731F42D
:103530008091D1008F7D8093D10014C0E0917E0AEC
:10354000F0917F0AE45CF54F208180917E0A909192
:103550007F0A01968F73907090937F0A80937E0A02
:103560002093D600FF91EF919F918F913F912F91E2
:103570000F900BBE0F900FBE0F901F9018951F92CB
:103580000F920FB60F920BB60F9211242F933F9309
:103590008F939F93EF93FF932091040B3091050B32
:1035A0008091060B9091070B2817390731F4809111
:1035B00031018F7D8093310114C0E091060BF091B1
:1035C000070BEC53F54F20818091060B9091070B70
:1035D00001968F7390709093070B8093060B209346
:1035E0003601FF91EF919F918F913F912F910F9015
:1035F0000BBE0F900FBE0F901F901895AF92BF9209
:10360000DF92EF92FF920F931F93CF93DF93EC0122
:103610007A018B01DD24403081EE580780E0680795
:1036200080E0780711F0DD24D39491E0A92EB12C2D
:10363000EC89FD89DD2069F0C50108A002C0880F72
:10364000991F0A94E2F7808360E079E08DE390E0CF
:1036500005C0108260E874E88EE190E0A80197014F
:1036600024D52150304040405040569547953795DD
:10367000279580E12030380720F0DD2011F0DD248F
:10368000D7CFE889F9893083EA89FB89208319A299
:10369000EE89FF89408121E030E0C9010C8C02C035
:1036A000880F991F0A94E2F7482B4083EE89FF891F
:1036B0004081C9010D8C02C0880F991F0A94E2F75E
:1036C000482B4083EE89FF894081C9010E8C02C0DE
:1036D000880F991F0A94E2F7482B4083EE89FF89EF
:1036E00080810F8C02C0220F331F0A94E2F72095CD
:1036F00028232083DF91CF911F910F91FF90EF90AE
:10370000DF90BF90AF900895DC011C96ED91FC9185
:103710001D97E05CFF4F2191319180819181281BA1
:10372000390B2F733070C9010895DC011C96ED919F
:10373000FC911D97E05CFF4F20813181E054F04007
:10374000DF01AE5BBF4F8D919C9111972817390710
:1037500019F42FEF3FEF07C08D919C91E80FF91FEF
:103760008081282F30E0C9010895DC011C96ED917D
:10377000FC911D97E05CFF4F20813181E054F040C7
:10378000DF01AE5BBF4F8D919C91119728173907D0
:1037900019F42FEF3FEF10C08D919C911197E80F16
:1037A000F91F20818D919C91119701968F739070D4
:1037B00011969C938E9330E0C9010895DC01919697
:1037C0008C919197882339F05496ED91FC915597FF
:1037D000808186FFF9CF91961C920895CF93DF9355
:1037E000EC01EE85FF85E05CFF4F20813181E054E4
:1037F000F0402F5F3F4F2F733070DF01AE5BBF4F44
:103800008D919C91119728173907D1F3E05CFF4FF8
:1038100080819181E054F040E80FF91F6083EE85CC
:10382000FF85E05CFF4F31832083EE89FF89208193
:1038300081E090E00F8C02C0880F991F0A94E2F794
:10384000282B208381E089A3EC89FD898081806415
:10385000808381E090E0DF91CF9108951F931092D3
:103860000B0B10920A0B28EE33E040E050E020935F
:103870000C0B30930D0B40930E0B50930F0B64E425
:1038800072E07093090B6093080B88EE98E09093B8
:10389000150B8093140B8CE299E09093170B809397
:1038A000160B85EC90E09093190B8093180B84EC29
:1038B00090E090931B0B80931A0B80EC90E0909318
:1038C0001D0B80931C0B81EC90E090931F0B809359
:1038D0001E0B82EC90E09093210B8093200B86ECE2
:1038E00090E09093230B8093220B14E01093240B11
:1038F000B3E0B093250BA7E0A093260BF5E0F0937F
:10390000270BE1E0E093280B10922D0B10922C0B6B
:1039100020932E0B30932F0B4093300B5093310B91
:1039200070932B0B60932A0B80E799E09093370BF1
:103930008093360B84EB99E09093390B8093380B8E
:103940008DEC90E090933B0B80933A0B8CEC90E0E5
:1039500090933D0B80933C0B88EC90E090933F0B51
:1039600080933E0B89EC90E09093410B8093400B49
:103970008AEC90E09093430B8093420B8EEC90E0A6
:103980009093450B8093440B1093460BB093470BD9
:10399000A093480BF093490BE0934A0B10924F0B06
:1039A00010924E0B2093500B3093510B4093520BBF
:1039B0005093530B70934D0B60934C0B88EF99E031
:1039C0009093590B8093580B8CE39AE090935B0B88
:1039D00080935A0B85ED90E090935D0B80935C0B88
:1039E00084ED90E090935F0B80935E0B80ED90E010
:1039F0009093610B8093600B81ED90E09093630B4B
:103A00008093620B82ED90E09093650B8093640B42
:103A100086ED90E09093670B8093660B1093680B94
:103A2000B093690BA0936A0BF0936B0BE0936C0B54
:103A30001092710B1092700B2093720B3093730BDA
:103A40004093740B5093750B70936F0B60936E0BD8
:103A500080E89AE090937B0B80937A0B84EC9AE059
:103A600090937D0B80937C0B85E391E090937F0B8B
:103A700080937E0B84E391E09093810B8093800B85
:103A800080E391E09093830B8093820B81E391E03C
:103A90009093850B8093840B82E391E09093870B46
:103AA0008093860B86E391E09093890B8093880B3B
:103AB00010938A0BB0938B0BA0938C0BF0938D0B10
:103AC000E0938E0B1F9108950F93FC0184E592E023
:103AD0009183808362834383248305830F910895B8
:103AE00084E592E09093910B8093900B1092920B4F
:103AF0001092930B1092940B1092950B08958F9245
:103B00009F92AF92BF92CF92DF92EF92FF920F936C
:103B10001F93CF93DF934C016B017C01AA24BB243C
:103B2000C0E0D0E0C601F70162814AE050E006D172
:103B30008C01C6016EE270D0080F191FA00EB11ED5
:103B400021960894E11CF11CC330D10559F7C60138
:103B5000F40165814AE050E0F1D09501280F391F4A
:103B6000C901DF91CF911F910F91FF90EF90DF90EE
:103B7000CF90BF90AF909F908F9008959C01FB01D4
:103B800080819181A281B381F90182839383A4838F
:103B9000B583C9010895FC0184E592E09183808397
:103BA00012821382148215820895CF93DF933BD93A
:103BB0000E94C907CDEBD9E10E94530A2097E1F397
:103BC000DCDBFACFCF92DF92EF92FF920F931F933D
:103BD000CF93DF937C016B018A01C0E0D0E00FC07E
:103BE000D6016D916D01D701ED91FC910190F081AD
:103BF000E02DC7011995C80FD91F015010400115BC
:103C0000110571F7CE01DF91CF911F910F91FF90B8
:103C1000EF90DF90CF900895DC01ED91FC91019041
:103C2000F081E02D19950895CF93DF93EC01611594
:103C3000710519F420E030E00FC0DB010D90002089
:103C4000E9F71197A61BB70BE881F9810280F38190
:103C5000E02DAD0119959C01C901DF91CF91089527
:103C60004F925F927F928F929F92AF92BF92CF922C
:103C7000DF92EF92FF920F931F93DF93CF93CDB715
:103C8000DEB7A1970FB6F894DEBF0FBECDBF2C01F3
:103C9000742ECB01223008F42AE019A231E2C32E9F
:103CA000D12CCC0EDD1E822E9924AA24BB24672D94
:103CB000752FA5019401F9D179018A01C801B701D5
:103CC000A5019401D3D1472D461B0894C108D10802
:103CD0004A3014F4405D01C0495CF6014083E114B0
:103CE000F1040105110521F07E2C5F2DC801DFCF05
:103CF000C201B60199DFA1960FB6F894DEBF0FBEE0
:103D0000CDBFCF91DF911F910F91FF90EF90DF908A
:103D1000CF90BF90AF909F908F907F905F904F908B
:103D20000895DC012115310541F4ED91FC910190DC
:103D3000F081E02D642F1995089592CFEF92FF92B4
:103D40000F931F939A01E62EFF2400E010E0B801C4
:103D5000A701E7DF1F910F91FF90EF900895505852
:103D6000BB27AA270ED0E5C0D6D030F0DBD020F09C
:103D700031F49F3F11F41EF4CBC00EF4E095E7FB45
:103D8000C1C0E92FE7D080F3BA1762077307840731
:103D9000950718F071F49EF5FFC00EF4E0950B2E18
:103DA000BA2FA02D0B01B90190010C01CA01A0018D
:103DB0001124FF27591B99F0593F50F4503E68F1E8
:103DC0001A16F040A22F232F342F4427585FF3CF29
:103DD000469537952795A795F0405395C9F77EF4FA
:103DE0001F16BA0B620B730B840BBAF09150A1F043
:103DF000FF0FBB1F661F771F881FC2F70EC0BA0FC9
:103E0000621F731F841F48F4879577956795B79550
:103E1000F7959E3F08F0B3CF9395880F08F0992748
:103E2000EE0F97958795089504D06894B111B5C0A9
:103E3000089598D088F09F5790F0B92F9927B751DF
:103E4000A0F0D1F0660F771F881F991F1AF0BA955E
:103E5000C9F712C0B13081F09FD0B1E008959CC085
:103E6000672F782F8827B85F39F0B93FCCF3869554
:103E700077956795B395D9F73EF4909580957095B1
:103E800061957F4F8F4F9F4F0895E89409C097FB2E
:103E90003EF490958095709561957F4F8F4F9F4F21
:103EA0009923A9F0F92F96E9BB279395F695879565
:103EB00077956795B795F111F8CFFAF4BB0F11F428
:103EC00060FF1BC06F5F7F4F8F4F9F4F16C08823CF
:103ED00011F096E911C0772321F09EE8872F762F05
:103EE00005C0662371F096E8862F70E060E02AF046
:103EF0009A95660F771F881FDAF7880F9695879532
:103F000097F9089597F99F6780E870E060E0089559
:103F10009FEF80EC089500240A94161617061806E1
:103F20000906089500240A941216130614060506BD
:103F30000895092E0394000C11F4882352F0BB0F4E
:103F400040F4BF2B11F460FF04C06F5F7F4F8F4FB1
:103F50009F4F089557FD9058440F551F59F05F3FEC
:103F600071F04795880F97FB991F61F09F3F79F09B
:103F700087950895121613061406551FF2CF46951D
:103F8000F1DF08C0161617061806991FF1CF86959F
:103F90007105610508940895E894BB276627772783
:103FA000CB0197F908950BD0C4CFB5DF28F0BADF65
:103FB00018F0952309F0A6CFABCF1124EECFCADFBE
:103FC000A0F3959FD1F3950F50E0551F629FF0012C
:103FD000729FBB27F00DB11D639FAA27F00DB11D85
:103FE000AA1F649F6627B00DA11D661F829F22270E
:103FF000B00DA11D621F739FB00DA11D621F839F95
:10400000A00D611D221F749F3327A00D611D231F6A
:10401000849F600D211D822F762F6A2F11249F57B8
:1040200050408AF0E1F088234AF0EE0FFF1FBB1FDB
:10403000661F771F881F91505040A9F79E3F51057A
:1040400070F060CFAACF5F3FECF3983EDCF386952B
:1040500077956795B795F795E7959F5FC1F7FE2B25
:10406000880F911D9695879597F90895629FD001C5
:10407000739FF001829FE00DF11D649FE00DF11D23
:10408000929FF00D839FF00D749FF00D659FF00DD2
:104090009927729FB00DE11DF91F639FB00DE11DBF
:1040A000F91FBD01CF0111240895A1E21A2EAA1B08
:1040B000BB1BFD010DC0AA1FBB1FEE1FFF1FA217D8
:1040C000B307E407F50720F0A21BB30BE40BF50BD5
:1040D000661F771F881F991F1A9469F7609570955E
:1040E000809590959B01AC01BD01CF010895EE0F25
:0E40F000FF1F0590F491E02D1994F894FFCF76
:1040FE00DEADBEEFFEEDA2540D0011001C0012004D
:10410E001A00130008000A0100FF00010000000061
:10411E00390F2610350FAA0F6E0F510FDF10CB106F
:10412E0043105F104010D40F880F180F200F310F5F
:10413E0000000000EE1BE21D841BB51B951BDE1B51
:06414E00000000007F1DCF
:00000001FF
