:100000000AC100000C94D4170C9405180C943618EF
:100010000C9467180C9498180C94C9180C94FA183E
:100020000C942B1925C1000023C1000021C1000040
:100030001FC100001DC100001BC1000019C100004C
:1000400017C1000015C1000013C1000011C100005C
:1000500010C100000DC100000BC100000C945C1920
:1000600007C100000C94B61B0C94FA1C01C10000DF
:10007000FFC00000FDC00000FBC00000F9C0000090
:10008000F7C00000F5C00000F3C000006DC1000023
:100090000C94F61B0C94391DEBC00000E9C0000065
:1000A000E7C00000E5C00000E3C00000E1C00000C0
:1000B000DFC00000DDC00000DBC00000D9C00000D0
:1000C000D7C00000D5C00000D3C000000C94361C7F
:1000D0000C94781DCDC000000C94761C0C94B71DB8
:1000E000C7C0000000002100240027002A002D00C6
:1000F0003000330001010000040107010A01000083
:100100002200250028002B002E00310034000201BF
:100110000000050108010B0100002000230026005B
:1001200029002C002F00320000010000030106010D
:10013000090105050505070508080808020202026D
:100140000A0A080804040404010101010101010173
:100150000303030303030303040707070C0C0C0C3E
:100160000C0C0C0C02020202060606060606060627
:100170000B0B0B0B0B0B0B0B0102102020080810B4
:100180002040102040800201020108040201010207
:1001900004081020408080402010080402018004E0
:1001A000020180402010080402010804020101023B
:1001B0000408102040800102040810204080000044
:1001C000090A02080B0C0D070603040100000000D9
:1001D000000000000000000000000000000000001F
:1001E0000000000000000000000011100F000000DF
:1001F00000000000000000000000000000000000FF
:1002000000000000DA069E0D000EA710FA1105127C
:100210005B12261F682011241FBECFEFD1E2DEBF84
:10022000CDBF00E00CBF12E0A0E0B2E0EEEBF7E4DF
:1002300000E00BBF02C007900D92A036B107D9F7BE
:100240001BBE1DE0A0E6B2E001C01D92AD39B107B2
:10025000E1F712E0C6E1D2E004C02297FE010E945D
:10026000D923C430D107C9F70E94CD200C94DD23D7
:10027000C7CE1F920F920FB60F9211242F933F9368
:100280004F935F938F939F938091C8049091C9047B
:1002900090938500809384002091C4043091C5041C
:1002A0002F5F3F4F3093C5042093C4044091C60490
:1002B0005091C7044F5F5F4F5093C7044093C604EB
:1002C0008091CE048F5F8093CE049091CF049F5F86
:1002D0009093CF048B3F18F08AEF8093CE049B3F1E
:1002E00018F08AEF8093CF04285E334060F081E0FD
:1002F0008093CC041092C5041092C404809101062E
:100300008F5F809301064436510538F081E0809379
:10031000CD041092C7041092C604809101068C335C
:1003200018F08CE380930106809101068C3388F0ED
:1003300020913F06213069F48091040690910506D2
:10034000019690930506809304061092010620936F
:100350006D069F918F915F914F913F912F910F90DB
:100360000FBE0F901F9018951F920F920FB60F920D
:1003700011242F933F938F939F938091CA04909160
:10038000CB04909395008093940080917E0A8130F5
:10039000D9F42091820A3091830A809108029091C9
:1003A00009022817390780F48091800A813061F4AE
:1003B0002F5F3F4F3093830A2093820A80910B0175
:1003C000886080930B0106C01092830A1092820A03
:1003D0001092800A8091800A882301F58091860A14
:1003E0009091870A01969093870A8093860A2091BC
:1003F0000B01277F20930B0120910C0230910D02FD
:100400008217930758F01092870A1092860A81E0AB
:100410008093800A1092830A1092820A80917F0A48
:100420008130D9F42091880A3091890A80910A029A
:1004300090910B022817390780F48091810A81304E
:1004400061F42F5F3F4F3093890A2093880A80918F
:100450000B01826080930B0106C01092890A1092F2
:10046000880A1092810A8091810A882301F580917F
:10047000840A9091850A01969093850A8093840A54
:1004800020910B012D7F20930B0120910C023091C4
:100490000D028217930758F01092850A1092840A71
:1004A00081E08093810A1092890A1092880A9F91B4
:1004B0008F913F912F910F900FBE0F901F90189525
:1004C00020E834E84EE150E00E94962320E432E434
:1004D0004FE050E00E94B523309521953F4F309377
:1004E000C9042093C8041092800082E080938100A8
:1004F000EFE6F0E080818160808330938500209377
:100500008400089520E834E84EE150E00E949623EC
:1005100020E432E44FE050E00E94B523309521956D
:100520003F4F3093CB042093CA041092900082E096
:1005300080939100E1E7F0E08081816080833093D7
:100540009500209394000895EF92FF920F931F93CC
:100550008091B302882381F09091CE048091200293
:10056000891750F41092B3021092B7021092B6029B
:100570001092B1021092AF028091B402882381F0F0
:100580009091CF0480912002891750F41092B40208
:100590001092B9021092B8021092B2021092B002F8
:1005A0008091CE04893C38F48091B6029091B702D4
:1005B000892B71F04FC01092B7021092B6021092C0
:1005C000B1021092AF02809102068E7F80930206E4
:1005D0008091B2022091B8023091B902813049F481
:1005E00088279927821B930B9093BF028093BE02AA
:1005F00004C03093BF022093BE028091B0028130CC
:10060000B9F46091BE027091BF02882777FD809592
:10061000982F0E94A72223E333E34BE451E40E9486
:1006200033230E9474227093BF026093BE0212C0F3
:100630008091BE029091BF029C0143E0220F331FC4
:100640004A95E1F7880F991F280F391F3093BF0291
:100650002093BE028091CF04893C38F48091B80287
:100660009091B902892B71F04FC01092B90210928B
:10067000B8021092B2021092B002809102068D7FF1
:10068000809302068091B1022091B6023091B702A8
:10069000813049F488279927821B930B9093BF02DE
:1006A0008093BE0204C03093BF022093BE028091AB
:1006B000AF028130B9F46091BE027091BF02882709
:1006C00077FD8095982F0E94A72223E333E34BE424
:1006D00051E40E9433230E9474227093BF026093FE
:1006E000BE0212C08091BE029091BF029C0113E035
:1006F000220F331F1A95E1F7880F991F280F391F12
:100700003093BF022093BE02809102068370833033
:1007100009F0D1C02091B6023091B7022115310500
:1007200009F4C9C04091B8025091B9024115510570
:1007300009F4C1C08091B102813049F4882799271A
:10074000821B930B9093C1028093C00204C030932C
:10075000C1022093C0028091B202813049F48827FF
:100760009927841B950B9093C3028093C20204C007
:100770005093C3024093C2028091AF02813009F0CE
:100780004FC08091B002813009F08FC06091C002EB
:100790007091C102882777FD8095982F0E94A7222B
:1007A00023E333E34BE451E40E94332355C06091CB
:1007B000C0027091C102882777FD8095982F0E9412
:1007C000A72223E333E34BE451E40E9433237B016C
:1007D0008C012091C2023091C302B901A3E0660FDF
:1007E000771FAA95E1F7220F331F620F731F882727
:1007F00077FD8095982F0E94A7229B01AC01C8012C
:10080000B7010E94A82120E030E040E05FE30E94B1
:1008100033230E9474227093BF026093BE024BC0C8
:10082000882309F048C08091B002813009F041C0AE
:100830002091C0023091C102B901E3E0660F771F39
:10084000EA95E1F7220F331F620F731F882777FDA8
:100850008095982F0E94A7227B018C016091C20293
:100860007091C302882777FD8095982F0E94A72258
:1008700023E333E34BE451E40E943323BECF809162
:10088000C2029091C3022091C0023091C102820F36
:10089000931F9C01220F331F220F331F280F391F74
:1008A0003093BF022093BE0206C0882309F47FCF95
:1008B00002C0882321F31F910F91FF90EF900895BC
:1008C0009F92AF92BF92CF92DF92EF92FF920F93DF
:1008D0001F93CF93DF93982EA92EB62E4F5F282F0C
:1008E000392FC901EC01EE2460E070E0FF24C42E32
:1008F000DD2422C0A881B981892D9A2D9C01F9019E
:1009000030E020E08D010C191D09A6014A0F5B1F84
:100910000BC0808191810817190720F4841795076F
:1009200008F43F5F2F5F32962B1598F3E31610F40F
:10093000E32EBD01F3942296FB14E0F2CB01DF918C
:10094000CF911F910F91FF90EF90DF90CF90BF90CC
:10095000AF909F9008951F93CF93DF9390913F06A0
:10096000913009F0AAC110917106C12FD0E0FE01AB
:10097000EE0FFF1FEE0FFF1FEC5EF94F0190F081AD
:10098000E02DDE01AA0FBB1F309709F054C0AA0F5B
:10099000BB1FAA5EB94F2D913C912115310509F479
:1009A00052C180916F068823A9F410920506109217
:1009B00004061092010690936F06809102068062F1
:1009C00080930206265F3F4F30937B0620937A0682
:1009D0002A503040809104069091050682179307B3
:1009E00008F46BC1109205061092040610920106DD
:1009F00010926F061F5F1093710610926B06109293
:100A00006C06809102061092790610927806109278
:100A10007506109274061092770610927606109260
:100A20006E068F7C809302068FEF9FE090932402E6
:100A30008093230242C1AA0FBB1FAA5EB94F2D911A
:100A40003C912115310509F4FEC080916B06882385
:100A500051F4F0937306E093720630937B06209373
:100A60007A0690936B0620918B0230918C02409114
:100A7000720650917306BA016A507040621773078C
:100A800020F081E080937E0A07C080910B01877F70
:100A900080930B0110927E0A415F5F4F2417350748
:100AA00020F081E080937F0A07C080910B018D7F49
:100AB00080930B0110927F0A2617370708F4BFC0F6
:100AC0004217530708F4BBC080916C06882309F0D5
:100AD00067C180917C0690917D068C52914048F1CF
:100AE00010920506109204061092010610926E06EE
:100AF000809102068F7E91E090936D0690936C0634
:100B000080628093020610927D0610927C061092FD
:100B1000790610927806109275061092740610925B
:100B20007706109276068FEF9FE0909324028093D1
:100B3000230280917C0690917D06019690937D061C
:100B400080937C062DC1853691050CF078C0DE01BE
:100B50001196FD01EE0FFF1FEE0FFF1FEC5EF94F28
:100B600080819181892BD9F5AA0FBB1FAA0FBB1FCA
:100B7000AA5EB94F8D919C91892B89F510923F0601
:100B80009091020610926B061092050610920406D0
:100B90001092010610927E0A10927F0A81E08093E3
:100BA000700610926F0610926C0610926E069F7877
:100BB00090930206109279061092780610927506AC
:100BC0001092740610927706109276068FEF9FE0CF
:100BD00090932402809323021092710626C01092F3
:100BE0006B0610926C06809102061F5F10937106CF
:100BF000109279061092780610927506109274067B
:100C0000109277061092760610926E068F7C809373
:100C100002068FEF9FE090932402809323021092AC
:100C20000506109204061092010680910B01877F41
:100C300080930B0180910B018D7F80930B0180913C
:100C400071068B30D0F110923F06909102061092FF
:100C50006B0610920506109204061092010610927F
:100C60007E0A10927F0A81E08093700610926F06D0
:100C700010926C0610926E069F7890930206109266
:100C800079061092780610927506109274061092EA
:100C90007706109276068FEF9FE090932402809360
:100CA00023021092710680910B01877F80930B01C4
:100CB00080910B018D7F80930B0190910206892F0B
:100CC00096FD06C0109205061092040610920106C9
:100CD00085FD06C0109205061092040610920106CA
:100CE000809171068A30C0F110923F0610926B0617
:100CF00010920506109204061092010610927E0AC8
:100D000010927F0A81E08093700610926F06109215
:100D10006C0610926E069F789093020610927906E8
:100D2000109278061092750610927406109277064B
:100D3000109276068FEF9FE0909324028093230217
:100D40001092710680910B01877F80930B01809137
:100D50000B018D7F80930B01809170068130B9F477
:100D600080910B01877F80930B0180910B01826042
:100D700080930B0180918B0290918C02409738F404
:100D80001092700680910B018D7F80930B018091F2
:100D900071068F5F80930306DF91CF911F910895B5
:100DA00080912302909124022FEF8C3992070CF04E
:100DB000CACE45CF0F938AE89AE060E040E020E099
:100DC00000E00E945C2080E692E060EC48EA20E0CF
:100DD00000EB0E945C2086E692E060EC48EA20E0AE
:100DE0000FEF0E945C208CE692E00E9442130F916C
:100DF0000895AF92BF92CF92DF92EF92FF920F933E
:100E00001F93CF93DF938091B502C82FD0E08091DC
:100E10001A020E946D1ACC0FDD1FC157DD4F998356
:100E200088838091B5028F5F8F708093B5028FE8C1
:100E300092E060E141E044DD20910A0630910B062A
:100E400082179307C0F0821B930BBC0180E090E0F7
:100E50000E94A522209110063091110640911206A1
:100E6000509113060E9433230E94792270938E02C0
:100E700060938D0204C010928E0210928D02A09099
:100E80001C02B0901D02C0901E02D0901F0260E0B4
:100E900070E080E89FE3A60195010E94A7217B01F5
:100EA0008C0160918B0270918C0280E090E00E9436
:100EB000A5229B01AC01C801B7010E9433237B012D
:100EC0008C0160918D0270918E0280E090E00E9412
:100ED000A5229B01AC01C601B5010E9433239B01F1
:100EE000AC01C801B7010E94A8210E947922709329
:100EF0008C0260938B021092CD04DF91CF911F91F1
:100F00000F91FF90EF90DF90CF90BF90AF9008953A
:100F10001092CF0480910206826080930206809135
:100F2000B4028431D0F4809116020E94861B892B72
:100F300081F521E030E00090B40202C0220F331F9F
:100F40000A94E2F78091BA029091BB02822B932B14
:100F50009093BB028093BA021CC0843159F48091F3
:100F600016020E94861B1092B202892B19F481E0AE
:100F70008093B2028091B402873159F480911602B5
:100F80000E94861B1092B002892B19F481E0809395
:100F9000B0028091B4028F5F8093B402883170F008
:100FA0008091BA029091BB029093B9028093B802EB
:100FB0001092B4021092BB021092BA0208951092DD
:100FC000CE04809102068160809302068091B30274
:100FD0008431D0F4809112020E94861B892B81F506
:100FE00021E030E00090B30202C0220F331F0A94C8
:100FF000E2F78091BC029091BD02822B932B9093DB
:10100000BD028093BC021CC0843159F4809112024D
:101010000E94861B1092B102892B19F481E0809303
:10102000B1028091B302873159F4809112020E947B
:10103000861B1092AF02892B19F481E08093AF02D6
:101040008091B3028F5F8093B302883170F08091FA
:10105000BC029091BD029093B7028093B6021092A9
:10106000B3021092BD021092BC020895DF93CF9399
:1010700000D000D0CDB7DEB78091F104E82FF0E0CA
:10108000EE0FFF1FE053FB4F8081813009F02DC12F
:101090009181913071F482E88093F6041092F70404
:1010A0001092F8049093F90481E48093FA0486E0A6
:1010B000BBC09230C1F481E88093F6041092F7042B
:1010C0001092F80483E08093F9048091FD058093E9
:1010D000FA048091FB058093FB048091FC058093CA
:1010E000FC0488E0A1C0933009F05EC085E88093DD
:1010F000F6041092F7041092F80483E18093F90447
:101100008091AF028093FA048091B1028093FB0436
:101110008091B6029091B7028093FC049093FD04F5
:101120008091B0028093FE048091B2028093FF040C
:101130008091B8029091B9028093000590930105C7
:101140008091BE029091BF0280930205892F990F72
:10115000990B809303058091230290912402809340
:101160000405892F990F990B8093050580918B02B7
:1011700090918C0280930605909307058091040658
:1011800090910506809308059093090580910106CA
:1011900080930A058091030680930B0580910206D7
:1011A00080930C0588E140C0943009F03FC083E88B
:1011B0008093F6041092F7041092F80480913C0694
:1011C000482F50E0440F551F440F551F4093F9041A
:1011D00084E196E0909341068093400610920006C9
:1011E0001092FF0511C0E0914006F09141068191F7
:1011F00016968C93F0934106E09340062F5F3F4F85
:10120000309300062093FF052091FF0530910006E2
:10121000D901AC50BB4F241735072CF3809102063F
:1012200016968C93822F8A5F8093F3048EE592E06A
:101230009A8389838091680290916902A0916A02E1
:10124000B0916B028B839C83AD83BE834091060279
:10125000509107028CE692E0BE016F5F7F4F0E94C3
:101260003B13109200061092FF051092F2041CC06E
:10127000A230B1054CF0FD01EC50FB4F8091F2041F
:101280009081890F8093F204AC50BB4F8CE692E0C2
:101290006C910E9431128091FF0590910006019699
:1012A000909300068093FF05A091FF05B091000682
:1012B0008091F30490E08A179B07D4F68CE692E0C5
:1012C0006091F2040E9431128CE692E00E94381381
:1012D0008091F104E82FF0E0EE0FFF1FE053FB4F89
:1012E00010828F5F8F708093F10426960FB6F8946A
:1012F000DEBF0FBECDBFCF91DF910895DF93CF93B7
:1013000000D000D0CDB7DEB78091120261E00E941C
:10131000541B8091140261E00E94541B80911202C0
:1013200060E00E94A11A8091140260E00E94A11A5C
:101330008091160261E00E94541B8091180261E0C6
:101340000E94541B8091160260E00E94A11A8091B5
:10135000180260E00E94A11A85E06FED77E042E09C
:1013600050E00E94581784E068E877E042E050E0DF
:101370000E94581768EE73E080E090E0A1D868EE14
:1013800073E080E090E0BED880910E0261E00E94A0
:10139000A11A8091100260E00E94A11A8EE261E021
:1013A0000E94A11A80E361E00E94A11A85E361E036
:1013B0000E94A11A8EE592E09A838983809162024D
:1013C00090916302A0916402B09165028B839C832B
:1013D000AD83BE8384EA9AE060E072E0AE014F5FC5
:1013E0005F4FD1D760910602709107028CE692E0C0
:1013F0000E94D7138FE09DE040E855E260E070E086
:101400000E94F61D64EF71E080E090E00E94B21946
:1014100083E98093F4048AE68093F5041092F6043D
:101420001092F7041092F80426960FB6F894DEBFD7
:101430000FBECDBFCF91DF9108958091740690913A
:1014400075066091BE027091BF02FC01EE0FFF1F96
:10145000E258F94F71836083E0917606F091770648
:101460008E1B9F0B91709093790680937806209144
:101470007A0630917B068217930768F1EE0FFF1F03
:10148000E258F94F80819181681B790B7093240297
:10149000609323028FE09DE00E94E61E609123028C
:1014A00070912402672F770F770B8FE09DE00E94E9
:1014B000E61E809176069091770601969170909342
:1014C00077068093760681E080936E06809102060F
:1014D0008061809302068091740690917506019652
:1014E0009170909375068093740608954F925F9261
:1014F0006F927F928F929F92AF92BF92CF92DF9224
:10150000EF92FF920F931F93CF93DF938CE692E0BD
:101510000E94CC126C01009709F4B0C28CE692E0F4
:1015200064EC72E040E052E0EBD7109200061092BB
:10153000FF051092F8051092F4051092F70552E09D
:10154000F52EEE24E39444E1A42E46E0B42E3FEFC2
:10155000832E3FE0932E24E0422E90EC792E88EAF1
:10156000682E55245A9477C2EC53FD4F9081909386
:10157000F6052091F4052230A1F48091F705813021
:1015800009F072C29093F5051092F80510923D068D
:1015900008C09093FB0505C09093FC0502C0909392
:1015A000FE059A3621F4213011F4F092F405809171
:1015B000F405813011F41092F405933931F48091DF
:1015C000F405882311F4E092F4052091F50521300B
:1015D00009F0C4C08091F705882309F49BC18130CC
:1015E00009F414C1853019F490933E0693C18630F6
:1015F00009F090C18091F805891709F08BC180919D
:101600003E068134F9F41092F4051092F705109219
:10161000FA051092F9058091F004E82FF0E0EE0F42
:10162000FF1FE053FB4F2083F1828F5F8F70809309
:10163000F004709268026092690210926A025092FD
:101640006B0268C18234D9F41092F4051092F70548
:101650001092FA058091F004E82FF0E0EE0FFF1FE2
:10166000E053FB4F2083F1828F5F8F70E82FF0E013
:10167000EE0FFF1FE053FB4F20834182B8C083343D
:10168000F1F41092F4051092F7051092FA0580918A
:10169000F004E82FF0E0EE0FFF1FE053FB4F208334
:1016A000F1828F5F8F708093F00420933F06109239
:1016B0000106809102068064809302062BC1843467
:1016C00009F028C11092F4051092F7051092FA055E
:1016D0008091F004E82FF0E0EE0FFF1FE053FB4F86
:1016E000E082F1828F5F8F708093F00410923F064A
:1016F0008091020610926B06109205061092040665
:101700001092010610927E0A10927F0AE0927006F3
:1017100010926F0610926C0610926E068F7880936E
:1017200002061092790610927806109275061092B1
:101730007406109277061092760690922402809298
:1017400023021092710680910B01877F80930B0119
:1017500080910B018D7F80930B01DCC0223009F05A
:101760004BC08091F705882309F4D4C0813009F477
:101770004DC0853019F490938702CCC0863019F49F
:1017800090938802C7C0873019F490938902C2C031
:10179000883019F490938A02BDC0893009F0BAC02C
:1017A0008091F805891709F0B5C0E092F90510920B
:1017B000F4051092F7051092FA0580918702809344
:1017C00068028091880280936902809189028093E7
:1017D0006A0280918A0280936B028091F004E82F64
:1017E000F0E0EE0FFF1FE053FB4FE082F1828F5FCE
:1017F0008F708093F0048EC0233009F08BC08091ED
:10180000F705882309F486C0813019F48093FA051E
:1018100081C0853008F47EC020913D06E22FF0E0C3
:10182000EE5BF94F90838091F805891709F06DC040
:101830008091FE05281709F068C0B0924106A09279
:101840004006109200061092FF051AC0E091400673
:10185000F0914106AE5BB94F8C9180838091400638
:1018600090914106019690934106809340068091A5
:10187000FF05909100060196909300068093FF0566
:10188000A091FF05B09100068091FE0590E0A81799
:10189000B907E4F217C0E0914006F09141061082CA
:1018A0008091400690914106019690934106809365
:1018B00040068091FF0590910006019690930006E6
:1018C0008093FF058091FF059091000688971CF397
:1018D00080913D0690E095958795959587958093A5
:1018E0003C061092F4051092F7051092FA058091CB
:1018F000F004E82FF0E0EE0FFF1FE053FB4FE08213
:10190000F1828F5F8F708093F00480913D068F5F2E
:1019100080933D068091F505843009F071C0809177
:10192000F705882309F46CC0813019F48093FA0517
:1019300067C0853039F48091F605809306061092D1
:1019400007065EC0863039F48091F605809308065C
:101950001092090655C0873039F48091F6058093BE
:101960000C0610920D064CC0883039F48091F605B3
:1019700080930E0610920F0643C0893009F040C0D4
:101980009091F8058091F6059817D1F51091080609
:1019900000E06091060670910706602B712B709332
:1019A000220260932102D0910E06C0E020910C0625
:1019B00030910D062C2B3D2B30930B0620930A06FD
:1019C00080E090E00E94A52220E030E44CE156E463
:1019D0000E940C22609310067093110680931206E9
:1019E000909313068091F004E82FF0E0EE0FFF1FB4
:1019F000E053FB4FE082F1828F5F8F708093F004A1
:101A00002091F705222339F08091F8059091F60591
:101A1000890F8093F8058091F405823051F42130CC
:101A200041F48091FA05882321F41092F405109274
:101A3000F7058091F405823028F08091F7058F5FDB
:101A40008093F7058091FF05909100060196909391
:101A500000068093FF05E091FF05F0910006EC156C
:101A6000FD050CF481CD0AC0823009F492CD83309B
:101A700009F492CD843009F094CD91CDDF91CF91CE
:101A80001F910F91FF90EF90DF90CF90BF90AF909C
:101A90009F908F907F906F905F904F9008950E94DD
:101AA000A40224DD0E94AB04E1DA8091CD048130F0
:101AB00009F49FD98091CC04882311F11092CC04B1
:101AC0009091F905992359F48091F004E82FF0E002
:101AD000EE0FFF1FE053FB4F91E090830CC091305D
:101AE00079F48091F004E82FF0E0EE0FFF1FE0534F
:101AF000FB4F908393E091838F5F8F708093F0040E
:101B000080916D06882319F010926D0696CC089589
:101B100085E361E00E94541B85E361E00E94A11A05
:101B20008CB580618CBD8CB580648CBD84E361E034
:101B30000E94A11A83E361E00C94A11A0F9380E93B
:101B40009AE060E040E020E000E00E945C200F911D
:101B500008959C01FB0182819381A481B581F901E3
:101B600082839383A483B583178216820895CF93CB
:101B7000DF93FB0101C0319680818823E1F7EB01FF
:101B8000A0E0B0E020E030E021C06E3261F42F3FF1
:101B9000310509F07CF5FA01EA0FFB1F228311964B
:101BA00020E030E012C0C901E3E0880F991FEA95F8
:101BB000E1F7220F331F820F931F262F332727FDB4
:101BC000309520533040280F391F219668816623B5
:101BD00019F0A430B105CCF22F3F310509F054F4CF
:101BE000A430B1053CF4A40FB51F12962C9321E04C
:101BF00030E002C020E030E0C901DF91CF910895CC
:101C00000F9386E99AE060E040E020E000E00E9467
:101C10005C200F9108952F923F924F925F926F92A6
:101C20007F928F929F92AF92BF92CF92DF92EF926C
:101C3000FF920F931F93DF93CF93CDB7DEB76997D2
:101C40000FB6F894DEBF0FBECDBF4C018B011A0159
:101C50000E94A4192B013C01F8E0EF2EF12CE80CB6
:101C6000F91C5801CC24DD2414C00E94A419641965
:101C7000750986099709A616B706C806D90618F485
:101C80002FEF3FEFF8C062E370E080E090E00E9449
:101C9000B219C70181D4181619063CF7F401228144
:101CA000338144815581818D928DA38DB48D8A8736
:101CB0009B87AC87BD87281739074A075B0709F060
:101CC000D8C0858D968DC59709F0D3C0EEC08E0122
:101CD000025F1F4FC701B8014CE050E011D4F8017A
:101CE000528143815B834A83F401268137818E854B
:101CF0009F852817390711F457FD05C0C701C9D3BF
:101D00002CEF3FEFB8C04F705270452B29F0C70140
:101D1000C0D32BEF3FEFAFC0F8017680678061142E
:101D2000710441F0AA24BB2448012E010894411CEF
:101D3000511C24C0C701ADD32AEF3FEF9CC0C7019F
:101D4000B20141E050E0DCD38981882319F407C057
:101D5000C701F8D38981815089838F5FC9F7898151
:101D6000882369F700E010E0C701ECD30F5F1F4F35
:101D700004301105C9F70894A11CB11CF401D480EA
:101D8000C580AC14BD04D8F244245524C701BE015B
:101D90006F5F7F4F41E050E0B3D39981892F807C02
:101DA00059F4992319F40BC0C701CCD38981815010
:101DB00089838F5FC9F703C0C701C4D319828981A2
:101DC000882321F7C701BE016C5F7F4F42E050E0DE
:101DD00097D3C701BE016A5F7F4F42E050E090D3C6
:101DE00000E010E0C701AED30F5F1F4F04301105B4
:101DF000C9F7C701BE016E5F7F4F42E050E080D35C
:101E0000DC80CD80F1E0CF16D10401F5BE80AF803B
:101E100081E0A816B104D1F49A818B81049729F04E
:101E2000C70137D327EF3FEF26C0E2E0F0E02E0EE8
:101E30003F1EC701B10144E050E062D321E030E031
:101E40001AC0C7017FD30F5F1F4F02C000E010E030
:101E50009A808B8008151905A0F30894411C511C29
:101E60004614570408F492CFC70113D326EF3FEF6F
:101E700002C02EEF3FEFC90169960FB6F894DEBF9E
:101E80000FBECDBFCF91DF911F910F91FF90EF90CB
:101E9000DF90CF90BF90AF909F908F907F906F908A
:101EA0005F904F903F902F9008958EE592E0998734
:101EB0008887C701D2D20C970CF009CF2DEF3FEFE6
:101EC000DACF6F927F928F929F92AF92BF92CF9212
:101ED000DF92EF92FF920F931F93DF93CF9300D087
:101EE000CDB7DEB78C01F62EE72E0E94A419F801BB
:101EF00077836683B8E0CB2ED12CC00ED11E0A5F4B
:101F00001F4FC601B80142E050E098D381E090E055
:101F10009B838A83A2E08A2E912C8C0E9D1EC60183
:101F2000B40142E050E08AD380E091E09B838A8351
:101F3000C601B40142E050E081D31B821A82C6017F
:101F4000B40142E050E07AD3C601B40142E050E06F
:101F500075D3C601B40142E050E070D32F2D3E2D61
:101F6000C9018C017C013E010894611C711C1EC0DA
:101F70000894E11CF11CF7018081882311F08E3256
:101F8000B9F75701A01AB10A1A141B0464F48E2D74
:101F9000801B8983C601B30141E050E04FD3C601E5
:101FA000B801A5014BD387010F5F1F4FF701808157
:101FB000882311F07801DFCF1982C601BE016F5F5F
:101FC0007F4F41E050E03AD300E011E01B830A83E9
:101FD000C601B40142E050E031D31B830A83C6013D
:101FE000B40142E050E02AD381E090E00F900F90DE
:101FF0000F90CF91DF911F910F91FF90EF90DF90A5
:10200000CF90BF90AF909F908F907F906F900895EA
:102010008F929F92AF92BF92CF92DF92EF92FF92F8
:102020000F931F93DF93CF9300D000D0CDB7DEB7CF
:102030006C017B014A019BDD892B19F001E010E066
:1020400061C0F60122813381448155818091980AD3
:102050009091990AA0919A0AB0919B0A2817390782
:102060004A075B0719F40EEF1FEF4CC018E0A12ED2
:10207000B12CAC0CBD1C0E94A4199B01AC012F70AB
:10208000307020503C4FC501B90191D3813019F017
:1020900000E010E037C08EE592E09A838983F60174
:1020A00082819381A481B5818B839C83AD83BE8320
:1020B000C501BE016F5F7F4F45E350E0DCD28C016C
:1020C0000097F1F0C601B701FCDE8C010097C1F06A
:1020D000C501CED28C01009799F0EE24FF24C601F1
:1020E00068E873E1A40197DD8C010894E11CF11C00
:1020F000F3E0EF16F10421F08FEF0F3F180779F3AB
:10210000C50141D3C80126960FB6F894DEBF0FBEB5
:10211000CDBFCF91DF911F910F91FF90EF90DF9096
:10212000CF90BF90AF909F908F900895DB01FC01FE
:102130002EE532E03183208312962D913D914D9111
:102140005C911597228333834483558308950F93BD
:102150008CEA9AE060E040E020E000E00E945C2031
:1021600084EA9AE00E94C3200F9108956F927F92B3
:102170008F929F92AF92BF92CF92DF92EF92FF9297
:102180000F931F933C015B016A01490186EC9AE0C1
:1021900061D689E090E0B50146E050E095D482E058
:1021A00090E0C80ED91E8FE090E0B60144E050E008
:1021B0008BD40E5F1F4F81E090E0B80144E050E007
:1021C00083D4E2E0F0E0EE0EFF1E85E090E0B70180
:1021D00044E050E079D4F40182819381A481B581F7
:1021E000F30182839383A483B5831F910F91FF90A2
:1021F000EF90DF90CF90BF90AF909F908F907F90A7
:102200006F9008956F927F928F929F92AF92BF923C
:10221000CF92DF92EF92FF920F931F93DF93CF93B2
:10222000CDB7DEB76E970FB6F894DEBF0FBECDBF49
:102230004C013B017A0169015801CE0101966FEF13
:102240004FEF2FEF00E00E945C202EE532E0388750
:102250002F83F70182819381A481B58189879A8731
:10226000AB87BC873E872D87F60182819381A4814D
:10227000B5818F87988BA98BBA8B3C8B2B8BF50103
:1022800082819381A481B5818D8B9E8BAF8BB88F1A
:102290003A8F298F8B819C81AD81BE818B8F9C8FE2
:1022A000AD8FBE8FC401B301AE01495F5F4F9E0188
:1022B000235F3F4F8E010D5E1F4FE9E1EE2EF12CA3
:1022C000EC0EFD1E53DF6E960FB6F894DEBF0FBE08
:1022D000CDBFCF91DF911F910F91FF90EF90DF90D5
:1022E000CF90BF90AF909F908F907F906F90089508
:1022F0000F931F93DF93CF93CDB7DEB768970FB6D9
:10230000F894DEBF0FBECDBFFA01D901228133811F
:10231000448155812B833C834D835E83EEE5F2E05F
:10232000F887EF8329873A874B875C87FE87ED879D
:1023300012962D913D914D915C9115972F87388B79
:10234000498B5A8BFC8BEB8B21E02E832B813C81BC
:102350004D815E812D8B3E8B4F8B588FAE01495F37
:102360005F4F9E01235F3F4F8E010D5E1F4F4ADF7F
:1023700068960FB6F894DEBF0FBECDBFCF91DF9148
:102380001F910F910895DF93CF93CDB7DEB762977A
:102390000FB6F894DEBF0FBECDBFFA0122813381A4
:1023A000448155812B833C834D835E83EEE5F2E0CF
:1023B000F887EF8329873A874B875C87FE87ED870D
:1023C00021E02E832B813C814D815E812F87388BCC
:1023D000498B5A8BAE01495F5F4F9E01235F3F4F90
:1023E00087DF62960FB6F894DEBF0FBECDBFCF91E8
:1023F000DF9108950F9382EB9AE060E040E020E0E7
:1024000000E00E945C200F9108950F9388EB9AE002
:1024100060E040E020E000E00E945C200F91089521
:10242000DC01ED91FC91008CF18DE02D1995089562
:10243000DB01FC012EE532E03183208351962D91A2
:102440003D914D915C91549722833383448355830E
:102450000895FC01858996890895FC01818D928DEE
:102460000895DF93CF930F92CDB7DEB7FC01698358
:10247000A081B18112962D913C911397BE016F5F9F
:102480007F4F41E050E0F90119950F90CF91DF9116
:102490000895CF93DF93EC0107C0E881F9810680AE
:1024A000F781E02DCE011995898D9A8D892BA9F799
:1024B000DF91CF9108950F938EEB9AE060E040E0BA
:1024C00020E000E00E945C200F910895DF93CF93FD
:1024D0000F92CDB7DEB7FC01818D928D892B19F457
:1024E0002FEF3FEF08C08485BE016F5F7F4F87D21B
:1024F0008981282F30E0C9010F90CF91DF91089595
:10250000CF93DF93EC019A01498D5A8D4115510506
:1025100099F02417350710F08C8502C08C85A9012D
:102520007CD29C01181619063CF4898D9A8D821B69
:10253000930B9A8F898F02C02FEF3FEFC901DF9174
:10254000CF9108950F931F93DF93CF930F92CDB741
:10255000DEB78C01FC01818D928D892BA1F08485E1
:10256000BE016F5F7F4F41E050E057D21816190649
:1025700054F4F801818D928D0197928F818F89811A
:10258000282F30E002C02FEF3FEFC9010F90CF910D
:10259000DF911F910F910895EF92FF920F931F9378
:1025A000DF93CF93CDB7DEB728970FB6F894DEBF91
:1025B0000FBECDBF8C01DC01ED91FC910284F3854F
:1025C000E02D199586EC9AE0F801648544D3892BB7
:1025D00019F420E030E024C0D8011C968C917E01D3
:1025E0000894E11CF11CB70148E050E016D29C01B0
:1025F00018161906ACF4C8010F96B7010E94B62050
:102600009D8180E02E81820F911DF801968B858B34
:102610009F8180E02885820F911D928F818F9C0180
:10262000C90128960FB6F894DEBF0FBECDBFCF917B
:10263000DF911F910F91FF90EF9008950F931F93DB
:102640008C01FB019A01DC0157966D917C915897A2
:102650001C968C91AF01A6D19C01F8018789908DC1
:10266000820F931F908F878BC9011F910F9108953F
:10267000FC018485E1C0FC01108E178A6E5F7F4FDC
:10268000848567C1FC011382128288EE93E0A0E08A
:10269000B0E084839583A683B7838AE292E0918336
:1026A000808384E08487CF010F960C94C3206F92BF
:1026B0007F928F929F92AF92BF92CF92DF92EF92D2
:1026C000FF920F931F93DF93CF93CDB7DEB7E597BC
:1026D0000FB6F894DEBF0FBECDBF4C015B013A01CF
:1026E00083E1E82EF12CEC0EFD1EC7010E94C320F1
:1026F000CE014B96C7DF6E010894C11CD11CC601E8
:102700000E94C3208E01095F1F4FC80164EA7AE06E
:102710000DDDC701B8011DDAC701B501A60178DCDE
:102720009C0181309105C9F4D401ED91FC910088A0
:10273000F189E02D8EE592E09E878D878B819C81CB
:10274000AD81BE818F87988BA98BBA8BC401BE01E6
:10275000635F7F4FA30119959C01C901E5960FB6F0
:10276000F894DEBF0FBECDBFCF91DF911F910F91C7
:10277000FF90EF90DF90CF90BF90AF909F908F90A1
:102780007F906F900895CF93DF93EC018C85843018
:1027900059F071D0EC85F0E0EE0FFF1FE456F54FD5
:1027A0001182108284E08C87DF91CF910895CF92BF
:1027B000DF92EF92FF920F931F93CF93DF937C01F1
:1027C0006B01FC018485843009F5C0E0D0E003E0B2
:1027D00014E0C801A0D1882311F0883119F4F70161
:1027E000C48706C0219600501F4FC430D10589F719
:1027F000F7018485843051F0D686C586128E118EFD
:1028000062E0A60120E070D081E001C080E0DF91AD
:10281000CF911F910F91FF90EF90DF90CF9008958F
:1028200090E0982F88278E5F9B4F75C190E0982F7E
:1028300088278E5F9B4F2EC11F93182F86EC9AE03E
:10284000612F40E250E0F6D20AC0812FE9DF83FF1A
:1028500006C0812F68E1EADF20E030E009C0812F67
:10286000DFDF84FFF2CF812F60E1E0DF21E030E0A5
:10287000C9011F9108951F93182F86EC9AE0612FCC
:1028800040E150E0D7D2812F6FEFD0DF1F91089544
:10289000FF920F931F93F62E672F082F10E00C5F07
:1028A0001F4F102F0027C8014096F4D0C801419651
:1028B0006F2DF0D01F910F91FF900895FF920F930D
:1028C0001F93F62E672F082F10E00C5F1F4F102F5D
:1028D0000027C8010496DED0C80105966F2DDAD016
:1028E0001F910F91FF900895FF920F931F93CF9325
:1028F000DF93082FF62EEA01122F862F81508530A4
:1029000010F080E020C0802FB6DF1F2980E0902FDC
:102910009C5F612FBFD0209719F0802FBE010BC0A4
:102920006091C40A7091C50A6F5F7F4F7093C50AAA
:102930006093C40A802FC2DF86EC9AE0602F41E0EA
:1029400050E078D281E0DF91CF911F910F91FF90FD
:1029500008951F93CF93DF93182FFB01EA01808125
:10296000882349F48181882331F48281882319F4F2
:102970008381882381F0209771F0912F80E0845F1C
:102980009B4FBF0144E050E09FD0812FBE0180DF0C
:1029900021E030E002C020E030E0C901DF91CF91BA
:1029A0001F910895AF92BF92DF92EF92FF920F9323
:1029B0001F93CF93DF93D82EEB015A01890186EC48
:1029C0009AE06D2D77D18017910710F0780105C03E
:1029D00086EC9AE06D2D6ED17C0186EC9AE06D2D2F
:1029E000AE0195018701B7D0C701DF91CF911F914B
:1029F0000F91FF90EF90DF90BF90AF9008950F93ED
:102A0000282FAB0186EC9AE0622F21E030E001E054
:102A1000CBD181E090E00F910895CF92DF92FF92A9
:102A20000F931F93CF93DF93F82E6B018A0186ECEF
:102A30009AE06F2D10D1EC01009761F49F2D80E09A
:102A40008D5F9B4F68D08431C9F08823B9F08C31F9
:102A5000A9F01DC0081719070CF4E8011C161D0683
:102A60006CF486EC9AE06F2DA6019E0100E09CD1EB
:102A700086EC9AE06F2D40E450E0DCD1CE01DF918E
:102A8000CF911F910F91FF90DF90CF900895CFEFDE
:102A9000DFEFF4CF282F2C9880EF8EBD0DB407FE0A
:102AA000FDCF8EB59EBD0DB407FEFDCF8EB52EBDFC
:102AB0000DB407FEFDCF8EB56EBD0DB407FEFDCF84
:102AC0008EB52C9A81E00895DC0120E030E090EF93
:102AD0001DC02C989EBD0DB407FEFDCF8EB5BEBDAA
:102AE0000DB407FEFDCF8EB5AEBD0DB407FEFDCF14
:102AF0008EB5FB01E20FF31F80818EBD0DB407FE82
:102B0000FDCF11968EB52C9A2F5F3F4F24173507B6
:102B100000F3CA010895282F2C988FE08EBD0DB4C4
:102B200007FEFDCF8EB59EBD0DB407FEFDCF8EB561
:102B30002EBD0DB407FEFDCF8EB51EBC0DB407FE35
:102B4000FDCF8EB52C9A089590E00496982F882793
:102B5000860F971FE0CF7F928F929F92AF92BF9286
:102B6000CF92DF92EF92FF920F931F93CF93DF9359
:102B70006C01762E7A0149015801862F64E270E0DB
:102B8000E3DF182F872D65E270E0DEDFC82FD0E08D
:102B9000912F80E0C82BD92BCE0DDF1DAE015770D1
:102BA000872D90E0880F991FC80ED91EF60120814D
:102BB0003181240F351FCA018A0D9B1D8150984019
:102BC00090F000E018E0041B150BC901B401A80146
:102BD0007BDFA501401B510BF60180819181080D1F
:102BE000191DB80103C0C901B401A5016DDF7E0143
:102BF000EA0CFB1C072D10E00C5F1F4F102F002765
:102C0000C80184966F2D46DFC80185966E2D42DF80
:102C1000DF91CF911F910F91FF90EF90DF90CF90B8
:102C2000BF90AF909F908F907F9008950F931F93C8
:102C3000182F66E270E088DF082F812F67E270E0CE
:102C400083DF502F40E0282F30E0242B352BC901A3
:102C50001F910F910895FF920F931F93CF93DF93CE
:102C6000F62EC0E0D0E08F2DE1DF8C01009719F047
:102C70008F2DDCDFEC01C017D107A9F7CE01DF9162
:102C8000CF911F910F91FF9008950F931F93182FCD
:102C900060E270E059DF082F812F61E270E054DFBD
:102CA000502F40E0282F30E0242B352BC9011F91F5
:102CB0000F910895FF920F931F93CF93DF93F62EFA
:102CC000C0E0D0E08F2DE1DF8C01009719F08F2D4F
:102CD000DCDFEC01C017D107A9F7CE01DF91CF915E
:102CE0001F910F91FF900895DC0120E030E09FE0FC
:102CF0001DC02C989EBD0DB407FEFDCF8EB5BEBD88
:102D00000DB407FEFDCF8EB5AEBD0DB407FEFDCFF1
:102D10008EB51EBC0DB407FEFDCF11968EB5FB011E
:102D2000E20FF31F80832C9A2F5F3F4F2417350744
:102D300000F3CA010895CF92DF92EF92FF920F93B2
:102D40001F93CF93DF93690178015770C62FD0E0AE
:102D50002496CC0FDD1FC80FD91F28813981240F7D
:102D6000351FC801840F951F8150984080F000E006
:102D700018E0041B150BC901B601A801B5DFE01A64
:102D8000F10A888199810C0D1D1DB80102C0C9018D
:102D9000B601A701A9DFDF91CF911F910F91FF909D
:102DA000EF90DF90CF9008958F929F92AF92BF9255
:102DB000CF92DF92EF92FF920F931F93CF93DF9307
:102DC0007C01A62E6A014901B02E862F68E270E0D0
:102DD000BBDE182F8A2D69E270E0B6DEC82FD0E086
:102DE000912F80E0C82BD92BC7016A2DAE01960127
:102DF0008401A1DFBB2089F47E01E80CF91C0A2DB7
:102E000010E00C5F1F4F102F0027C80188966F2D10
:102E100041DEC80189966E2D3DDEDF91CF911F9175
:102E20000F91FF90EF90DF90CF90BF90AF909F9069
:102E30008F9008951F93162F962F80E08F5F9B4FE2
:102E4000642F28DE812F61E070E07EDE8823D1F7D9
:102E50001F9108950F931F93182F092F6CE271E0B3
:102E600080E090E07FD20E94880D249A80E090E07C
:102E700060E810DE8BE190E065E50CDE8AE190E031
:102E800065E508DE212F302FC901FC0180E090E4C8
:102E9000918380838050904E9187808780509841A5
:102EA000329620E68030920799F71F910F9108958E
:102EB000883008F078C0E82FF0E0EE0FFF1FEA52EC
:102EC000F54F718360838330D9F0843030F48130E2
:102ED00009F444C0823060F439C0853051F1853046
:102EE000D8F0863009F446C0873009F05CC04FC086
:102EF000809169008C7F842B80936900E89A089503
:102F000080916900440F551F440F551F837F842B08
:102F100080936900E99A08958091690074E0440FF4
:102F2000551F7A95E1F78F7C842B80936900EA9A8C
:102F300008958091690066E0440F551F6A95E1F796
:102F40008F73842B80936900EB9A089580916A00B7
:102F50008C7F842B80936A00EC9A089580916A009C
:102F6000440F551F440F551F837F842B80936A00A5
:102F7000ED9A089580916A0024E0440F551F2A9528
:102F8000E1F78F7C842B80936A00EE9A08958091FC
:102F90006A0096E0440F551F9A95E1F78F73842BD2
:102FA00080936A00EF9A08951F920F920FB60F92C6
:102FB0000BB60F9211242F933F934F935F936F9310
:102FC0007F938F939F93AF93BF93EF93FF938091E2
:102FD000DA0A9091DB0A892B29F0E091DA0AF09164
:102FE000DB0A1995FF91EF91BF91AF919F918F915E
:102FF0007F916F915F914F913F912F910F900BBEF9
:103000000F900FBE0F901F9018951F920F920FB642
:103010000F920BB60F9211242F933F934F935F9310
:103020006F937F938F939F93AF93BF93EF93FF9390
:103030008091DC0A9091DD0A892B29F0E091DC0A6D
:10304000F091DD0A1995FF91EF91BF91AF919F919A
:103050008F917F916F915F914F913F912F910F9041
:103060000BBE0F900FBE0F901F9018951F920F92DE
:103070000FB60F920BB60F9211242F933F934F93DD
:103080005F936F937F938F939F93AF93BF93EF93D0
:10309000FF938091DE0A9091DF0A892B29F0E0915D
:1030A000DE0AF091DF0A1995FF91EF91BF91AF9180
:1030B0009F918F917F916F915F914F913F912F9150
:1030C0000F900BBE0F900FBE0F901F9018951F9280
:1030D0000F920FB60F920BB60F9211242F933F93BE
:1030E0004F935F936F937F938F939F93AF93BF9310
:1030F000EF93FF938091E00A9091E10A892B29F0E8
:10310000E091E00AF091E10A1995FF91EF91BF91EA
:10311000AF919F918F917F916F915F914F913F916F
:103120002F910F900BBE0F900FBE0F901F90189510
:103130001F920F920FB60F920BB60F9211242F937E
:103140003F934F935F936F937F938F939F93AF932F
:10315000BF93EF93FF938091D60A9091D70A892B62
:1031600029F0E091D60AF091D70A1995FF91EF91D5
:10317000BF91AF919F918F917F916F915F914F918F
:103180003F912F910F900BBE0F900FBE0F901F908D
:1031900018951F920F920FB60F920BB60F92112433
:1031A0002F933F934F935F936F937F938F939F934F
:1031B000AF93BF93EF93FF938091D80A9091D90A70
:1031C000892B29F0E091D80AF091D90A1995FF913D
:1031D000EF91BF91AF919F918F917F916F915F918F
:1031E0004F913F912F910F900BBE0F900FBE0F90FC
:1031F0001F9018951F920F920FB60F920BB60F9259
:1032000011242F933F934F935F936F937F938F93EB
:103210009F93AF93BF93EF93FF938091E20A9091B6
:10322000E30A892B29F0E091E20AF091E30A19956B
:10323000FF91EF91BF91AF919F918F917F916F918E
:103240005F914F913F912F910F900BBE0F900FBE4A
:103250000F901F9018951F920F920FB60F920BB6FA
:103260000F9211242F933F934F935F936F937F930C
:103270008F939F93AF93BF93EF93FF938091E40A53
:103280009091E50A892B29F0E091E40AF091E50A92
:103290001995FF91EF91BF91AF919F918F917F9180
:1032A0006F915F914F913F912F910F900BBE0F90B7
:1032B0000FBE0F901F9018951F920F920FB60F928E
:1032C00011242F933F938F939F93AF93BF9380913C
:1032D000EA0A9091EB0AA091EC0AB091ED0A3091C4
:1032E000EE0A0196A11DB11D232F2D5F2D3720F071
:1032F0002D570196A11DB11D2093EE0A8093EA0A75
:103300009093EB0AA093EC0AB093ED0A8091E60A41
:103310009091E70AA091E80AB091E90A0196A11DEF
:10332000B11D8093E60A9093E70AA093E80AB09350
:10333000E90ABF91AF919F918F913F912F910F908B
:103340000FBE0F901F9018958FB7F8942091EA0A3E
:103350003091EB0A4091EC0A5091ED0A8FBFB90110
:10336000CA0108959B01AC017FB7F8948091E60AE9
:103370009091E70AA091E80AB091E90A66B5A89B86
:1033800005C06F3F19F00196A11DB11D7FBFBA2F77
:10339000A92F982F8827860F911DA11DB11D62E0CE
:1033A000880F991FAA1FBB1F6A95D1F7BC012DC0BA
:1033B000FFB7F8948091E60A9091E70AA091E80A95
:1033C000B091E90AE6B5A89B05C0EF3F19F0019658
:1033D000A11DB11DFFBFBA2FA92F982F88278E0FCF
:1033E000911DA11DB11DE2E0880F991FAA1FBB1FEF
:1033F000EA95D1F7861B970B885E9340C8F221505F
:1034000030404040504068517C4F21153105410506
:10341000510571F60895789484B5826084BD84B5B1
:10342000816084BD85B5826085BD85B5816085BDBF
:10343000EEE6F0E0808181608083E1E8F0E01082D8
:10344000808182608083808181608083E0E8F0E019
:10345000808181608083E1EBF0E080818460808303
:10346000E0EBF0E0808181608083E1E9F0E0808141
:1034700082608083808181608083E0E9F0E08081E8
:1034800081608083E1EAF0E08081826080838081D6
:1034900081608083E0EAF0E0808181608083E1E206
:1034A000F1E0808182608083808181608083E0E2BE
:1034B000F1E0808181608083EAE7F0E080818460D0
:1034C000808380818260808380818160808380812D
:1034D000806880831092C1000895382F863308F0E9
:1034E000365320917B00832F86958695869590E0B4
:1034F0008170907043E0880F991F4A95E1F7277F0C
:10350000282B20937B003770809125028295880FAD
:10351000880F807C832B80937C0080917A0080646C
:1035200080937A0080917A0086FDFCCF209178000C
:1035300040917900942F80E030E0282B392BC9018D
:103540000895CF93DF93482F50E0CA0188589E4FCB
:10355000FC0134914E5C5E4FFA018491882369F13D
:1035600090E0880F991FFC01EC51FF4FA591B49199
:10357000FC01E250FF4FC591D491662351F42FB75F
:10358000F8948C91932F909589238C93888189232B
:103590000BC0623061F42FB7F8948C91932F909503
:1035A00089238C938881832B88832FBF06C09FB784
:1035B000F8948C91832B8C939FBFDF91CF910895CA
:1035C000893009F449C08A30A0F4843051F1853043
:1035D00040F4823079F1833000F5813009F063C026
:1035E00026C0873079F1883098F5863009F05BC0C5
:1035F00025C08D3009F442C08E3028F48B30B1F1F3
:103600008C30C0F52DC0803109F442C0813109F4FD
:1036100045C08F3009F047C037C0809180008F7758
:1036200003C0809180008F7D80938000089584B5D1
:103630008F7702C084B58F7D84BD08958091B000DE
:103640008F7703C08091B0008F7D8093B000089584
:10365000809190008F7707C0809190008F7D03C08C
:1036600080919000877F8093900008958091A000C2
:103670008F7707C08091A0008F7D03C08091A0004C
:10368000877F8093A0000895809120018F7703C0E9
:10369000809120018F7D80932001089580912001E9
:1036A000877F809320010895FF920F931F93F62E3A
:1036B000482F50E0CA0182549E4FFC012491CA0158
:1036C00088589E4FFC0114914E5C5E4FFA010491A4
:1036D0000023C1F0222311F0822F72DFE02FF0E0EF
:1036E000EE0FFF1FE250FF4FA591B4919FB7F894E2
:1036F000FF2021F48C911095812302C08C91812BA5
:103700008C939FBF1F910F91FF9008950F931F936C
:10371000482F50E0CA0182549E4FFC012491CA01F7
:1037200088589E4FFC0104914E5C5E4FFA01149143
:10373000112319F420E030E014C0222311F0822F6D
:103740003FDF812F90E0880F991F885E9E4FFC011C
:10375000A591B4918C9120E030E0802311F021E01C
:1037600030E0C9011F910F91089508951F920F92A3
:103770000FB60F920BB60F9211242F933F934F93D6
:103780008F939F93EF93FF938091C00082FD1DC0A4
:103790004091C60020912F0B3091300B2F5F3F4F8F
:1037A0002F7330708091310B9091320B28173907AD
:1037B00071F0E0912F0BF091300BE151F54F408308
:1037C0003093300B20932F0B02C08091C600FF91E5
:1037D000EF919F918F914F913F912F910F900BBE41
:1037E0000F900FBE0F901F90189508951F920F9283
:1037F0000FB60F920BB60F9211242F933F934F9356
:103800008F939F93EF93FF938091C80082FD1DC01B
:103810004091CE002091B70B3091B80B2F5F3F4FF6
:103820002F7330708091B90B9091BA0B281739071C
:1038300071F0E091B70BF091B80BE958F44F408369
:103840003093B80B2093B70B02C08091CE00FF914C
:10385000EF919F918F914F913F912F910F900BBEC0
:103860000F900FBE0F901F90189508951F920F9202
:103870000FB60F920BB60F9211242F933F934F93D5
:103880008F939F93EF93FF938091D00082FD1DC093
:103890004091D60020913F0C3091400C2F5F3F4F5C
:1038A0002F7330708091410C9091420C281739078A
:1038B00071F0E0913F0CF091400CE150F44F4083E7
:1038C0003093400C20933F0C02C08091D600FF91B2
:1038D000EF919F918F914F913F912F910F900BBE40
:1038E0000F900FBE0F901F90189508951F920F9282
:1038F0000FB60F920BB60F9211242F933F934F9355
:103900008F939F93EF93FF938091300182FD1DC0B1
:10391000409136012091C70C3091C80C2F5F3F4F6A
:103920002F7330708091C90C9091CA0C28173907F9
:1039300071F0E091C70CF091C80CE957F34F408348
:103940003093C80C2093C70C02C080913601FF91C0
:10395000EF919F918F914F913F912F910F900BBEBF
:103960000F900FBE0F901F901895E0911B0DF091D6
:103970001C0DE05CFF4F8191919120813181821B70
:10398000930B8F739070892B09F0EFDEE0913D0D62
:10399000F0913E0DE05CFF4F81919191208131814A
:1039A000821B930B8F739070892B09F01EDFE091BF
:1039B0005F0DF091600DE05CFF4F8191919120814E
:1039C0003181821B930B8F739070892B09F04DDF2F
:1039D000E091810DF091820DE05CFF4F819191911A
:1039E00020813181821B930B8F739070892B09F09A
:1039F0007CCF08951F920F920FB60F920BB60F92C5
:103A000011242F933F938F939F93EF93FF932091D4
:103A1000730B3091740B8091750B9091760B281776
:103A2000390731F48091C1008F7D8093C10014C0AB
:103A3000E091750BF091760BED5CF44F2081809155
:103A4000750B9091760B01968F7390709093760B17
:103A50008093750B2093C600FF91EF919F918F91FA
:103A60003F912F910F900BBE0F900FBE0F901F90A4
:103A700018951F920F920FB60F920BB60F9211244A
:103A80002F933F938F939F93EF93FF932091FB0B83
:103A90003091FC0B8091FD0B9091FE0B281739079C
:103AA00031F48091C9008F7D8093C90014C0E091EA
:103AB000FD0BF091FE0BE554F44F20818091FD0B3E
:103AC0009091FE0B01968F7390709093FE0B8093F4
:103AD000FD0B2093CE00FF91EF919F918F913F912D
:103AE0002F910F900BBE0F900FBE0F901F90189547
:103AF0001F920F920FB60F920BB60F9211242F93B5
:103B00003F938F939F93EF93FF932091830C30917A
:103B1000840C8091850C9091860C2817390731F41C
:103B20008091D1008F7D8093D10014C0E091850CED
:103B3000F091860CED5BF34F20818091850C909184
:103B4000860C01968F7390709093860C8093850CF1
:103B50002093D600FF91EF919F918F913F912F91EC
:103B60000F900BBE0F900FBE0F901F9018951F92D5
:103B70000F920FB60F920BB60F9211242F933F9313
:103B80008F939F93EF93FF9320910B0D30910C0D2A
:103B900080910D0D90910E0D2817390731F4809109
:103BA00031018F7D8093310114C0E0910D0DF091B2
:103BB0000E0DE553F34F208180910D0D90910E0D68
:103BC00001968F73907090930E0D80930D0D20933E
:103BD0003601FF91EF919F918F913F912F910F901F
:103BE0000BBE0F900FBE0F901F901895AF92BF9213
:103BF000DF92EF92FF920F931F93CF93DF93EC012D
:103C00007A018B01DD24403081EE580780E068079F
:103C100080E0780711F0DD24D39491E0A92EB12C37
:103C2000EC89FD89DD2069F0C50108A002C0880F7C
:103C3000991F0A94E2F7808360E079E08DE390E0D9
:103C400005C0108260E874E88EE190E0A801970159
:103C50008CD521503040404050405695479537957F
:103C6000279580E12030380720F0DD2011F0DD2499
:103C7000D7CFE889F9893083EA89FB89208319A2A3
:103C8000EE89FF89408121E030E0C9010C8C02C03F
:103C9000880F991F0A94E2F7482B4083EE89FF8929
:103CA0004081C9010D8C02C0880F991F0A94E2F768
:103CB000482B4083EE89FF894081C9010E8C02C0E8
:103CC000880F991F0A94E2F7482B4083EE89FF89F9
:103CD00080810F8C02C0220F331F0A94E2F72095D7
:103CE00028232083DF91CF911F910F91FF90EF90B8
:103CF000DF90BF90AF900895DC011C96ED91FC9190
:103D00001D97E05CFF4F2191319180819181281BAB
:103D1000390B2F733070C9010895DC011C96ED91A9
:103D2000FC911D97E05CFF4F20813181E054F04011
:103D3000DF01AE5BBF4F8D919C911197281739071A
:103D400019F42FEF3FEF07C08D919C91E80FF91FF9
:103D50008081282F30E0C9010895DC011C96ED9187
:103D6000FC911D97E05CFF4F20813181E054F040D1
:103D7000DF01AE5BBF4F8D919C91119728173907DA
:103D800019F42FEF3FEF10C08D919C911197E80F20
:103D9000F91F20818D919C91119701968F739070DE
:103DA00011969C938E9330E0C9010895DC019196A1
:103DB0008C919197882339F05496ED91FC91559709
:103DC000808186FFF9CF91961C920895CF93DF935F
:103DD000EC01EE85FF85E05CFF4F20813181E054EE
:103DE000F0402F5F3F4F2F733070DF01AE5BBF4F4E
:103DF0008D919C91119728173907D1F3E05CFF4F03
:103E000080819181E054F040E80FF91F6083EE85D6
:103E1000FF85E05CFF4F31832083EE89FF8920819D
:103E200081E090E00F8C02C0880F991F0A94E2F79E
:103E3000282B208381E089A3EC89FD89808180641F
:103E4000808381E090E0DF91CF9108951F931092DD
:103E5000120D1092110D28EE33E040E050E0209357
:103E6000130D3093140D4093150D5093160D6EE401
:103E700072E07093100D60930F0D8FEE9AE09093A7
:103E80001C0D80931B0D83E39BE090931E0D80938C
:103E90001D0D85EC90E09093200D80931F0D84EC18
:103EA00090E09093220D8093210D80EC90E0909310
:103EB000240D8093230D81EC90E09093260D809348
:103EC000250D82EC90E09093280D8093270D86ECD1
:103ED00090E090932A0D8093290D14E010932B0D00
:103EE000B3E0B0932C0DA7E0A0932D0DF5E0F09377
:103EF0002E0DE1E0E0932F0D1092340D1092330D52
:103F00002093350D3093360D4093370D5093380D77
:103F10007093320D6093310D87E79BE090933E0DD7
:103F200080933D0D8BEB9BE09093400D80933F0D74
:103F30008DEC90E09093420D8093410D8CEC90E0DD
:103F40009093440D8093430D88EC90E09093460D40
:103F50008093450D89EC90E09093480D8093470D38
:103F60008AEC90E090934A0D8093490D8EEC90E09E
:103F700090934C0D80934B0D10934D0DB0934E0DBF
:103F8000A0934F0DF093500DE093510D1092560DEC
:103F90001092550D2093570D3093580D4093590DA5
:103FA00050935A0D7093540D6093530D8FEF9BE017
:103FB0009093600D80935F0D83E49CE09093620D7D
:103FC0008093610D85ED90E09093640D8093630D77
:103FD00084ED90E09093660D8093650D80ED90E008
:103FE0009093680D8093670D81ED90E090936A0D3A
:103FF0008093690D82ED90E090936C0D80936B0D32
:1040000086ED90E090936E0D80936D0D10936F0D83
:10401000B093700DA093710DF093720DE093730D3A
:104020001092780D1092770D2093790D30937A0DC0
:1040300040937B0D50937C0D7093760D6093750DBE
:1040400087E89CE09093820D8093810D8BEC9CE03F
:104050009093840D8093830D85E391E09093860D7A
:104060008093850D84E391E09093880D8093870D74
:1040700080E391E090938A0D8093890D81E391E034
:1040800090938C0D80938B0D82E391E090938E0D35
:1040900080938D0D86E391E09093900D80938F0D2A
:1040A0001093910DB093920DA093930DF093940DF6
:1040B000E093950D1F9108950F93FC018EE592E01A
:1040C0009183808362834383248305830F910895C2
:1040D0008EE592E09093980D8093970D1092990D34
:1040E00010929A0D10929B0D10929C0D08958F9234
:1040F0009F92AF92BF92CF92DF92EF92FF920F9377
:104100001F93CF93DF934C016B017C01AA24BB2446
:10411000C0E0D0E0C601F70162814AE050E006D17C
:104120008C01C6016EE270D0080F191FA00EB11EDF
:1041300021960894E11CF11CC330D10559F7C60142
:10414000F40165814AE050E0F1D09501280F391F54
:10415000C901DF91CF911F910F91FF90EF90DF90F8
:10416000CF90BF90AF909F908F9008959C01FB01DE
:1041700080819181A281B381F90182839383A48399
:10418000B583C9010895FC018EE592E09183808397
:1041900012821382148215820895CF93DF933BD944
:1041A0000E947E09C5EBDCE10E944F0D2097E1F3F0
:1041B000DCDBFACFCF92DF92EF92FF920F931F9347
:1041C000CF93DF937C016B018A01C0E0D0E00FC088
:1041D000D6016D916D01D701ED91FC910190F081B7
:1041E000E02DC7011995C80FD91F015010400115C6
:1041F000110571F7CE01DF91CF911F910F91FF90C3
:10420000EF90DF90CF900895DC01ED91FC9101904B
:10421000F081E02D19950895CF93DF93EC0161159E
:10422000710519F420E030E00FC0DB010D90002093
:10423000E9F71197A61BB70BE881F9810280F3819A
:10424000E02DAD0119959C01C901DF91CF91089531
:104250004F925F927F928F929F92AF92BF92CF9236
:10426000DF92EF92FF920F931F93DF93CF93CDB71F
:10427000DEB7A1970FB6F894DEBF0FBECDBF2C01FD
:10428000742ECB01223008F42AE019A231E2C32EA9
:10429000D12CCC0EDD1E822E9924AA24BB24672D9E
:1042A000752FA501940161D279018A01C801B70176
:1042B000A50194013BD2472D461B0894C108D108A3
:1042C0004A3014F4405D01C0495CF6014083E114BA
:1042D000F1040105110521F07E2C5F2DC801DFCF0F
:1042E000C201B60199DFA1960FB6F894DEBF0FBEEA
:1042F000CDBFCF91DF911F910F91FF90EF90DF9095
:10430000CF90BF90AF909F908F907F905F904F9095
:104310000895DC012115310541F4ED91FC910190E6
:10432000F081E02D642F1995089592CFEF92FF92BE
:104330000F931F939A01E62EFF2400E010E0B801CE
:10434000A701E7DF1F910F91FF90EF90089550585C
:10435000BB27AA270ED04DC13ED130F043D120F06B
:1043600031F49F3F11F41EF433C10EF4E095E7FBE6
:1043700029C1E92F4FD180F3BA1762077307840769
:10438000950718F071F49EF567C10EF4E0950B2EB9
:10439000BA2FA02D0B01B90190010C01CA01A00197
:1043A0001124FF27591B99F0593F50F4503E68F1F2
:1043B0001A16F040A22F232F342F4427585FF3CF33
:1043C000469537952795A795F0405395C9F77EF404
:1043D0001F16BA0B620B730B840BBAF09150A1F04D
:1043E000FF0FBB1F661F771F881FC2F70EC0BA0FD3
:1043F000621F731F841F48F4879577956795B7955B
:10440000F7959E3F08F0B3CF9395880F08F0992752
:10441000EE0F9795879508950CD0EBC0E3D040F050
:10442000DAD030F021F45F3F19F0CCC0511115C142
:10443000CFC0F0D098F39923C9F35523B1F3951B5E
:10444000550BBB27AA2762177307840738F09F5FB5
:104450005F4F220F331F441FAA1FA9F333D00E2E24
:104460003AF0E0E830D091505040E695001CCAF791
:1044700029D0FE2F27D0660F771F881FBB1F261756
:1044800037074807AB07B0E809F0BB0B802DBF0129
:10449000FF2793585F4F2AF09E3F510568F092C066
:1044A000DCC05F3FECF3983EDCF38695779567952B
:1044B000B795F7959F5FC9F7880F911D96958795DA
:1044C00097F90895E1E0660F771F881FBB1F6217F9
:1044D00073078407BA0720F0621B730B840BBA0BB7
:1044E000EE1F88F7E095089504D06894B111B5C027
:1044F000089598D088F09F5790F0B92F9927B75119
:10450000A0F0D1F0660F771F881F991F1AF0BA9597
:10451000C9F712C0B13081F09FD0B1E008959CC0BE
:10452000672F782F8827B85F39F0B93FCCF386958D
:1045300077956795B395D9F73EF4909580957095EA
:1045400061957F4F8F4F9F4F0895E89409C097FB67
:104550003EF490958095709561957F4F8F4F9F4F5A
:104560009923A9F0F92F96E9BB279395F69587959E
:1045700077956795B795F111F8CFFAF4BB0F11F461
:1045800060FF1BC06F5F7F4F8F4F9F4F16C0882308
:1045900011F096E911C0772321F09EE8872F762F3E
:1045A00005C0662371F096E8862F70E060E02AF07F
:1045B0009A95660F771F881FDAF7880F969587956B
:1045C00097F9089597F99F6780E870E060E0089593
:1045D0009FEF80EC089500240A941616170618061B
:1045E0000906089500240A941216130614060506F7
:1045F0000895092E0394000C11F4882352F0BB0F88
:1046000040F4BF2B11F460FF04C06F5F7F4F8F4FEA
:104610009F4F089557FD9058440F551F59F05F3F25
:1046200071F04795880F97FB991F61F09F3F79F0D4
:1046300087950895121613061406551FF2CF469556
:10464000F1DF08C0161617061806991FF1CF8695D8
:104650007105610508940895E894BB2766277727BC
:10466000CB0197F908950BD0C4CFB5DF28F0BADF9E
:1046700018F0952309F0A6CFABCF1124EECFCADFF7
:10468000A0F3959FD1F3950F50E0551F629FF00165
:10469000729FBB27F00DB11D639FAA27F00DB11DBE
:1046A000AA1F649F6627B00DA11D661F829F222747
:1046B000B00DA11D621F739FB00DA11D621F839FCE
:1046C000A00D611D221F749F3327A00D611D231FA4
:1046D000849F600D211D822F762F6A2F11249F57F2
:1046E00050408AF0E1F088234AF0EE0FFF1FBB1F15
:1046F000661F771F881F91505040A9F79E3F5105B4
:1047000070F060CFAACF5F3FECF3983EDCF3869564
:1047100077956795B795F795E7959F5FC1F7FE2B5E
:10472000880F911D9695879597F90895629FD001FE
:10473000739FF001829FE00DF11D649FE00DF11D5C
:10474000929FF00D839FF00D749FF00D659FF00D0B
:104750009927729FB00DE11DF91F639FB00DE11DF8
:10476000F91FBD01CF0111240895A1E21A2EAA1B41
:10477000BB1BFD010DC0AA1FBB1FEE1FFF1FA21711
:10478000B307E407F50720F0A21BB30BE40BF50B0E
:10479000661F771F881F991F1A9469F76095709597
:1047A000809590959B01AC01BD01CF010895EE0F5E
:0E47B000FF1F0590F491E02D1994F894FFCFAF
:1047BE00DEADBEEFFE76A25406000600E8030D0045
:1047CE0011001C0012001A00130008000000003F28
:1047DE000A0100FF0F010000000031121E132D12FE
:1047EE00A21266124912D713C3133B135713381371
:1047FE00CC12801210121812291200000000E61EB0
:10480E00DA207C1EAD1E8D1ED61E00000000772005
:00000001FF
