:100000000AC100000C94F0170C9421180C9452189B
:100010000C9483180C94B4180C94E5180C941619CD
:100020000C94471925C1000023C1000021C1000024
:100030001FC100001DC100001BC1000019C100004C
:1000400017C1000015C1000013C1000011C100005C
:1000500010C100000DC100000BC100000C94781904
:1000600007C100000C94D21B0C94161D01C10000A6
:10007000FFC00000FDC00000FBC00000F9C0000090
:10008000F7C00000F5C00000F3C000006DC1000023
:100090000C94121C0C94551DEBC00000E9C000002C
:1000A000E7C00000E5C00000E3C00000E1C00000C0
:1000B000DFC00000DDC00000DBC00000D9C00000D0
:1000C000D7C00000D5C00000D3C000000C94521C63
:1000D0000C94941DCDC000000C94921C0C94D31D64
:1000E000C7C0000000002100240027002A002D00C6
:1000F0003000330001010000040107010A01000083
:100100002200250028002B002E00310034000201BF
:100110000000050108010B0100002000230026005B
:1001200029002C002F00320000010000030106010D
:10013000090105050505070508080808020202026D
:100140000A0A080804040404010101010101010173
:100150000303030303030303040707070C0C0C0C3E
:100160000C0C0C0C02020202060606060606060627
:100170000B0B0B0B0B0B0B0B0102102020080810B4
:100180002040102040800201020108040201010207
:1001900004081020408080402010080402018004E0
:1001A000020180402010080402010804020101023B
:1001B0000408102040800102040810204080000044
:1001C000090A02080B0C0D070603040100000000D9
:1001D000000000000000000000000000000000001F
:1001E0000000000000000000000011100F000000DF
:1001F00000000000000000000000000000000000FF
:10020000000000001407BA0D1C0EC31016122112B4
:100210007712421F842011241FBECFEFD1E2DEBF30
:10022000CDBF00E00CBF12E0A0E0B2E0EEE1F8E4E8
:1002300000E00BBF02C007900D92AA35B107D9F7B5
:100240001BBE1BE0AAE5B2E001C01D92A83CB107AD
:10025000E1F712E0C6E1D2E004C02297FE010E945D
:100260000924C430D107C9F70E94E9200C940D2459
:10027000C7CE1F920F920FB60F9211242F933F9368
:100280004F935F938F939F938091F2029091F3022B
:1002900090938500809384002091EE023091EF02CC
:1002A0002F5F3F4F3093EF022093EE024091F00218
:1002B0005091F1024F5F5F4F5093F1024093F00273
:1002C0008091F8028F5F8093F8029091F9029F5F0E
:1002D0009093F9028B3F18F08AEF8093F8029B3FCE
:1002E00018F08AEF8093F902285E334060F081E0D5
:1002F0008093F6021092EF021092EE0280912B048E
:100300008F5F80932B044436510538F081E0809351
:10031000F7021092F1021092F00280912B048C33BC
:1003200018F08CE380932B0480912B048C3388F09D
:1003300020916904213069F480912E0490912F045A
:10034000019690932F0480932E0410922B042093F7
:1003500097049F918F915F914F913F912F910F90B3
:100360000FBE0F901F9018951F920F920FB60F920D
:1003700011248F939F938091F4029091F5029093B2
:100380009500809394008091AE088F5F8093AE08B3
:100390008A3008F474C01092AE088091A9088130A8
:1003A000A9F49091AF088091B008891778F08091F6
:1003B000AC08813059F49F5F9093AF088093A808F0
:1003C00080910B01886080930B010BC080910B0121
:1003D000877F80930B011092AF081092A8081092AB
:1003E000AC088091AC08882389F49091B3089F5F92
:1003F0009093B30880910B01877F80930B01903518
:1004000028F01092B30881E08093AC088091AB088B
:100410008130A9F49091B1088091B208891778F0E1
:100420008091AD08813059F49F5F9093B10880931B
:10043000AA0880910B01826080930B010BC0809110
:100440000B018D7F80930B011092B1081092AA08C6
:100450001092AD088091AD08882389F49091B4087A
:100460009F5F9093B40880910B018D7F80930B0167
:10047000903528F01092B40881E08093AD089F91E8
:100480008F910F900FBE0F901F90189520E834E8C1
:100490004EE150E00E94B22320E432E44FE050E00D
:1004A0000E94E523309521953F4F3093F30220932E
:1004B000F2021092800082E080938100EFE6F0E08B
:1004C000808181608083309385002093840008952B
:1004D00020E834E84EE150E00E94B22320E432E408
:1004E0004FE050E00E94E523309521953F4F309337
:1004F000F5022093F4021092900082E08093910024
:10050000E1E7F0E080818160808330939500209363
:1005100094000895EF92FF920F931F938091AD0284
:10052000882381F09091F80280911A02891750F483
:100530001092AD021092B1021092B0021092AB0272
:100540001092A9028091AE02882381F09091F90265
:1005500080911A02891750F41092AE021092B302E1
:100560001092B2021092AC021092AA028091F8028C
:10057000893C38F48091B0029091B102892B71F0DE
:100580004FC01092B1021092B0021092AB021092C2
:10059000A90280912C048E7F80932C048091AC0260
:1005A0002091B2023091B302813049F48827992713
:1005B000821B930B9093B9028093B80204C03093CE
:1005C000B9022093B8028091AA028130B9F46091F7
:1005D000B8027091B902882777FD8095982F0E9404
:1005E000C32223E333E34BE451E40E944F230E94F0
:1005F00090227093B9026093B80212C08091B80241
:100600009091B9029C0143E0220F331F4A95E1F714
:10061000880F991F280F391F3093B9022093B80211
:100620008091F902893C38F48091B2029091B30232
:10063000892B71F04FC01092B3021092B202109247
:10064000AC021092AA0280912C048D7F80932C041E
:100650008091AB022091B0023091B102813049F417
:1006600088279927821B930B9093B9028093B80235
:1006700004C03093B9022093B8028091A90281305E
:10068000B9F46091B8027091B902882777FD80951E
:10069000982F0E94C32223E333E34BE451E40E94EA
:1006A0004F230E9490227093B9026093B80212C047
:1006B0008091B8029091B9029C0113E0220F331F80
:1006C0001A95E1F7880F991F280F391F3093B90247
:1006D0002093B80280912C048370833009F0D1C03C
:1006E0002091B0023091B1022115310509F4C9C041
:1006F0004091B2025091B3024115510509F4C1C0B5
:100700008091AB02813049F488279927821B930B93
:100710009093BB028093BA0204C03093BB02209333
:10072000BA028091AC02813049F488279927841B52
:10073000950B9093BD028093BC0204C05093BD0200
:100740004093BC028091A902813009F04FC0809192
:10075000AA02813009F08FC06091BA027091BB0289
:10076000882777FD8095982F0E94C32223E333E3E7
:100770004BE451E40E944F2355C06091BA0270913E
:10078000BB02882777FD8095982F0E94C32223E320
:1007900033E34BE451E40E944F237B018C01209111
:1007A000BC023091BD02B901A3E0660F771FAA9584
:1007B000E1F7220F331F620F731F882777FD8095A3
:1007C000982F0E94C3229B01AC01C801B7010E946F
:1007D000C42120E030E040E05FE30E944F230E940C
:1007E00090227093B9026093B8024BC0882309F03D
:1007F00048C08091AA02813009F041C02091BA021C
:100800003091BB02B901E3E0660F771FEA95E1F78B
:10081000220F331F620F731F882777FD8095982F53
:100820000E94C3227B018C016091BC027091BD02C9
:10083000882777FD8095982F0E94C32223E333E316
:100840004BE451E40E944F23BECF8091BC029091B3
:10085000BD022091BA023091BB02820F931F9C010E
:10086000220F331F220F331F280F391F3093B90275
:100870002093B80206C0882309F47FCF02C08823E2
:1008800021F31F910F91FF90EF9008959F92AF92E7
:10089000BF92CF92DF92EF92FF920F931F93CF936D
:1008A000DF93982EA92EB62E4F5F282F392FC9011E
:1008B000EC01EE2460E070E0FF24C42EDD2422C0B1
:1008C000A881B981892D9A2D9C01F90130E020E0A1
:1008D0008D010C191D09A6014A0F5B1F0BC08081F9
:1008E00091810817190720F48417950708F43F5FD2
:1008F0002F5F32962B1598F3E31610F4E32EBD010B
:10090000F3942296FB14E0F2CB01DF91CF911F917B
:100910000F91FF90EF90DF90CF90BF90AF909F909E
:1009200008958F929F92AF92BF92DF92EF92FF92C3
:100930000F931F93CF93DF9390916904913009F047
:10094000EEC1D0909B04AD2CBB24F501EE0FFF1F30
:10095000EE0FFF1FE25CFB4F0190F081E02DD5010F
:10096000AA0FBB1F309709F04CC0AA0FBB1FA05C99
:10097000BB4F2D913C912115310509F496C1809111
:100980009904882369F410922F0410922E04109277
:100990002B049093990480912C04806280932C0402
:1009A00080912E0490912F048217930708F4B7C109
:1009B00010922F0410922E0410922B04109299047E
:1009C000D394D0929B041092950410929604809137
:1009D0002C041092A3041092A20410929F0410926F
:1009E0009E041092A1041092A004109298048F7C8F
:1009F00080932C048FEF9FE090931E0280931D0242
:100A00008EC1AA0FBB1FA05CBB4F2D913C9121153D
:100A1000310509F44AC180919504882351F4F0937B
:100A20009D04E0939C043093A5042093A404909328
:100A30009504C0918502D091860200919C0410918A
:100A40009D04E6EF8E2EEFEF9E2E800E911E8C16EB
:100A50009D0638F181E08093A9088091A808882339
:100A600039F50C171D0711F460E013C0C8018C1B89
:100A70009D0B6AE070E00E94D12380E090E00E942C
:100A8000C12220E030E040E05FE30E94C4210E94E8
:100A900090226093B0086A3058F48AE08093B008DE
:100AA00007C080910B01877F80930B011092A908EA
:100AB0007FE0E72EF12CE00EF11ECE15DF0538F1B8
:100AC00081E08093AB088091AA08882339F5C0178C
:100AD000D10711F460E013C0CE01801B910B6AE0D6
:100AE00070E00E94D12380E090E00E94C12220E0CB
:100AF00030E040E05FE30E94C4210E9490226093B6
:100B0000B2086A3058F48AE08093B20807C0809136
:100B10000B018D7F80930B011092AB08C815D9058E
:100B200008F4BFC0EC16FD0608F4BBC08091960423
:100B3000882309F06FC18091A6049091A7048C527C
:100B4000914048F110922F0410922E0410922B0421
:100B50001092980480912C048F7E91E090939704DA
:100B600090939604806280932C041092A7041092B4
:100B7000A6041092A3041092A20410929F04109253
:100B80009E041092A1041092A0048FEF9FE0909316
:100B90001E0280931D028091A6049091A7040196E5
:100BA0009093A7048093A60435C1853691050CF077
:100BB00078C0D5011196FD01EE0FFF1FEE0FFF1F4C
:100BC000E25CFB4F80819181892BD9F5AA0FBB1F75
:100BD000AA0FBB1FA05CBB4F8D919C91892B89F5FF
:100BE0001092690490912C041092950410922F0495
:100BF00010922E0410922B041092A9081092AB08A8
:100C000081E080939A0410929904109296041092B5
:100C100098049F7890932C041092A3041092A2043D
:100C200010929F0410929E041092A1041092A004AE
:100C30008FEF9FE090931E0280931D0210929B0401
:100C400026C0109295041092960480912C04D3949F
:100C5000D0929B041092A3041092A20410929F04BD
:100C600010929E041092A1041092A0041092980475
:100C70008F7C80932C048FEF9FE090931E028093D3
:100C80001D0210922F0410922E0410922B048091BA
:100C90000B01877F80930B0180910B018D7F8093E7
:100CA0000B0180919B048B30D0F1109269049091DC
:100CB0002C041092950410922F0410922E0410927E
:100CC0002B041092A9081092AB0881E080939A043B
:100CD0001092990410929604109298049F78909321
:100CE0002C041092A3041092A20410929F0410925C
:100CF0009E041092A1041092A0048FEF9FE09093A5
:100D00001E0280931D0210929B0480910B01877F2D
:100D100080930B0180910B018D7F80930B0190914B
:100D20002C04892F96FD06C010922F0410922E04D9
:100D300010922B0485FD06C010922F0410922E04F1
:100D400010922B0480919B048A30C0F110926904A8
:100D50001092950410922F0410922E0410922B04DE
:100D60001092A9081092AB0881E080939A04109227
:100D7000990410929604109298049F7890932C04F2
:100D80001092A3041092A20410929F0410929E0449
:100D90001092A1041092A0048FEF9FE090931E0286
:100DA00080931D0210929B0480910B01877F80939A
:100DB0000B0180910B018D7F80930B0180919A0430
:100DC0008130B9F480910B01877F80930B01809172
:100DD0000B01826080930B018091850290918602C5
:100DE000409738F410929A0480910B018D7F809384
:100DF0000B0180919B048F5F80932D04DF91CF9135
:100E00001F910F91FF90EF90DF90BF90AF909F9058
:100E10008F90089580911D0290911E022FEF8C39C2
:100E200092070CF0C2CE3DCF0F9385EB98E060E0C7
:100E300040E020E000E00E9478208AE592E060EC4B
:100E400048EA20E000EB0E94782080E692E060EC27
:100E500048EA20E00FEF0E94782086E692E00E94A8
:100E60005E130F910895AF92BF92CF92DF92EF92EF
:100E7000FF920F931F93CF93DF938091AF02C82F00
:100E8000D0E0809114020E94891ACC0FDD1FC75751
:100E9000DD4F998388838091AF028F5F8F7080933D
:100EA000AF0289E892E060E141E0F0DC2091340497
:100EB0003091350482179307C0F0821B930BBC015D
:100EC00080E090E00E94C12220913A0430913B04DE
:100ED00040913C0450913D040E944F230E94952272
:100EE000709388026093870204C010928802109267
:100EF0008702A0901602B0901702C0901802D090FE
:100F0000190260E070E080E89FE3A60195010E946D
:100F1000C3217B018C01609185027091860280E083
:100F200090E00E94C1229B01AC01C801B7010E9460
:100F30004F237B018C01609187027091880280E0D1
:100F400090E00E94C1229B01AC01C601B5010E9444
:100F50004F239B01AC01C801B7010E94C4210E942C
:100F6000952270938602609385021092F702DF91BA
:100F7000CF911F910F91FF90EF90DF90CF90BF9096
:100F8000AF9008951092F90280912C0482608093B2
:100F90002C048091AE028431D0F4809110020E9422
:100FA000A21B892B81F521E030E00090AE0202C047
:100FB000220F331F0A94E2F78091B4029091B50298
:100FC000822B932B9093B5028093B4021CC0843182
:100FD00059F4809110020E94A21B1092AC02892B3E
:100FE00019F481E08093AC028091AE02873159F40C
:100FF000809110020E94A21B1092AA02892B19F460
:1010000081E08093AA028091AE028F5F8093AE024E
:10101000883170F08091B4029091B5029093B30240
:101020008093B2021092AE021092B5021092B402F6
:1010300008951092F80280912C04816080932C0412
:101040008091AD028431D0F480910C020E94A21BE9
:10105000892B81F521E030E00090AD0202C0220F23
:10106000331F0A94E2F78091B6029091B702822B67
:10107000932B9093B7028093B6021CC0843159F42D
:1010800080910C020E94A21B1092AB02892B19F4D2
:1010900081E08093AB028091AD02873159F4809159
:1010A0000C020E94A21B1092A902892B19F481E064
:1010B0008093A9028091AD028F5F8093AD02883149
:1010C00070F08091B6029091B7029093B102809334
:1010D000B0021092AD021092B7021092B6020895BB
:1010E000DF93CF9300D000D0CDB7DEB780911B0344
:1010F000E82FF0E0EE0FFF1FE650FD4F80818130BA
:1011000009F02DC19181913071F482E88093200320
:1011100010922103109222039093230381E4809381
:10112000240386E0BBC09230C1F481E880932003A1
:10113000109221031092220383E080932303809175
:1011400027048093240380912504809325038091B4
:1011500026048093260388E0A1C0933009F05EC086
:1011600085E880932003109221031092220383E1EB
:10117000809323038091A902809324038091AB0282
:10118000809325038091B0029091B1028093260351
:10119000909327038091AA02809328038091AC0248
:1011A000809329038091B2029091B30280932A0325
:1011B00090932B038091B8029091B90280932C03F5
:1011C000892F990F990B80932D0380911D02909187
:1011D0001E0280932E03892F990F990B80932F0362
:1011E0008091850290918602809330039093310321
:1011F00080912E0490912F048093320390933303B7
:1012000080912B048093340380912D0480933503C7
:1012100080912C048093360388E140C0943009F01B
:101220003FC083E880932003109221031092220391
:1012300080916604482F50E0440F551F440F551FFE
:10124000409323038EE394E090936B0480936A04AD
:1012500010922A041092290411C0E0916A04F091BE
:101260006B04819116968C93F0936B04E0936A045F
:101270002F5F3F4F30932A042093290420912904A3
:1012800030912A04D901A25EBC4F241735072CF3F4
:1012900080912C0416968C93822F8A5F80931D0375
:1012A00088E592E09A83898380916202909163023B
:1012B000A0916402B09165028B839C83AD83BE8351
:1012C000409106025091070286E692E0BE016F5FF0
:1012D0007F4F0E94571310922A04109229041092F3
:1012E0001C031CC0A230B1054CF0FD01E25EFC4FB6
:1012F00080911C039081890F80931C03A25EBC4FD8
:1013000086E692E06C910E944D12809129049091A2
:101310002A04019690932A0480932904A091290419
:10132000B0912A0480911D0390E08A179B07D4F6A0
:1013300086E692E060911C030E944D1286E692E0E0
:101340000E94541380911B03E82FF0E0EE0FFF1F63
:10135000E650FD4F10828F5F8F7080931B0326969F
:101360000FB6F894DEBF0FBECDBFCF91DF910895C9
:10137000DF93CF9300D000D0CDB7DEB780910C02C1
:1013800061E00E94701B80910E0261E00E94701B60
:1013900080910C0260E00E94BD1A80910E0260E014
:1013A0000E94BD1A8091100261E00E94701B809122
:1013B000120261E00E94701B8091100260E00E94A6
:1013C000BD1A8091120260E00E94BD1A85E069E1B9
:1013D00078E042E050E00E94741784E062EC77E02D
:1013E00042E050E00E94741768EE73E080E090E005
:1013F0004DD868EE73E080E090E06AD880910802F2
:1014000061E00E94BD1A80910A0260E00E94BD1A4C
:101410008EE261E00E94BD1A80E361E00E94BD1A85
:1014200085E361E00E94BD1A88E592E09A83898392
:1014300080915C0290915D02A0915E02B0915F028A
:101440008B839C83AD83BE838FEC98E060E072E079
:10145000AE014F5F5F4FB3D76091060270910702F4
:1014600086E692E00E94F3138AE39BE040E855E2AF
:1014700060E070E00E94121E64EF71E080E090E096
:101480000E94CE1983E980931E038AE680931F038E
:1014900010922003109221031092220326960FB679
:1014A000F894DEBF0FBECDBFCF91DF91089580913C
:1014B0009E0490919F046091B8027091B902FC0162
:1014C000EE0FFF1FE855FB4F71836083E091A0048E
:1014D000F091A1048E1B9F0B91709093A3048093B5
:1014E000A2042091A4043091A5048217930768F107
:1014F000EE0FFF1FE855FB4F80819181681B790B30
:1015000070931E0260931D028AE39BE00E94021FFB
:1015100060911D0270911E02672F770F770B8AE38F
:101520009BE00E94021F8091A0049091A10401966B
:1015300091709093A1048093A00481E0809398041B
:1015400080912C04806180932C0480919E04909162
:101550009F040196917090939F0480939E04089538
:101560004F925F926F927F928F929F92AF92BF92B3
:10157000CF92DF92EF92FF920F931F93CF93DF935F
:1015800086E692E00E94E8126C01009709F492C28C
:1015900086E692E06EEB72E040E350E0CDD7109229
:1015A0002A04109229041092220410921E04109210
:1015B000210452E0F52EEE24E3944EE3A42E44E001
:1015C000B42E3FEF832E3FE0932E24E0622E90EC6A
:1015D000592E88EA482E77247A9459C2E254FD4F56
:1015E00090819093200420911E042230A1F48091D8
:1015F0002104813009F054C290931F0410922204F8
:101600001092670408C09093250405C090932604A7
:1016100002C0909328049A3621F4213011F4F092FC
:101620001E0480911E04813011F410921E0493391F
:1016300031F480911E04882311F4E0921E0420915D
:101640001F04213009F0C4C080912104882309F4CB
:101650007DC1813009F414C1853019F49093680478
:1016600075C1863009F072C180912204891709F092
:101670006DC1809168048134F9F410921E041092B7
:101680002104109224041092230480911A03E82F5D
:10169000F0E0EE0FFF1FE650FD4F2083F1828F5FD9
:1016A0008F7080931A0350926202409263021092EC
:1016B0006402709265024AC18234D9F410921E0409
:1016C000109221041092240480911A03E82FF0E074
:1016D000EE0FFF1FE650FD4F2083F1828F5F8F706A
:1016E000E82FF0E0EE0FFF1FE650FD4F20836182F0
:1016F000B8C08334F1F410921E04109221041092A9
:10170000240480911A03E82FF0E0EE0FFF1FE6504B
:10171000FD4F2083F1828F5F8F7080931A03209397
:10172000690410922B0480912C04806480932C0413
:101730000DC1843409F00AC110921E0410922104D4
:101740001092240480911A03E82FF0E0EE0FFF1F9F
:10175000E650FD4FE082F1828F5F8F7080931A0315
:101760001092690480912C041092950410922F0419
:1017700010922E0410922B041092A9081092AB081C
:10178000E0929A0410929904109296041092980490
:101790008F7880932C041092A3041092A2041092CC
:1017A0009F0410929E041092A1041092A0049092A3
:1017B0001E0280921D0210929B0480910B01877F74
:1017C00080930B0180910B018D7F80930B01BEC034
:1017D000223009F04BC080912104882309F4B6C05F
:1017E000813009F44DC0853019F490938102AEC068
:1017F000863019F490938202A9C0873019F490932F
:101800008302A4C0883019F4909384029FC0893069
:1018100009F09CC080912204891709F097C0E092DA
:10182000230410921E04109221041092240480912B
:101830008102809362028091820280936302809190
:101840008302809364028091840280936502809178
:101850001A03E82FF0E0EE0FFF1FE650FD4FE08285
:10186000F1828F5F8F7080931A0370C0233009F06C
:101870006DC080912104882309F468C0813019F477
:101880008093240463C0853008F460C0209167040D
:10189000E22FF0E0E459FB4F9083809122048917F6
:1018A00009F04FC080912804281709F04AC0B0926F
:1018B0006B04A0926A0410922A04109229041AC0A0
:1018C000E0916A04F0916B04A459BB4F8C91808322
:1018D00080916A0490916B04019690936B048093BD
:1018E0006A048091290490912A04019690932A0415
:1018F00080932904A0912904B0912A04809128049E
:1019000090E0A817B907E4F28091670490E09595FC
:101910008795959587958093660410921E04109282
:1019200021041092240480911A03E82FF0E0EE0FB6
:10193000FF1FE650FD4FE082F1828F5F8F70809332
:101940001A03809167048F5F8093670480911F045E
:10195000843009F071C080912104882309F46CC09F
:10196000813019F48093240467C0853039F4809164
:10197000200480933004109231045EC0863039F424
:1019800080912004809332041092330455C0873034
:1019900039F48091200480933604109237044CC0AF
:1019A000883039F4809120048093380410923904EF
:1019B00043C0893009F040C09091220480912004F6
:1019C0009817D1F51091320400E0609130047091C5
:1019D0003104602B712B70931C0260931B02D09119
:1019E0003804C0E020913604309137042C2B3D2B75
:1019F000309335042093340480E090E00E94C122AB
:101A000020E030E44CE156E40E94282260933A043E
:101A100070933B0480933C0490933D0480911A039F
:101A2000E82FF0E0EE0FFF1FE650FD4FE082F1825D
:101A30008F5F8F7080931A0320912104222339F045
:101A40008091220490912004890F80932204809138
:101A50001E04823051F4213041F480912404882303
:101A600021F410921E041092210480911E048230F1
:101A700028F0809121048F5F8093210480912904B4
:101A800090912A04019690932A0480932904E0916E
:101A90002904F0912A04EC15FD050CF49FCD0AC031
:101AA000823009F4B0CD833009F4B0CD843009F030
:101AB000B2CDAFCDDF91CF911F910F91FF90EF90FD
:101AC000DF90CF90BF90AF909F908F907F906F905E
:101AD0005F904F9008950E948A0242DD0E94910417
:101AE000FFDA8091F702813009F4BDD98091F602C6
:101AF000882311F11092F60290912304992359F44E
:101B000080911A03E82FF0E0EE0FFF1FE650FD4F23
:101B100091E090830CC0913079F480911A03E82F02
:101B2000F0E0EE0FFF1FE650FD4F908393E09183AE
:101B30008F5F8F7080931A0380919704882319F028
:101B400010929704B4CC089585E361E00E94701B65
:101B500085E361E00E94BD1A8CB580618CBD8CB5B7
:101B600080648CBD84E361E00E94BD1A83E361E080
:101B70000C94BD1A0F938BEB98E060E040E020E0FE
:101B800000E00E9478200F9108959C01FB01828162
:101B90009381A481B581F90182839383A483B58362
:101BA000178216820895CF93DF93FB0101C031960F
:101BB00080818823E1F7EB01A0E0B0E020E030E095
:101BC00021C06E3261F42F3F310509F07CF5FA0136
:101BD000EA0FFB1F2283119620E030E012C0C901FA
:101BE000E3E0880F991FEA95E1F7220F331F820F78
:101BF000931F262F332727FD309520533040280F81
:101C0000391F21966881662319F0A430B105CCF202
:101C10002F3F310509F054F4A430B1053CF4A40F72
:101C2000B51F12962C9321E030E002C020E030E096
:101C3000C901DF91CF9108950F9381EC98E060E0A6
:101C400040E020E000E00E9478200F9108952F925C
:101C50003F924F925F926F927F928F929F92AF923C
:101C6000BF92CF92DF92EF92FF920F931F93DF9379
:101C7000CF93CDB7DEB769970FB6F894DEBF0FBE2E
:101C8000CDBF4C018B011A010E94C0192B013C01F0
:101C9000F8E0EF2EF12CE80CF91C5801CC24DD24DF
:101CA00014C00E94C0196419750986099709A616FF
:101CB000B706C806D90618F42FEF3FEFF8C062E365
:101CC00070E080E090E00E94CE19C70181D4181620
:101CD00019063CF7F4012281338144815581818DBD
:101CE000928DA38DB48D8A879B87AC87BD8728177B
:101CF00039074A075B0709F0D8C0858D968DC597CF
:101D000009F0D3C0EEC08E01025F1F4FC701B801BA
:101D10004CE050E011D4F801528143815B834A8347
:101D2000F401268137818E859F852817390711F4A4
:101D300057FD05C0C701C9D32CEF3FEFB8C04F70A6
:101D40005270452B29F0C701C0D32BEF3FEFAFC036
:101D5000F801768067806114710441F0AA24BB24E5
:101D600048012E010894411C511C24C0C701ADD369
:101D70002AEF3FEF9CC0C701B20141E050E0DCD345
:101D80008981882319F407C0C701F8D3898181505C
:101D900089838F5FC9F78981882369F700E010E0A4
:101DA000C701ECD30F5F1F4F04301105C9F708942A
:101DB000A11CB11CF401D480C580AC14BD04D8F2C0
:101DC00044245524C701BE016F5F7F4F41E050E0BE
:101DD000B3D39981892F807C59F4992319F40BC0CE
:101DE000C701CCD38981815089838F5FC9F703C034
:101DF000C701C4D319828981882321F7C701BE0195
:101E00006C5F7F4F42E050E097D3C701BE016A5F2D
:101E10007F4F42E050E090D300E010E0C701AED326
:101E20000F5F1F4F04301105C9F7C701BE016E5F78
:101E30007F4F42E050E080D3DC80CD80F1E0CF16D0
:101E4000D10401F5BE80AF8081E0A816B104D1F4C1
:101E50009A818B81049729F0C70137D327EF3FEF91
:101E600026C0E2E0F0E02E0E3F1EC701B10144E0C3
:101E700050E062D321E030E01AC0C7017FD30F5F8A
:101E80001F4F02C000E010E09A808B8008151905F2
:101E9000A0F30894411C511C4614570408F492CF37
:101EA000C70113D326EF3FEF02C02EEF3FEFC9016A
:101EB00069960FB6F894DEBF0FBECDBFCF91DF910C
:101EC0001F910F91FF90EF90DF90CF90BF90AF9058
:101ED0009F908F907F906F905F904F903F902F904A
:101EE000089588E592E099878887C701D2D20C9738
:101EF0000CF009CF2DEF3FEFDACF6F927F928F92E8
:101F00009F92AF92BF92CF92DF92EF92FF920F9388
:101F10001F93DF93CF9300D0CDB7DEB78C01F62EA1
:101F2000E72E0E94C019F80177836683B8E0CB2EB4
:101F3000D12CC00ED11E0A5F1F4FC601B80142E06E
:101F400050E098D381E090E09B838A83A2E08A2EC0
:101F5000912C8C0E9D1EC601B40142E050E08AD344
:101F600080E091E09B838A83C601B40142E050E0A7
:101F700081D31B821A82C601B40142E050E07AD3B9
:101F8000C601B40142E050E075D3C601B40142E09D
:101F900050E070D32F2D3E2DC9018C017C013E01F4
:101FA0000894611C711C1EC00894E11CF11CF7010F
:101FB0008081882311F08E32B9F75701A01AB10A37
:101FC0001A141B0464F48E2D801B8983C601B3018F
:101FD00041E050E04FD3C601B801A5014BD38701C2
:101FE0000F5F1F4FF7018081882311F07801DFCF49
:101FF0001982C601BE016F5F7F4F41E050E03AD3C6
:1020000000E011E01B830A83C601B40142E050E006
:1020100031D31B830A83C601B40142E050E02AD3C6
:1020200081E090E00F900F900F90CF91DF911F9182
:102030000F91FF90EF90DF90CF90BF90AF909F9067
:102040008F907F906F9008958F929F92AF92BF92E2
:10205000CF92DF92EF92FF920F931F93DF93CF9374
:1020600000D000D0CDB7DEB76C017B014A019BDD0B
:10207000892B19F001E010E061C0F6012281338163
:10208000448155818091C3089091C408A091C508EE
:10209000B091C608281739074A075B0719F40EEFF5
:1020A0001FEF4CC018E0A12EB12CAC0CBD1C0E943F
:1020B000C0199B01AC012F70307020503C4FC501FE
:1020C000B90191D3813019F000E010E037C088E504
:1020D00092E09A838983F60182819381A481B581FC
:1020E0008B839C83AD83BE83C501BE016F5F7F4F31
:1020F00045E350E0DCD28C010097F1F0C601B70156
:10210000FCDE8C010097C1F0C501CED28C01009796
:1021100099F0EE24FF24C60168E873E1A40197DD7D
:102120008C010894E11CF11CF3E0EF16F10421F09E
:102130008FEF0F3F180779F3C50141D3C8012696E9
:102140000FB6F894DEBF0FBECDBFCF91DF911F91C8
:102150000F91FF90EF90DF90CF90BF90AF909F9046
:102160008F900895DB01FC0128E532E03183208364
:1021700012962D913D914D915C9115972283338359
:102180004483558308950F9387ED98E060E040E025
:1021900020E000E00E9478208FEC98E00E94DF2091
:1021A0000F9108956F927F928F929F92AF92BF92FC
:1021B000CF92DF92EF92FF920F931F933C015B014E
:1021C0006A01490181EF98E061D689E090E0B501AC
:1021D00046E050E095D482E090E0C80ED91E8FE032
:1021E00090E0B60144E050E08BD40E5F1F4F81E0D9
:1021F00090E0B80144E050E083D4E2E0F0E0EE0E7D
:10220000FF1E85E090E0B70144E050E079D4F4018E
:1022100082819381A481B581F30182839383A48316
:10222000B5831F910F91FF90EF90DF90CF90BF90FB
:10223000AF909F908F907F906F9008956F927F9254
:102240008F929F92AF92BF92CF92DF92EF92FF92C6
:102250000F931F93DF93CF93CDB7DEB76E970FB673
:10226000F894DEBF0FBECDBF4C013B017A0169017E
:102270005801CE0101966FEF4FEF2FEF00E00E9463
:10228000782028E532E038872F83F7018281938117
:10229000A481B58189879A87AB87BC873E872D87C4
:1022A000F60182819381A481B5818F87988BA98B58
:1022B000BA8B3C8B2B8BF50182819381A481B581F4
:1022C0008D8B9E8BAF8BB88F3A8F298F8B819C81A2
:1022D000AD81BE818B8F9C8FAD8FBE8FC401B3014A
:1022E000AE01495F5F4F9E01235F3F4F8E010D5E40
:1022F0001F4FE9E1EE2EF12CEC0EFD1E53DF6E9622
:102300000FB6F894DEBF0FBECDBFCF91DF911F9106
:102310000F91FF90EF90DF90CF90BF90AF909F9084
:102320008F907F906F9008950F931F93DF93CF93BB
:10233000CDB7DEB768970FB6F894DEBF0FBECDBF3E
:10234000FA01D90122813381448155812B833C8359
:102350004D835E83E8E5F2E0F887EF8329873A87CB
:102360004B875C87FE87ED8712962D913D914D91AD
:102370005C9115972F87388B498B5A8BFC8BEB8B95
:1023800021E02E832B813C814D815E812D8B3E8B04
:102390004F8B588FAE01495F5F4F9E01235F3F4FC8
:1023A0008E010D5E1F4F4ADF68960FB6F894DEBFB0
:1023B0000FBECDBFCF91DF911F910F910895DF9395
:1023C000CF93CDB7DEB762970FB6F894DEBF0FBEDE
:1023D000CDBFFA0122813381448155812B833C8317
:1023E0004D835E83E8E5F2E0F887EF8329873A873B
:1023F0004B875C87FE87ED8721E02E832B813C8114
:102400004D815E812F87388B498B5A8BAE01495F96
:102410005F4F9E01235F3F4F87DF62960FB6F894B0
:10242000DEBF0FBECDBFCF91DF9108950F938DED2D
:1024300098E060E040E020E000E00E9478200F910A
:1024400008950F9383EE98E060E040E020E000E024
:102450000E9478200F910895DC01ED91FC91008C91
:10246000F18DE02D19950895DB01FC0128E532E09E
:102470003183208351962D913D914D915C915497DC
:1024800022833383448355830895FC01858996898B
:102490000895FC01818D928D0895DF93CF930F9263
:1024A000CDB7DEB7FC016983A081B18112962D9171
:1024B0003C911397BE016F5F7F4F41E050E0F901FF
:1024C00019950F90CF91DF910895CF93DF93EC0191
:1024D00007C0E881F9810680F781E02DCE011995CA
:1024E000898D9A8D892BA9F7DF91CF9108950F934C
:1024F00089EE98E060E040E020E000E00E94782073
:102500000F910895DF93CF930F92CDB7DEB7FC0103
:10251000818D928D892B19F42FEF3FEF08C08485B0
:10252000BE016F5F7F4F87D28981282F30E0C901BC
:102530000F90CF91DF910895CF93DF93EC019A0133
:10254000498D5A8D4115510599F02417350710F022
:102550008C8502C08C85A9017CD29C0118161906B5
:102560003CF4898D9A8D821B930B9A8F898F02C0C0
:102570002FEF3FEFC901DF91CF9108950F931F9384
:10258000DF93CF930F92CDB7DEB78C01FC01818D25
:10259000928D892BA1F08485BE016F5F7F4F41E052
:1025A00050E057D21816190654F4F801818D928D17
:1025B0000197928F818F8981282F30E002C02FEF01
:1025C0003FEFC9010F90CF91DF911F910F910895B7
:1025D000EF92FF920F931F93DF93CF93CDB7DEB7A8
:1025E00028970FB6F894DEBF0FBECDBF8C01DC017B
:1025F000ED91FC910284F385E02D199581EF98E02F
:10260000F801648544D3892B19F420E030E024C01C
:10261000D8011C968C917E010894E11CF11CB70135
:1026200048E050E016D29C0118161906ACF4C80117
:102630000F96B7010E94D2209D8180E02E81820FEB
:10264000911DF801968B858B9F8180E02885820FF4
:10265000911D928F818F9C01C90128960FB6F89425
:10266000DEBF0FBECDBFCF91DF911F910F91FF90C5
:10267000EF9008950F931F938C01FB019A01DC01E9
:1026800057966D917C9158971C968C91AF01A6D16D
:102690009C01F8018789908D820F931F908F878B03
:1026A000C9011F910F910895FC018485E1C0FC01CF
:1026B000108E178A6E5F7F4F848567C1FC0113827D
:1026C000128288EE93E0A0E0B0E084839583A68335
:1026D000B78384E292E09183808384E08487CF0192
:1026E0000F960C94DF206F927F928F929F92AF9201
:1026F000BF92CF92DF92EF92FF920F931F93DF93DF
:10270000CF93CDB7DEB7E5970FB6F894DEBF0FBE17
:10271000CDBF4C015B013A0183E1E82EF12CEC0EB8
:10272000FD1EC7010E94DF20CE014B96C7DF6E0160
:102730000894C11CD11CC6010E94DF208E01095FD4
:102740001F4FC8016FEC78E00DDDC701B8011DDA3D
:10275000C701B501A60178DC9C0181309105C9F45F
:10276000D401ED91FC910088F189E02D88E592E09B
:102770009E878D878B819C81AD81BE818F87988B51
:10278000A98BBA8BC401BE01635F7F4FA30119956A
:102790009C01C901E5960FB6F894DEBF0FBECDBF10
:1027A000CF91DF911F910F91FF90EF90DF90CF902D
:1027B000BF90AF909F908F907F906F900895CF9330
:1027C000DF93EC018C85843059F071D0EC85F0E01A
:1027D000EE0FFF1FE953F74F1182108284E08C87C0
:1027E000DF91CF910895CF92DF92EF92FF920F93F6
:1027F0001F93CF93DF937C016B01FC0184858430B0
:1028000009F5C0E0D0E003E014E0C801A0D18823BE
:1028100011F0883119F4F701C48706C021960050E1
:102820001F4FC430D10589F7F7018485843051F0FA
:10283000D686C586128E118E62E0A60120E070D089
:1028400081E001C080E0DF91CF911F910F91FF9057
:10285000EF90DF90CF90089590E0982F88278E5FBB
:102860009B4F75C190E0982F88278E5F9B4F2EC19C
:102870001F93182F81EF98E0612F40E250E0F6D2CD
:102880000AC0812FE9DF83FF06C0812F68E1EADFFC
:1028900020E030E009C0812FDFDF84FFF2CF812FFD
:1028A00060E1E0DF21E030E0C9011F9108951F934E
:1028B000182F81EF98E0612F40E150E0D7D2812FAF
:1028C0006FEFD0DF1F910895FF920F931F93F62EA5
:1028D000672F082F10E00C5F1F4F102F0027C80133
:1028E0004096F4D0C80141966F2DF0D01F910F9102
:1028F000FF900895FF920F931F93F62E672F082FD6
:1029000010E00C5F1F4F102F0027C8010496DED087
:10291000C80105966F2DDAD01F910F91FF90089591
:10292000FF920F931F93CF93DF93082FF62EEA01A8
:10293000122F862F8150853010F080E020C0802F2C
:10294000B6DF1F2980E0902F9C5F612FBFD02097BA
:1029500019F0802FBE010BC06091EF087091F00854
:102960006F5F7F4F7093F0086093EF08802FC2DF96
:1029700081EF98E0602F41E050E078D281E0DF9174
:10298000CF911F910F91FF9008951F93CF93DF93E5
:10299000182FFB01EA018081882349F48181882373
:1029A00031F48281882319F48381882381F0209770
:1029B00071F0912F80E0845F9B4FBF0144E050E0B5
:1029C0009FD0812FBE0180DF21E030E002C020E0F7
:1029D00030E0C901DF91CF911F910895AF92BF926E
:1029E000DF92EF92FF920F931F93CF93DF93D82E36
:1029F000EB015A01890181EF98E06D2D77D18017A5
:102A0000910710F0780105C081EF98E06D2D6ED12F
:102A10007C0181EF98E06D2DAE0195018701B7D063
:102A2000C701DF91CF911F910F91FF90EF90DF9041
:102A3000BF90AF9008950F93282FAB0181EF98E0DE
:102A4000622F21E030E001E0CBD181E090E00F91F6
:102A50000895CF92DF92FF920F931F93CF93DF934E
:102A6000F82E6B018A0181EF98E06F2D10D1EC01F7
:102A7000009761F49F2D80E08D5F9B4F68D084317B
:102A8000C9F08823B9F08C31A9F01DC008171907C7
:102A90000CF4E8011C161D066CF481EF98E06F2D14
:102AA000A6019E0100E09CD181EF98E06F2D40E4EB
:102AB00050E0DCD1CE01DF91CF911F910F91FF90BB
:102AC000DF90CF900895CFEFDFEFF4CF282F2C9831
:102AD00080EF8EBD0DB407FEFDCF8EB59EBD0DB44B
:102AE00007FEFDCF8EB52EBD0DB407FEFDCF8EB512
:102AF0006EBD0DB407FEFDCF8EB52C9A81E0089512
:102B0000DC0120E030E090EF1DC02C989EBD0DB49C
:102B100007FEFDCF8EB5BEBD0DB407FEFDCF8EB551
:102B2000AEBD0DB407FEFDCF8EB5FB01E20FF31F66
:102B300080818EBD0DB407FEFDCF11968EB52C9A07
:102B40002F5F3F4F2417350700F3CA010895282F40
:102B50002C988FE08EBD0DB407FEFDCF8EB59EBDC7
:102B60000DB407FEFDCF8EB52EBD0DB407FEFDCF13
:102B70008EB51EBC0DB407FEFDCF8EB52C9A089500
:102B800090E00496982F8827860F971FE0CF7F92BA
:102B90008F929F92AF92BF92CF92DF92EF92FF926D
:102BA0000F931F93CF93DF936C01762E7A01490127
:102BB0005801862F64E270E0E3DF182F872D65E26D
:102BC00070E0DEDFC82FD0E0912F80E0C82BD92B3A
:102BD000CE0DDF1DAE015770872D90E0880F991F35
:102BE000C80ED91EF60120813181240F351FCA017C
:102BF0008A0D9B1D8150984090F000E018E0041B66
:102C0000150BC901B401A8017BDFA501401B510BC5
:102C1000F60180819181080D191DB80103C0C90119
:102C2000B401A5016DDF7E01EA0CFB1C072D10E04D
:102C30000C5F1F4F102F0027C80184966F2D46DFB1
:102C4000C80185966E2D42DFDF91CF911F910F91C4
:102C5000FF90EF90DF90CF90BF90AF909F908F90BC
:102C60007F9008950F931F93182F66E270E088DF1E
:102C7000082F812F67E270E083DF502F40E0282F7C
:102C800030E0242B352BC9011F910F910895FF923D
:102C90000F931F93CF93DF93F62EC0E0D0E08F2DDC
:102CA000E1DF8C01009719F08F2DDCDFEC01C017FC
:102CB000D107A9F7CE01DF91CF911F910F91FF901E
:102CC00008950F931F93182F60E270E059DF082FCB
:102CD000812F61E270E054DF502F40E0282F30E078
:102CE000242B352BC9011F910F910895FF920F934B
:102CF0001F93CF93DF93F62EC0E0D0E08F2DE1DF5E
:102D00008C01009719F08F2DDCDFEC01C017D10783
:102D1000A9F7CE01DF91CF911F910F91FF900895F8
:102D2000DC0120E030E09FE01DC02C989EBD0DB47A
:102D300007FEFDCF8EB5BEBD0DB407FEFDCF8EB52F
:102D4000AEBD0DB407FEFDCF8EB51EBC0DB407FEA3
:102D5000FDCF11968EB5FB01E20FF31F80832C9AF5
:102D60002F5F3F4F2417350700F3CA010895CF9214
:102D7000DF92EF92FF920F931F93CF93DF9369013E
:102D800078015770C62FD0E02496CC0FDD1FC80FF6
:102D9000D91F28813981240F351FC801840F951F41
:102DA0008150984080F000E018E0041B150BC90129
:102DB000B601A801B5DFE01AF10A888199810C0DEE
:102DC0001D1DB80102C0C901B601A701A9DFDF912D
:102DD000CF911F910F91FF90EF90DF90CF900895CA
:102DE0008F929F92AF92BF92CF92DF92EF92FF921B
:102DF0000F931F93CF93DF937C01A62E6A014901A5
:102E0000B02E862F68E270E0BBDE182F8A2D69E2B3
:102E100070E0B6DEC82FD0E0912F80E0C82BD92B10
:102E2000C7016A2DAE0196018401A1DFBB2089F4A0
:102E30007E01E80CF91C0A2D10E00C5F1F4F102FCB
:102E40000027C80188966F2D41DEC80189966E2D36
:102E50003DDEDF91CF911F910F91FF90EF90DF90BA
:102E6000CF90BF90AF909F908F9008951F93162F93
:102E7000962F80E08F5F9B4F642F28DE812F61E0CB
:102E800070E07EDE8823D1F71F9108950F931F9382
:102E9000182F092F6CE271E080E090E07FD20E9451
:102EA000A40D249A80E090E060E810DE8BE190E0D1
:102EB00065E50CDE8AE190E065E508DE212F302F24
:102EC000C901FC0180E090E4918380838050904EA2
:102ED0009187808780509841329620E68030920713
:102EE00099F71F910F910895883008F078C0E82F66
:102EF000F0E0EE0FFF1FEF5FF64F718360838330CA
:102F0000D9F0843030F4813009F444C0823060F468
:102F100039C0853051F18530D8F0863009F446C08B
:102F2000873009F05CC04FC0809169008C7F842B92
:102F300080936900E89A089580916900440F551FB5
:102F4000440F551F837F842B80936900E99A08956D
:102F50008091690074E0440F551F7A95E1F78F7CEA
:102F6000842B80936900EA9A08958091690066E055
:102F7000440F551F6A95E1F78F73842B8093690086
:102F8000EB9A089580916A008C7F842B80936A006D
:102F9000EC9A089580916A00440F551F440F551F05
:102FA000837F842B80936A00ED9A089580916A0054
:102FB00024E0440F551F2A95E1F78F7C842B8093E2
:102FC0006A00EE9A089580916A0096E0440F551FBA
:102FD0009A95E1F78F73842B80936A00EF9A089596
:102FE0001F920F920FB60F920BB60F9211242F93D0
:102FF0003F934F935F936F937F938F939F93AF9381
:10300000BF93EF93FF938091050990910609892B57
:1030100029F0E0910509F09106091995FF91EF91CA
:10302000BF91AF919F918F917F916F915F914F91E0
:103030003F912F910F900BBE0F900FBE0F901F90DE
:1030400018951F920F920FB60F920BB60F92112484
:103050002F933F934F935F936F937F938F939F93A0
:10306000AF93BF93EF93FF93809107099091080965
:10307000892B29F0E0910709F09108091995FF9132
:10308000EF91BF91AF919F918F917F916F915F91E0
:103090004F913F912F910F900BBE0F900FBE0F904D
:1030A0001F9018951F920F920FB60F920BB60F92AA
:1030B00011242F933F934F935F936F937F938F933D
:1030C0009F93AF93BF93EF93FF93809109099091E2
:1030D0000A09892B29F0E0910909F0910A0919954B
:1030E000FF91EF91BF91AF919F918F917F916F91E0
:1030F0005F914F913F912F910F900BBE0F900FBE9C
:103100000F901F9018951F920F920FB60F920BB64B
:103110000F9211242F933F934F935F936F937F935D
:103120008F939F93AF93BF93EF93FF9380910B097E
:1031300090910C09892B29F0E0910B09F0910C0971
:103140001995FF91EF91BF91AF919F918F917F91D1
:103150006F915F914F913F912F910F900BBE0F9008
:103160000FBE0F901F9018951F920F920FB60F92DF
:103170000BB60F9211242F933F934F935F936F934E
:103180007F938F939F93AF93BF93EF93FF93809120
:10319000010990910209892B29F0E0910109F09130
:1031A00002091995FF91EF91BF91AF919F918F9176
:1031B0007F916F915F914F913F912F910F900BBE37
:1031C0000F900FBE0F901F9018951F920F920FB681
:1031D0000F920BB60F9211242F933F934F935F934F
:1031E0006F937F938F939F93AF93BF93EF93FF93CF
:1031F0008091030990910409892B29F0E09103093A
:10320000F09104091995FF91EF91BF91AF919F91B2
:103210008F917F916F915F914F913F912F910F907F
:103220000BBE0F900FBE0F901F9018951F920F921C
:103230000FB60F920BB60F9211242F933F934F931B
:103240005F936F937F938F939F93AF93BF93EF930E
:10325000FF9380910D0990910E09892B29F0E0913F
:103260000D09F0910E091995FF91EF91BF91AF9162
:103270009F918F917F916F915F914F913F912F918E
:103280000F900BBE0F900FBE0F901F9018951F92BE
:103290000F920FB60F920BB60F9211242F933F93FC
:1032A0004F935F936F937F938F939F93AF93BF934E
:1032B000EF93FF9380910F0990911009892B29F0CA
:1032C000E0910F09F09110091995FF91EF91BF91CD
:1032D000AF919F918F917F916F915F914F913F91AE
:1032E0002F910F900BBE0F900FBE0F901F9018954F
:1032F0001F920F920FB60F9211242F933F938F932B
:103300009F93AF93BF938091150990911609A09157
:103310001709B0911809309119090196A11DB11D25
:10332000232F2D5F2D3720F02D570196A11DB11DA4
:10333000209319098093150990931609A0931709F2
:10334000B09318098091110990911209A091130965
:10335000B09114090196A11DB11D8093110990939C
:103360001209A0931309B0931409BF91AF919F91D3
:103370008F913F912F910F900FBE0F901F90189536
:103380008FB7F894209115093091160940911709CB
:10339000509118098FBFB901CA0108959B01AC0172
:1033A0007FB7F8948091110990911209A0911309A7
:1033B000B091140966B5A89B05C06F3F19F001963E
:1033C000A11DB11D7FBFBA2FA92F982F8827860F67
:1033D000911DA11DB11D62E0880F991FAA1FBB1F7F
:1033E0006A95D1F7BC012DC0FFB7F89480911109FF
:1033F00090911209A0911309B0911409E6B5A89B08
:1034000005C0EF3F19F00196A11DB11DFFBFBA2FF6
:10341000A92F982F88278E0F911DA11DB11DE2E0C5
:10342000880F991FAA1FBB1FEA95D1F7861B970B20
:10343000885E9340C8F2215030404040504068516F
:103440007C4F211531054105510571F60895789499
:1034500084B5826084BD84B5816084BD85B5826099
:1034600085BD85B5816085BDEEE6F0E08081816037
:103470008083E1E8F0E01082808182608083808137
:1034800081608083E0E8F0E0808181608083E1EB0F
:10349000F0E0808184608083E0EBF0E080818160F7
:1034A0008083E1E9F0E080818260808380818160B7
:1034B0008083E0E9F0E0808181608083E1EAF0E0F0
:1034C000808182608083808181608083E0EAF0E097
:1034D000808181608083E1E2F1E08081826080838D
:1034E000808181608083E0E2F1E08081816080837F
:1034F000EAE7F0E08081846080838081826080835D
:103500008081816080838081806880831092C10087
:103510000895382F863308F0365320917B00832F8F
:1035200086958695869590E08170907043E0880F2F
:10353000991F4A95E1F7277F282B20937B0037704E
:1035400080911F028295880F880F807C832B809347
:103550007C0080917A00806480937A0080917A0068
:1035600086FDFCCF2091780040917900942F80E077
:1035700030E0282B392BC9010895CF93DF93482FD2
:1035800050E0CA0188589E4FFC0134914E5C5E4F5A
:10359000FA018491882369F190E0880F991FFC015A
:1035A000EC51FF4FA591B491FC01E250FF4FC59142
:1035B000D491662351F42FB7F8948C91932F909562
:1035C00089238C93888189230BC0623061F42FB7E3
:1035D000F8948C91932F909589238C938881832BD9
:1035E00088832FBF06C09FB7F8948C91832B8C9350
:1035F0009FBFDF91CF910895893009F449C08A3087
:10360000A0F4843051F1853040F4823079F1833078
:1036100000F5813009F063C026C0873079F1883029
:1036200098F5863009F05BC025C08D3009F442C0A2
:103630008E3028F48B30B1F18C30C0F52DC0803144
:1036400009F442C0813109F445C08F3009F047C008
:1036500037C0809180008F7703C0809180008F7D7C
:1036600080938000089584B58F7702C084B58F7DE4
:1036700084BD08958091B0008F7703C08091B00021
:103680008F7D8093B0000895809190008F7707C060
:10369000809190008F7D03C080919000877F809300
:1036A000900008958091A0008F7707C08091A000BE
:1036B0008F7D03C08091A000877F8093A000089534
:1036C000809120018F7703C0809120018F7D8093AE
:1036D0002001089580912001877F80932001089523
:1036E000FF920F931F93F62E482F50E0CA01825489
:1036F0009E4FFC012491CA0188589E4FFC011491F1
:103700004E5C5E4FFA0104910023C1F0222311F0B8
:10371000822F72DFE02FF0E0EE0FFF1FE250FF4F2D
:10372000A591B4919FB7F894FF2021F48C91109546
:10373000812302C08C91812B8C939FBF1F910F918D
:10374000FF9008950F931F93482F50E0CA018254B1
:103750009E4FFC012491CA0188589E4FFC010491A0
:103760004E5C5E4FFA011491112319F420E030E011
:1037700014C0222311F0822F3FDF812F90E0880FA9
:10378000991F885E9E4FFC01A591B4918C9120E019
:1037900030E0802311F021E030E0C9011F910F914A
:1037A000089508951F920F920FB60F920BB60F92C5
:1037B00011242F933F934F938F939F93EF93FF93F6
:1037C0008091C00082FD1DC04091C60020915A0921
:1037D00030915B092F5F3F4F2F73307080915C09F0
:1037E00090915D092817390771F0E0915A09F0911D
:1037F0005B09E65EF64F408330935B0920935A09DC
:1038000002C08091C600FF91EF919F918F914F91DF
:103810003F912F910F900BBE0F900FBE0F901F90F6
:10382000189508951F920F920FB60F920BB60F9234
:1038300011242F933F934F938F939F93EF93FF9375
:103840008091C80082FD1DC04091CE002091E20908
:103850003091E3092F5F3F4F2F7330708091E4095F
:103860009091E5092817390771F0E091E209F0918C
:10387000E309EE55F64F40833093E3092093E209C4
:1038800002C08091CE00FF91EF919F918F914F9157
:103890003F912F910F900BBE0F900FBE0F901F9076
:1038A000189508951F920F920FB60F920BB60F92B4
:1038B00011242F933F934F938F939F93EF93FF93F5
:1038C0008091D00082FD1DC04091D60020916A0AEF
:1038D00030916B0A2F5F3F4F2F73307080916C0ACD
:1038E00090916D0A2817390771F0E0916A0AF091FA
:1038F0006B0AE65DF54F408330936B0A20936A0AAA
:1039000002C08091D600FF91EF919F918F914F91CE
:103910003F912F910F900BBE0F900FBE0F901F90F5
:10392000189508951F920F920FB60F920BB60F9233
:1039300011242F933F934F938F939F93EF93FF9374
:103940008091300182FD1DC0409136012091F20A24
:103950003091F30A2F5F3F4F2F7330708091F40A3C
:103960009091F50A2817390771F0E091F20AF09169
:10397000F30AEE54F54F40833093F30A2093F20A92
:1039800002C080913601FF91EF919F918F914F91ED
:103990003F912F910F900BBE0F900FBE0F901F9075
:1039A0001895E091460BF091470BE05CFF4F819139
:1039B000919120813181821B930B8F739070892BA1
:1039C00009F0EFDEE091680BF091690BE05CFF4FCE
:1039D0008191919120813181821B930B8F73907023
:1039E000892B09F01EDFE0918A0BF0918B0BE05CD4
:1039F000FF4F8191919120813181821B930B8F73B5
:103A00009070892B09F04DDFE091AC0BF091AD0B7C
:103A1000E05CFF4F8191919120813181821B930B5A
:103A20008F739070892B09F07CCF08951F920F92AD
:103A30000FB60F920BB60F9211242F933F938F93D3
:103A40009F93EF93FF9320919E0930919F0980915E
:103A5000A0099091A1092817390731F48091C1007C
:103A60008F7D8093C10014C0E091A009F091A1095D
:103A7000E25AF64F20818091A0099091A109019608
:103A80008F7390709093A1098093A0092093C60032
:103A9000FF91EF919F918F913F912F910F900BBECE
:103AA0000F900FBE0F901F9018951F920F920FB698
:103AB0000F920BB60F9211242F933F938F939F93E6
:103AC000EF93FF932091260A3091270A8091280ACC
:103AD0009091290A2817390731F48091C9008F7D08
:103AE0008093C90014C0E091280AF091290AEA5194
:103AF000F64F20818091280A9091290A01968F73B0
:103B000090709093290A8093280A2093CE00FF9109
:103B1000EF919F918F913F912F910F900BBE0F903E
:103B20000FBE0F901F9018951F920F920FB60F9215
:103B30000BB60F9211242F933F938F939F93EF9384
:103B4000FF932091AE0A3091AF0A8091B00A909114
:103B5000B10A2817390731F48091D1008F7D809305
:103B6000D10014C0E091B00AF091B10AE259F54FCA
:103B700020818091B00A9091B10A01968F73907064
:103B80009093B10A8093B00A2093D600FF91EF91F1
:103B90009F918F913F912F910F900BBE0F900FBE71
:103BA0000F901F9018951F920F920FB60F920BB6A1
:103BB0000F9211242F933F938F939F93EF93FF9333
:103BC0002091360B3091370B8091380B9091390B47
:103BD0002817390731F4809131018F7D80933101AD
:103BE00014C0E091380BF091390BEA50F54F208169
:103BF0008091380B9091390B01968F739070909350
:103C0000390B8093380B20933601FF91EF919F91F0
:103C10008F913F912F910F900BBE0F900FBE0F9081
:103C20001F901895AF92BF92DF92EF92FF920F9381
:103C30001F93CF93DF93EC017A018B01DD24403099
:103C400081EE580780E0680780E0780711F0DD24F6
:103C5000D39491E0A92EB12CEC89FD89DD2069F087
:103C6000C50108A002C0880F991F0A94E2F780835B
:103C700060E079E08DE390E005C0108260E874E8D0
:103C80008EE190E0A8019701A0D52150304040403E
:103C90005040569547953795279580E12030380755
:103CA00020F0DD2011F0DD24D7CFE889F9893083B9
:103CB000EA89FB89208319A2EE89FF89408121E0EE
:103CC00030E0C9010C8C02C0880F991F0A94E2F7FA
:103CD000482B4083EE89FF894081C9010D8C02C0C9
:103CE000880F991F0A94E2F7482B4083EE89FF89D9
:103CF0004081C9010E8C02C0880F991F0A94E2F717
:103D0000482B4083EE89FF8980810F8C02C0220FEF
:103D1000331F0A94E2F7209528232083DF91CF9167
:103D20001F910F91FF90EF90DF90BF90AF9008959B
:103D3000DC011C96ED91FC911D97E05CFF4F2191F9
:103D4000319180819181281B390B2F733070C9010B
:103D50000895DC011C96ED91FC911D97E05CFF4FEE
:103D600020813181E054F040DF01AE5BBF4F8D9187
:103D70009C9111972817390719F42FEF3FEF07C0CF
:103D80008D919C91E80FF91F8081282F30E0C901A7
:103D90000895DC011C96ED91FC911D97E05CFF4FAE
:103DA00020813181E054F040DF01AE5BBF4F8D9147
:103DB0009C9111972817390719F42FEF3FEF10C086
:103DC0008D919C911197E80FF91F20818D919C9105
:103DD000119701968F73907011969C938E9330E09B
:103DE000C9010895DC0191968C919197882339F04F
:103DF0005496ED91FC915597808186FFF9CF91966D
:103E00001C920895CF93DF93EC01EE85FF85E05C73
:103E1000FF4F20813181E054F0402F5F3F4F2F73DF
:103E20003070DF01AE5BBF4F8D919C9111972817C9
:103E30003907D1F3E05CFF4F80819181E054F0407D
:103E4000E80FF91F6083EE85FF85E05CFF4F31834B
:103E50002083EE89FF89208181E090E00F8C02C0F1
:103E6000880F991F0A94E2F7282B208381E089A309
:103E7000EC89FD8980818064808381E090E0DF911E
:103E8000CF9108951F9310923D0B10923C0B28EE9A
:103E900033E040E050E020933E0B30933F0B4093E3
:103EA000400B5093410B68E472E070933B0B6093BE
:103EB0003A0B8AE199E09093470B8093460B8EE58D
:103EC00099E09093490B8093480B85EC90E0909398
:103ED0004B0B80934A0B84EC90E090934D0B8093B6
:103EE0004C0B80EC90E090934F0B80934E0B81EC49
:103EF00090E09093510B8093500B82EC90E0909364
:103F0000530B8093520B86EC90E09093550B80936B
:103F1000540B14E01093560BB3E0B093570BA7E08B
:103F2000A093580BF5E0F093590BE1E0E0935A0BA6
:103F300010925F0B10925E0B2093600B3093610B1D
:103F40004093620B5093630B70935D0B60935C0B1B
:103F500082EA99E09093690B8093680B86EE99E072
:103F600090936B0B80936A0B8DEC90E090936D0BAC
:103F700080936C0B8CEC90E090936F0B80936E0BA6
:103F800088EC90E09093710B8093700B89EC90E03B
:103F90009093730B8093720B8AEC90E09093750B67
:103FA0008093740B8EEC90E09093770B8093760B5C
:103FB0001093780BB093790BA0937A0BF0937B0B53
:103FC000E0937C0B1092810B1092800B2093820B5C
:103FD0003093830B4093840B5093850B70937F0B2E
:103FE00060937E0B8AE29AE090938B0B80938A0B0E
:103FF0008EE69AE090938D0B80938C0B85ED90E08C
:1040000090938F0B80938E0B84ED90E09093910BA7
:104010008093900B80ED90E09093930B8093920BA4
:1040200081ED90E09093950B8093940B82ED90E05E
:104030009093970B8093960B86ED90E09093990B5D
:104040008093980B10939A0BB0939B0BA0939C0BAF
:10405000F0939D0BE0939E0B1092A30B1092A20B7A
:104060002093A40B3093A50B4093A60B5093A70B62
:104070007093A10B6093A00B82EB9AE09093AD0B31
:104080008093AC0B86EF9AE09093AF0B8093AE0BCE
:1040900085E391E09093B10B8093B00B84E391E0C2
:1040A0009093B30B8093B20B80E391E09093B50BA8
:1040B0008093B40B81E391E09093B70B8093B60BA0
:1040C00082E391E09093B90B8093B80B86E391E083
:1040D0009093BB0B8093BA0B1093BC0BB093BD0BAA
:1040E000A093BE0BF093BF0BE093C00B1F910895FC
:1040F0000F93FC0188E592E0918380836283438380
:10410000248305830F91089588E592E09093C30B73
:104110008093C20B1092C40B1092C50B1092C60B69
:104120001092C70B08958F929F92AF92BF92CF9239
:10413000DF92EF92FF920F931F93CF93DF934C0187
:104140006B017C01AA24BB24C0E0D0E0C601F701CA
:1041500062814AE050E006D18C01C6016EE270D067
:10416000080F191FA00EB11E21960894E11CF11C26
:10417000C330D10559F7C601F40165814AE050E02A
:10418000F1D09501280F391FC901DF91CF911F91FF
:104190000F91FF90EF90DF90CF90BF90AF909F90E6
:1041A0008F9008959C01FB0180819181A281B38150
:1041B000F90182839383A483B583C9010895FC0127
:1041C00088E592E0918380831282138214821582A3
:1041D0000895CF93DF933BD90E94B809C1EDDCE18C
:1041E0000E946B0D2097E1F3DCDBFACFCF92DF92D8
:1041F000EF92FF920F931F93CF93DF937C016B019C
:104200008A01C0E0D0E00FC0D6016D916D01D701E9
:10421000ED91FC910190F081E02DC7011995C80F37
:10422000D91F015010400115110571F7CE01DF9122
:10423000CF911F910F91FF90EF90DF90CF90089555
:10424000DC01ED91FC910190F081E02D199508952C
:10425000CF93DF93EC016115710519F420E030E094
:104260000FC0DB010D900020E9F71197A61BB70BDB
:10427000E881F9810280F381E02DAD0119959C015F
:10428000C901DF91CF9108954F925F927F928F92F3
:104290009F92AF92BF92CF92DF92EF92FF920F93D5
:1042A0001F93DF93CF93CDB7DEB7A1970FB6F894E6
:1042B000DEBF0FBECDBF2C01742ECB01223008F41F
:1042C0002AE019A231E2C32ED12CCC0EDD1E822EA3
:1042D0009924AA24BB24672D752FA501940175D2BA
:1042E00079018A01C801B701A50194013BD2472D8C
:1042F000461B0894C108D1084A3014F4405D01C03F
:10430000495CF6014083E114F1040105110521F037
:104310007E2C5F2DC801DFCFC201B60199DFA196C7
:104320000FB6F894DEBF0FBECDBFCF91DF911F91C6
:104330000F91FF90EF90DF90CF90BF90AF909F9044
:104340008F907F905F904F900895DC01211531058B
:1043500041F4ED91FC910190F081E02D642F1995CD
:10436000089592CFEF92FF920F931F939A01E62E3A
:10437000FF2400E010E0B801A701E7DF1F910F91D3
:10438000FF90EF9008955058BB27AA270ED04DC13B
:104390003ED130F043D120F031F49F3F11F41EF4B0
:1043A00033C10EF4E095E7FB29C1E92F4FD180F32B
:1043B000BA17620773078407950718F071F49EF522
:1043C00067C10EF4E0950B2EBA2FA02D0B01B90199
:1043D00090010C01CA01A0011124FF27591B99F07B
:1043E000593F50F4503E68F11A16F040A22F232F87
:1043F000342F4427585FF3CF469537952795A795D7
:10440000F0405395C9F77EF41F16BA0B620B730B7D
:10441000840BBAF09150A1F0FF0FBB1F661F771FEE
:10442000881FC2F70EC0BA0F621F731F841F48F4A3
:10443000879577956795B795F7959E3F08F0B3CF29
:104440009395880F08F09927EE0F97958795089513
:104450000CD0EBC0E3D040F0DAD030F021F45F3F75
:1044600019F0CCC0511115C1CFC0F0D098F39923E9
:10447000C9F35523B1F3951B550BBB27AA27621728
:104480007307840738F09F5F5F4F220F331F441F6D
:10449000AA1FA9F333D00E2E3AF0E0E830D09150A5
:1044A0005040E695001CCAF729D0FE2F27D0660F92
:1044B000771F881FBB1F261737074807AB07B0E8D1
:1044C00009F0BB0B802DBF01FF2793585F4F2AF0E7
:1044D0009E3F510568F092C0DCC05F3FECF3983E10
:1044E000DCF3869577956795B795F7959F5FC9F744
:1044F000880F911D9695879597F90895E1E0660FCD
:10450000771F881FBB1F621773078407BA0720F045
:10451000621B730B840BBA0BEE1F88F7E0950895AE
:1045200004D06894B111B5C0089598D088F09F5711
:1045300090F0B92F9927B751A0F0D1F0660F771FEF
:10454000881F991F1AF0BA95C9F712C0B13081F0CF
:104550009FD0B1E008959CC0672F782F8827B85F5F
:1045600039F0B93FCCF3869577956795B395D9F730
:104570003EF490958095709561957F4F8F4F9F4F3A
:104580000895E89409C097FB3EF490958095709546
:1045900061957F4F8F4F9F4F9923A9F0F92F96E98F
:1045A000BB279395F695879577956795B795F11104
:1045B000F8CFFAF4BB0F11F460FF1BC06F5F7F4FA1
:1045C0008F4F9F4F16C0882311F096E911C07723B3
:1045D00021F09EE8872F762F05C0662371F096E8BC
:1045E000862F70E060E02AF09A95660F771F881F8B
:1045F000DAF7880F9695879597F9089597F99F6749
:1046000080E870E060E008959FEF80EC089500245A
:104610000A941616170618060906089500240A9427
:1046200012161306140605060895092E0394000CAD
:1046300011F4882352F0BB0F40F4BF2B11F460FF3C
:1046400004C06F5F7F4F8F4F9F4F089557FD905865
:10465000440F551F59F05F3F71F04795880F97FB46
:10466000991F61F09F3F79F0879508951216130600
:104670001406551FF2CF4695F1DF08C0161617062F
:104680001806991FF1CF8695710561050894089564
:10469000E894BB2766277727CB0197F908950BD0BD
:1046A000C4CFB5DF28F0BADF18F0952309F0A6CF04
:1046B000ABCF1124EECFCADFA0F3959FD1F3950FB6
:1046C00050E0551F629FF001729FBB27F00DB11D96
:1046D000639FAA27F00DB11DAA1F649F6627B00D26
:1046E000A11D661F829F2227B00DA11D621F739F0F
:1046F000B00DA11D621F839FA00D611D221F749F1D
:104700003327A00D611D231F849F600D211D822F63
:10471000762F6A2F11249F5750408AF0E1F08823AA
:104720004AF0EE0FFF1FBB1F661F771F881F9150B7
:104730005040A9F79E3F510570F060CFAACF5F3F70
:10474000ECF3983EDCF3869577956795B795F795EA
:10475000E7959F5FC1F7FE2B880F911D9695879572
:1047600097F90895629FD001739FF001829FE00D39
:10477000F11D649FE00DF11D929FF00D839FF00DE0
:10478000749FF00D659FF00D9927729FB00DE11D8C
:10479000F91F639FB00DE11DF91FBD01CF01112469
:1047A0000895AA1BBB1B51E107C0AA1FBB1FA61778
:1047B000B70710F0A61BB70B881F991F5A95A9F7CA
:1047C00080959095BC01CD010895A1E21A2EAA1BF7
:1047D000BB1BFD010DC0AA1FBB1FEE1FFF1FA217B1
:1047E000B307E407F50720F0A21BB30BE40BF50BAE
:1047F000661F771F881F991F1A9469F76095709537
:10480000809590959B01AC01BD01CF010895EE0FFD
:0E481000FF1F0590F491E02D1994F894FFCF4E
:10481E00DEADBEEFFE76A2540D0011001C0012009C
:10482E001A00130008000000003F0A0100FF0F01EC
:10483E00000000004D123A134912BE128212651288
:10484E00F313DF13571373135413E8129C122C1225
:10485E003412451200000000021FF620981EC91ED9
:0A486E00A91EF21E000000009320B6
:00000001FF
