:100000000AC100000C94A5170C94D6170C9407187D
:100010000C9438180C9469180C949A180C94CB18FA
:100020000C94FC1825C1000023C1000021C1000070
:100030001FC100001DC100001BC1000019C100004C
:1000400017C1000015C1000013C1000011C100005C
:1000500010C100000DC100000BC100000C942D194F
:1000600007C100000C94871B0C94CB1C01C100003D
:10007000FFC00000FDC00000FBC00000F9C0000090
:10008000F7C00000F5C00000F3C000006DC1000023
:100090000C94C71B0C940A1DEBC00000E9C00000C3
:1000A000E7C00000E5C00000E3C00000E1C00000C0
:1000B000DFC00000DDC00000DBC00000D9C00000D0
:1000C000D7C00000D5C00000D3C000000C94071CAE
:1000D0000C94491DCDC000000C94471C0C94881D45
:1000E000C7C0000000002100240027002A002D00C6
:1000F0003000330001010000040107010A01000083
:100100002200250028002B002E00310034000201BF
:100110000000050108010B0100002000230026005B
:1001200029002C002F00320000010000030106010D
:10013000090105050505070508080808020202026D
:100140000A0A080804040404010101010101010173
:100150000303030303030303040707070C0C0C0C3E
:100160000C0C0C0C02020202060606060606060627
:100170000B0B0B0B0B0B0B0B0102102020080810B4
:100180002040102040800201020108040201010207
:1001900004081020408080402010080402018004E0
:1001A000020180402010080402010804020101023B
:1001B0000408102040800102040810204080000044
:1001C000090A02080B0C0D070603040100000000D9
:1001D000000000000000000000000000000000001F
:1001E0000000000000000000000011100F000000DF
:1001F00000000000000000000000000000000000FF
:100200000000000097066F0DD10D7810CB11D611AC
:100210002C12F71E392011241FBECFEFD1E2DEBF12
:10022000CDBF00E00CBF12E0A0E0B2E0EEEAF7E4E0
:1002300000E00BBF02C007900D92A036B107D9F7BE
:100240001BBE1BE0A0E6B2E001C01D92AD3CB107B1
:10025000E1F712E0C6E1D2E004C02297FE010E945D
:10026000D123C430D107C9F70E949E200C94D52316
:10027000C7CE1F920F920FB60F9211242F933F9368
:100280004F935F938F939F938091F8029091F9021F
:1002900090938500809384002091F4023091F502C0
:1002A0002F5F3F4F3093F5022093F4024091F60206
:1002B0005091F7024F5F5F4F5093F7024093F60261
:1002C0008091FE028F5F8093FE029091FF029F5FFC
:1002D0009093FF028B3F18F08AEF8093FE029B3FC2
:1002E00018F08AEF8093FF02285E334060F081E0CF
:1002F0008093FC021092F5021092F4028091310476
:100300008F5F809331044436510538F081E080934B
:10031000FD021092F7021092F602809131048C33A4
:1003200018F08CE380933104809131048C3388F091
:1003300020916F04213069F4809134049091350448
:1003400001969093350480933404109231042093E5
:100350009D049F918F915F914F913F912F910F90AD
:100360000FBE0F901F9018951F920F920FB60F920D
:1003700011242F933F938F939F938091FA02909132
:10038000FB0290939500809394008091AE08813099
:10039000D9F42091B2083091B3088091080290916D
:1003A00009022817390780F48091B008813061F480
:1003B0002F5F3F4F3093B3082093B20880910B0119
:1003C000886080930B0106C01092B3081092B208A7
:1003D0001092B0088091B008882301F58091B6088A
:1003E0009091B70801969093B7088093B608209132
:1003F0000B01277F20930B0120910C0230910D02FD
:100400008217930758F01092B7081092B60881E04F
:100410008093B0081092B3081092B2088091AF0890
:100420008130D9F42091B8083091B90880910A023E
:1004300090910B022817390780F48091B108813020
:1004400061F42F5F3F4F3093B9082093B808809133
:100450000B01826080930B0106C01092B9081092C4
:10046000B8081092B1088091B108882301F58091F5
:10047000B4089091B50801969093B5088093B4089C
:1004800020910B012D7F20930B0120910C023091C4
:100490000D028217930758F01092B5081092B40815
:1004A00081E08093B1081092B9081092B8089F912A
:1004B0008F913F912F910F900FBE0F901F90189525
:1004C00020E834E84EE150E00E94672320E432E463
:1004D0004FE050E00E949923309521953F4F309393
:1004E000F9022093F8021092800082E0809381004C
:1004F000EFE6F0E080818160808330938500209377
:100500008400089520E834E84EE150E00E9467231B
:1005100020E432E44FE050E00E9499233095219589
:100520003F4F3093FB022093FA021092900082E03A
:1005300080939100E1E7F0E08081816080833093D7
:100540009500209394000895EF92FF920F931F93CC
:100550008091B302882381F09091FE028091200265
:10056000891750F41092B3021092B7021092B6029B
:100570001092B1021092AF028091B402882381F0F0
:100580009091FF0280912002891750F41092B402DA
:100590001092B9021092B8021092B2021092B002F8
:1005A0008091FE02893C38F48091B6029091B702A6
:1005B000892B71F03CC01092B7021092B6021092D3
:1005C000B1021092AF02809132048E7F8093320488
:1005D0008091B2022091B8023091B902813049F481
:1005E00088279927821B930B9093BF028093BE02AA
:1005F00004C03093BF022093BE028091B0028130CC
:10060000B1F46091BE027091BF02882777FD80959A
:10061000982F0E9478222CE53FE842EA5FE30E948F
:1006200004230E9445227093BF026093BE02809112
:10063000FF02893C38F48091B8029091B902892B6D
:1006400071F03CC01092B9021092B8021092B2023E
:100650001092B002809132048D7F80933204809199
:10066000B1022091B6023091B702813049F4882757
:100670009927821B930B9093BF028093BE0204C004
:100680003093BF022093BE028091AF028130B1F45B
:100690006091BE027091BF02882777FD8095982FE8
:1006A0000E9478222CE53FE842EA5FE30E9404239F
:1006B0000E9445227093BF026093BE028091320473
:1006C0008370833009F0B4C02091B6023091B70234
:1006D0002115310509F4ACC04091B8025091B9021E
:1006E0004115510509F4A4C08091B102813049F44B
:1006F00088279927821B930B9093C1028093C00295
:1007000004C03093C1022093C0028091B2028130B4
:1007100049F488279927841B950B9093C3028093F3
:10072000C20204C05093C3024093C2028091AF0240
:10073000813009F041C08091B002813009F072C06F
:100740006091C0027091C102882777FD8095982F33
:100750000E9478222CE53FE842EA5FE30E940423EE
:100760003BC06091C0027091C102882777FD8095DF
:10077000982F0E9478222CE53FE842EA5FE30E942E
:1007800004237B018C016091C2027091C30288270F
:1007900077FD8095982F0E9478229B01AC01C801BB
:1007A000B7010E94792120E030E040E05FE30E9441
:1007B00004230E94452231C08823D1F58091B002E4
:1007C0008130A1F56091C0027091C102882777FD48
:1007D0008095982F0E9478227B018C016091C20243
:1007E0007091C302882777FD8095982F0E94782208
:1007F0002CE53FE842EA5FE30E940423CECF8091DC
:10080000C2029091C3022091C0023091C102820FB6
:10081000931F62E070E00E9486237093BF02609392
:10082000BE0206C0882309F49CCF02C0882339F396
:100830001F910F91FF90EF9008959F92AF92BF92FA
:10084000CF92DF92EF92FF920F931F93CF93DF939C
:10085000982EA92EB62E4F5F282F392FC901EC01F3
:10086000EE2460E070E0FF24C42EDD2422C0A881C5
:10087000B981892D9A2D9C01F90130E020E08D018C
:100880000C191D09A6014A0F5B1F0BC080819181C5
:100890000817190720F48417950708F43F5F2F5FA6
:1008A00032962B1598F3E31610F4E32EBD01F39462
:1008B0002296FB14E0F2CB01DF91CF911F910F91B3
:1008C000FF90EF90DF90CF90BF90AF909F900895F2
:1008D0001F93CF93DF9390916F04913009F0AAC1D9
:1008E0001091A104C12FD0E0FE01EE0FFF1FEE0F0B
:1008F000FF1FEC5BFB4F0190F081E02DDE01AA0FA2
:10090000BB1F309709F054C0AA0FBB1FAA5BBB4F97
:100910002D913C912115310509F452C180919F041C
:100920008823A9F4109235041092340410923104F3
:1009300090939F0480913204806280933204265FFA
:100940003F4F3093AB042093AA042A50304080914B
:100950003404909135048217930708F46BC1109208
:100960003504109234041092310410929F041F5FDA
:100970001093A10410929B0410929C048091320465
:100980001092A9041092A8041092A5041092A40435
:100990001092A7041092A60410929E048F7C80935C
:1009A00032048FEF9FE0909324028093230242C190
:1009B000AA0FBB1FAA5BBB4F2D913C91211531059E
:1009C00009F4FEC080919B04882351F4F093A304A2
:1009D000E093A2043093AB042093AA0490939B0469
:1009E00020918B0230918C024091A2045091A3047B
:1009F000BA016A5070406217730720F081E080935B
:100A0000AE0807C080910B01877F80930B01109285
:100A1000AE08415F5F4F2417350720F081E08093D7
:100A2000AF0807C080910B018D7F80930B0110925E
:100A3000AF082617370708F4BFC04217530708F45A
:100A4000BBC080919C04882309F067C18091AC04ED
:100A50009091AD048C52914048F11092350410925F
:100A600034041092310410929E04809132048F7EDF
:100A700091E090939D0490939C0480628093320453
:100A80001092AD041092AC041092A9041092A80424
:100A90001092A5041092A4041092A7041092A60428
:100AA0008FEF9FE090932402809323028091AC0407
:100AB0009091AD0401969093AD048093AC042DC148
:100AC000853691050CF078C0DE011196FD01EE0F20
:100AD000FF1FEE0FFF1FEC5BFB4F80819181892B85
:100AE000D9F5AA0FBB1FAA0FBB1FAA5BBB4F8D91E5
:100AF0009C91892B89F510926F0490913204109289
:100B00009B04109235041092340410923104109218
:100B1000AE081092AF0881E08093A00410929F0469
:100B200010929C0410929E049F789093320410922D
:100B3000A9041092A8041092A5041092A404109283
:100B4000A7041092A6048FEF9FE090932402809355
:100B500023021092A10426C010929B0410929C04C0
:100B6000809132041F5F1093A1041092A904109287
:100B7000A8041092A5041092A4041092A704109245
:100B8000A60410929E048F7C809332048FEF9FE026
:100B9000909324028093230210923504109234041F
:100BA0001092310480910B01877F80930B0180911B
:100BB0000B018D7F80930B018091A1048B30D0F1CC
:100BC00010926F049091320410929B04109235049D
:100BD00010923404109231041092AE081092AF08B3
:100BE00081E08093A00410929F0410929C041092C4
:100BF0009E049F78909332041092A9041092A80446
:100C00001092A5041092A4041092A7041092A604B6
:100C10008FEF9FE090932402809323021092A1040F
:100C200080910B01877F80930B0180910B018D7F59
:100C300080930B0190913204892F96FD06C010928B
:100C40003504109234041092310485FD06C01092D0
:100C5000350410923404109231048091A1048A303A
:100C6000C0F110926F0410929B0410923504109200
:100C70003404109231041092AE081092AF0881E053
:100C80008093A00410929F0410929C0410929E04E2
:100C90009F78909332041092A9041092A8041092A5
:100CA000A5041092A4041092A7041092A6048FEF3A
:100CB0009FE090932402809323021092A1048091DC
:100CC0000B01877F80930B0180910B018D7F8093B7
:100CD0000B018091A0048130B9F480910B01877FD2
:100CE00080930B0180910B01826080930B018091B6
:100CF0008B0290918C02409738F41092A00480915E
:100D00000B018D7F80930B018091A1048F5F8093F5
:100D10003304DF91CF911F91089580912302909128
:100D200024022FEF8C3992070CF0CACE45CF0F93D7
:100D30008AEB98E060E040E020E000E00E942D2097
:100D400080E692E060EC48EA20E000EB0E942D2073
:100D500086E692E060EC48EA20E00FEF0E942D204A
:100D60008CE692E00E9413130F910895AF92BF9208
:100D7000CF92DF92EF92FF920F931F93CF93DF9367
:100D80008091B502C82FD0E080911A020E943E1ACD
:100D9000CC0FDD1FC157DD4F998388838091B50249
:100DA0008F5F8F708093B5028FE892E060E141E041
:100DB00044DD20913A0430913B0482179307C0F040
:100DC000821B930BBC0180E090E00E947622209170
:100DD00040043091410440914204509143040E94E8
:100DE00004230E944A2270938E0260938D0204C0F5
:100DF00010928E0210928D02A0901C02B0901D02E3
:100E0000C0901E02D0901F0260E070E080E89FE377
:100E1000A60195010E9478217B018C0160918B02D3
:100E200070918C0280E090E00E9476229B01AC01E0
:100E3000C801B7010E9404237B018C0160918D02DF
:100E400070918E0280E090E00E9476229B01AC01BE
:100E5000C601B5010E9404239B01AC01C801B70182
:100E60000E9479210E944A2270938C0260938B0227
:100E70001092FD02DF91CF911F910F91FF90EF90A3
:100E8000DF90CF90BF90AF9008951092FF028091B5
:100E900032048260809332048091B4028431D0F4B1
:100EA000809116020E94571B892B81F521E030E0CA
:100EB0000090B40202C0220F331F0A94E2F780911F
:100EC000BA029091BB02822B932B9093BB0280932A
:100ED000BA021CC0843159F4809116020E94571B3B
:100EE0001092B202892B19F481E08093B2028091B2
:100EF000B402873159F4809116020E94571B109258
:100F0000B002892B19F481E08093B0028091B40281
:100F10008F5F8093B4028831C0F08091BA029091C3
:100F2000BB029C01E3E0220F331FEA95E1F7880F33
:100F3000991F280F391F3093B9022093B8021092DD
:100F4000B4021092BB021092BA0208951092FE02EF
:100F5000809132048160809332048091B3028431A5
:100F6000D0F4809112020E94571B892B81F521E059
:100F700030E00090B30202C0220F331F0A94E2F760
:100F80008091BC029091BD02822B932B9093BD0265
:100F90008093BC021CC0843159F4809112020E94DB
:100FA000571B1092B102892B19F481E08093B10292
:100FB0008091B302873159F4809112020E94571B2D
:100FC0001092AF02892B19F481E08093AF028091D7
:100FD000B3028F5F8093B3028831C0F08091BC026E
:100FE0009091BD029C01A3E0220F331FAA95E1F767
:100FF000880F991F280F391F3093B7022093B6022C
:101000001092B3021092BD021092BC020895DF93B9
:10101000CF9300D000D0CDB7DEB780912103E82F69
:10102000F0E0EE0FFF1FE050FD4F8081813009F0AE
:101030002DC19181913071F482E880932603109242
:101040002703109228039093290381E480932A03B5
:1010500086E0BBC09230C1F481E8809326031092F1
:1010600027031092280383E08093290380912D04A5
:1010700080932A0380912B0480932B0380912C046E
:1010800080932C0388E0A1C0933009F05EC085E80E
:1010900080932603109227031092280383E1809304
:1010A00029038091AF0280932A038091B10280933B
:1010B0002B038091B6029091B70280932C039093FA
:1010C0002D038091B00280932E038091B202809311
:1010D0002F038091B8029091B902809330039093CE
:1010E00031038091BE029091BF0280933203892F19
:1010F000990F990B809333038091230290912402DE
:1011000080933403892F990F990B80933503809135
:101110008B0290918C0280933603909337038091D9
:10112000340490913504809338039093390380916F
:10113000310480933A038091330480933B03809180
:10114000320480933C0388E140C0943009F03FC0F2
:1011500083E880932603109227031092280380913E
:101160006C04482F50E0440F551F440F551F409307
:10117000290384E494E090937104809370041092A6
:10118000300410922F0411C0E0917004F0917104AA
:10119000819116968C93F0937104E09370042F5F05
:1011A0003F4F3093300420932F0420912F0430912F
:1011B0003004D901AC5DBC4F241735072CF3809166
:1011C000320416968C93822F8A5F809323038EE5D8
:1011D00092E09A8389838091680290916902A0913C
:1011E0006A02B0916B028B839C83AD83BE83409176
:1011F0000602509107028CE692E0BE016F5F7F4FBE
:101200000E940C131092300410922F0410922203AB
:101210001CC0A230B1054CF0FD01EC5DFC4F80918B
:1012200022039081890F80932203AC5DBC4F8CE632
:1012300092E06C910E94021280912F0490913004F0
:1012400001969093300480932F04A0912F04B091C5
:1012500030048091230390E08A179B07D4F68CE634
:1012600092E0609122030E9402128CE692E00E94BA
:10127000091380912103E82FF0E0EE0FFF1FE050EB
:10128000FD4F10828F5F8F708093210326960FB6DB
:10129000F894DEBF0FBECDBFCF91DF910895DF93ED
:1012A000CF9300D000D0CDB7DEB78091120261E0BD
:1012B0000E94251B8091140261E00E94251B8091F1
:1012C000120260E00E94721A8091140260E00E9493
:1012D000721A8091160261E00E94251B809118020B
:1012E00061E00E94251B8091160260E00E94721A44
:1012F0008091180260E00E94721A85E066EA77E049
:1013000042E050E00E94291784E065E477E042E083
:1013100050E00E94291768EE73E080E090E0D0D89A
:1013200068EE73E080E090E0EDD880910E0261E01D
:101330000E94721A8091100260E00E94721A8EE27E
:1013400061E00E94721A80E361E00E94721A85E3F4
:1013500061E00E94721A8EE592E09A8389838091FF
:10136000620290916302A0916402B09165028B8346
:101370009C83AD83BE8384ED98E060E072E0AE01B3
:101380004F5F5F4FD1D760910602709107028CE6E4
:1013900092E00E94A8138FE39BE040E855E260E0F2
:1013A00070E00E94C71D64EF71E080E090E00E9451
:1013B000831983E9809324038AE68093250310929E
:1013C0002603109227031092280326960FB6F8944E
:1013D000DEBF0FBECDBFCF91DF9108958091A404F1
:1013E0009091A5046091BE027091BF02FC01EE0FC6
:1013F000FF1FE255FB4F71836083E091A604F091DB
:10140000A7048E1B9F0B91709093A9048093A8044E
:101410002091AA043091AB048217930768F1EE0F74
:10142000FF1FE255FB4F80819181681B790B709300
:101430002402609323028FE39BE00E94B71E609119
:10144000230270912402672F770F770B8FE39BE0C5
:101450000E94B71E8091A6049091A70401969170F6
:101460009093A7048093A60481E080939E048091CA
:1014700032048061809332048091A4049091A50489
:10148000019691709093A5048093A40408954F92BF
:101490005F926F927F928F929F92AF92BF92CF9204
:1014A000DF92EF92FF920F931F93CF93DF938CE61F
:1014B00092E00E949D126C01009709F4B0C28CE684
:1014C00092E064EC72E040E350E0EBD7109230041D
:1014D00010922F04109228041092240410922704D2
:1014E00022E0F22EEE24E39494E4A92E94E0B92EA7
:1014F0008FEF882E8FE0982E04E0402E10EC712E96
:10150000B8EA6B2E55245A9477C2EC53FD4F908164
:1015100090932604209124042230A1F48091270482
:10152000813009F072C29093250410922804109221
:101530006D0408C090932B0405C090932C0402C046
:1015400090932E049A3621F4213011F4F092240461
:1015500080912404813011F410922404933931F4E1
:1015600080912404882311F4E0922404209125041E
:10157000213009F0C4C080912704882309F49BC15D
:10158000813009F414C1853019F490936E0493C12D
:10159000863009F090C180912804891709F08BC129
:1015A00080916E048134F9F410922404109227047F
:1015B00010922A041092290480912003E82FF0E071
:1015C000EE0FFF1FE050FD4F2083F1828F5F8F7081
:1015D00080932003709268026092690210926A02FE
:1015E00050926B0268C18234D9F410922404109294
:1015F000270410922A0480912003E82FF0E0EE0FD8
:10160000FF1FE050FD4F2083F1828F5F8F70E82F26
:10161000F0E0EE0FFF1FE050FD4F20834182B8C085
:101620008334F1F4109224041092270410922A04B7
:1016300080912003E82FF0E0EE0FFF1FE050FD4FF8
:101640002083F1828F5F8F708093200320936F043B
:1016500010923104809132048064809332042BC153
:10166000843409F028C110922404109227041092A7
:101670002A0480912003E82FF0E0EE0FFF1FE050D6
:10168000FD4FE082F1828F5F8F7080932003109274
:101690006F048091320410929B04109235041092D2
:1016A0003404109231041092AE081092AF08E09208
:1016B000A00410929F0410929C0410929E048F78B4
:1016C000809332041092A9041092A8041092A504E9
:1016D0001092A4041092A7041092A60490922402DF
:1016E000809223021092A10480910B01877F809346
:1016F0000B0180910B018D7F80930B01DCC02230A8
:1017000009F04BC080912704882309F4D4C08130AC
:1017100009F44DC0853019F490938702CCC086300F
:1017200019F490938802C7C0873019F49093890206
:10173000C2C0883019F490938A02BDC0893009F084
:10174000BAC080912804891709F0B5C0E092290435
:10175000109224041092270410922A048091870288
:101760008093680280918802809369028091890247
:1017700080936A0280918A0280936B028091200399
:10178000E82FF0E0EE0FFF1FE050FD4FE082F18206
:101790008F5F8F70809320038EC0233009F08BC041
:1017A00080912704882309F486C0813019F480933E
:1017B0002A0481C0853008F47EC020916D04E22F98
:1017C000F0E0EE58FB4F908380912804891709F0D0
:1017D0006DC080912E04281709F068C0B092710482
:1017E000A09270041092300410922F041AC0E0915D
:1017F0007004F0917104AE58BB4F8C91808380913E
:101800007004909171040196909371048093700418
:1018100080912F049091300401969093300480932E
:101820002F04A0912F04B091300480912E0490E0F9
:10183000A817B907E4F217C0E0917004F0917104A1
:1018400010828091700490917104019690937104BC
:101850008093700480912F049091300401969093AE
:10186000300480932F0480912F0490913004889746
:101870001CF380916D0490E09595879595958795DB
:1018800080936C04109224041092270410922A046E
:1018900080912003E82FF0E0EE0FFF1FE050FD4F96
:1018A000E082F1828F5F8F708093200380916D04BE
:1018B0008F5F80936D0480912504843009F071C09E
:1018C00080912704882309F46CC0813019F4809337
:1018D0002A0467C0853039F4809126048093360449
:1018E000109237045EC0863039F4809126048093CC
:1018F00038041092390455C0873039F48091260499
:1019000080933C0410923D044CC0883039F480919F
:10191000260480933E0410923F0443C0893009F0AE
:1019200040C090912804809126049817D1F5109119
:10193000380400E06091360470913704602B712BFD
:101940007093220260932102D0913E04C0E0209166
:101950003C0430913D042C2B3D2B30933B042093D1
:101960003A0480E090E00E94762220E030E44CE1EE
:1019700056E40E94DD2160934004709341048093FB
:1019800042049093430480912003E82FF0E0EE0F8F
:10199000FF1FE050FD4FE082F1828F5F8F708093D8
:1019A000200320912704222339F08091280490916C
:1019B0002604890F8093280480912404823051F4F6
:1019C000213041F480912A04882321F410922404C8
:1019D0001092270480912404823028F080912704FB
:1019E0008F5F8093270480912F049091300401969B
:1019F0009093300480932F04E0912F04F0913004F1
:101A0000EC15FD050CF481CD0AC0823009F492CDAD
:101A1000833009F492CD843009F094CD91CDDF91DB
:101A2000CF911F910F91FF90EF90DF90CF90BF90DB
:101A3000AF909F908F907F906F905F904F900895A0
:101A40000E94A40224DD0E946804E1DA8091FD0274
:101A5000813009F48BD98091FC02882311F1109216
:101A6000FC0290912904992359F480912003E82FD6
:101A7000F0E0EE0FFF1FE050FD4F91E090830CC0AF
:101A8000913079F480912003E82FF0E0EE0FFF1FF2
:101A9000E050FD4F908393E091838F5F8F70809330
:101AA000200380919D04882319F010929D0496CC08
:101AB000089585E361E00E94251B85E361E00E94B3
:101AC000721A8CB580618CBD8CB580648CBD84E34A
:101AD00061E00E94721A83E361E00C94721A0F9322
:101AE00080EC98E060E040E020E000E00E942D20E3
:101AF0000F9108959C01FB0182819381A481B5819E
:101B0000F90182839383A483B58317821682089593
:101B1000CF93DF93FB0101C0319680818823E1F7E9
:101B2000EB01A0E0B0E020E030E021C06E3261F4D3
:101B30002F3F310509F07CF5FA01EA0FFB1F2283E4
:101B4000119620E030E012C0C901E3E0880F991F30
:101B5000EA95E1F7220F331F820F931F262F3327B9
:101B600027FD309520533040280F391F219668817A
:101B7000662319F0A430B105CCF22F3F310509F0EE
:101B800054F4A430B1053CF4A40FB51F12962C9365
:101B900021E030E002C020E030E0C901DF91CF91C8
:101BA00008950F9386EC98E060E040E020E000E0CC
:101BB0000E942D200F9108952F923F924F925F9295
:101BC0006F927F928F929F92AF92BF92CF92DF924D
:101BD000EF92FF920F931F93DF93CF93CDB7DEB7B2
:101BE00069970FB6F894DEBF0FBECDBF4C018B01D5
:101BF0001A010E9475192B013C01F8E0EF2EF12C1F
:101C0000E80CF91C5801CC24DD2414C00E9475197D
:101C10006419750986099709A616B706C806D90674
:101C200018F42FEF3FEFF8C062E370E080E090E03F
:101C30000E948319C70181D4181619063CF7F401D4
:101C40002281338144815581818D928DA38DB48D04
:101C50008A879B87AC87BD87281739074A075B07A8
:101C600009F0D8C0858D968DC59709F0D3C0EEC018
:101C70008E01025F1F4FC701B8014CE050E011D444
:101C8000F801528143815B834A83F40126813781C5
:101C90008E859F852817390711F457FD05C0C701A8
:101CA000C9D32CEF3FEFB8C04F705270452B29F0CD
:101CB000C701C0D32BEF3FEFAFC0F801768067803C
:101CC0006114710441F0AA24BB2448012E01089438
:101CD000411C511C24C0C701ADD32AEF3FEF9CC06B
:101CE000C701B20141E050E0DCD38981882319F4B7
:101CF00007C0C701F8D38981815089838F5FC9F7F5
:101D00008981882369F700E010E0C701ECD30F5FF9
:101D10001F4F04301105C9F70894A11CB11CF40130
:101D2000D480C580AC14BD04D8F244245524C70126
:101D3000BE016F5F7F4F41E050E0B3D39981892F9F
:101D4000807C59F4992319F40BC0C701CCD3898145
:101D5000815089838F5FC9F703C0C701C4D319823B
:101D60008981882321F7C701BE016C5F7F4F42E064
:101D700050E097D3C701BE016A5F7F4F42E050E059
:101D800090D300E010E0C701AED30F5F1F4F0430C7
:101D90001105C9F7C701BE016E5F7F4F42E050E0F9
:101DA00080D3DC80CD80F1E0CF16D10401F5BE8078
:101DB000AF8081E0A816B104D1F49A818B81049799
:101DC00029F0C70137D327EF3FEF26C0E2E0F0E06C
:101DD0002E0E3F1EC701B10144E050E062D321E066
:101DE00030E01AC0C7017FD30F5F1F4F02C000E071
:101DF00010E09A808B8008151905A0F30894411C07
:101E0000511C4614570408F492CFC70113D326EF90
:101E10003FEF02C02EEF3FEFC90169960FB6F8946D
:101E2000DEBF0FBECDBFCF91DF911F910F91FF900D
:101E3000EF90DF90CF90BF90AF909F908F907F906A
:101E40006F905F904F903F902F9008958EE592E0B5
:101E500099878887C701D2D20C970CF009CF2DEF54
:101E60003FEFDACF6F927F928F929F92AF92BF92A5
:101E7000CF92DF92EF92FF920F931F93DF93CF9356
:101E800000D0CDB7DEB78C01F62EE72E0E94751973
:101E9000F80177836683B8E0CB2ED12CC00ED11E1B
:101EA0000A5F1F4FC601B80142E050E098D381E0BD
:101EB00090E09B838A83A2E08A2E912C8C0E9D1E3B
:101EC000C601B40142E050E08AD380E091E09B83F8
:101ED0008A83C601B40142E050E081D31B821A829A
:101EE000C601B40142E050E07AD3C601B40142E039
:101EF00050E075D3C601B40142E050E070D32F2DFD
:101F00003E2DC9018C017C013E010894611C711CAD
:101F10001EC00894E11CF11CF7018081882311F098
:101F20008E32B9F75701A01AB10A1A141B0464F4CF
:101F30008E2D801B8983C601B30141E050E04FD351
:101F4000C601B801A5014BD387010F5F1F4FF701F1
:101F50008081882311F07801DFCF1982C601BE018C
:101F60006F5F7F4F41E050E03AD300E011E01B8308
:101F70000A83C601B40142E050E031D31B830A83D7
:101F8000C601B40142E050E02AD381E090E00F9016
:101F90000F900F90CF91DF911F910F91FF90EF90D5
:101FA000DF90CF90BF90AF909F908F907F906F9079
:101FB00008958F929F92AF92BF92CF92DF92EF924D
:101FC000FF920F931F93DF93CF9300D000D0CDB734
:101FD000DEB76C017B014A019BDD892B19F001E022
:101FE00010E061C0F60122813381448155818091E6
:101FF000C8089091C908A091CA08B091CB082817C9
:1020000039074A075B0719F40EEF1FEF4CC018E0C1
:10201000A12EB12CAC0CBD1C0E9475199B01AC010A
:102020002F70307020503C4FC501B90191D38130E1
:1020300019F000E010E037C08EE592E09A838983C2
:10204000F60182819381A481B5818B839C83AD83CA
:10205000BE83C501BE016F5F7F4F45E350E0DCD218
:102060008C010097F1F0C601B701FCDE8C010097EE
:10207000C1F0C501CED28C01009799F0EE24FF2467
:10208000C60168E873E1A40197DD8C010894E11CA6
:10209000F11CF3E0EF16F10421F08FEF0F3F18076A
:1020A00079F3C50141D3C80126960FB6F894DEBF77
:1020B0000FBECDBFCF91DF911F910F91FF90EF9099
:1020C000DF90CF90BF90AF909F908F900895DB01ED
:1020D000FC012EE532E03183208312962D913D9153
:1020E0004D915C91159722833383448355830895E2
:1020F0000F938CED98E060E040E020E000E00E946B
:102100002D2084ED98E00E9494200F9108956F9205
:102110007F928F929F92AF92BF92CF92DF92EF9277
:10212000FF920F931F933C015B016A01490186EF07
:1021300098E061D689E090E0B50146E050E095D4A2
:1021400082E090E0C80ED91E8FE090E0B60144E036
:1021500050E08BD40E5F1F4F81E090E0B80144E067
:1021600050E083D4E2E0F0E0EE0EFF1E85E090E068
:10217000B70144E050E079D4F40182819381A481D5
:10218000B581F30182839383A483B5831F910F915B
:10219000FF90EF90DF90CF90BF90AF909F908F9087
:1021A0007F906F9008956F927F928F929F92AF92DF
:1021B000BF92CF92DF92EF92FF920F931F93DF9324
:1021C000CF93CDB7DEB76E970FB6F894DEBF0FBED4
:1021D000CDBF4C013B017A0169015801CE01019646
:1021E0006FEF4FEF2FEF00E00E942D202EE532E041
:1021F00038872F83F70182819381A481B5818987F4
:102200009A87AB87BC873E872D87F60182819381B1
:10221000A481B5818F87988BA98BBA8B3C8B2B8B34
:10222000F50182819381A481B5818D8B9E8BAF8BCB
:10223000B88F3A8F298F8B819C81AD81BE818B8F26
:102240009C8FAD8FBE8FC401B301AE01495F5F4F5C
:102250009E01235F3F4F8E010D5E1F4FE9E1EE2E81
:10226000F12CEC0EFD1E53DF6E960FB6F894DEBF18
:102270000FBECDBFCF91DF911F910F91FF90EF90D7
:10228000DF90CF90BF90AF909F908F907F906F9096
:1022900008950F931F93DF93CF93CDB7DEB7689761
:1022A0000FB6F894DEBF0FBECDBFFA01D90122816F
:1022B0003381448155812B833C834D835E83EEE5DE
:1022C000F2E0F887EF8329873A874B875C87FE87A0
:1022D000ED8712962D913D914D915C9115972F8729
:1022E000388B498B5A8BFC8BEB8B21E02E832B8117
:1022F0003C814D815E812D8B3E8B4F8B588FAE0183
:10230000495F5F4F9E01235F3F4F8E010D5E1F4F60
:102310004ADF68960FB6F894DEBF0FBECDBFCF91EF
:10232000DF911F910F910895DF93CF93CDB7DEB763
:1023300062970FB6F894DEBF0FBECDBFFA012281BF
:102340003381448155812B833C834D835E83EEE54D
:10235000F2E0F887EF8329873A874B875C87FE870F
:10236000ED8721E02E832B813C814D815E812F877B
:10237000388B498B5A8BAE01495F5F4F9E01235FBB
:102380003F4F87DF62960FB6F894DEBF0FBECDBF1A
:10239000CF91DF9108950F9382EE98E060E040E0E6
:1023A00020E000E00E942D200F9108950F9388EE09
:1023B00098E060E040E020E000E00E942D200F91D6
:1023C0000895DC01ED91FC91008CF18DE02D1995C3
:1023D0000895DB01FC012EE532E031832083519624
:1023E0002D913D914D915C91549722833383448389
:1023F00055830895FC01858996890895FC01818D96
:10240000928D0895DF93CF930F92CDB7DEB7FC0185
:102410006983A081B18112962D913C911397BE01E1
:102420006F5F7F4F41E050E0F90119950F90CF9118
:10243000DF910895CF93DF93EC0107C0E881F98124
:102440000680F781E02DCE011995898D9A8D892B13
:10245000A9F7DF91CF9108950F938EEE98E060E099
:1024600040E020E000E00E942D200F910895DF93CE
:10247000CF930F92CDB7DEB7FC01818D928D892B62
:1024800019F42FEF3FEF08C08485BE016F5F7F4FC7
:1024900087D28981282F30E0C9010F90CF91DF9139
:1024A0000895CF93DF93EC019A01498D5A8D411520
:1024B000510599F02417350710F08C8502C08C85E2
:1024C000A9017CD29C01181619063CF4898D9A8DBD
:1024D000821B930B9A8F898F02C02FEF3FEFC901A8
:1024E000DF91CF9108950F931F93DF93CF930F92B6
:1024F000CDB7DEB78C01FC01818D928D892BA1F0C7
:102500008485BE016F5F7F4F41E050E057D21816BF
:10251000190654F4F801818D928D0197928F818F65
:102520008981282F30E002C02FEF3FEFC9010F90C3
:10253000CF91DF911F910F910895EF92FF920F932A
:102540001F93DF93CF93CDB7DEB728970FB6F894DC
:10255000DEBF0FBECDBF8C01DC01ED91FC9102848A
:10256000F385E02D199586EF98E0F801648544D352
:10257000892B19F420E030E024C0D8011C968C91FE
:102580007E010894E11CF11CB70148E050E016D22E
:102590009C0118161906ACF4C8010F96B7010E94E9
:1025A00087209D8180E02E81820F911DF801968BFE
:1025B000858B9F8180E02885820F911D928F818F6E
:1025C0009C01C90128960FB6F894DEBF0FBECDBF9F
:1025D000CF91DF911F910F91FF90EF9008950F938E
:1025E0001F938C01FB019A01DC0157966D917C9140
:1025F00058971C968C91AF01A6D19C01F801878950
:10260000908D820F931F908F878BC9011F910F911F
:102610000895FC018485E1C0FC01108E178A6E5F6D
:102620007F4F848567C1FC011382128288EE93E09C
:10263000A0E0B0E084839583A683B7838AE292E02A
:102640009183808384E08487CF010F960C9494203B
:102650006F927F928F929F92AF92BF92CF92DF92B2
:10266000EF92FF920F931F93DF93CF93CDB7DEB717
:10267000E5970FB6F894DEBF0FBECDBF4C015B01EE
:102680003A0183E1E82EF12CEC0EFD1EC7010E94F9
:102690009420CE014B96C7DF6E010894C11CD11C5B
:1026A000C6010E9494208E01095F1F4FC80164ED8E
:1026B00078E00DDDC701B8011DDAC701B501A6013B
:1026C00078DC9C0181309105C9F4D401ED91FC9135
:1026D0000088F189E02D8EE592E09E878D878B81C1
:1026E0009C81AD81BE818F87988BA98BBA8BC401E9
:1026F000BE01635F7F4FA30119959C01C901E59657
:102700000FB6F894DEBF0FBECDBFCF91DF911F9102
:102710000F91FF90EF90DF90CF90BF90AF909F9080
:102720008F907F906F900895CF93DF93EC018C850D
:10273000843059F071D0EC85F0E0EE0FFF1FE453C8
:10274000F74F1182108284E08C87DF91CF9108953A
:10275000CF92DF92EF92FF920F931F93CF93DF936D
:102760007C016B01FC018485843009F5C0E0D0E078
:1027700003E014E0C801A0D1882311F0883119F4D6
:10278000F701C48706C0219600501F4FC430D10501
:1027900089F7F7018485843051F0D686C586128E7C
:1027A000118E62E0A60120E070D081E001C080E0DF
:1027B000DF91CF911F910F91FF90EF90DF90CF901D
:1027C000089590E0982F88278E5F9B4F75C190E009
:1027D000982F88278E5F9B4F2EC11F93182F86EF4F
:1027E00098E0612F40E250E0F6D20AC0812FE9DF85
:1027F00083FF06C0812F68E1EADF20E030E009C0F6
:10280000812FDFDF84FFF2CF812F60E1E0DF21E065
:1028100030E0C9011F9108951F93182F86EF98E0AB
:10282000612F40E150E0D7D2812F6FEFD0DF1F91B1
:102830000895FF920F931F93F62E672F082F10E035
:102840000C5F1F4F102F0027C8014096F4D0C8011D
:1028500041966F2DF0D01F910F91FF900895FF9238
:102860000F931F93F62E672F082F10E00C5F1F4F5A
:10287000102F0027C8010496DED0C80105966F2DE1
:10288000DAD01F910F91FF900895FF920F931F933D
:10289000CF93DF93082FF62EEA01122F862F815057
:1028A000853010F080E020C0802FB6DF1F2980E047
:1028B000902F9C5F612FBFD0209719F0802FBE0111
:1028C0000BC06091F4087091F5086F5F7F4F7093B3
:1028D000F5086093F408802FC2DF86EF98E0602F40
:1028E00041E050E078D281E0DF91CF911F910F91CC
:1028F000FF9008951F93CF93DF93182FFB01EA01F8
:102900008081882349F48181882331F4828188235E
:1029100019F48381882381F0209771F0912F80E052
:10292000845F9B4FBF0144E050E09FD0812FBE01E8
:1029300080DF21E030E002C020E030E0C901DF911B
:10294000CF911F910895AF92BF92DF92EF92FF92C5
:102950000F931F93CF93DF93D82EEB015A01890178
:1029600086EF98E06D2D77D18017910710F07801F0
:1029700005C086EF98E06D2D6ED17C0186EF98E062
:102980006D2DAE0195018701B7D0C701DF91CF91C1
:102990001F910F91FF90EF90DF90BF90AF9008953F
:1029A0000F93282FAB0186EF98E0622F21E030E0F3
:1029B00001E0CBD181E090E00F910895CF92DF92BA
:1029C000FF920F931F93CF93DF93F82E6B018A0131
:1029D00086EF98E06F2D10D1EC01009761F49F2DE8
:1029E00080E08D5F9B4F68D08431C9F08823B9F0B7
:1029F0008C31A9F01DC0081719070CF4E8011C164A
:102A00001D066CF486EF98E06F2DA6019E0100E094
:102A10009CD186EF98E06F2D40E450E0DCD1CE01F0
:102A2000DF91CF911F910F91FF90DF90CF9008958C
:102A3000CFEFDFEFF4CF282F2C9880EF8EBD0DB4B1
:102A400007FEFDCF8EB59EBD0DB407FEFDCF8EB542
:102A50002EBD0DB407FEFDCF8EB56EBD0DB407FEC5
:102A6000FDCF8EB52C9A81E00895DC0120E030E0A6
:102A700090EF1DC02C989EBD0DB407FEFDCF8EB506
:102A8000BEBD0DB407FEFDCF8EB5AEBD0DB407FEC5
:102A9000FDCF8EB5FB01E20FF31F80818EBD0DB41B
:102AA00007FEFDCF11968EB52C9A2F5F3F4F24174E
:102AB000350700F3CA010895282F2C988FE08EBDAA
:102AC0000DB407FEFDCF8EB59EBD0DB407FEFDCF44
:102AD0008EB52EBD0DB407FEFDCF8EB51EBC0DB458
:102AE00007FEFDCF8EB52C9A089590E00496982F9E
:102AF0008827860F971FE0CF7F928F929F92AF9289
:102B0000BF92CF92DF92EF92FF920F931F93CF93DA
:102B1000DF936C01762E7A0149015801862F64E219
:102B200070E0E3DF182F872D65E270E0DEDFC82F4D
:102B3000D0E0912F80E0C82BD92BCE0DDF1DAE0148
:102B40005770872D90E0880F991FC80ED91EF60187
:102B500020813181240F351FCA018A0D9B1D8150B0
:102B6000984090F000E018E0041B150BC901B40177
:102B7000A8017BDFA501401B510BF60180819181EB
:102B8000080D191DB80103C0C901B401A5016DDF0D
:102B90007E01EA0CFB1C072D10E00C5F1F4F102F6D
:102BA0000027C80184966F2D46DFC80185966E2DDB
:102BB00042DFDF91CF911F910F91FF90EF90DF9057
:102BC000CF90BF90AF909F908F907F9008950F937C
:102BD0001F93182F66E270E088DF082F812F67E2CD
:102BE00070E083DF502F40E0282F30E0242B352B7E
:102BF000C9011F910F910895FF920F931F93CF93D7
:102C0000DF93F62EC0E0D0E08F2DE1DF8C0100973E
:102C100019F08F2DDCDFEC01C017D107A9F7CE0129
:102C2000DF91CF911F910F91FF9008950F931F9304
:102C3000182F60E270E059DF082F812F61E270E009
:102C400054DF502F40E0282F30E0242B352BC901D2
:102C50001F910F910895FF920F931F93CF93DF93CE
:102C6000F62EC0E0D0E08F2DE1DF8C01009719F047
:102C70008F2DDCDFEC01C017D107A9F7CE01DF9162
:102C8000CF911F910F91FF900895DC0120E030E07B
:102C90009FE01DC02C989EBD0DB407FEFDCF8EB5E4
:102CA000BEBD0DB407FEFDCF8EB5AEBD0DB407FEA3
:102CB000FDCF8EB51EBC0DB407FEFDCF11968EB5AF
:102CC000FB01E20FF31F80832C9A2F5F3F4F2417E5
:102CD000350700F3CA010895CF92DF92EF92FF9279
:102CE0000F931F93CF93DF93690178015770C62F1D
:102CF000D0E02496CC0FDD1FC80FD91F2881398161
:102D0000240F351FC801840F951F8150984080F013
:102D100000E018E0041B150BC901B601A801B5DFDE
:102D2000E01AF10A888199810C0D1D1DB80102C0BD
:102D3000C901B601A701A9DFDF91CF911F910F91C2
:102D4000FF90EF90DF90CF9008958F929F92AF9277
:102D5000BF92CF92DF92EF92FF920F931F93CF9388
:102D6000DF937C01A62E6A014901B02E862F68E20E
:102D700070E0BBDE182F8A2D69E270E0B6DEC82F46
:102D8000D0E0912F80E0C82BD92BC7016A2DAE016E
:102D900096018401A1DFBB2089F47E01E80CF91CB7
:102DA0000A2D10E00C5F1F4F102F0027C8018896D6
:102DB0006F2D41DEC80189966E2D3DDEDF91CF91EA
:102DC0001F910F91FF90EF90DF90CF90BF90AF9049
:102DD0009F908F9008951F93162F962F80E08F5FFE
:102DE0009B4F642F28DE812F61E070E07EDE882318
:102DF000D1F71F9108950F931F93182F092F6CE29D
:102E000071E080E090E07FD20E94590D249A80E02A
:102E100090E060E810DE8BE190E065E50CDE8AE191
:102E200090E065E508DE212F302FC901FC0180E02C
:102E300090E4918380838050904E9187808780506A
:102E40009841329620E68030920799F71F910F91B2
:102E50000895883008F078C0E82FF0E0EE0FFF1FEB
:102E6000EA5FF64F718360838330D9F0843030F4A9
:102E7000813009F444C0823060F439C0853051F1AA
:102E80008530D8F0863009F446C0873009F05CC040
:102E90004FC0809169008C7F842B80936900E89AF1
:102EA000089580916900440F551F440F551F837F7B
:102EB000842B80936900E99A08958091690074E0F9
:102EC000440F551F7A95E1F78F7C842B809369001E
:102ED000EA9A08958091690066E0440F551F6A954B
:102EE000E1F78F73842B80936900EB9A08958091AA
:102EF0006A008C7F842B80936A00EC9A08958091FD
:102F00006A00440F551F440F551F837F842B809305
:102F10006A00ED9A089580916A0024E0440F551FDD
:102F20002A95E1F78F7C842B80936A00EE9A0895AE
:102F300080916A0096E0440F551F9A95E1F78F73D0
:102F4000842B80936A00EF9A08951F920F920FB618
:102F50000F920BB60F9211242F933F934F935F93D1
:102F60006F937F938F939F93AF93BF93EF93FF9351
:102F700080910A0990910B09892B29F0E0910A09A7
:102F8000F0910B091995FF91EF91BF91AF919F912E
:102F90008F917F916F915F914F913F912F910F9002
:102FA0000BBE0F900FBE0F901F9018951F920F929F
:102FB0000FB60F920BB60F9211242F933F934F939E
:102FC0005F936F937F938F939F93AF93BF93EF9391
:102FD000FF9380910C0990910D09892B29F0E091C4
:102FE0000C09F0910D091995FF91EF91BF91AF91E7
:102FF0009F918F917F916F915F914F913F912F9111
:103000000F900BBE0F900FBE0F901F9018951F9240
:103010000F920FB60F920BB60F9211242F933F937E
:103020004F935F936F937F938F939F93AF93BF93D0
:10303000EF93FF9380910E0990910F09892B29F04E
:10304000E0910E09F0910F091995FF91EF91BF9151
:10305000AF919F918F917F916F915F914F913F9130
:103060002F910F900BBE0F900FBE0F901F901895D1
:103070001F920F920FB60F920BB60F9211242F933F
:103080003F934F935F936F937F938F939F93AF93F0
:10309000BF93EF93FF938091100990911109892BB1
:1030A00029F0E0911009F09111091995FF91EF9124
:1030B000BF91AF919F918F917F916F915F914F9150
:1030C0003F912F910F900BBE0F900FBE0F901F904E
:1030D00018951F920F920FB60F920BB60F921124F4
:1030E0002F933F934F935F936F937F938F939F9310
:1030F000AF93BF93EF93FF938091060990910709D7
:10310000892B29F0E0910609F09107091995FF91A3
:10311000EF91BF91AF919F918F917F916F915F914F
:103120004F913F912F910F900BBE0F900FBE0F90BC
:103130001F9018951F920F920FB60F920BB60F9219
:1031400011242F933F934F935F936F937F938F93AC
:103150009F93AF93BF93EF93FF9380910809909152
:103160000909892B29F0E0910809F09109091995BD
:10317000FF91EF91BF91AF919F918F917F916F914F
:103180005F914F913F912F910F900BBE0F900FBE0B
:103190000F901F9018951F920F920FB60F920BB6BB
:1031A0000F9211242F933F934F935F936F937F93CD
:1031B0008F939F93AF93BF93EF93FF9380911209E7
:1031C00090911309892B29F0E0911209F0911309CC
:1031D0001995FF91EF91BF91AF919F918F917F9141
:1031E0006F915F914F913F912F910F900BBE0F9078
:1031F0000FBE0F901F9018951F920F920FB60F924F
:103200000BB60F9211242F933F934F935F936F93BD
:103210007F938F939F93AF93BF93EF93FF9380918F
:10322000140990911509892B29F0E0911409F09166
:1032300015091995FF91EF91BF91AF919F918F91D2
:103240007F916F915F914F913F912F910F900BBEA6
:103250000F900FBE0F901F9018951F920F920FB6F0
:103260000F9211242F933F938F939F93AF93BF930C
:1032700080911A0990911B09A0911C09B0911D0918
:1032800030911E090196A11DB11D232F2D5F2D37F1
:1032900020F02D570196A11DB11D20931E0980938A
:1032A0001A0990931B09A0931C09B0931D098091E2
:1032B000160990911709A0911809B0911909019662
:1032C000A11DB11D8093160990931709A0931809A9
:1032D000B0931909BF91AF919F918F913F912F9119
:1032E0000F900FBE0F901F9018958FB7F8942091F4
:1032F0001A0930911B0940911C0950911D098FBF7B
:10330000B901CA0108959B01AC017FB7F89480917F
:10331000160990911709A0911809B091190966B57D
:10332000A89B05C06F3F19F00196A11DB11D7FBF7D
:10333000BA2FA92F982F8827860F911DA11DB11D87
:1033400062E0880F991FAA1FBB1F6A95D1F7BC01C5
:103350002DC0FFB7F8948091160990911709A0919C
:103360001809B0911909E6B5A89B05C0EF3F19F0FF
:103370000196A11DB11DFFBFBA2FA92F982F882735
:103380008E0F911DA11DB11DE2E0880F991FAA1F8C
:10339000BB1FEA95D1F7861B970B885E9340C8F256
:1033A000215030404040504068517C4F211531053C
:1033B0004105510571F60895789484B5826084BD05
:1033C00084B5816084BD85B5826085BD85B5816029
:1033D00085BDEEE6F0E0808181608083E1E8F0E089
:1033E0001082808182608083808181608083E0E8B8
:1033F000F0E0808181608083E1EBF0E08081846097
:103400008083E0EBF0E0808181608083E1E9F0E09F
:10341000808182608083808181608083E0E9F0E048
:10342000808181608083E1EAF0E080818260808336
:10343000808181608083E0EAF0E080818160808328
:10344000E1E2F1E08081826080838081816080831D
:10345000E0E2F1E0808181608083EAE7F0E0808152
:1034600084608083808182608083808181608083AA
:103470008081806880831092C1000895382F863340
:1034800008F0365320917B00832F8695869586958C
:1034900090E08170907043E0880F991F4A95E1F7A2
:1034A000277F282B20937B003770809125028295FF
:1034B000880F880F807C832B80937C0080917A001A
:1034C000806480937A0080917A0086FDFCCF209101
:1034D000780040917900942F80E030E0282B392B40
:1034E000C9010895CF93DF93482F50E0CA0188584F
:1034F0009E4FFC0134914E5C5E4FFA01849188230B
:1035000069F190E0880F991FFC01EC51FF4FA591E4
:10351000B491FC01E250FF4FC591D491662351F460
:103520002FB7F8948C91932F909589238C93888151
:1035300089230BC0623061F42FB7F8948C91932FDC
:10354000909589238C938881832B88832FBF06C015
:103550009FB7F8948C91832B8C939FBFDF91CF9171
:103560000895893009F449C08A30A0F4843051F1BB
:10357000853040F4823079F1833000F5813009F0F4
:1035800063C026C0873079F1883098F5863009F01D
:103590005BC025C08D3009F442C08E3028F48B30DA
:1035A000B1F18C30C0F52DC0803109F442C08131B9
:1035B00009F445C08F3009F047C037C080918000C2
:1035C0008F7703C0809180008F7D80938000089565
:1035D00084B58F7702C084B58F7D84BD08958091B6
:1035E000B0008F7703C08091B0008F7D8093B000D2
:1035F0000895809190008F7707C0809190008F7D13
:1036000003C080919000877F8093900008958091FF
:10361000A0008F7707C08091A0008F7D03C08091AC
:10362000A000877F8093A0000895809120018F776C
:1036300003C0809120018F7D8093200108958091A7
:103640002001877F809320010895FF920F931F939D
:10365000F62E482F50E0CA0182549E4FFC0124915F
:10366000CA0188589E4FFC0114914E5C5E4FFA01CE
:1036700004910023C1F0222311F0822F72DFE02F8A
:10368000F0E0EE0FFF1FE250FF4FA591B4919FB7FE
:10369000F894FF2021F48C911095812302C08C9125
:1036A000812B8C939FBF1F910F91FF9008950F93D3
:1036B0001F93482F50E0CA0182549E4FFC01249171
:1036C000CA0188589E4FFC0104914E5C5E4FFA017E
:1036D0001491112319F420E030E014C0222311F0DA
:1036E000822F3FDF812F90E0880F991F885E9E4FC9
:1036F000FC01A591B4918C9120E030E0802311F081
:1037000021E030E0C9011F910F91089508951F92A3
:103710000F920FB60F920BB60F9211242F933F9377
:103720004F938F939F93EF93FF938091C00082FDFF
:103730001DC04091C60020915F09309160092F5F44
:103740003F4F2F7330708091610990916209281763
:10375000390771F0E0915F09F0916009E15EF64F81
:1037600040833093600920935F0902C08091C600B6
:10377000FF91EF919F918F914F913F912F910F90DA
:103780000BBE0F900FBE0F901F90189508951F92BB
:103790000F920FB60F920BB60F9211242F933F93F7
:1037A0004F938F939F93EF93FF938091C80082FD77
:1037B0001DC04091CE002091E7093091E8092F5FAC
:1037C0003F4F2F7330708091E9099091EA092817D3
:1037D000390771F0E091E709F091E809E955F64FF2
:1037E00040833093E8092093E70902C08091CE001E
:1037F000FF91EF919F918F914F913F912F910F905A
:103800000BBE0F900FBE0F901F90189508951F923A
:103810000F920FB60F920BB60F9211242F933F9376
:103820004F938F939F93EF93FF938091D00082FDEE
:103830001DC04091D60020916F0A3091700A2F5F11
:103840003F4F2F7330708091710A9091720A281740
:10385000390771F0E0916F0AF091700AE15DF54F60
:1038600040833093700A20936F0A02C08091D60083
:10387000FF91EF919F918F914F913F912F910F90D9
:103880000BBE0F900FBE0F901F90189508951F92BA
:103890000F920FB60F920BB60F9211242F933F93F6
:1038A0004F938F939F93EF93FF938091300182FD0D
:1038B0001DC0409136012091F70A3091F80A2F5F20
:1038C0003F4F2F7330708091F90A9091FA0A2817B0
:1038D000390771F0E091F70AF091F80AE954F54FD1
:1038E00040833093F80A2093F70A02C08091360192
:1038F000FF91EF919F918F914F913F912F910F9059
:103900000BBE0F900FBE0F901F901895E0914B0BC0
:10391000F0914C0BE05CFF4F8191919120813181BE
:10392000821B930B8F739070892B09F0EFDEE0916F
:103930006D0BF0916E0BE05CFF4F819191912081B6
:103940003181821B930B8F739070892B09F01EDFDE
:10395000E0918F0BF091900BE05CFF4F8191919182
:1039600020813181821B930B8F739070892B09F01A
:103970004DDFE091B10BF091B20BE05CFF4F819114
:10398000919120813181821B930B8F739070892BD1
:1039900009F07CCF08951F920F920FB60F920BB6CD
:1039A0000F9211242F933F938F939F93EF93FF9345
:1039B0002091A3093091A4098091A5099091A609AD
:1039C0002817390731F48091C1008F7D8093C100A1
:1039D00014C0E091A509F091A609ED59F64F208198
:1039E0008091A5099091A60901968F73907090938C
:1039F000A6098093A5092093C600FF91EF919F919E
:103A00008F913F912F910F900BBE0F900FBE0F9093
:103A10001F9018951F920F920FB60F920BB60F9230
:103A200011242F933F938F939F93EF93FF932091B4
:103A30002B0A30912C0A80912D0A90912E0A28177A
:103A4000390731F48091C9008F7D8093C90014C07B
:103A5000E0912D0AF0912E0AE551F64F20818091D8
:103A60002D0A90912E0A01968F73907090932E0AD2
:103A700080932D0A2093CE00FF91EF919F918F911B
:103A80003F912F910F900BBE0F900FBE0F901F9084
:103A900018951F920F920FB60F920BB60F9211242A
:103AA0002F933F938F939F93EF93FF932091B30AAC
:103AB0003091B40A8091B50A9091B60A2817390757
:103AC00031F48091D1008F7D8093D10014C0E091BA
:103AD000B50AF091B60AED58F54F20818091B50AEC
:103AE0009091B60A01968F7390709093B60A809366
:103AF000B50A2093D600FF91EF919F918F913F914E
:103B00002F910F900BBE0F900FBE0F901F90189526
:103B10001F920F920FB60F920BB60F9211242F9394
:103B20003F938F939F93EF93FF9320913B0B3091A3
:103B30003C0B80913D0B90913E0B2817390731F4D7
:103B4000809131018F7D8093310114C0E0913D0B54
:103B5000F0913E0BE550F54F208180913D0B909107
:103B60003E0B01968F73907090933E0B80933D0BAC
:103B700020933601FF91EF919F918F913F912F916B
:103B80000F900BBE0F900FBE0F901F901895AF9225
:103B9000BF92DF92EF92FF920F931F93CF93DF9329
:103BA000EC017A018B01DD24403081EE580780E082
:103BB000680780E0780711F0DD24D39491E0A92E06
:103BC000B12CEC89FD89DD2069F0C50108A002C097
:103BD000880F991F0A94E2F7808360E079E08DE313
:103BE00090E005C0108260E874E88EE190E0A801E2
:103BF00097019FD521503040404050405695479501
:103C00003795279580E12030380720F0DD2011F02E
:103C1000DD24D7CFE889F9893083EA89FB892083BD
:103C200019A2EE89FF89408121E030E0C9010C8CA6
:103C300002C0880F991F0A94E2F7482B4083EE894F
:103C4000FF894081C9010D8C02C0880F991F0A9419
:103C5000E2F7482B4083EE89FF894081C9010E8C31
:103C600002C0880F991F0A94E2F7482B4083EE891F
:103C7000FF8980810F8C02C0220F331F0A94E2F764
:103C8000209528232083DF91CF911F910F91FF90E2
:103C9000EF90DF90BF90AF900895DC011C96ED91FE
:103CA000FC911D97E05CFF4F2191319180819181C2
:103CB000281B390B2F733070C9010895DC011C9645
:103CC000ED91FC911D97E05CFF4F20813181E05424
:103CD000F040DF01AE5BBF4F8D919C91119728178B
:103CE000390719F42FEF3FEF07C08D919C91E80F32
:103CF000F91F8081282F30E0C9010895DC011C964E
:103D0000ED91FC911D97E05CFF4F20813181E054E3
:103D1000F040DF01AE5BBF4F8D919C91119728174A
:103D2000390719F42FEF3FEF10C08D919C91119737
:103D3000E80FF91F20818D919C91119701968F7347
:103D4000907011969C938E9330E0C9010895DC0128
:103D500091968C919197882339F05496ED91FC912E
:103D60005597808186FFF9CF91961C920895CF9345
:103D7000DF93EC01EE85FF85E05CFF4F2081318110
:103D8000E054F0402F5F3F4F2F733070DF01AE5B88
:103D9000BF4F8D919C91119728173907D1F3E05CA3
:103DA000FF4F80819181E054F040E80FF91F60835C
:103DB000EE85FF85E05CFF4F31832083EE89FF892C
:103DC000208181E090E00F8C02C0880F991F0A9437
:103DD000E2F7282B208381E089A3EC89FD8980818B
:103DE0008064808381E090E0DF91CF9108951F93FC
:103DF0001092420B1092410B28EE33E040E050E06D
:103E00002093430B3093440B4093450B5093460B48
:103E10006EE472E07093400B60933F0B8FE199E08A
:103E200090934C0B80934B0B83E699E090934E0B51
:103E300080934D0B85EC90E09093500B80934F0B4B
:103E400084EC90E09093520B8093510B80EC90E0C7
:103E50009093540B8093530B81EC90E09093560B0E
:103E60008093550B82EC90E09093580B8093570B06
:103E700086EC90E090935A0B8093590B14E01093CA
:103E80005B0BB3E0B0935C0BA7E0A0935D0BF5E098
:103E9000F0935E0BE1E0E0935F0B1092640B1092E5
:103EA000630B2093650B3093660B4093670B509325
:103EB000680B7093620B6093610B87EA99E09093B3
:103EC0006E0B80936D0B8BEE99E09093700B80934B
:103ED0006F0B8DEC90E09093720B8093710B8CECD8
:103EE00090E09093740B8093730B88EC90E0909328
:103EF000760B8093750B89EC90E09093780B809310
:103F0000770B8AEC90E090937A0B8093790B8EEC90
:103F100090E090937C0B80937B0B10937D0BB09380
:103F20007E0BA0937F0BF093800BE093810B10929C
:103F3000860B1092850B2093870B3093880B409350
:103F4000890B50938A0B7093840B6093830B8FE2E1
:103F50009AE09093900B80938F0B83E79AE0909375
:103F6000920B8093910B85ED90E09093940B80934E
:103F7000930B84ED90E09093960B8093950B80EDDE
:103F800090E09093980B8093970B81ED90E0909345
:103F90009A0B8093990B82ED90E090939C0B809309
:103FA0009B0B86ED90E090939E0B80939D0B10935E
:103FB0009F0BB093A00BA093A10BF093A20BE093E7
:103FC000A30B1092A80B1092A70B2093A90B309370
:103FD000AA0B4093AB0B5093AC0B7093A60B609362
:103FE000A50B87EB9AE09093B20B8093B10B8BEF0C
:103FF0009AE09093B40B8093B30B85E391E0909398
:10400000B60B8093B50B84E391E09093B80B80934B
:10401000B70B80E391E09093BA0B8093B90B81E3E7
:1040200091E09093BC0B8093BB0B82E391E0909363
:10403000BE0B8093BD0B86E391E09093C00B809301
:10404000BF0B1093C10BB093C20BA093C30BF093A3
:10405000C40BE093C50B1F9108950F93FC018EE5EF
:1040600092E09183808362834383248305830F914D
:1040700008958EE592E09093C80B8093C70B109241
:10408000C90B1092CA0B1092CB0B1092CC0B089557
:104090008F929F92AF92BF92CF92DF92EF92FF9258
:1040A0000F931F93CF93DF934C016B017C01AA24E4
:1040B000BB24C0E0D0E0C601F70162814AE050E0D5
:1040C00006D18C01C6016EE270D0080F191FA00E38
:1040D000B11E21960894E11CF11CC330D10559F79B
:1040E000C601F40165814AE050E0F1D09501280F46
:1040F000391FC901DF91CF911F910F91FF90EF9070
:10410000DF90CF90BF90AF909F908F9008959C01CB
:10411000FB0180819181A281B381F9018283938324
:10412000A483B583C9010895FC018EE592E09183D3
:10413000808312821382148215820895CF93DF93B5
:104140003BD90E944F09C6E8DCE10E94200D209770
:10415000E1F3DCDBFACFCF92DF92EF92FF920F9385
:104160001F93CF93DF937C016B018A01C0E0D0E005
:104170000FC0D6016D916D01D701ED91FC910190B9
:10418000F081E02DC7011995C80FD91F01501040CB
:104190000115110571F7CE01DF91CF911F910F919C
:1041A000FF90EF90DF90CF900895DC01ED91FC91AE
:1041B0000190F081E02D19950895CF93DF93EC01E4
:1041C0006115710519F420E030E00FC0DB010D909E
:1041D0000020E9F71197A61BB70BE881F98102804F
:1041E000F381E02DAD0119959C01C901DF91CF91BB
:1041F00008954F925F927F928F929F92AF92BF925B
:10420000CF92DF92EF92FF920F931F93DF93CF93A2
:10421000CDB7DEB7A1970FB6F894DEBF0FBECDBF06
:104220002C01742ECB01223008F42AE019A231E2CD
:10423000C32ED12CCC0EDD1E822E9924AA24BB24A1
:10424000672D752FA501940174D279018A01C801E7
:10425000B701A50194013BD2472D461B0894C10824
:10426000D1084A3014F4405D01C0495CF601408336
:10427000E114F1040105110521F07E2C5F2DC80128
:10428000DFCFC201B60199DFA1960FB6F894DEBF69
:104290000FBECDBFCF91DF911F910F91FF90EF9097
:1042A000DF90CF90BF90AF909F908F907F905F9066
:1042B0004F900895DC012115310541F4ED91FC91F9
:1042C0000190F081E02D642F1995089592CFEF921F
:1042D000FF920F931F939A01E62EFF2400E010E057
:1042E000B801A701E7DF1F910F91FF90EF900895AC
:1042F0005058BB27AA270ED04DC13ED130F043D134
:1043000020F031F49F3F11F41EF433C10EF4E09518
:10431000E7FB29C1E92F4FD180F3BA176207730772
:104320008407950718F071F49EF567C10EF4E095C7
:104330000B2EBA2FA02D0B01B90190010C01CA015F
:10434000A0011124FF27591B99F0593F50F4503E0A
:1043500068F11A16F040A22F232F342F4427585FFC
:10436000F3CF469537952795A795F0405395C9F714
:104370007EF41F16BA0B620B730B840BBAF09150CC
:10438000A1F0FF0FBB1F661F771F881FC2F70EC06B
:10439000BA0F621F731F841F48F48795779567953E
:1043A000B795F7959E3F08F0B3CF9395880F08F027
:1043B0009927EE0F9795879508950CD0EBC0E3D021
:1043C00040F0DAD030F021F45F3F19F0CCC0511149
:1043D00015C1CFC0F0D098F39923C9F35523B1F399
:1043E000951B550BBB27AA2762177307840738F064
:1043F0009F5F5F4F220F331F441FAA1FA9F333D0C3
:104400000E2E3AF0E0E830D091505040E695001C76
:10441000CAF729D0FE2F27D0660F771F881FBB1F32
:10442000261737074807AB07B0E809F0BB0B802D0C
:10443000BF01FF2793585F4F2AF09E3F510568F058
:1044400092C0DCC05F3FECF3983EDCF38695779535
:104450006795B795F7959F5FC9F7880F911D96955A
:10446000879597F90895E1E0660F771F881FBB1FB6
:10447000621773078407BA0720F0621B730B840B63
:10448000BA0BEE1F88F7E095089504D06894B11137
:10449000B5C0089598D088F09F5790F0B92F99270C
:1044A000B751A0F0D1F0660F771F881F991F1AF03F
:1044B000BA95C9F712C0B13081F09FD0B1E008952C
:1044C0009CC0672F782F8827B85F39F0B93FCCF3AD
:1044D000869577956795B395D9F73EF49095809535
:1044E000709561957F4F8F4F9F4F0895E89409C055
:1044F00097FB3EF490958095709561957F4F8F4F17
:104500009F4F9923A9F0F92F96E9BB279395F6952C
:10451000879577956795B795F111F8CFFAF4BB0FAA
:1045200011F460FF1BC06F5F7F4F8F4F9F4F16C00E
:10453000882311F096E911C0772321F09EE8872F98
:10454000762F05C0662371F096E8862F70E060E054
:104550002AF09A95660F771F881FDAF7880F9695CD
:10456000879597F9089597F99F6780E870E060E074
:1045700008959FEF80EC089500240A9416161706FC
:1045800018060906089500240A9412161306140644
:1045900005060895092E0394000C11F4882352F0A7
:1045A000BB0F40F4BF2B11F460FF04C06F5F7F4F5F
:1045B0008F4F9F4F089557FD9058440F551F59F046
:1045C0005F3F71F04795880F97FB991F61F09F3F00
:1045D00079F087950895121613061406551FF2CF29
:1045E0004695F1DF08C0161617061806991FF1CF79
:1045F00086957105610508940895E894BB276627A0
:104600007727CB0197F908950BD0C4CFB5DF28F0F9
:10461000BADF18F0952309F0A6CFABCF1124EECF67
:10462000CADFA0F3959FD1F3950F50E0551F629F0D
:10463000F001729FBB27F00DB11D639FAA27F00DFB
:10464000B11DAA1F649F6627B00DA11D661F829F22
:104650002227B00DA11D621F739FB00DA11D621F07
:10466000839FA00D611D221F749F3327A00D611D24
:10467000231F849F600D211D822F762F6A2F112406
:104680009F5750408AF0E1F088234AF0EE0FFF1F59
:10469000BB1F661F771F881F91505040A9F79E3F90
:1046A000510570F060CFAACF5F3FECF3983EDCF38A
:1046B000869577956795B795F795E7959F5FC1F7CD
:1046C000FE2B880F911D9695879597F90895629F07
:1046D000D001739FF001829FE00DF11D649FE00DFA
:1046E000F11D929FF00D839FF00D749FF00D659F5B
:1046F000F00D9927729FB00DE11DF91F639FB00D5A
:10470000E11DF91FBD01CF011124089597FB092E6A
:1047100007260AD077FD04D02ED006D000201AF448
:10472000709561957F4F0895F6F7909581959F4F0D
:104730000895A1E21A2EAA1BBB1BFD010DC0AA1FE2
:10474000BB1FEE1FFF1FA217B307E407F50720F0FA
:10475000A21BB30BE40BF50B661F771F881F991F75
:104760001A9469F760957095809590959B01AC01BE
:10477000BD01CF010895AA1BBB1B51E107C0AA1FB1
:10478000BB1FA617B70710F0A61BB70B881F991FF2
:104790005A95A9F780959095BC01CD010895EE0F2B
:0E47A000FF1F0590F491E02D1994F894FFCFBF
:1047AE00DEADBEEFFE76A25406000600E8030D0055
:1047BE0011001C0012001A00130008000000003F38
:1047CE000A0100FF0F01000000000212EF12FE119D
:1047DE00731237121A12A81394130C1328130913F9
:1047EE009D125112E111E911FA1100000000B71EDD
:1047FE00AB204D1E7E1E5E1EA71E00000000482030
:00000001FF
